{
	"data": {
		"bytecode": {
			"linkReferences": {},
			"object": "6080604052600160065560016007553480156200001a575f80fd5b5060405162003d8138038062003d818339810160408190526200003d91620000de565b6001600160a01b038116620000885760405162461bcd60e51b815260206004820152600d60248201526c5a45524f5f545245415355525960981b604482015260640160405180910390fd5b5f80546001600160a01b031990811633178255600380546001600160a01b03851692168217905560405190917f3c864541ef71378c6229510ed90f376565ee42d9c5e0904a984a9e863e6db44f91a2506200010d565b5f60208284031215620000ef575f80fd5b81516001600160a01b038116811462000106575f80fd5b9392505050565b613c66806200011b5f395ff3fe608060405234801561000f575f80fd5b50600436106101c6575f3560e01c8063876ca09f116100fe578063c9c31af51161009e578063f2fde38b1161006e578063f2fde38b146104fb578063f4f8b2661461050e578063fb90fb4a14610521578063fe136c4e14610534575f80fd5b8063c9c31af5146104af578063e55e4211146104c2578063ed653164146104d5578063f0f44260146104e8575f80fd5b80639f6bd2a9116100d95780639f6bd2a914610454578063af4d7c6f14610476578063c15e23e114610489578063c3a7a61a1461049c575f80fd5b8063876ca09f1461042657806389cb29dd146104395780638da5cb5b14610442575f80fd5b8063354c5e01116101695780634c3fc8ad116101445780634c3fc8ad146103c25780634d4d4265146103d5578063502b7469146103e857806361d027b3146103fb575f80fd5b8063354c5e01146103895780633f11710b1461039c5780634b0bddd2146103af575f80fd5b806324d7806c116101a457806324d7806c1461030557806327d00fb0146103375780632bc0b0761461034c5780633219abe41461035f575f80fd5b8063012f52ee146101ca57806311a7a4c0146102815780631a8bb68d146102ee575b5f80fd5b61025e6101d8366004613538565b600960208190525f918252604090912080546001820154600283015460038401546004850154600586015460068701546007880154600889015499890154600a8a0154600b8b0154600c909b0154999b6001600160a01b03998a169b988a169a9790991698959794969395929460ff93841694929391929091818116916101009004168e565b6040516102789e9d9c9b9a99989796959493929190613577565b60405180910390f35b6102db61028f366004613538565b60086020525f90815260409020805460018201546002830154600384015460048501546005909501546001600160a01b038086169660ff600160a01b9097048716969590911694169087565b6040516102789796959493929190613608565b6102f760065481565b604051908152602001610278565b610327610313366004613676565b60016020525f908152604090205460ff1681565b6040519015158152602001610278565b61034a610345366004613538565b6105c0565b005b61034a61035a36600461369f565b610756565b6102f761036d3660046136d4565b600560209081525f928352604080842090915290825290205481565b61034a610397366004613538565b61081c565b61034a6103aa366004613538565b610b0c565b61034a6103bd36600461369f565b610ca0565b61034a6103d0366004613705565b610d43565b6102f76103e3366004613743565b610fac565b61034a6103f636600461377e565b61119f565b60035461040e906001600160a01b031681565b6040516001600160a01b039091168152602001610278565b61034a610434366004613538565b6112ce565b6102f760075481565b5f5461040e906001600160a01b031681565b610327610462366004613676565b60026020525f908152604090205460ff1681565b6102f7610484366004613538565b61146c565b61034a610497366004613538565b611947565b6103276104aa366004613538565b611e0b565b61034a6104bd366004613538565b611f48565b61034a6104d03660046137a6565b612292565b61034a6104e3366004613538565b612876565b61034a6104f6366004613676565b612cca565b61034a610509366004613676565b612da5565b61034a61051c3660046137cc565b612e8d565b61034a61052f3660046137ec565b61300e565b6105ab610542366004613676565b60046020525f908152604090208054600182015460029092015460ff82169261ffff610100840481169363010000008104821693650100000000009091048216929181169063ffffffff620100008204811691600160301b8104821691600160501b9091041689565b6040516102789998979695949392919061382b565b5f81815260096020526040812080549091036105f75760405162461bcd60e51b81526004016105ee9061387d565b60405180910390fd5b6003600882015460ff1660068111156106125761061261354f565b14604051806040016040528060098152602001684241445f535441544560b81b815250906106535760405162461bcd60e51b81526004016105ee91906138a7565b5060018101546001600160a01b031633148061067b575060028101546001600160a01b031633145b6106b95760405162461bcd60e51b815260206004820152600f60248201526e1393d517d41054951250d254105395608a1b60448201526064016105ee565b600c81015460408051808201909152600e81526d444953505554455f45584953545360901b60208201529060ff16156107055760405162461bcd60e51b81526004016105ee91906138a7565b5060088101805460ff19908116600417909155600c820180549091166001179055604051339083907f44f3c3ed15c708331582bc379d28659a58f183a563abe41aa4c8889db469f71c905f90a35050565b5f546001600160a01b031633148061077c5750335f9081526001602052604090205460ff165b604051806040016040528060098152602001682727aa2fa0a226a4a760b91b815250906107bc5760405162461bcd60e51b81526004016105ee91906138a7565b506001600160a01b0382165f81815260026020908152604091829020805460ff191685151590811790915591519182527f07e703270dd349aa2afca0f59467c19b0c4f7029c7057d0fad2fc0223e6cae5e91015b60405180910390a25050565b5f818152600960205260408120805490910361084a5760405162461bcd60e51b81526004016105ee9061387d565b6002600882015460ff1660068111156108655761086561354f565b14604051806040016040528060098152602001684241445f535441544560b81b815250906108a65760405162461bcd60e51b81526004016105ee91906138a7565b5060038101545f906108c0906001600160a01b0316613173565b90508060e0015163ffffffff1682600a01546108dc9190613906565b42116040518060400160405280601281526020017115d2539113d5d7d393d517d156141254915160721b815250906109275760405162461bcd60e51b81526004016105ee91906138a7565b5081545f9081526008602090815260409182902060058101548351808501909452600f84526e08aa686a49eaebe9a92a69a82a8869608b1b92840192909252919085146109875760405162461bcd60e51b81526004016105ee91906138a7565b506001600482015460ff1660038111156109a3576109a361354f565b14604051806040016040528060098152602001684241445f535441544560b81b815250906109e45760405162461bcd60e51b81526004016105ee91906138a7565b50600683015415610a1d5760038054600685015491850154610a16926001600160a01b039182169291909116906132aa565b5f60068401555b5f836007015484600501548560040154610a379190613906565b610a419190613906565b90508015610a6a5760028401546003850154610a6a916001600160a01b039182169116836132aa565b5f6004858101829055600580870183905560078701839055600887018054600660ff199182161790915591850180549092169091558301556040805160208082526018908201527f42555945525f4e4f5f434f4e4649524d5f464f5246454954000000000000000081830152905186917fdf5af23a8bfbd700e381c19607d03504d7a5ba1876c669cccd37feace1f5adaa919081900360600190a25050505050565b5f81815260086020526040902080546001600160a01b0316610b405760405162461bcd60e51b81526004016105ee90613919565b80546040805180820190915260098152682727aa2fa6a0a5a2a960b91b6020820152906001600160a01b03163314610b8b5760405162461bcd60e51b81526004016105ee91906138a7565b505f600482015460ff166003811115610ba657610ba661354f565b14604051806040016040528060098152602001684241445f535441544560b81b81525090610be75760405162461bcd60e51b81526004016105ee91906138a7565b5060058101546040805180820190915260098152684241445f535441544560b81b60208201529015610c2c5760405162461bcd60e51b81526004016105ee91906138a7565b5060048101805460ff19166002179055600381015415610c725760038054908201546001830154610c6b926001600160a01b03918216929116906132aa565b5f60038201555b60405182907f20e953810446bfec422c45a49b30c7b446bc121960d6568e36a20016140f86b7905f90a25050565b5f546040805180820190915260098152682727aa2fa7aba722a960b91b6020820152906001600160a01b03163314610ceb5760405162461bcd60e51b81526004016105ee91906138a7565b506001600160a01b0382165f81815260016020908152604091829020805460ff191685151590811790915591519182527fe68d2c359a771606c400cf8b87000cf5864010363d6a736e98f5047b7bbe18e99101610810565b5f546001600160a01b0316331480610d695750335f9081526001602052604090205460ff165b604051806040016040528060098152602001682727aa2fa0a226a4a760b91b81525090610da95760405162461bcd60e51b81526004016105ee91906138a7565b506001600160a01b038216610dd05760405162461bcd60e51b81526004016105ee9061393f565b612710610de36040830160208401613972565b61ffff1611158015610e0a5750612710610e036060830160408401613972565b61ffff1611155b604051806040016040528060078152602001664241445f42505360c81b81525090610e485760405162461bcd60e51b81526004016105ee91906138a7565b50612710610e5c6080830160608401613972565b61ffff1611158015610e835750612710610e7c60c0830160a08401613972565b61ffff1611155b604051806040016040528060078152602001664241445f42505360c81b81525090610ec15760405162461bcd60e51b81526004016105ee91906138a7565b506001600160a01b0382165f9081526004602052604090208190610ee582826139b6565b50506001600160a01b0382167f70df9bd9c5e9a1b5a52a86b9de9d2a79b37dbdbbaab91477d59f86d2502bbad1610f1f6020840184613b1f565b610f2f6040850160208601613972565b610f3f6060860160408701613972565b610f4f6080870160608801613972565b6080870135610f6460c0890160a08a01613972565b610f7460e08a0160c08b01613b3a565b610f856101008b0160e08c01613b3a565b610f976101208c016101008d01613b3a565b6040516108109998979695949392919061382b565b5f6001600160a01b038316610fd35760405162461bcd60e51b81526004016105ee9061393f565b5f8211610ff25760405162461bcd60e51b81526004016105ee90613b55565b610ffb83613173565b505f6110078484613363565b90508015611024576110246001600160a01b0385163330846133b5565b60068054905f61103383613b7a565b9190505591506040518060e00160405280336001600160a01b031681526020018615158152602001856001600160a01b031681526020018481526020018281526020015f60038111156110885761108861354f565b81525f60209182018190528481526008825260409081902083518154938501511515600160a01b026001600160a81b03199094166001600160a01b03918216179390931781559083015160018083018054929094166001600160a01b0319929092169190911790925560608301516002820155608083015160038083019190915560a084015160048301805493949193909260ff19909116919084908111156111335761113361354f565b021790555060c09190910151600590910155604080518615158152602081018590529081018290526001600160a01b03851690339084907f636b1ad28db834fa17206311cfa78045878f0a5be34081a2213975144e70b55b9060600160405180910390a4509392505050565b6001600160a01b0382166111c55760405162461bcd60e51b81526004016105ee9061393f565b5f81116111e45760405162461bcd60e51b81526004016105ee90613b55565b335f9081526005602090815260408083206001600160a01b03861684529091529020548181101561124d5760405162461bcd60e51b8152602060048201526013602482015272125394d551919250d251539517d0d491511255606a1b60448201526064016105ee565b6112578282613b92565b335f8181526005602090815260408083206001600160a01b0389168085529252909120929092556112899190846132aa565b6040518281526001600160a01b0384169033907f52fc0f9d902f33823a83590d3549f63f5492a0df5c6b6db8dee20deb94456b269060200160405180910390a3505050565b5f81815260096020526040812080549091036112fc5760405162461bcd60e51b81526004016105ee9061387d565b6002600882015460ff1660068111156113175761131761354f565b14604051806040016040528060098152602001684241445f535441544560b81b815250906113585760405162461bcd60e51b81526004016105ee91906138a7565b5060018101546040805180820190915260098152682727aa2fa12aaca2a960b91b6020820152906001600160a01b031633146113a75760405162461bcd60e51b81526004016105ee91906138a7565b5060038101545f906113c1906001600160a01b0316613173565b90508060e0015163ffffffff1682600a01546113dd9190613906565b4211156040518060400160405280600e81526020016d15d2539113d5d7d156141254915160921b815250906114255760405162461bcd60e51b81526004016105ee91906138a7565b5060088201805460ff1916600317905542600b830155604051339084907f2bce41b08631cf63c2dfd0b519d88a1e3db7e906ba6f0234f853996915e09028905f90a3505050565b5f81815260086020526040812080546001600160a01b03166114a05760405162461bcd60e51b81526004016105ee90613919565b5f600482015460ff1660038111156114ba576114ba61354f565b14604051806040016040528060098152602001684241445f535441544560b81b815250906114fb5760405162461bcd60e51b81526004016105ee91906138a7565b50600581015460408051808201909152600d81526c20a62922a0a22cafaa20a5a2a760991b602082015290156115445760405162461bcd60e51b81526004016105ee91906138a7565b506040805160e08101825282546001600160a01b03808216835260ff600160a01b9092048216151560208401526001850154169282019290925260028301546060820152600380840154608083015260048401545f936115dc9392869260a085019216908111156115b7576115b761354f565b60038111156115c8576115c861354f565b815260200160058201548152505033613486565b6040805160e08101825284546001600160a01b03808216835260ff600160a01b9092048216151560208401526001870154169282019290925260028501546060820152600380860154608083015260048601549394505f9361167793879260a0850192909116908111156116525761165261354f565b60038111156116635761166361354f565b8152602001600582015481525050336134a0565b9050806001600160a01b0316826001600160a01b0316036116c75760405162461bcd60e51b815260206004820152600a60248201526953454c465f545241444560b01b60448201526064016105ee565b600183015460028401545f916116e8916001600160a01b03909116906134b6565b90505f811161172d5760405162461bcd60e51b8152602060048201526011602482015270444953505554455f424f4e445f5a45524f60781b60448201526064016105ee565b6001840154611747906001600160a01b03168430846133b5565b60078054905f61175683613b7a565b90915550604080516101c0810182528881526001600160a01b03868116602080840191825287831684860190815260018b8101548516606087019081526002808e0154608089019081525f60a08a0181815260c08b018e815260e08c018381526101008d01888152426101208f01526101408e018590526101608e018590526101808e018590526101a08e018590528f85526009909a529c9092208b51815598518987018054918c166001600160a01b031992831617905596519389018054948b16948816949094179093559251600388018054919099169516949094179096559151600485015593516005840155516006808401919091559451600783015551600882018054969b509395919490939260ff1992909216919084908111156118815761188161354f565b02179055506101208201516009820155610140820151600a820155610160820151600b820155610180820151600c90910180546101a09093015161ffff1990931691151561ff001916919091176101009215159290920291909117905560048401805460ff1916600117905560058401859055604080516001600160a01b03848116825260208201849052851691889188917f0b0ee7fc34cffd8fddd757fa75752da0281ea49136350e672a73edb07cf327d8910160405180910390a450505050919050565b5f81815260096020526040812080549091036119755760405162461bcd60e51b81526004016105ee9061387d565b6001600882015460ff1660068111156119905761199061354f565b14604051806040016040528060098152602001684241445f535441544560b81b815250906119d15760405162461bcd60e51b81526004016105ee91906138a7565b5060038101545f906119eb906001600160a01b0316613173565b90508060c0015163ffffffff168260090154611a079190613906565b42116040518060400160405280601281526020017115d2539113d5d7d393d517d156141254915160721b81525090611a525760405162461bcd60e51b81526004016105ee91906138a7565b5081545f9081526008602090815260409182902060058101548351808501909452600f84526e08aa686a49eaebe9a92a69a82a8869608b1b9284019290925291908514611ab25760405162461bcd60e51b81526004016105ee91906138a7565b506001600482015460ff166003811115611ace57611ace61354f565b14604051806040016040528060098152602001684241445f535441544560b81b81525090611b0f5760405162461bcd60e51b81526004016105ee91906138a7565b50600683015415611c0657600683015460018401546001600160a01b039081165f908152600560209081526040808320600389015490941683529290529081208054909190611b5f908490613906565b9091555050600383015460018401546006850154604080517f42555945525f444953505554455f524546554e445f53454c4c45525f4e4f5f4660208201526215539160ea1b91810191909152604381018890526001600160a01b0393841693909216915f80516020613c11833981519152919060630160408051601f1981840301815282825280516020918201209383528201929092520160405180910390a35f60068401555b600883018054600660ff199091161790556040805160e08101825282546001600160a01b03808216835260ff600160a01b909204821615156020840152600185015416928201929092526002830154606082015260038084015460808301526004840154611cae93859260a085019290911690811115611c8857611c8861354f565b6003811115611c9957611c9961354f565b81526020016005820154815250506020015190565b15611d975760048101805460ff19166002179055600381015415611cf85760038054908201546001830154611cf1926001600160a01b03918216929116906132aa565b5f60038201555b5f60058201819055835460405190917f20e953810446bfec422c45a49b30c7b446bc121960d6568e36a20016140f86b791a2837fdf5af23a8bfbd700e381c19607d03504d7a5ba1876c669cccd37feace1f5adaa604051611d8a906020808252601c908201527f53454c4c45525f4e4f5f46554e445f4d414b45525f50454e414c545900000000604082015260600190565b60405180910390a2611e05565b60048101805460ff191690555f60058201556040805160208082526015908201527429a2a62622a92fa727afa32aa7222fa922a7a822a760591b81830152905185917fdf5af23a8bfbd700e381c19607d03504d7a5ba1876c669cccd37feace1f5adaa919081900360600190a25b50505050565b5f81815260096020526040812080548203611e2857505f92915050565b6003600882015460ff166006811115611e4357611e4361354f565b14611e5057505f92915050565b60038101546001600160a01b03165f90815260046020908152604091829020825161012081018452815460ff8116151580835261ffff6101008084048216968501969096526301000000830481169684019690965265010000000000909104851660608301526001830154608083015260029092015493841660a082015263ffffffff620100008504811660c0830152600160301b8504811660e0830152600160501b90940490931691830191909152611f0d57505f9392505050565b600c82015460ff1615611f2357505f9392505050565b80610100015163ffffffff1682600b0154611f3e9190613906565b4211949350505050565b5f8181526009602052604081208054909103611f765760405162461bcd60e51b81526004016105ee9061387d565b6001600882015460ff166006811115611f9157611f9161354f565b14604051806040016040528060098152602001684241445f535441544560b81b81525090611fd25760405162461bcd60e51b81526004016105ee91906138a7565b50600281015460408051808201909152600a8152692727aa2fa9a2a62622a960b11b6020820152906001600160a01b031633146120225760405162461bcd60e51b81526004016105ee91906138a7565b5080545f9081526008602090815260409182902060058101548351808501909452600f84526e08aa686a49eaebe9a92a69a82a8869608b1b92840192909252919084146120825760405162461bcd60e51b81526004016105ee91906138a7565b506001600482015460ff16600381111561209e5761209e61354f565b14604051806040016040528060098152602001684241445f535441544560b81b815250906120df5760405162461bcd60e51b81526004016105ee91906138a7565b5060038201545f906120f9906001600160a01b0316613173565b90508060c0015163ffffffff1683600901546121159190613906565b4211156040518060400160405280600e81526020016d15d2539113d5d7d156141254915160921b8152509061215d5760405162461bcd60e51b81526004016105ee91906138a7565b50600383015460048401545f9161217f916001600160a01b03909116906134ec565b600385015460048601549192505f916121a1916001600160a01b0316906134b6565b90505f81116121e65760405162461bcd60e51b8152602060048201526011602482015270444953505554455f424f4e445f5a45524f60781b60448201526064016105ee565b5f818387600401546121f89190613906565b6122029190613906565b600387015490915061221f906001600160a01b03163330846133b5565b600586018390556007860182905560088601805460ff1916600217905542600a87015560048601546040805191825260208201859052810183905287907f95b75f24b53add0217458d088aa8db8eefce3337dcb4bb8e7571a0604aeb0a649060600160405180910390a250505050505050565b335f90815260026020908152604091829020548251808401909352600e83526d2727aa2fa0a92124aa2920aa27a960911b9183019190915260ff166122ea5760405162461bcd60e51b81526004016105ee91906138a7565b505f82815260096020526040812080549091036123195760405162461bcd60e51b81526004016105ee9061387d565b6004600882015460ff1660068111156123345761233461354f565b14604051806040016040528060098152602001684241445f535441544560b81b815250906123755760405162461bcd60e51b81526004016105ee91906138a7565b50600c81015460ff1680156123945750600c810154610100900460ff16155b6123cf5760405162461bcd60e51b815260206004820152600c60248201526b444953505554455f444f4e4560a01b60448201526064016105ee565b6005810154156124075760038054600583015491830154612400926001600160a01b039182169291909116906132aa565b5f60058201555b5f82600181111561241a5761241a61354f565b0361244b57600181015460048201546003830154612446926001600160a01b03918216929116906132aa565b612472565b600281015460048201546003830154612472926001600160a01b03918216929116906132aa565b5f6004820181905582600181111561248c5761248c61354f565b036125a95760068101541561256c57600681015460018201546001600160a01b039081165f9081526005602090815260408083206003870154909416835292905290812080549091906124e0908490613906565b909155505060038101546001820154600683015460405170212aaca2a92fa224a9a82aaa22afaba4a760791b6020820152603181018790526001600160a01b0393841693909216915f80516020613c11833981519152919060510160408051601f1981840301815282825280516020918201209383528201929092520160405180910390a35f60068201555b6007810154156125a4576003805460078301549183015461259d926001600160a01b039182169291909116906132aa565b5f60078201555b6126bd565b60078101541561268557600781015460028201546001600160a01b039081165f9081526005602090815260408083206003870154909416835292905290812080549091906125f8908490613906565b90915550506003810154600282015460078301546040517129a2a62622a92fa224a9a82aaa22afaba4a760711b6020820152603281018790526001600160a01b0393841693909216915f80516020613c11833981519152919060520160408051601f1981840301815282825280516020918201209383528201929092520160405180910390a35f60078201555b6006810154156126bd57600380546006830154918301546126b6926001600160a01b039182169291909116906132aa565b5f60068201555b80545f9081526008602052604090206003810154156127a957600381015481546001600160a01b039081165f908152600560209081526040808320600187015490941683529290529081208054909190612718908490613906565b909155505060018101548154600383015484546040517541445f424f4e445f524546554e445f4449535055544560501b602082015260368101919091526001600160a01b0393841693909216915f80516020613c11833981519152919060560160408051601f1981840301815282825280516020918201209383528201929092520160405180910390a35f60038201555b600c8201805461ff001916610100179055600882018054600560ff199182168117909255600483018054600392169190911790555f9082015560405184907f2ffcfee146bc0d5ff304c6b65111a0d485af9456dc64eee7d66ebdcc90b223ea90612814908690613ba5565b60405180910390a260405184907f69833829d5691ae09424af7d16f73adf033451149ea9c2fc6fcb4c44108eef67905f90a281546040517f1b5620e4acda71640915df6184c97b2ef8b032a94bb3886bb01df0f3248a15c0905f90a250505050565b5f81815260096020526040812080549091036128a45760405162461bcd60e51b81526004016105ee9061387d565b6003600882015460ff1660068111156128bf576128bf61354f565b14604051806040016040528060098152602001684241445f535441544560b81b815250906129005760405162461bcd60e51b81526004016105ee91906138a7565b50600281015460408051808201909152600a8152692727aa2fa9a2a62622a960b11b6020820152906001600160a01b031633146129505760405162461bcd60e51b81526004016105ee91906138a7565b50600181015460048201546003830154612978926001600160a01b03918216929116906132aa565b6005810154156129a957600380546005830154918301546129a9926001600160a01b039182169291909116906132aa565b600681015415612a8757600681015460018201546001600160a01b039081165f9081526005602090815260408083206003870154909416835292905290812080549091906129f8908490613906565b909155505060038101546001820154600683015460405173109556515497d11254d415551157d4915195539160621b6020820152603481018690526001600160a01b0393841693909216915f80516020613c11833981519152919060540160408051601f1981840301815282825280516020918201209383528201929092520160405180910390a35f60068201555b600781015415612b6657600781015460028201546001600160a01b039081165f908152600560209081526040808320600387015490941683529290529081208054909190612ad6908490613906565b90915550506003810154600282015460078301546040517414d15313115497d11254d415551157d49151955391605a1b6020820152603581018690526001600160a01b0393841693909216915f80516020613c11833981519152919060550160408051601f1981840301815282825280516020918201209383528201929092520160405180910390a35f60078201555b80545f908152600860205260409020600381015415612c4a57600381015481546001600160a01b039081165f908152600560209081526040808320600187015490941683529290529081208054909190612bc1908490613906565b909155505060018101548154600383015484546040516d105117d093d39117d4915195539160921b6020820152602e8101919091526001600160a01b0393841693909216915f80516020613c118339815191529190604e0160408051601f1981840301815282825280516020918201209383528201929092520160405180910390a35f60038201555b60088201805460ff19908116600590811790925560048301805490911660031790555f90820181905560405184917f69833829d5691ae09424af7d16f73adf033451149ea9c2fc6fcb4c44108eef6791a281546040517f1b5620e4acda71640915df6184c97b2ef8b032a94bb3886bb01df0f3248a15c0905f90a2505050565b5f546040805180820190915260098152682727aa2fa7aba722a960b91b6020820152906001600160a01b03163314612d155760405162461bcd60e51b81526004016105ee91906138a7565b506001600160a01b038116612d5c5760405162461bcd60e51b815260206004820152600d60248201526c5a45524f5f545245415355525960981b60448201526064016105ee565b600380546001600160a01b0319166001600160a01b0383169081179091556040517f3c864541ef71378c6229510ed90f376565ee42d9c5e0904a984a9e863e6db44f905f90a250565b5f546040805180820190915260098152682727aa2fa7aba722a960b91b6020820152906001600160a01b03163314612df05760405162461bcd60e51b81526004016105ee91906138a7565b506001600160a01b038116612e345760405162461bcd60e51b815260206004820152600a6024820152692d22a927afa7aba722a960b11b60448201526064016105ee565b5f80546040516001600160a01b03808516939216917f8be0079c531659141344cd1fd0a4f28419497f9722a3daafe3b4186f6b6457e091a35f80546001600160a01b0319166001600160a01b0392909216919091179055565b5f82815260086020526040902080546001600160a01b0316612ec15760405162461bcd60e51b81526004016105ee90613919565b80546040805180820190915260098152682727aa2fa6a0a5a2a960b91b6020820152906001600160a01b03163314612f0c5760405162461bcd60e51b81526004016105ee91906138a7565b505f600482015460ff166003811115612f2757612f2761354f565b14604051806040016040528060098152602001684241445f535441544560b81b81525090612f685760405162461bcd60e51b81526004016105ee91906138a7565b5060058101546040805180820190915260098152684241445f535441544560b81b60208201529015612fad5760405162461bcd60e51b81526004016105ee91906138a7565b505f8211612fcd5760405162461bcd60e51b81526004016105ee90613b55565b6002810182905560405182815283907f703d5ab1f448a472c939c18589eafa88ac50049582a4bba8f0103382fb4704449060200160405180910390a2505050565b5f546001600160a01b03163314806130345750335f9081526001602052604090205460ff165b604051806040016040528060098152602001682727aa2fa0a226a4a760b91b815250906130745760405162461bcd60e51b81526004016105ee91906138a7565b506001600160a01b0384166130b75760405162461bcd60e51b81526020600482015260096024820152682d22a927afaaa9a2a960b91b60448201526064016105ee565b6001600160a01b0383166130dd5760405162461bcd60e51b81526004016105ee9061393f565b5f82116130fc5760405162461bcd60e51b81526004016105ee90613b55565b6001600160a01b038085165f90815260056020908152604080832093871683529290529081208054849290613132908490613906565b909155505060408051838152602081018390526001600160a01b0380861692908716915f80516020613c11833981519152910160405180910390a350505050565b60408051610120810182525f80825260208201819052918101829052606081018290526080810182905260a0810182905260c0810182905260e08101829052610100810191909152506001600160a01b0381165f90815260046020908152604091829020825161012081018452815460ff8116151580835261ffff6101008084048216858801526301000000840482168589015265010000000000909304811660608501526001850154608085015260029094015493841660a084015263ffffffff620100008504811660c0850152600160301b8504811660e0850152600160501b909404909316908201528351808501909452600e84526d1513d2d15397d11254d05093115160921b928401929092529091906132a45760405162461bcd60e51b81526004016105ee91906138a7565b50919050565b60405163a9059cbb60e01b81526001600160a01b038381166004830152602482018390525f919085169063a9059cbb906044016020604051808303815f875af11580156132f9573d5f803e3d5ffd5b505050506040513d601f19601f8201168201806040525081019061331d9190613bbf565b905080611e055760405162461bcd60e51b815260206004820152601460248201527314d0519157d514905394d1915497d1905253115160621b60448201526064016105ee565b5f8061336e84613173565b60a081015190915061ffff16156133a8576127108160a0015161ffff16846133969190613bda565b6133a09190613bf1565b9150506133af565b6080015190505b92915050565b6040516323b872dd60e01b81526001600160a01b0384811660048301528381166024830152604482018390525f91908616906323b872dd906064016020604051808303815f875af115801561340c573d5f803e3d5ffd5b505050506040513d601f19601f820116820180604052508101906134309190613bbf565b90508061347f5760405162461bcd60e51b815260206004820152601960248201527f534146455f5452414e534645525f46524f4d5f4641494c45440000000000000060448201526064016105ee565b5050505050565b5f8260200151613497578251613499565b815b9392505050565b5f82602001516134b05781613499565b50505190565b5f806134c184613173565b9050612710816060015161ffff16846134da9190613bda565b6134e49190613bf1565b949350505050565b5f806134f784613173565b90505f816040015161ffff16826020015161ffff166135169190613906565b90506127106135258286613bda565b61352f9190613bf1565b95945050505050565b5f60208284031215613548575f80fd5b5035919050565b634e487b7160e01b5f52602160045260245ffd5b600781106135735761357361354f565b9052565b8e81526001600160a01b038e811660208301528d811660408301528c166060820152608081018b905260a081018a905260c0810189905260e081018890526101c081016135c8610100830189613563565b8661012083015285610140830152846101608301526135ec61018083018515159052565b8215156101a08301529f9e505050505050505050505050505050565b6001600160a01b038881168252871515602083015286166040820152606081018590526080810184905260e08101600484106136465761364661354f565b60a082019390935260c0015295945050505050565b80356001600160a01b0381168114613671575f80fd5b919050565b5f60208284031215613686575f80fd5b6134998261365b565b801515811461369c575f80fd5b50565b5f80604083850312156136b0575f80fd5b6136b98361365b565b915060208301356136c98161368f565b809150509250929050565b5f80604083850312156136e5575f80fd5b6136ee8361365b565b91506136fc6020840161365b565b90509250929050565b5f80828403610140811215613718575f80fd5b6137218461365b565b9250610120601f1982011215613735575f80fd5b506020830190509250929050565b5f805f60608486031215613755575f80fd5b83356137608161368f565b925061376e6020850161365b565b9150604084013590509250925092565b5f806040838503121561378f575f80fd5b6137988361365b565b946020939093013593505050565b5f80604083850312156137b7575f80fd5b823591506020830135600281106136c9575f80fd5b5f80604083850312156137dd575f80fd5b50508035926020909101359150565b5f805f80608085870312156137ff575f80fd5b6138088561365b565b93506138166020860161365b565b93969395505050506040820135916060013590565b981515895261ffff97881660208a015295871660408901529386166060880152608087019290925290931660a085015263ffffffff92831660c0850152821660e0840152166101008201526101200190565b60208082526010908201526f1154d0d493d5d7d393d517d193d5539160821b604082015260600190565b5f6020808352835180828501525f5b818110156138d2578581018301518582016040015282016138b6565b505f604082860101526040601f19601f8301168501019250505092915050565b634e487b7160e01b5f52601160045260245ffd5b808201808211156133af576133af6138f2565b6020808252600c908201526b105117d393d517d193d5539160a21b604082015260600190565b6020808252600a90820152692d22a927afaa27a5a2a760b11b604082015260600190565b61ffff8116811461369c575f80fd5b5f60208284031215613982575f80fd5b813561349981613963565b5f81356133af81613963565b63ffffffff8116811461369c575f80fd5b5f81356133af81613999565b81356139c18161368f565b815490151560ff1660ff19919091161781556139fa6139e26020840161398d565b825462ffff00191660089190911b62ffff0016178255565b613a25613a096040840161398d565b825464ffff000000191660189190911b64ffff00000016178255565b613a54613a346060840161398d565b825466ffff0000000000191660289190911b66ffff000000000016178255565b6080820135600182015560028101613a84613a7160a0850161398d565b825461ffff191661ffff91909116178255565b613ab1613a9360c085016139aa565b825465ffffffff0000191660109190911b65ffffffff000016178255565b613ae6613ac060e085016139aa565b825469ffffffff000000000000191660309190911b69ffffffff00000000000016178255565b613b1a613af661010085016139aa565b82805463ffffffff60501b191660509290921b63ffffffff60501b16919091179055565b505050565b5f60208284031215613b2f575f80fd5b81356134998161368f565b5f60208284031215613b4a575f80fd5b813561349981613999565b6020808252600b908201526a16915493d7d05353d5539560aa1b604082015260600190565b5f60018201613b8b57613b8b6138f2565b5060010190565b818103818111156133af576133af6138f2565b6020810160028310613bb957613bb961354f565b91905290565b5f60208284031215613bcf575f80fd5b81516134998161368f565b80820281158282048414176133af576133af6138f2565b5f82613c0b57634e487b7160e01b5f52601260045260245ffd5b50049056fe1273b3bc238763d2765accfd266760c5513354f6778b08e51cff017e0354434fa26469706673582212203ee48c2a18bc054827ff2fd7304281b4d2fa34ee01141bec932f3da7988723b264736f6c63430008140033",
			"opcodes": "PUSH1 0x80 PUSH1 0x40 MSTORE PUSH1 0x1 PUSH1 0x6 SSTORE PUSH1 0x1 PUSH1 0x7 SSTORE CALLVALUE DUP1 ISZERO PUSH3 0x1A JUMPI PUSH0 DUP1 REVERT JUMPDEST POP PUSH1 0x40 MLOAD PUSH3 0x3D81 CODESIZE SUB DUP1 PUSH3 0x3D81 DUP4 CODECOPY DUP2 ADD PUSH1 0x40 DUP2 SWAP1 MSTORE PUSH3 0x3D SWAP2 PUSH3 0xDE JUMP JUMPDEST PUSH1 0x1 PUSH1 0x1 PUSH1 0xA0 SHL SUB DUP2 AND PUSH3 0x88 JUMPI PUSH1 0x40 MLOAD PUSH3 0x461BCD PUSH1 0xE5 SHL DUP2 MSTORE PUSH1 0x20 PUSH1 0x4 DUP3 ADD MSTORE PUSH1 0xD PUSH1 0x24 DUP3 ADD MSTORE PUSH13 0x5A45524F5F5452454153555259 PUSH1 0x98 SHL PUSH1 0x44 DUP3 ADD MSTORE PUSH1 0x64 ADD PUSH1 0x40 MLOAD DUP1 SWAP2 SUB SWAP1 REVERT JUMPDEST PUSH0 DUP1 SLOAD PUSH1 0x1 PUSH1 0x1 PUSH1 0xA0 SHL SUB NOT SWAP1 DUP2 AND CALLER OR DUP3 SSTORE PUSH1 0x3 DUP1 SLOAD PUSH1 0x1 PUSH1 0x1 PUSH1 0xA0 SHL SUB DUP6 AND SWAP3 AND DUP3 OR SWAP1 SSTORE PUSH1 0x40 MLOAD SWAP1 SWAP2 PUSH32 0x3C864541EF71378C6229510ED90F376565EE42D9C5E0904A984A9E863E6DB44F SWAP2 LOG2 POP PUSH3 0x10D JUMP JUMPDEST PUSH0 PUSH1 0x20 DUP3 DUP5 SUB SLT ISZERO PUSH3 0xEF JUMPI PUSH0 DUP1 REVERT JUMPDEST DUP2 MLOAD PUSH1 0x1 PUSH1 0x1 PUSH1 0xA0 SHL SUB DUP2 AND DUP2 EQ PUSH3 0x106 JUMPI PUSH0 DUP1 REVERT JUMPDEST SWAP4 SWAP3 POP POP POP JUMP JUMPDEST PUSH2 0x3C66 DUP1 PUSH3 0x11B PUSH0 CODECOPY PUSH0 RETURN INVALID PUSH1 0x80 PUSH1 0x40 MSTORE CALLVALUE DUP1 ISZERO PUSH2 0xF JUMPI PUSH0 DUP1 REVERT JUMPDEST POP PUSH1 0x4 CALLDATASIZE LT PUSH2 0x1C6 JUMPI PUSH0 CALLDATALOAD PUSH1 0xE0 SHR DUP1 PUSH4 0x876CA09F GT PUSH2 0xFE JUMPI DUP1 PUSH4 0xC9C31AF5 GT PUSH2 0x9E JUMPI DUP1 PUSH4 0xF2FDE38B GT PUSH2 0x6E JUMPI DUP1 PUSH4 0xF2FDE38B EQ PUSH2 0x4FB JUMPI DUP1 PUSH4 0xF4F8B266 EQ PUSH2 0x50E JUMPI DUP1 PUSH4 0xFB90FB4A EQ PUSH2 0x521 JUMPI DUP1 PUSH4 0xFE136C4E EQ PUSH2 0x534 JUMPI PUSH0 DUP1 REVERT JUMPDEST DUP1 PUSH4 0xC9C31AF5 EQ PUSH2 0x4AF JUMPI DUP1 PUSH4 0xE55E4211 EQ PUSH2 0x4C2 JUMPI DUP1 PUSH4 0xED653164 EQ PUSH2 0x4D5 JUMPI DUP1 PUSH4 0xF0F44260 EQ PUSH2 0x4E8 JUMPI PUSH0 DUP1 REVERT JUMPDEST DUP1 PUSH4 0x9F6BD2A9 GT PUSH2 0xD9 JUMPI DUP1 PUSH4 0x9F6BD2A9 EQ PUSH2 0x454 JUMPI DUP1 PUSH4 0xAF4D7C6F EQ PUSH2 0x476 JUMPI DUP1 PUSH4 0xC15E23E1 EQ PUSH2 0x489 JUMPI DUP1 PUSH4 0xC3A7A61A EQ PUSH2 0x49C JUMPI PUSH0 DUP1 REVERT JUMPDEST DUP1 PUSH4 0x876CA09F EQ PUSH2 0x426 JUMPI DUP1 PUSH4 0x89CB29DD EQ PUSH2 0x439 JUMPI DUP1 PUSH4 0x8DA5CB5B EQ PUSH2 0x442 JUMPI PUSH0 DUP1 REVERT JUMPDEST DUP1 PUSH4 0x354C5E01 GT PUSH2 0x169 JUMPI DUP1 PUSH4 0x4C3FC8AD GT PUSH2 0x144 JUMPI DUP1 PUSH4 0x4C3FC8AD EQ PUSH2 0x3C2 JUMPI DUP1 PUSH4 0x4D4D4265 EQ PUSH2 0x3D5 JUMPI DUP1 PUSH4 0x502B7469 EQ PUSH2 0x3E8 JUMPI DUP1 PUSH4 0x61D027B3 EQ PUSH2 0x3FB JUMPI PUSH0 DUP1 REVERT JUMPDEST DUP1 PUSH4 0x354C5E01 EQ PUSH2 0x389 JUMPI DUP1 PUSH4 0x3F11710B EQ PUSH2 0x39C JUMPI DUP1 PUSH4 0x4B0BDDD2 EQ PUSH2 0x3AF JUMPI PUSH0 DUP1 REVERT JUMPDEST DUP1 PUSH4 0x24D7806C GT PUSH2 0x1A4 JUMPI DUP1 PUSH4 0x24D7806C EQ PUSH2 0x305 JUMPI DUP1 PUSH4 0x27D00FB0 EQ PUSH2 0x337 JUMPI DUP1 PUSH4 0x2BC0B076 EQ PUSH2 0x34C JUMPI DUP1 PUSH4 0x3219ABE4 EQ PUSH2 0x35F JUMPI PUSH0 DUP1 REVERT JUMPDEST DUP1 PUSH4 0x12F52EE EQ PUSH2 0x1CA JUMPI DUP1 PUSH4 0x11A7A4C0 EQ PUSH2 0x281 JUMPI DUP1 PUSH4 0x1A8BB68D EQ PUSH2 0x2EE JUMPI JUMPDEST PUSH0 DUP1 REVERT JUMPDEST PUSH2 0x25E PUSH2 0x1D8 CALLDATASIZE PUSH1 0x4 PUSH2 0x3538 JUMP JUMPDEST PUSH1 0x9 PUSH1 0x20 DUP2 SWAP1 MSTORE PUSH0 SWAP2 DUP3 MSTORE PUSH1 0x40 SWAP1 SWAP2 KECCAK256 DUP1 SLOAD PUSH1 0x1 DUP3 ADD SLOAD PUSH1 0x2 DUP4 ADD SLOAD PUSH1 0x3 DUP5 ADD SLOAD PUSH1 0x4 DUP6 ADD SLOAD PUSH1 0x5 DUP7 ADD SLOAD PUSH1 0x6 DUP8 ADD SLOAD PUSH1 0x7 DUP9 ADD SLOAD PUSH1 0x8 DUP10 ADD SLOAD SWAP10 DUP10 ADD SLOAD PUSH1 0xA DUP11 ADD SLOAD PUSH1 0xB DUP12 ADD SLOAD PUSH1 0xC SWAP1 SWAP12 ADD SLOAD SWAP10 SWAP12 PUSH1 0x1 PUSH1 0x1 PUSH1 0xA0 SHL SUB SWAP10 DUP11 AND SWAP12 SWAP9 DUP11 AND SWAP11 SWAP8 SWAP1 SWAP10 AND SWAP9 SWAP6 SWAP8 SWAP5 SWAP7 SWAP4 SWAP6 SWAP3 SWAP5 PUSH1 0xFF SWAP4 DUP5 AND SWAP5 SWAP3 SWAP4 SWAP2 SWAP3 SWAP1 SWAP2 DUP2 DUP2 AND SWAP2 PUSH2 0x100 SWAP1 DIV AND DUP15 JUMP JUMPDEST PUSH1 0x40 MLOAD PUSH2 0x278 SWAP15 SWAP14 SWAP13 SWAP12 SWAP11 SWAP10 SWAP9 SWAP8 SWAP7 SWAP6 SWAP5 SWAP4 SWAP3 SWAP2 SWAP1 PUSH2 0x3577 JUMP JUMPDEST PUSH1 0x40 MLOAD DUP1 SWAP2 SUB SWAP1 RETURN JUMPDEST PUSH2 0x2DB PUSH2 0x28F CALLDATASIZE PUSH1 0x4 PUSH2 0x3538 JUMP JUMPDEST PUSH1 0x8 PUSH1 0x20 MSTORE PUSH0 SWAP1 DUP2 MSTORE PUSH1 0x40 SWAP1 KECCAK256 DUP1 SLOAD PUSH1 0x1 DUP3 ADD SLOAD PUSH1 0x2 DUP4 ADD SLOAD PUSH1 0x3 DUP5 ADD SLOAD PUSH1 0x4 DUP6 ADD SLOAD PUSH1 0x5 SWAP1 SWAP6 ADD SLOAD PUSH1 0x1 PUSH1 0x1 PUSH1 0xA0 SHL SUB DUP1 DUP7 AND SWAP7 PUSH1 0xFF PUSH1 0x1 PUSH1 0xA0 SHL SWAP1 SWAP8 DIV DUP8 AND SWAP7 SWAP6 SWAP1 SWAP2 AND SWAP5 AND SWAP1 DUP8 JUMP JUMPDEST PUSH1 0x40 MLOAD PUSH2 0x278 SWAP8 SWAP7 SWAP6 SWAP5 SWAP4 SWAP3 SWAP2 SWAP1 PUSH2 0x3608 JUMP JUMPDEST PUSH2 0x2F7 PUSH1 0x6 SLOAD DUP2 JUMP JUMPDEST PUSH1 0x40 MLOAD SWAP1 DUP2 MSTORE PUSH1 0x20 ADD PUSH2 0x278 JUMP JUMPDEST PUSH2 0x327 PUSH2 0x313 CALLDATASIZE PUSH1 0x4 PUSH2 0x3676 JUMP JUMPDEST PUSH1 0x1 PUSH1 0x20 MSTORE PUSH0 SWAP1 DUP2 MSTORE PUSH1 0x40 SWAP1 KECCAK256 SLOAD PUSH1 0xFF AND DUP2 JUMP JUMPDEST PUSH1 0x40 MLOAD SWAP1 ISZERO ISZERO DUP2 MSTORE PUSH1 0x20 ADD PUSH2 0x278 JUMP JUMPDEST PUSH2 0x34A PUSH2 0x345 CALLDATASIZE PUSH1 0x4 PUSH2 0x3538 JUMP JUMPDEST PUSH2 0x5C0 JUMP JUMPDEST STOP JUMPDEST PUSH2 0x34A PUSH2 0x35A CALLDATASIZE PUSH1 0x4 PUSH2 0x369F JUMP JUMPDEST PUSH2 0x756 JUMP JUMPDEST PUSH2 0x2F7 PUSH2 0x36D CALLDATASIZE PUSH1 0x4 PUSH2 0x36D4 JUMP JUMPDEST PUSH1 0x5 PUSH1 0x20 SWAP1 DUP2 MSTORE PUSH0 SWAP3 DUP4 MSTORE PUSH1 0x40 DUP1 DUP5 KECCAK256 SWAP1 SWAP2 MSTORE SWAP1 DUP3 MSTORE SWAP1 KECCAK256 SLOAD DUP2 JUMP JUMPDEST PUSH2 0x34A PUSH2 0x397 CALLDATASIZE PUSH1 0x4 PUSH2 0x3538 JUMP JUMPDEST PUSH2 0x81C JUMP JUMPDEST PUSH2 0x34A PUSH2 0x3AA CALLDATASIZE PUSH1 0x4 PUSH2 0x3538 JUMP JUMPDEST PUSH2 0xB0C JUMP JUMPDEST PUSH2 0x34A PUSH2 0x3BD CALLDATASIZE PUSH1 0x4 PUSH2 0x369F JUMP JUMPDEST PUSH2 0xCA0 JUMP JUMPDEST PUSH2 0x34A PUSH2 0x3D0 CALLDATASIZE PUSH1 0x4 PUSH2 0x3705 JUMP JUMPDEST PUSH2 0xD43 JUMP JUMPDEST PUSH2 0x2F7 PUSH2 0x3E3 CALLDATASIZE PUSH1 0x4 PUSH2 0x3743 JUMP JUMPDEST PUSH2 0xFAC JUMP JUMPDEST PUSH2 0x34A PUSH2 0x3F6 CALLDATASIZE PUSH1 0x4 PUSH2 0x377E JUMP JUMPDEST PUSH2 0x119F JUMP JUMPDEST PUSH1 0x3 SLOAD PUSH2 0x40E SWAP1 PUSH1 0x1 PUSH1 0x1 PUSH1 0xA0 SHL SUB AND DUP2 JUMP JUMPDEST PUSH1 0x40 MLOAD PUSH1 0x1 PUSH1 0x1 PUSH1 0xA0 SHL SUB SWAP1 SWAP2 AND DUP2 MSTORE PUSH1 0x20 ADD PUSH2 0x278 JUMP JUMPDEST PUSH2 0x34A PUSH2 0x434 CALLDATASIZE PUSH1 0x4 PUSH2 0x3538 JUMP JUMPDEST PUSH2 0x12CE JUMP JUMPDEST PUSH2 0x2F7 PUSH1 0x7 SLOAD DUP2 JUMP JUMPDEST PUSH0 SLOAD PUSH2 0x40E SWAP1 PUSH1 0x1 PUSH1 0x1 PUSH1 0xA0 SHL SUB AND DUP2 JUMP JUMPDEST PUSH2 0x327 PUSH2 0x462 CALLDATASIZE PUSH1 0x4 PUSH2 0x3676 JUMP JUMPDEST PUSH1 0x2 PUSH1 0x20 MSTORE PUSH0 SWAP1 DUP2 MSTORE PUSH1 0x40 SWAP1 KECCAK256 SLOAD PUSH1 0xFF AND DUP2 JUMP JUMPDEST PUSH2 0x2F7 PUSH2 0x484 CALLDATASIZE PUSH1 0x4 PUSH2 0x3538 JUMP JUMPDEST PUSH2 0x146C JUMP JUMPDEST PUSH2 0x34A PUSH2 0x497 CALLDATASIZE PUSH1 0x4 PUSH2 0x3538 JUMP JUMPDEST PUSH2 0x1947 JUMP JUMPDEST PUSH2 0x327 PUSH2 0x4AA CALLDATASIZE PUSH1 0x4 PUSH2 0x3538 JUMP JUMPDEST PUSH2 0x1E0B JUMP JUMPDEST PUSH2 0x34A PUSH2 0x4BD CALLDATASIZE PUSH1 0x4 PUSH2 0x3538 JUMP JUMPDEST PUSH2 0x1F48 JUMP JUMPDEST PUSH2 0x34A PUSH2 0x4D0 CALLDATASIZE PUSH1 0x4 PUSH2 0x37A6 JUMP JUMPDEST PUSH2 0x2292 JUMP JUMPDEST PUSH2 0x34A PUSH2 0x4E3 CALLDATASIZE PUSH1 0x4 PUSH2 0x3538 JUMP JUMPDEST PUSH2 0x2876 JUMP JUMPDEST PUSH2 0x34A PUSH2 0x4F6 CALLDATASIZE PUSH1 0x4 PUSH2 0x3676 JUMP JUMPDEST PUSH2 0x2CCA JUMP JUMPDEST PUSH2 0x34A PUSH2 0x509 CALLDATASIZE PUSH1 0x4 PUSH2 0x3676 JUMP JUMPDEST PUSH2 0x2DA5 JUMP JUMPDEST PUSH2 0x34A PUSH2 0x51C CALLDATASIZE PUSH1 0x4 PUSH2 0x37CC JUMP JUMPDEST PUSH2 0x2E8D JUMP JUMPDEST PUSH2 0x34A PUSH2 0x52F CALLDATASIZE PUSH1 0x4 PUSH2 0x37EC JUMP JUMPDEST PUSH2 0x300E JUMP JUMPDEST PUSH2 0x5AB PUSH2 0x542 CALLDATASIZE PUSH1 0x4 PUSH2 0x3676 JUMP JUMPDEST PUSH1 0x4 PUSH1 0x20 MSTORE PUSH0 SWAP1 DUP2 MSTORE PUSH1 0x40 SWAP1 KECCAK256 DUP1 SLOAD PUSH1 0x1 DUP3 ADD SLOAD PUSH1 0x2 SWAP1 SWAP3 ADD SLOAD PUSH1 0xFF DUP3 AND SWAP3 PUSH2 0xFFFF PUSH2 0x100 DUP5 DIV DUP2 AND SWAP4 PUSH4 0x1000000 DUP2 DIV DUP3 AND SWAP4 PUSH6 0x10000000000 SWAP1 SWAP2 DIV DUP3 AND SWAP3 SWAP2 DUP2 AND SWAP1 PUSH4 0xFFFFFFFF PUSH3 0x10000 DUP3 DIV DUP2 AND SWAP2 PUSH1 0x1 PUSH1 0x30 SHL DUP2 DIV DUP3 AND SWAP2 PUSH1 0x1 PUSH1 0x50 SHL SWAP1 SWAP2 DIV AND DUP10 JUMP JUMPDEST PUSH1 0x40 MLOAD PUSH2 0x278 SWAP10 SWAP9 SWAP8 SWAP7 SWAP6 SWAP5 SWAP4 SWAP3 SWAP2 SWAP1 PUSH2 0x382B JUMP JUMPDEST PUSH0 DUP2 DUP2 MSTORE PUSH1 0x9 PUSH1 0x20 MSTORE PUSH1 0x40 DUP2 KECCAK256 DUP1 SLOAD SWAP1 SWAP2 SUB PUSH2 0x5F7 JUMPI PUSH1 0x40 MLOAD PUSH3 0x461BCD PUSH1 0xE5 SHL DUP2 MSTORE PUSH1 0x4 ADD PUSH2 0x5EE SWAP1 PUSH2 0x387D JUMP JUMPDEST PUSH1 0x40 MLOAD DUP1 SWAP2 SUB SWAP1 REVERT JUMPDEST PUSH1 0x3 PUSH1 0x8 DUP3 ADD SLOAD PUSH1 0xFF AND PUSH1 0x6 DUP2 GT ISZERO PUSH2 0x612 JUMPI PUSH2 0x612 PUSH2 0x354F JUMP JUMPDEST EQ PUSH1 0x40 MLOAD DUP1 PUSH1 0x40 ADD PUSH1 0x40 MSTORE DUP1 PUSH1 0x9 DUP2 MSTORE PUSH1 0x20 ADD PUSH9 0x4241445F5354415445 PUSH1 0xB8 SHL DUP2 MSTORE POP SWAP1 PUSH2 0x653 JUMPI PUSH1 0x40 MLOAD PUSH3 0x461BCD PUSH1 0xE5 SHL DUP2 MSTORE PUSH1 0x4 ADD PUSH2 0x5EE SWAP2 SWAP1 PUSH2 0x38A7 JUMP JUMPDEST POP PUSH1 0x1 DUP2 ADD SLOAD PUSH1 0x1 PUSH1 0x1 PUSH1 0xA0 SHL SUB AND CALLER EQ DUP1 PUSH2 0x67B JUMPI POP PUSH1 0x2 DUP2 ADD SLOAD PUSH1 0x1 PUSH1 0x1 PUSH1 0xA0 SHL SUB AND CALLER EQ JUMPDEST PUSH2 0x6B9 JUMPI PUSH1 0x40 MLOAD PUSH3 0x461BCD PUSH1 0xE5 SHL DUP2 MSTORE PUSH1 0x20 PUSH1 0x4 DUP3 ADD MSTORE PUSH1 0xF PUSH1 0x24 DUP3 ADD MSTORE PUSH15 0x1393D517D41054951250D254105395 PUSH1 0x8A SHL PUSH1 0x44 DUP3 ADD MSTORE PUSH1 0x64 ADD PUSH2 0x5EE JUMP JUMPDEST PUSH1 0xC DUP2 ADD SLOAD PUSH1 0x40 DUP1 MLOAD DUP1 DUP3 ADD SWAP1 SWAP2 MSTORE PUSH1 0xE DUP2 MSTORE PUSH14 0x444953505554455F455849535453 PUSH1 0x90 SHL PUSH1 0x20 DUP3 ADD MSTORE SWAP1 PUSH1 0xFF AND ISZERO PUSH2 0x705 JUMPI PUSH1 0x40 MLOAD PUSH3 0x461BCD PUSH1 0xE5 SHL DUP2 MSTORE PUSH1 0x4 ADD PUSH2 0x5EE SWAP2 SWAP1 PUSH2 0x38A7 JUMP JUMPDEST POP PUSH1 0x8 DUP2 ADD DUP1 SLOAD PUSH1 0xFF NOT SWAP1 DUP2 AND PUSH1 0x4 OR SWAP1 SWAP2 SSTORE PUSH1 0xC DUP3 ADD DUP1 SLOAD SWAP1 SWAP2 AND PUSH1 0x1 OR SWAP1 SSTORE PUSH1 0x40 MLOAD CALLER SWAP1 DUP4 SWAP1 PUSH32 0x44F3C3ED15C708331582BC379D28659A58F183A563ABE41AA4C8889DB469F71C SWAP1 PUSH0 SWAP1 LOG3 POP POP JUMP JUMPDEST PUSH0 SLOAD PUSH1 0x1 PUSH1 0x1 PUSH1 0xA0 SHL SUB AND CALLER EQ DUP1 PUSH2 0x77C JUMPI POP CALLER PUSH0 SWAP1 DUP2 MSTORE PUSH1 0x1 PUSH1 0x20 MSTORE PUSH1 0x40 SWAP1 KECCAK256 SLOAD PUSH1 0xFF AND JUMPDEST PUSH1 0x40 MLOAD DUP1 PUSH1 0x40 ADD PUSH1 0x40 MSTORE DUP1 PUSH1 0x9 DUP2 MSTORE PUSH1 0x20 ADD PUSH9 0x2727AA2FA0A226A4A7 PUSH1 0xB9 SHL DUP2 MSTORE POP SWAP1 PUSH2 0x7BC JUMPI PUSH1 0x40 MLOAD PUSH3 0x461BCD PUSH1 0xE5 SHL DUP2 MSTORE PUSH1 0x4 ADD PUSH2 0x5EE SWAP2 SWAP1 PUSH2 0x38A7 JUMP JUMPDEST POP PUSH1 0x1 PUSH1 0x1 PUSH1 0xA0 SHL SUB DUP3 AND PUSH0 DUP2 DUP2 MSTORE PUSH1 0x2 PUSH1 0x20 SWAP1 DUP2 MSTORE PUSH1 0x40 SWAP2 DUP3 SWAP1 KECCAK256 DUP1 SLOAD PUSH1 0xFF NOT AND DUP6 ISZERO ISZERO SWAP1 DUP2 OR SWAP1 SWAP2 SSTORE SWAP2 MLOAD SWAP2 DUP3 MSTORE PUSH32 0x7E703270DD349AA2AFCA0F59467C19B0C4F7029C7057D0FAD2FC0223E6CAE5E SWAP2 ADD JUMPDEST PUSH1 0x40 MLOAD DUP1 SWAP2 SUB SWAP1 LOG2 POP POP JUMP JUMPDEST PUSH0 DUP2 DUP2 MSTORE PUSH1 0x9 PUSH1 0x20 MSTORE PUSH1 0x40 DUP2 KECCAK256 DUP1 SLOAD SWAP1 SWAP2 SUB PUSH2 0x84A JUMPI PUSH1 0x40 MLOAD PUSH3 0x461BCD PUSH1 0xE5 SHL DUP2 MSTORE PUSH1 0x4 ADD PUSH2 0x5EE SWAP1 PUSH2 0x387D JUMP JUMPDEST PUSH1 0x2 PUSH1 0x8 DUP3 ADD SLOAD PUSH1 0xFF AND PUSH1 0x6 DUP2 GT ISZERO PUSH2 0x865 JUMPI PUSH2 0x865 PUSH2 0x354F JUMP JUMPDEST EQ PUSH1 0x40 MLOAD DUP1 PUSH1 0x40 ADD PUSH1 0x40 MSTORE DUP1 PUSH1 0x9 DUP2 MSTORE PUSH1 0x20 ADD PUSH9 0x4241445F5354415445 PUSH1 0xB8 SHL DUP2 MSTORE POP SWAP1 PUSH2 0x8A6 JUMPI PUSH1 0x40 MLOAD PUSH3 0x461BCD PUSH1 0xE5 SHL DUP2 MSTORE PUSH1 0x4 ADD PUSH2 0x5EE SWAP2 SWAP1 PUSH2 0x38A7 JUMP JUMPDEST POP PUSH1 0x3 DUP2 ADD SLOAD PUSH0 SWAP1 PUSH2 0x8C0 SWAP1 PUSH1 0x1 PUSH1 0x1 PUSH1 0xA0 SHL SUB AND PUSH2 0x3173 JUMP JUMPDEST SWAP1 POP DUP1 PUSH1 0xE0 ADD MLOAD PUSH4 0xFFFFFFFF AND DUP3 PUSH1 0xA ADD SLOAD PUSH2 0x8DC SWAP2 SWAP1 PUSH2 0x3906 JUMP JUMPDEST TIMESTAMP GT PUSH1 0x40 MLOAD DUP1 PUSH1 0x40 ADD PUSH1 0x40 MSTORE DUP1 PUSH1 0x12 DUP2 MSTORE PUSH1 0x20 ADD PUSH18 0x15D2539113D5D7D393D517D1561412549151 PUSH1 0x72 SHL DUP2 MSTORE POP SWAP1 PUSH2 0x927 JUMPI PUSH1 0x40 MLOAD PUSH3 0x461BCD PUSH1 0xE5 SHL DUP2 MSTORE PUSH1 0x4 ADD PUSH2 0x5EE SWAP2 SWAP1 PUSH2 0x38A7 JUMP JUMPDEST POP DUP2 SLOAD PUSH0 SWAP1 DUP2 MSTORE PUSH1 0x8 PUSH1 0x20 SWAP1 DUP2 MSTORE PUSH1 0x40 SWAP2 DUP3 SWAP1 KECCAK256 PUSH1 0x5 DUP2 ADD SLOAD DUP4 MLOAD DUP1 DUP6 ADD SWAP1 SWAP5 MSTORE PUSH1 0xF DUP5 MSTORE PUSH15 0x8AA686A49EAEBE9A92A69A82A8869 PUSH1 0x8B SHL SWAP3 DUP5 ADD SWAP3 SWAP1 SWAP3 MSTORE SWAP2 SWAP1 DUP6 EQ PUSH2 0x987 JUMPI PUSH1 0x40 MLOAD PUSH3 0x461BCD PUSH1 0xE5 SHL DUP2 MSTORE PUSH1 0x4 ADD PUSH2 0x5EE SWAP2 SWAP1 PUSH2 0x38A7 JUMP JUMPDEST POP PUSH1 0x1 PUSH1 0x4 DUP3 ADD SLOAD PUSH1 0xFF AND PUSH1 0x3 DUP2 GT ISZERO PUSH2 0x9A3 JUMPI PUSH2 0x9A3 PUSH2 0x354F JUMP JUMPDEST EQ PUSH1 0x40 MLOAD DUP1 PUSH1 0x40 ADD PUSH1 0x40 MSTORE DUP1 PUSH1 0x9 DUP2 MSTORE PUSH1 0x20 ADD PUSH9 0x4241445F5354415445 PUSH1 0xB8 SHL DUP2 MSTORE POP SWAP1 PUSH2 0x9E4 JUMPI PUSH1 0x40 MLOAD PUSH3 0x461BCD PUSH1 0xE5 SHL DUP2 MSTORE PUSH1 0x4 ADD PUSH2 0x5EE SWAP2 SWAP1 PUSH2 0x38A7 JUMP JUMPDEST POP PUSH1 0x6 DUP4 ADD SLOAD ISZERO PUSH2 0xA1D JUMPI PUSH1 0x3 DUP1 SLOAD PUSH1 0x6 DUP6 ADD SLOAD SWAP2 DUP6 ADD SLOAD PUSH2 0xA16 SWAP3 PUSH1 0x1 PUSH1 0x1 PUSH1 0xA0 SHL SUB SWAP2 DUP3 AND SWAP3 SWAP2 SWAP1 SWAP2 AND SWAP1 PUSH2 0x32AA JUMP JUMPDEST PUSH0 PUSH1 0x6 DUP5 ADD SSTORE JUMPDEST PUSH0 DUP4 PUSH1 0x7 ADD SLOAD DUP5 PUSH1 0x5 ADD SLOAD DUP6 PUSH1 0x4 ADD SLOAD PUSH2 0xA37 SWAP2 SWAP1 PUSH2 0x3906 JUMP JUMPDEST PUSH2 0xA41 SWAP2 SWAP1 PUSH2 0x3906 JUMP JUMPDEST SWAP1 POP DUP1 ISZERO PUSH2 0xA6A JUMPI PUSH1 0x2 DUP5 ADD SLOAD PUSH1 0x3 DUP6 ADD SLOAD PUSH2 0xA6A SWAP2 PUSH1 0x1 PUSH1 0x1 PUSH1 0xA0 SHL SUB SWAP2 DUP3 AND SWAP2 AND DUP4 PUSH2 0x32AA JUMP JUMPDEST PUSH0 PUSH1 0x4 DUP6 DUP2 ADD DUP3 SWAP1 SSTORE PUSH1 0x5 DUP1 DUP8 ADD DUP4 SWAP1 SSTORE PUSH1 0x7 DUP8 ADD DUP4 SWAP1 SSTORE PUSH1 0x8 DUP8 ADD DUP1 SLOAD PUSH1 0x6 PUSH1 0xFF NOT SWAP2 DUP3 AND OR SWAP1 SWAP2 SSTORE SWAP2 DUP6 ADD DUP1 SLOAD SWAP1 SWAP3 AND SWAP1 SWAP2 SSTORE DUP4 ADD SSTORE PUSH1 0x40 DUP1 MLOAD PUSH1 0x20 DUP1 DUP3 MSTORE PUSH1 0x18 SWAP1 DUP3 ADD MSTORE PUSH32 0x42555945525F4E4F5F434F4E4649524D5F464F52464549540000000000000000 DUP2 DUP4 ADD MSTORE SWAP1 MLOAD DUP7 SWAP2 PUSH32 0xDF5AF23A8BFBD700E381C19607D03504D7A5BA1876C669CCCD37FEACE1F5ADAA SWAP2 SWAP1 DUP2 SWAP1 SUB PUSH1 0x60 ADD SWAP1 LOG2 POP POP POP POP POP JUMP JUMPDEST PUSH0 DUP2 DUP2 MSTORE PUSH1 0x8 PUSH1 0x20 MSTORE PUSH1 0x40 SWAP1 KECCAK256 DUP1 SLOAD PUSH1 0x1 PUSH1 0x1 PUSH1 0xA0 SHL SUB AND PUSH2 0xB40 JUMPI PUSH1 0x40 MLOAD PUSH3 0x461BCD PUSH1 0xE5 SHL DUP2 MSTORE PUSH1 0x4 ADD PUSH2 0x5EE SWAP1 PUSH2 0x3919 JUMP JUMPDEST DUP1 SLOAD PUSH1 0x40 DUP1 MLOAD DUP1 DUP3 ADD SWAP1 SWAP2 MSTORE PUSH1 0x9 DUP2 MSTORE PUSH9 0x2727AA2FA6A0A5A2A9 PUSH1 0xB9 SHL PUSH1 0x20 DUP3 ADD MSTORE SWAP1 PUSH1 0x1 PUSH1 0x1 PUSH1 0xA0 SHL SUB AND CALLER EQ PUSH2 0xB8B JUMPI PUSH1 0x40 MLOAD PUSH3 0x461BCD PUSH1 0xE5 SHL DUP2 MSTORE PUSH1 0x4 ADD PUSH2 0x5EE SWAP2 SWAP1 PUSH2 0x38A7 JUMP JUMPDEST POP PUSH0 PUSH1 0x4 DUP3 ADD SLOAD PUSH1 0xFF AND PUSH1 0x3 DUP2 GT ISZERO PUSH2 0xBA6 JUMPI PUSH2 0xBA6 PUSH2 0x354F JUMP JUMPDEST EQ PUSH1 0x40 MLOAD DUP1 PUSH1 0x40 ADD PUSH1 0x40 MSTORE DUP1 PUSH1 0x9 DUP2 MSTORE PUSH1 0x20 ADD PUSH9 0x4241445F5354415445 PUSH1 0xB8 SHL DUP2 MSTORE POP SWAP1 PUSH2 0xBE7 JUMPI PUSH1 0x40 MLOAD PUSH3 0x461BCD PUSH1 0xE5 SHL DUP2 MSTORE PUSH1 0x4 ADD PUSH2 0x5EE SWAP2 SWAP1 PUSH2 0x38A7 JUMP JUMPDEST POP PUSH1 0x5 DUP2 ADD SLOAD PUSH1 0x40 DUP1 MLOAD DUP1 DUP3 ADD SWAP1 SWAP2 MSTORE PUSH1 0x9 DUP2 MSTORE PUSH9 0x4241445F5354415445 PUSH1 0xB8 SHL PUSH1 0x20 DUP3 ADD MSTORE SWAP1 ISZERO PUSH2 0xC2C JUMPI PUSH1 0x40 MLOAD PUSH3 0x461BCD PUSH1 0xE5 SHL DUP2 MSTORE PUSH1 0x4 ADD PUSH2 0x5EE SWAP2 SWAP1 PUSH2 0x38A7 JUMP JUMPDEST POP PUSH1 0x4 DUP2 ADD DUP1 SLOAD PUSH1 0xFF NOT AND PUSH1 0x2 OR SWAP1 SSTORE PUSH1 0x3 DUP2 ADD SLOAD ISZERO PUSH2 0xC72 JUMPI PUSH1 0x3 DUP1 SLOAD SWAP1 DUP3 ADD SLOAD PUSH1 0x1 DUP4 ADD SLOAD PUSH2 0xC6B SWAP3 PUSH1 0x1 PUSH1 0x1 PUSH1 0xA0 SHL SUB SWAP2 DUP3 AND SWAP3 SWAP2 AND SWAP1 PUSH2 0x32AA JUMP JUMPDEST PUSH0 PUSH1 0x3 DUP3 ADD SSTORE JUMPDEST PUSH1 0x40 MLOAD DUP3 SWAP1 PUSH32 0x20E953810446BFEC422C45A49B30C7B446BC121960D6568E36A20016140F86B7 SWAP1 PUSH0 SWAP1 LOG2 POP POP JUMP JUMPDEST PUSH0 SLOAD PUSH1 0x40 DUP1 MLOAD DUP1 DUP3 ADD SWAP1 SWAP2 MSTORE PUSH1 0x9 DUP2 MSTORE PUSH9 0x2727AA2FA7ABA722A9 PUSH1 0xB9 SHL PUSH1 0x20 DUP3 ADD MSTORE SWAP1 PUSH1 0x1 PUSH1 0x1 PUSH1 0xA0 SHL SUB AND CALLER EQ PUSH2 0xCEB JUMPI PUSH1 0x40 MLOAD PUSH3 0x461BCD PUSH1 0xE5 SHL DUP2 MSTORE PUSH1 0x4 ADD PUSH2 0x5EE SWAP2 SWAP1 PUSH2 0x38A7 JUMP JUMPDEST POP PUSH1 0x1 PUSH1 0x1 PUSH1 0xA0 SHL SUB DUP3 AND PUSH0 DUP2 DUP2 MSTORE PUSH1 0x1 PUSH1 0x20 SWAP1 DUP2 MSTORE PUSH1 0x40 SWAP2 DUP3 SWAP1 KECCAK256 DUP1 SLOAD PUSH1 0xFF NOT AND DUP6 ISZERO ISZERO SWAP1 DUP2 OR SWAP1 SWAP2 SSTORE SWAP2 MLOAD SWAP2 DUP3 MSTORE PUSH32 0xE68D2C359A771606C400CF8B87000CF5864010363D6A736E98F5047B7BBE18E9 SWAP2 ADD PUSH2 0x810 JUMP JUMPDEST PUSH0 SLOAD PUSH1 0x1 PUSH1 0x1 PUSH1 0xA0 SHL SUB AND CALLER EQ DUP1 PUSH2 0xD69 JUMPI POP CALLER PUSH0 SWAP1 DUP2 MSTORE PUSH1 0x1 PUSH1 0x20 MSTORE PUSH1 0x40 SWAP1 KECCAK256 SLOAD PUSH1 0xFF AND JUMPDEST PUSH1 0x40 MLOAD DUP1 PUSH1 0x40 ADD PUSH1 0x40 MSTORE DUP1 PUSH1 0x9 DUP2 MSTORE PUSH1 0x20 ADD PUSH9 0x2727AA2FA0A226A4A7 PUSH1 0xB9 SHL DUP2 MSTORE POP SWAP1 PUSH2 0xDA9 JUMPI PUSH1 0x40 MLOAD PUSH3 0x461BCD PUSH1 0xE5 SHL DUP2 MSTORE PUSH1 0x4 ADD PUSH2 0x5EE SWAP2 SWAP1 PUSH2 0x38A7 JUMP JUMPDEST POP PUSH1 0x1 PUSH1 0x1 PUSH1 0xA0 SHL SUB DUP3 AND PUSH2 0xDD0 JUMPI PUSH1 0x40 MLOAD PUSH3 0x461BCD PUSH1 0xE5 SHL DUP2 MSTORE PUSH1 0x4 ADD PUSH2 0x5EE SWAP1 PUSH2 0x393F JUMP JUMPDEST PUSH2 0x2710 PUSH2 0xDE3 PUSH1 0x40 DUP4 ADD PUSH1 0x20 DUP5 ADD PUSH2 0x3972 JUMP JUMPDEST PUSH2 0xFFFF AND GT ISZERO DUP1 ISZERO PUSH2 0xE0A JUMPI POP PUSH2 0x2710 PUSH2 0xE03 PUSH1 0x60 DUP4 ADD PUSH1 0x40 DUP5 ADD PUSH2 0x3972 JUMP JUMPDEST PUSH2 0xFFFF AND GT ISZERO JUMPDEST PUSH1 0x40 MLOAD DUP1 PUSH1 0x40 ADD PUSH1 0x40 MSTORE DUP1 PUSH1 0x7 DUP2 MSTORE PUSH1 0x20 ADD PUSH7 0x4241445F425053 PUSH1 0xC8 SHL DUP2 MSTORE POP SWAP1 PUSH2 0xE48 JUMPI PUSH1 0x40 MLOAD PUSH3 0x461BCD PUSH1 0xE5 SHL DUP2 MSTORE PUSH1 0x4 ADD PUSH2 0x5EE SWAP2 SWAP1 PUSH2 0x38A7 JUMP JUMPDEST POP PUSH2 0x2710 PUSH2 0xE5C PUSH1 0x80 DUP4 ADD PUSH1 0x60 DUP5 ADD PUSH2 0x3972 JUMP JUMPDEST PUSH2 0xFFFF AND GT ISZERO DUP1 ISZERO PUSH2 0xE83 JUMPI POP PUSH2 0x2710 PUSH2 0xE7C PUSH1 0xC0 DUP4 ADD PUSH1 0xA0 DUP5 ADD PUSH2 0x3972 JUMP JUMPDEST PUSH2 0xFFFF AND GT ISZERO JUMPDEST PUSH1 0x40 MLOAD DUP1 PUSH1 0x40 ADD PUSH1 0x40 MSTORE DUP1 PUSH1 0x7 DUP2 MSTORE PUSH1 0x20 ADD PUSH7 0x4241445F425053 PUSH1 0xC8 SHL DUP2 MSTORE POP SWAP1 PUSH2 0xEC1 JUMPI PUSH1 0x40 MLOAD PUSH3 0x461BCD PUSH1 0xE5 SHL DUP2 MSTORE PUSH1 0x4 ADD PUSH2 0x5EE SWAP2 SWAP1 PUSH2 0x38A7 JUMP JUMPDEST POP PUSH1 0x1 PUSH1 0x1 PUSH1 0xA0 SHL SUB DUP3 AND PUSH0 SWAP1 DUP2 MSTORE PUSH1 0x4 PUSH1 0x20 MSTORE PUSH1 0x40 SWAP1 KECCAK256 DUP2 SWAP1 PUSH2 0xEE5 DUP3 DUP3 PUSH2 0x39B6 JUMP JUMPDEST POP POP PUSH1 0x1 PUSH1 0x1 PUSH1 0xA0 SHL SUB DUP3 AND PUSH32 0x70DF9BD9C5E9A1B5A52A86B9DE9D2A79B37DBDBBAAB91477D59F86D2502BBAD1 PUSH2 0xF1F PUSH1 0x20 DUP5 ADD DUP5 PUSH2 0x3B1F JUMP JUMPDEST PUSH2 0xF2F PUSH1 0x40 DUP6 ADD PUSH1 0x20 DUP7 ADD PUSH2 0x3972 JUMP JUMPDEST PUSH2 0xF3F PUSH1 0x60 DUP7 ADD PUSH1 0x40 DUP8 ADD PUSH2 0x3972 JUMP JUMPDEST PUSH2 0xF4F PUSH1 0x80 DUP8 ADD PUSH1 0x60 DUP9 ADD PUSH2 0x3972 JUMP JUMPDEST PUSH1 0x80 DUP8 ADD CALLDATALOAD PUSH2 0xF64 PUSH1 0xC0 DUP10 ADD PUSH1 0xA0 DUP11 ADD PUSH2 0x3972 JUMP JUMPDEST PUSH2 0xF74 PUSH1 0xE0 DUP11 ADD PUSH1 0xC0 DUP12 ADD PUSH2 0x3B3A JUMP JUMPDEST PUSH2 0xF85 PUSH2 0x100 DUP12 ADD PUSH1 0xE0 DUP13 ADD PUSH2 0x3B3A JUMP JUMPDEST PUSH2 0xF97 PUSH2 0x120 DUP13 ADD PUSH2 0x100 DUP14 ADD PUSH2 0x3B3A JUMP JUMPDEST PUSH1 0x40 MLOAD PUSH2 0x810 SWAP10 SWAP9 SWAP8 SWAP7 SWAP6 SWAP5 SWAP4 SWAP3 SWAP2 SWAP1 PUSH2 0x382B JUMP JUMPDEST PUSH0 PUSH1 0x1 PUSH1 0x1 PUSH1 0xA0 SHL SUB DUP4 AND PUSH2 0xFD3 JUMPI PUSH1 0x40 MLOAD PUSH3 0x461BCD PUSH1 0xE5 SHL DUP2 MSTORE PUSH1 0x4 ADD PUSH2 0x5EE SWAP1 PUSH2 0x393F JUMP JUMPDEST PUSH0 DUP3 GT PUSH2 0xFF2 JUMPI PUSH1 0x40 MLOAD PUSH3 0x461BCD PUSH1 0xE5 SHL DUP2 MSTORE PUSH1 0x4 ADD PUSH2 0x5EE SWAP1 PUSH2 0x3B55 JUMP JUMPDEST PUSH2 0xFFB DUP4 PUSH2 0x3173 JUMP JUMPDEST POP PUSH0 PUSH2 0x1007 DUP5 DUP5 PUSH2 0x3363 JUMP JUMPDEST SWAP1 POP DUP1 ISZERO PUSH2 0x1024 JUMPI PUSH2 0x1024 PUSH1 0x1 PUSH1 0x1 PUSH1 0xA0 SHL SUB DUP6 AND CALLER ADDRESS DUP5 PUSH2 0x33B5 JUMP JUMPDEST PUSH1 0x6 DUP1 SLOAD SWAP1 PUSH0 PUSH2 0x1033 DUP4 PUSH2 0x3B7A JUMP JUMPDEST SWAP2 SWAP1 POP SSTORE SWAP2 POP PUSH1 0x40 MLOAD DUP1 PUSH1 0xE0 ADD PUSH1 0x40 MSTORE DUP1 CALLER PUSH1 0x1 PUSH1 0x1 PUSH1 0xA0 SHL SUB AND DUP2 MSTORE PUSH1 0x20 ADD DUP7 ISZERO ISZERO DUP2 MSTORE PUSH1 0x20 ADD DUP6 PUSH1 0x1 PUSH1 0x1 PUSH1 0xA0 SHL SUB AND DUP2 MSTORE PUSH1 0x20 ADD DUP5 DUP2 MSTORE PUSH1 0x20 ADD DUP3 DUP2 MSTORE PUSH1 0x20 ADD PUSH0 PUSH1 0x3 DUP2 GT ISZERO PUSH2 0x1088 JUMPI PUSH2 0x1088 PUSH2 0x354F JUMP JUMPDEST DUP2 MSTORE PUSH0 PUSH1 0x20 SWAP2 DUP3 ADD DUP2 SWAP1 MSTORE DUP5 DUP2 MSTORE PUSH1 0x8 DUP3 MSTORE PUSH1 0x40 SWAP1 DUP2 SWAP1 KECCAK256 DUP4 MLOAD DUP2 SLOAD SWAP4 DUP6 ADD MLOAD ISZERO ISZERO PUSH1 0x1 PUSH1 0xA0 SHL MUL PUSH1 0x1 PUSH1 0x1 PUSH1 0xA8 SHL SUB NOT SWAP1 SWAP5 AND PUSH1 0x1 PUSH1 0x1 PUSH1 0xA0 SHL SUB SWAP2 DUP3 AND OR SWAP4 SWAP1 SWAP4 OR DUP2 SSTORE SWAP1 DUP4 ADD MLOAD PUSH1 0x1 DUP1 DUP4 ADD DUP1 SLOAD SWAP3 SWAP1 SWAP5 AND PUSH1 0x1 PUSH1 0x1 PUSH1 0xA0 SHL SUB NOT SWAP3 SWAP1 SWAP3 AND SWAP2 SWAP1 SWAP2 OR SWAP1 SWAP3 SSTORE PUSH1 0x60 DUP4 ADD MLOAD PUSH1 0x2 DUP3 ADD SSTORE PUSH1 0x80 DUP4 ADD MLOAD PUSH1 0x3 DUP1 DUP4 ADD SWAP2 SWAP1 SWAP2 SSTORE PUSH1 0xA0 DUP5 ADD MLOAD PUSH1 0x4 DUP4 ADD DUP1 SLOAD SWAP4 SWAP5 SWAP2 SWAP4 SWAP1 SWAP3 PUSH1 0xFF NOT SWAP1 SWAP2 AND SWAP2 SWAP1 DUP5 SWAP1 DUP2 GT ISZERO PUSH2 0x1133 JUMPI PUSH2 0x1133 PUSH2 0x354F JUMP JUMPDEST MUL OR SWAP1 SSTORE POP PUSH1 0xC0 SWAP2 SWAP1 SWAP2 ADD MLOAD PUSH1 0x5 SWAP1 SWAP2 ADD SSTORE PUSH1 0x40 DUP1 MLOAD DUP7 ISZERO ISZERO DUP2 MSTORE PUSH1 0x20 DUP2 ADD DUP6 SWAP1 MSTORE SWAP1 DUP2 ADD DUP3 SWAP1 MSTORE PUSH1 0x1 PUSH1 0x1 PUSH1 0xA0 SHL SUB DUP6 AND SWAP1 CALLER SWAP1 DUP5 SWAP1 PUSH32 0x636B1AD28DB834FA17206311CFA78045878F0A5BE34081A2213975144E70B55B SWAP1 PUSH1 0x60 ADD PUSH1 0x40 MLOAD DUP1 SWAP2 SUB SWAP1 LOG4 POP SWAP4 SWAP3 POP POP POP JUMP JUMPDEST PUSH1 0x1 PUSH1 0x1 PUSH1 0xA0 SHL SUB DUP3 AND PUSH2 0x11C5 JUMPI PUSH1 0x40 MLOAD PUSH3 0x461BCD PUSH1 0xE5 SHL DUP2 MSTORE PUSH1 0x4 ADD PUSH2 0x5EE SWAP1 PUSH2 0x393F JUMP JUMPDEST PUSH0 DUP2 GT PUSH2 0x11E4 JUMPI PUSH1 0x40 MLOAD PUSH3 0x461BCD PUSH1 0xE5 SHL DUP2 MSTORE PUSH1 0x4 ADD PUSH2 0x5EE SWAP1 PUSH2 0x3B55 JUMP JUMPDEST CALLER PUSH0 SWAP1 DUP2 MSTORE PUSH1 0x5 PUSH1 0x20 SWAP1 DUP2 MSTORE PUSH1 0x40 DUP1 DUP4 KECCAK256 PUSH1 0x1 PUSH1 0x1 PUSH1 0xA0 SHL SUB DUP7 AND DUP5 MSTORE SWAP1 SWAP2 MSTORE SWAP1 KECCAK256 SLOAD DUP2 DUP2 LT ISZERO PUSH2 0x124D JUMPI PUSH1 0x40 MLOAD PUSH3 0x461BCD PUSH1 0xE5 SHL DUP2 MSTORE PUSH1 0x20 PUSH1 0x4 DUP3 ADD MSTORE PUSH1 0x13 PUSH1 0x24 DUP3 ADD MSTORE PUSH19 0x125394D551919250D251539517D0D491511255 PUSH1 0x6A SHL PUSH1 0x44 DUP3 ADD MSTORE PUSH1 0x64 ADD PUSH2 0x5EE JUMP JUMPDEST PUSH2 0x1257 DUP3 DUP3 PUSH2 0x3B92 JUMP JUMPDEST CALLER PUSH0 DUP2 DUP2 MSTORE PUSH1 0x5 PUSH1 0x20 SWAP1 DUP2 MSTORE PUSH1 0x40 DUP1 DUP4 KECCAK256 PUSH1 0x1 PUSH1 0x1 PUSH1 0xA0 SHL SUB DUP10 AND DUP1 DUP6 MSTORE SWAP3 MSTORE SWAP1 SWAP2 KECCAK256 SWAP3 SWAP1 SWAP3 SSTORE PUSH2 0x1289 SWAP2 SWAP1 DUP5 PUSH2 0x32AA JUMP JUMPDEST PUSH1 0x40 MLOAD DUP3 DUP2 MSTORE PUSH1 0x1 PUSH1 0x1 PUSH1 0xA0 SHL SUB DUP5 AND SWAP1 CALLER SWAP1 PUSH32 0x52FC0F9D902F33823A83590D3549F63F5492A0DF5C6B6DB8DEE20DEB94456B26 SWAP1 PUSH1 0x20 ADD PUSH1 0x40 MLOAD DUP1 SWAP2 SUB SWAP1 LOG3 POP POP POP JUMP JUMPDEST PUSH0 DUP2 DUP2 MSTORE PUSH1 0x9 PUSH1 0x20 MSTORE PUSH1 0x40 DUP2 KECCAK256 DUP1 SLOAD SWAP1 SWAP2 SUB PUSH2 0x12FC JUMPI PUSH1 0x40 MLOAD PUSH3 0x461BCD PUSH1 0xE5 SHL DUP2 MSTORE PUSH1 0x4 ADD PUSH2 0x5EE SWAP1 PUSH2 0x387D JUMP JUMPDEST PUSH1 0x2 PUSH1 0x8 DUP3 ADD SLOAD PUSH1 0xFF AND PUSH1 0x6 DUP2 GT ISZERO PUSH2 0x1317 JUMPI PUSH2 0x1317 PUSH2 0x354F JUMP JUMPDEST EQ PUSH1 0x40 MLOAD DUP1 PUSH1 0x40 ADD PUSH1 0x40 MSTORE DUP1 PUSH1 0x9 DUP2 MSTORE PUSH1 0x20 ADD PUSH9 0x4241445F5354415445 PUSH1 0xB8 SHL DUP2 MSTORE POP SWAP1 PUSH2 0x1358 JUMPI PUSH1 0x40 MLOAD PUSH3 0x461BCD PUSH1 0xE5 SHL DUP2 MSTORE PUSH1 0x4 ADD PUSH2 0x5EE SWAP2 SWAP1 PUSH2 0x38A7 JUMP JUMPDEST POP PUSH1 0x1 DUP2 ADD SLOAD PUSH1 0x40 DUP1 MLOAD DUP1 DUP3 ADD SWAP1 SWAP2 MSTORE PUSH1 0x9 DUP2 MSTORE PUSH9 0x2727AA2FA12AACA2A9 PUSH1 0xB9 SHL PUSH1 0x20 DUP3 ADD MSTORE SWAP1 PUSH1 0x1 PUSH1 0x1 PUSH1 0xA0 SHL SUB AND CALLER EQ PUSH2 0x13A7 JUMPI PUSH1 0x40 MLOAD PUSH3 0x461BCD PUSH1 0xE5 SHL DUP2 MSTORE PUSH1 0x4 ADD PUSH2 0x5EE SWAP2 SWAP1 PUSH2 0x38A7 JUMP JUMPDEST POP PUSH1 0x3 DUP2 ADD SLOAD PUSH0 SWAP1 PUSH2 0x13C1 SWAP1 PUSH1 0x1 PUSH1 0x1 PUSH1 0xA0 SHL SUB AND PUSH2 0x3173 JUMP JUMPDEST SWAP1 POP DUP1 PUSH1 0xE0 ADD MLOAD PUSH4 0xFFFFFFFF AND DUP3 PUSH1 0xA ADD SLOAD PUSH2 0x13DD SWAP2 SWAP1 PUSH2 0x3906 JUMP JUMPDEST TIMESTAMP GT ISZERO PUSH1 0x40 MLOAD DUP1 PUSH1 0x40 ADD PUSH1 0x40 MSTORE DUP1 PUSH1 0xE DUP2 MSTORE PUSH1 0x20 ADD PUSH14 0x15D2539113D5D7D1561412549151 PUSH1 0x92 SHL DUP2 MSTORE POP SWAP1 PUSH2 0x1425 JUMPI PUSH1 0x40 MLOAD PUSH3 0x461BCD PUSH1 0xE5 SHL DUP2 MSTORE PUSH1 0x4 ADD PUSH2 0x5EE SWAP2 SWAP1 PUSH2 0x38A7 JUMP JUMPDEST POP PUSH1 0x8 DUP3 ADD DUP1 SLOAD PUSH1 0xFF NOT AND PUSH1 0x3 OR SWAP1 SSTORE TIMESTAMP PUSH1 0xB DUP4 ADD SSTORE PUSH1 0x40 MLOAD CALLER SWAP1 DUP5 SWAP1 PUSH32 0x2BCE41B08631CF63C2DFD0B519D88A1E3DB7E906BA6F0234F853996915E09028 SWAP1 PUSH0 SWAP1 LOG3 POP POP POP JUMP JUMPDEST PUSH0 DUP2 DUP2 MSTORE PUSH1 0x8 PUSH1 0x20 MSTORE PUSH1 0x40 DUP2 KECCAK256 DUP1 SLOAD PUSH1 0x1 PUSH1 0x1 PUSH1 0xA0 SHL SUB AND PUSH2 0x14A0 JUMPI PUSH1 0x40 MLOAD PUSH3 0x461BCD PUSH1 0xE5 SHL DUP2 MSTORE PUSH1 0x4 ADD PUSH2 0x5EE SWAP1 PUSH2 0x3919 JUMP JUMPDEST PUSH0 PUSH1 0x4 DUP3 ADD SLOAD PUSH1 0xFF AND PUSH1 0x3 DUP2 GT ISZERO PUSH2 0x14BA JUMPI PUSH2 0x14BA PUSH2 0x354F JUMP JUMPDEST EQ PUSH1 0x40 MLOAD DUP1 PUSH1 0x40 ADD PUSH1 0x40 MSTORE DUP1 PUSH1 0x9 DUP2 MSTORE PUSH1 0x20 ADD PUSH9 0x4241445F5354415445 PUSH1 0xB8 SHL DUP2 MSTORE POP SWAP1 PUSH2 0x14FB JUMPI PUSH1 0x40 MLOAD PUSH3 0x461BCD PUSH1 0xE5 SHL DUP2 MSTORE PUSH1 0x4 ADD PUSH2 0x5EE SWAP2 SWAP1 PUSH2 0x38A7 JUMP JUMPDEST POP PUSH1 0x5 DUP2 ADD SLOAD PUSH1 0x40 DUP1 MLOAD DUP1 DUP3 ADD SWAP1 SWAP2 MSTORE PUSH1 0xD DUP2 MSTORE PUSH13 0x20A62922A0A22CAFAA20A5A2A7 PUSH1 0x99 SHL PUSH1 0x20 DUP3 ADD MSTORE SWAP1 ISZERO PUSH2 0x1544 JUMPI PUSH1 0x40 MLOAD PUSH3 0x461BCD PUSH1 0xE5 SHL DUP2 MSTORE PUSH1 0x4 ADD PUSH2 0x5EE SWAP2 SWAP1 PUSH2 0x38A7 JUMP JUMPDEST POP PUSH1 0x40 DUP1 MLOAD PUSH1 0xE0 DUP2 ADD DUP3 MSTORE DUP3 SLOAD PUSH1 0x1 PUSH1 0x1 PUSH1 0xA0 SHL SUB DUP1 DUP3 AND DUP4 MSTORE PUSH1 0xFF PUSH1 0x1 PUSH1 0xA0 SHL SWAP1 SWAP3 DIV DUP3 AND ISZERO ISZERO PUSH1 0x20 DUP5 ADD MSTORE PUSH1 0x1 DUP6 ADD SLOAD AND SWAP3 DUP3 ADD SWAP3 SWAP1 SWAP3 MSTORE PUSH1 0x2 DUP4 ADD SLOAD PUSH1 0x60 DUP3 ADD MSTORE PUSH1 0x3 DUP1 DUP5 ADD SLOAD PUSH1 0x80 DUP4 ADD MSTORE PUSH1 0x4 DUP5 ADD SLOAD PUSH0 SWAP4 PUSH2 0x15DC SWAP4 SWAP3 DUP7 SWAP3 PUSH1 0xA0 DUP6 ADD SWAP3 AND SWAP1 DUP2 GT ISZERO PUSH2 0x15B7 JUMPI PUSH2 0x15B7 PUSH2 0x354F JUMP JUMPDEST PUSH1 0x3 DUP2 GT ISZERO PUSH2 0x15C8 JUMPI PUSH2 0x15C8 PUSH2 0x354F JUMP JUMPDEST DUP2 MSTORE PUSH1 0x20 ADD PUSH1 0x5 DUP3 ADD SLOAD DUP2 MSTORE POP POP CALLER PUSH2 0x3486 JUMP JUMPDEST PUSH1 0x40 DUP1 MLOAD PUSH1 0xE0 DUP2 ADD DUP3 MSTORE DUP5 SLOAD PUSH1 0x1 PUSH1 0x1 PUSH1 0xA0 SHL SUB DUP1 DUP3 AND DUP4 MSTORE PUSH1 0xFF PUSH1 0x1 PUSH1 0xA0 SHL SWAP1 SWAP3 DIV DUP3 AND ISZERO ISZERO PUSH1 0x20 DUP5 ADD MSTORE PUSH1 0x1 DUP8 ADD SLOAD AND SWAP3 DUP3 ADD SWAP3 SWAP1 SWAP3 MSTORE PUSH1 0x2 DUP6 ADD SLOAD PUSH1 0x60 DUP3 ADD MSTORE PUSH1 0x3 DUP1 DUP7 ADD SLOAD PUSH1 0x80 DUP4 ADD MSTORE PUSH1 0x4 DUP7 ADD SLOAD SWAP4 SWAP5 POP PUSH0 SWAP4 PUSH2 0x1677 SWAP4 DUP8 SWAP3 PUSH1 0xA0 DUP6 ADD SWAP3 SWAP1 SWAP2 AND SWAP1 DUP2 GT ISZERO PUSH2 0x1652 JUMPI PUSH2 0x1652 PUSH2 0x354F JUMP JUMPDEST PUSH1 0x3 DUP2 GT ISZERO PUSH2 0x1663 JUMPI PUSH2 0x1663 PUSH2 0x354F JUMP JUMPDEST DUP2 MSTORE PUSH1 0x20 ADD PUSH1 0x5 DUP3 ADD SLOAD DUP2 MSTORE POP POP CALLER PUSH2 0x34A0 JUMP JUMPDEST SWAP1 POP DUP1 PUSH1 0x1 PUSH1 0x1 PUSH1 0xA0 SHL SUB AND DUP3 PUSH1 0x1 PUSH1 0x1 PUSH1 0xA0 SHL SUB AND SUB PUSH2 0x16C7 JUMPI PUSH1 0x40 MLOAD PUSH3 0x461BCD PUSH1 0xE5 SHL DUP2 MSTORE PUSH1 0x20 PUSH1 0x4 DUP3 ADD MSTORE PUSH1 0xA PUSH1 0x24 DUP3 ADD MSTORE PUSH10 0x53454C465F5452414445 PUSH1 0xB0 SHL PUSH1 0x44 DUP3 ADD MSTORE PUSH1 0x64 ADD PUSH2 0x5EE JUMP JUMPDEST PUSH1 0x1 DUP4 ADD SLOAD PUSH1 0x2 DUP5 ADD SLOAD PUSH0 SWAP2 PUSH2 0x16E8 SWAP2 PUSH1 0x1 PUSH1 0x1 PUSH1 0xA0 SHL SUB SWAP1 SWAP2 AND SWAP1 PUSH2 0x34B6 JUMP JUMPDEST SWAP1 POP PUSH0 DUP2 GT PUSH2 0x172D JUMPI PUSH1 0x40 MLOAD PUSH3 0x461BCD PUSH1 0xE5 SHL DUP2 MSTORE PUSH1 0x20 PUSH1 0x4 DUP3 ADD MSTORE PUSH1 0x11 PUSH1 0x24 DUP3 ADD MSTORE PUSH17 0x444953505554455F424F4E445F5A45524F PUSH1 0x78 SHL PUSH1 0x44 DUP3 ADD MSTORE PUSH1 0x64 ADD PUSH2 0x5EE JUMP JUMPDEST PUSH1 0x1 DUP5 ADD SLOAD PUSH2 0x1747 SWAP1 PUSH1 0x1 PUSH1 0x1 PUSH1 0xA0 SHL SUB AND DUP5 ADDRESS DUP5 PUSH2 0x33B5 JUMP JUMPDEST PUSH1 0x7 DUP1 SLOAD SWAP1 PUSH0 PUSH2 0x1756 DUP4 PUSH2 0x3B7A JUMP JUMPDEST SWAP1 SWAP2 SSTORE POP PUSH1 0x40 DUP1 MLOAD PUSH2 0x1C0 DUP2 ADD DUP3 MSTORE DUP9 DUP2 MSTORE PUSH1 0x1 PUSH1 0x1 PUSH1 0xA0 SHL SUB DUP7 DUP2 AND PUSH1 0x20 DUP1 DUP5 ADD SWAP2 DUP3 MSTORE DUP8 DUP4 AND DUP5 DUP7 ADD SWAP1 DUP2 MSTORE PUSH1 0x1 DUP12 DUP2 ADD SLOAD DUP6 AND PUSH1 0x60 DUP8 ADD SWAP1 DUP2 MSTORE PUSH1 0x2 DUP1 DUP15 ADD SLOAD PUSH1 0x80 DUP10 ADD SWAP1 DUP2 MSTORE PUSH0 PUSH1 0xA0 DUP11 ADD DUP2 DUP2 MSTORE PUSH1 0xC0 DUP12 ADD DUP15 DUP2 MSTORE PUSH1 0xE0 DUP13 ADD DUP4 DUP2 MSTORE PUSH2 0x100 DUP14 ADD DUP9 DUP2 MSTORE TIMESTAMP PUSH2 0x120 DUP16 ADD MSTORE PUSH2 0x140 DUP15 ADD DUP6 SWAP1 MSTORE PUSH2 0x160 DUP15 ADD DUP6 SWAP1 MSTORE PUSH2 0x180 DUP15 ADD DUP6 SWAP1 MSTORE PUSH2 0x1A0 DUP15 ADD DUP6 SWAP1 MSTORE DUP16 DUP6 MSTORE PUSH1 0x9 SWAP1 SWAP11 MSTORE SWAP13 SWAP1 SWAP3 KECCAK256 DUP12 MLOAD DUP2 SSTORE SWAP9 MLOAD DUP10 DUP8 ADD DUP1 SLOAD SWAP2 DUP13 AND PUSH1 0x1 PUSH1 0x1 PUSH1 0xA0 SHL SUB NOT SWAP3 DUP4 AND OR SWAP1 SSTORE SWAP7 MLOAD SWAP4 DUP10 ADD DUP1 SLOAD SWAP5 DUP12 AND SWAP5 DUP9 AND SWAP5 SWAP1 SWAP5 OR SWAP1 SWAP4 SSTORE SWAP3 MLOAD PUSH1 0x3 DUP9 ADD DUP1 SLOAD SWAP2 SWAP1 SWAP10 AND SWAP6 AND SWAP5 SWAP1 SWAP5 OR SWAP1 SWAP7 SSTORE SWAP2 MLOAD PUSH1 0x4 DUP6 ADD SSTORE SWAP4 MLOAD PUSH1 0x5 DUP5 ADD SSTORE MLOAD PUSH1 0x6 DUP1 DUP5 ADD SWAP2 SWAP1 SWAP2 SSTORE SWAP5 MLOAD PUSH1 0x7 DUP4 ADD SSTORE MLOAD PUSH1 0x8 DUP3 ADD DUP1 SLOAD SWAP7 SWAP12 POP SWAP4 SWAP6 SWAP2 SWAP5 SWAP1 SWAP4 SWAP3 PUSH1 0xFF NOT SWAP3 SWAP1 SWAP3 AND SWAP2 SWAP1 DUP5 SWAP1 DUP2 GT ISZERO PUSH2 0x1881 JUMPI PUSH2 0x1881 PUSH2 0x354F JUMP JUMPDEST MUL OR SWAP1 SSTORE POP PUSH2 0x120 DUP3 ADD MLOAD PUSH1 0x9 DUP3 ADD SSTORE PUSH2 0x140 DUP3 ADD MLOAD PUSH1 0xA DUP3 ADD SSTORE PUSH2 0x160 DUP3 ADD MLOAD PUSH1 0xB DUP3 ADD SSTORE PUSH2 0x180 DUP3 ADD MLOAD PUSH1 0xC SWAP1 SWAP2 ADD DUP1 SLOAD PUSH2 0x1A0 SWAP1 SWAP4 ADD MLOAD PUSH2 0xFFFF NOT SWAP1 SWAP4 AND SWAP2 ISZERO ISZERO PUSH2 0xFF00 NOT AND SWAP2 SWAP1 SWAP2 OR PUSH2 0x100 SWAP3 ISZERO ISZERO SWAP3 SWAP1 SWAP3 MUL SWAP2 SWAP1 SWAP2 OR SWAP1 SSTORE PUSH1 0x4 DUP5 ADD DUP1 SLOAD PUSH1 0xFF NOT AND PUSH1 0x1 OR SWAP1 SSTORE PUSH1 0x5 DUP5 ADD DUP6 SWAP1 SSTORE PUSH1 0x40 DUP1 MLOAD PUSH1 0x1 PUSH1 0x1 PUSH1 0xA0 SHL SUB DUP5 DUP2 AND DUP3 MSTORE PUSH1 0x20 DUP3 ADD DUP5 SWAP1 MSTORE DUP6 AND SWAP2 DUP9 SWAP2 DUP9 SWAP2 PUSH32 0xB0EE7FC34CFFD8FDDD757FA75752DA0281EA49136350E672A73EDB07CF327D8 SWAP2 ADD PUSH1 0x40 MLOAD DUP1 SWAP2 SUB SWAP1 LOG4 POP POP POP POP SWAP2 SWAP1 POP JUMP JUMPDEST PUSH0 DUP2 DUP2 MSTORE PUSH1 0x9 PUSH1 0x20 MSTORE PUSH1 0x40 DUP2 KECCAK256 DUP1 SLOAD SWAP1 SWAP2 SUB PUSH2 0x1975 JUMPI PUSH1 0x40 MLOAD PUSH3 0x461BCD PUSH1 0xE5 SHL DUP2 MSTORE PUSH1 0x4 ADD PUSH2 0x5EE SWAP1 PUSH2 0x387D JUMP JUMPDEST PUSH1 0x1 PUSH1 0x8 DUP3 ADD SLOAD PUSH1 0xFF AND PUSH1 0x6 DUP2 GT ISZERO PUSH2 0x1990 JUMPI PUSH2 0x1990 PUSH2 0x354F JUMP JUMPDEST EQ PUSH1 0x40 MLOAD DUP1 PUSH1 0x40 ADD PUSH1 0x40 MSTORE DUP1 PUSH1 0x9 DUP2 MSTORE PUSH1 0x20 ADD PUSH9 0x4241445F5354415445 PUSH1 0xB8 SHL DUP2 MSTORE POP SWAP1 PUSH2 0x19D1 JUMPI PUSH1 0x40 MLOAD PUSH3 0x461BCD PUSH1 0xE5 SHL DUP2 MSTORE PUSH1 0x4 ADD PUSH2 0x5EE SWAP2 SWAP1 PUSH2 0x38A7 JUMP JUMPDEST POP PUSH1 0x3 DUP2 ADD SLOAD PUSH0 SWAP1 PUSH2 0x19EB SWAP1 PUSH1 0x1 PUSH1 0x1 PUSH1 0xA0 SHL SUB AND PUSH2 0x3173 JUMP JUMPDEST SWAP1 POP DUP1 PUSH1 0xC0 ADD MLOAD PUSH4 0xFFFFFFFF AND DUP3 PUSH1 0x9 ADD SLOAD PUSH2 0x1A07 SWAP2 SWAP1 PUSH2 0x3906 JUMP JUMPDEST TIMESTAMP GT PUSH1 0x40 MLOAD DUP1 PUSH1 0x40 ADD PUSH1 0x40 MSTORE DUP1 PUSH1 0x12 DUP2 MSTORE PUSH1 0x20 ADD PUSH18 0x15D2539113D5D7D393D517D1561412549151 PUSH1 0x72 SHL DUP2 MSTORE POP SWAP1 PUSH2 0x1A52 JUMPI PUSH1 0x40 MLOAD PUSH3 0x461BCD PUSH1 0xE5 SHL DUP2 MSTORE PUSH1 0x4 ADD PUSH2 0x5EE SWAP2 SWAP1 PUSH2 0x38A7 JUMP JUMPDEST POP DUP2 SLOAD PUSH0 SWAP1 DUP2 MSTORE PUSH1 0x8 PUSH1 0x20 SWAP1 DUP2 MSTORE PUSH1 0x40 SWAP2 DUP3 SWAP1 KECCAK256 PUSH1 0x5 DUP2 ADD SLOAD DUP4 MLOAD DUP1 DUP6 ADD SWAP1 SWAP5 MSTORE PUSH1 0xF DUP5 MSTORE PUSH15 0x8AA686A49EAEBE9A92A69A82A8869 PUSH1 0x8B SHL SWAP3 DUP5 ADD SWAP3 SWAP1 SWAP3 MSTORE SWAP2 SWAP1 DUP6 EQ PUSH2 0x1AB2 JUMPI PUSH1 0x40 MLOAD PUSH3 0x461BCD PUSH1 0xE5 SHL DUP2 MSTORE PUSH1 0x4 ADD PUSH2 0x5EE SWAP2 SWAP1 PUSH2 0x38A7 JUMP JUMPDEST POP PUSH1 0x1 PUSH1 0x4 DUP3 ADD SLOAD PUSH1 0xFF AND PUSH1 0x3 DUP2 GT ISZERO PUSH2 0x1ACE JUMPI PUSH2 0x1ACE PUSH2 0x354F JUMP JUMPDEST EQ PUSH1 0x40 MLOAD DUP1 PUSH1 0x40 ADD PUSH1 0x40 MSTORE DUP1 PUSH1 0x9 DUP2 MSTORE PUSH1 0x20 ADD PUSH9 0x4241445F5354415445 PUSH1 0xB8 SHL DUP2 MSTORE POP SWAP1 PUSH2 0x1B0F JUMPI PUSH1 0x40 MLOAD PUSH3 0x461BCD PUSH1 0xE5 SHL DUP2 MSTORE PUSH1 0x4 ADD PUSH2 0x5EE SWAP2 SWAP1 PUSH2 0x38A7 JUMP JUMPDEST POP PUSH1 0x6 DUP4 ADD SLOAD ISZERO PUSH2 0x1C06 JUMPI PUSH1 0x6 DUP4 ADD SLOAD PUSH1 0x1 DUP5 ADD SLOAD PUSH1 0x1 PUSH1 0x1 PUSH1 0xA0 SHL SUB SWAP1 DUP2 AND PUSH0 SWAP1 DUP2 MSTORE PUSH1 0x5 PUSH1 0x20 SWAP1 DUP2 MSTORE PUSH1 0x40 DUP1 DUP4 KECCAK256 PUSH1 0x3 DUP10 ADD SLOAD SWAP1 SWAP5 AND DUP4 MSTORE SWAP3 SWAP1 MSTORE SWAP1 DUP2 KECCAK256 DUP1 SLOAD SWAP1 SWAP2 SWAP1 PUSH2 0x1B5F SWAP1 DUP5 SWAP1 PUSH2 0x3906 JUMP JUMPDEST SWAP1 SWAP2 SSTORE POP POP PUSH1 0x3 DUP4 ADD SLOAD PUSH1 0x1 DUP5 ADD SLOAD PUSH1 0x6 DUP6 ADD SLOAD PUSH1 0x40 DUP1 MLOAD PUSH32 0x42555945525F444953505554455F524546554E445F53454C4C45525F4E4F5F46 PUSH1 0x20 DUP3 ADD MSTORE PUSH3 0x155391 PUSH1 0xEA SHL SWAP2 DUP2 ADD SWAP2 SWAP1 SWAP2 MSTORE PUSH1 0x43 DUP2 ADD DUP9 SWAP1 MSTORE PUSH1 0x1 PUSH1 0x1 PUSH1 0xA0 SHL SUB SWAP4 DUP5 AND SWAP4 SWAP1 SWAP3 AND SWAP2 PUSH0 DUP1 MLOAD PUSH1 0x20 PUSH2 0x3C11 DUP4 CODECOPY DUP2 MLOAD SWAP2 MSTORE SWAP2 SWAP1 PUSH1 0x63 ADD PUSH1 0x40 DUP1 MLOAD PUSH1 0x1F NOT DUP2 DUP5 SUB ADD DUP2 MSTORE DUP3 DUP3 MSTORE DUP1 MLOAD PUSH1 0x20 SWAP2 DUP3 ADD KECCAK256 SWAP4 DUP4 MSTORE DUP3 ADD SWAP3 SWAP1 SWAP3 MSTORE ADD PUSH1 0x40 MLOAD DUP1 SWAP2 SUB SWAP1 LOG3 PUSH0 PUSH1 0x6 DUP5 ADD SSTORE JUMPDEST PUSH1 0x8 DUP4 ADD DUP1 SLOAD PUSH1 0x6 PUSH1 0xFF NOT SWAP1 SWAP2 AND OR SWAP1 SSTORE PUSH1 0x40 DUP1 MLOAD PUSH1 0xE0 DUP2 ADD DUP3 MSTORE DUP3 SLOAD PUSH1 0x1 PUSH1 0x1 PUSH1 0xA0 SHL SUB DUP1 DUP3 AND DUP4 MSTORE PUSH1 0xFF PUSH1 0x1 PUSH1 0xA0 SHL SWAP1 SWAP3 DIV DUP3 AND ISZERO ISZERO PUSH1 0x20 DUP5 ADD MSTORE PUSH1 0x1 DUP6 ADD SLOAD AND SWAP3 DUP3 ADD SWAP3 SWAP1 SWAP3 MSTORE PUSH1 0x2 DUP4 ADD SLOAD PUSH1 0x60 DUP3 ADD MSTORE PUSH1 0x3 DUP1 DUP5 ADD SLOAD PUSH1 0x80 DUP4 ADD MSTORE PUSH1 0x4 DUP5 ADD SLOAD PUSH2 0x1CAE SWAP4 DUP6 SWAP3 PUSH1 0xA0 DUP6 ADD SWAP3 SWAP1 SWAP2 AND SWAP1 DUP2 GT ISZERO PUSH2 0x1C88 JUMPI PUSH2 0x1C88 PUSH2 0x354F JUMP JUMPDEST PUSH1 0x3 DUP2 GT ISZERO PUSH2 0x1C99 JUMPI PUSH2 0x1C99 PUSH2 0x354F JUMP JUMPDEST DUP2 MSTORE PUSH1 0x20 ADD PUSH1 0x5 DUP3 ADD SLOAD DUP2 MSTORE POP POP PUSH1 0x20 ADD MLOAD SWAP1 JUMP JUMPDEST ISZERO PUSH2 0x1D97 JUMPI PUSH1 0x4 DUP2 ADD DUP1 SLOAD PUSH1 0xFF NOT AND PUSH1 0x2 OR SWAP1 SSTORE PUSH1 0x3 DUP2 ADD SLOAD ISZERO PUSH2 0x1CF8 JUMPI PUSH1 0x3 DUP1 SLOAD SWAP1 DUP3 ADD SLOAD PUSH1 0x1 DUP4 ADD SLOAD PUSH2 0x1CF1 SWAP3 PUSH1 0x1 PUSH1 0x1 PUSH1 0xA0 SHL SUB SWAP2 DUP3 AND SWAP3 SWAP2 AND SWAP1 PUSH2 0x32AA JUMP JUMPDEST PUSH0 PUSH1 0x3 DUP3 ADD SSTORE JUMPDEST PUSH0 PUSH1 0x5 DUP3 ADD DUP2 SWAP1 SSTORE DUP4 SLOAD PUSH1 0x40 MLOAD SWAP1 SWAP2 PUSH32 0x20E953810446BFEC422C45A49B30C7B446BC121960D6568E36A20016140F86B7 SWAP2 LOG2 DUP4 PUSH32 0xDF5AF23A8BFBD700E381C19607D03504D7A5BA1876C669CCCD37FEACE1F5ADAA PUSH1 0x40 MLOAD PUSH2 0x1D8A SWAP1 PUSH1 0x20 DUP1 DUP3 MSTORE PUSH1 0x1C SWAP1 DUP3 ADD MSTORE PUSH32 0x53454C4C45525F4E4F5F46554E445F4D414B45525F50454E414C545900000000 PUSH1 0x40 DUP3 ADD MSTORE PUSH1 0x60 ADD SWAP1 JUMP JUMPDEST PUSH1 0x40 MLOAD DUP1 SWAP2 SUB SWAP1 LOG2 PUSH2 0x1E05 JUMP JUMPDEST PUSH1 0x4 DUP2 ADD DUP1 SLOAD PUSH1 0xFF NOT AND SWAP1 SSTORE PUSH0 PUSH1 0x5 DUP3 ADD SSTORE PUSH1 0x40 DUP1 MLOAD PUSH1 0x20 DUP1 DUP3 MSTORE PUSH1 0x15 SWAP1 DUP3 ADD MSTORE PUSH21 0x29A2A62622A92FA727AFA32AA7222FA922A7A822A7 PUSH1 0x59 SHL DUP2 DUP4 ADD MSTORE SWAP1 MLOAD DUP6 SWAP2 PUSH32 0xDF5AF23A8BFBD700E381C19607D03504D7A5BA1876C669CCCD37FEACE1F5ADAA SWAP2 SWAP1 DUP2 SWAP1 SUB PUSH1 0x60 ADD SWAP1 LOG2 JUMPDEST POP POP POP POP JUMP JUMPDEST PUSH0 DUP2 DUP2 MSTORE PUSH1 0x9 PUSH1 0x20 MSTORE PUSH1 0x40 DUP2 KECCAK256 DUP1 SLOAD DUP3 SUB PUSH2 0x1E28 JUMPI POP PUSH0 SWAP3 SWAP2 POP POP JUMP JUMPDEST PUSH1 0x3 PUSH1 0x8 DUP3 ADD SLOAD PUSH1 0xFF AND PUSH1 0x6 DUP2 GT ISZERO PUSH2 0x1E43 JUMPI PUSH2 0x1E43 PUSH2 0x354F JUMP JUMPDEST EQ PUSH2 0x1E50 JUMPI POP PUSH0 SWAP3 SWAP2 POP POP JUMP JUMPDEST PUSH1 0x3 DUP2 ADD SLOAD PUSH1 0x1 PUSH1 0x1 PUSH1 0xA0 SHL SUB AND PUSH0 SWAP1 DUP2 MSTORE PUSH1 0x4 PUSH1 0x20 SWAP1 DUP2 MSTORE PUSH1 0x40 SWAP2 DUP3 SWAP1 KECCAK256 DUP3 MLOAD PUSH2 0x120 DUP2 ADD DUP5 MSTORE DUP2 SLOAD PUSH1 0xFF DUP2 AND ISZERO ISZERO DUP1 DUP4 MSTORE PUSH2 0xFFFF PUSH2 0x100 DUP1 DUP5 DIV DUP3 AND SWAP7 DUP6 ADD SWAP7 SWAP1 SWAP7 MSTORE PUSH4 0x1000000 DUP4 DIV DUP2 AND SWAP7 DUP5 ADD SWAP7 SWAP1 SWAP7 MSTORE PUSH6 0x10000000000 SWAP1 SWAP2 DIV DUP6 AND PUSH1 0x60 DUP4 ADD MSTORE PUSH1 0x1 DUP4 ADD SLOAD PUSH1 0x80 DUP4 ADD MSTORE PUSH1 0x2 SWAP1 SWAP3 ADD SLOAD SWAP4 DUP5 AND PUSH1 0xA0 DUP3 ADD MSTORE PUSH4 0xFFFFFFFF PUSH3 0x10000 DUP6 DIV DUP2 AND PUSH1 0xC0 DUP4 ADD MSTORE PUSH1 0x1 PUSH1 0x30 SHL DUP6 DIV DUP2 AND PUSH1 0xE0 DUP4 ADD MSTORE PUSH1 0x1 PUSH1 0x50 SHL SWAP1 SWAP5 DIV SWAP1 SWAP4 AND SWAP2 DUP4 ADD SWAP2 SWAP1 SWAP2 MSTORE PUSH2 0x1F0D JUMPI POP PUSH0 SWAP4 SWAP3 POP POP POP JUMP JUMPDEST PUSH1 0xC DUP3 ADD SLOAD PUSH1 0xFF AND ISZERO PUSH2 0x1F23 JUMPI POP PUSH0 SWAP4 SWAP3 POP POP POP JUMP JUMPDEST DUP1 PUSH2 0x100 ADD MLOAD PUSH4 0xFFFFFFFF AND DUP3 PUSH1 0xB ADD SLOAD PUSH2 0x1F3E SWAP2 SWAP1 PUSH2 0x3906 JUMP JUMPDEST TIMESTAMP GT SWAP5 SWAP4 POP POP POP POP JUMP JUMPDEST PUSH0 DUP2 DUP2 MSTORE PUSH1 0x9 PUSH1 0x20 MSTORE PUSH1 0x40 DUP2 KECCAK256 DUP1 SLOAD SWAP1 SWAP2 SUB PUSH2 0x1F76 JUMPI PUSH1 0x40 MLOAD PUSH3 0x461BCD PUSH1 0xE5 SHL DUP2 MSTORE PUSH1 0x4 ADD PUSH2 0x5EE SWAP1 PUSH2 0x387D JUMP JUMPDEST PUSH1 0x1 PUSH1 0x8 DUP3 ADD SLOAD PUSH1 0xFF AND PUSH1 0x6 DUP2 GT ISZERO PUSH2 0x1F91 JUMPI PUSH2 0x1F91 PUSH2 0x354F JUMP JUMPDEST EQ PUSH1 0x40 MLOAD DUP1 PUSH1 0x40 ADD PUSH1 0x40 MSTORE DUP1 PUSH1 0x9 DUP2 MSTORE PUSH1 0x20 ADD PUSH9 0x4241445F5354415445 PUSH1 0xB8 SHL DUP2 MSTORE POP SWAP1 PUSH2 0x1FD2 JUMPI PUSH1 0x40 MLOAD PUSH3 0x461BCD PUSH1 0xE5 SHL DUP2 MSTORE PUSH1 0x4 ADD PUSH2 0x5EE SWAP2 SWAP1 PUSH2 0x38A7 JUMP JUMPDEST POP PUSH1 0x2 DUP2 ADD SLOAD PUSH1 0x40 DUP1 MLOAD DUP1 DUP3 ADD SWAP1 SWAP2 MSTORE PUSH1 0xA DUP2 MSTORE PUSH10 0x2727AA2FA9A2A62622A9 PUSH1 0xB1 SHL PUSH1 0x20 DUP3 ADD MSTORE SWAP1 PUSH1 0x1 PUSH1 0x1 PUSH1 0xA0 SHL SUB AND CALLER EQ PUSH2 0x2022 JUMPI PUSH1 0x40 MLOAD PUSH3 0x461BCD PUSH1 0xE5 SHL DUP2 MSTORE PUSH1 0x4 ADD PUSH2 0x5EE SWAP2 SWAP1 PUSH2 0x38A7 JUMP JUMPDEST POP DUP1 SLOAD PUSH0 SWAP1 DUP2 MSTORE PUSH1 0x8 PUSH1 0x20 SWAP1 DUP2 MSTORE PUSH1 0x40 SWAP2 DUP3 SWAP1 KECCAK256 PUSH1 0x5 DUP2 ADD SLOAD DUP4 MLOAD DUP1 DUP6 ADD SWAP1 SWAP5 MSTORE PUSH1 0xF DUP5 MSTORE PUSH15 0x8AA686A49EAEBE9A92A69A82A8869 PUSH1 0x8B SHL SWAP3 DUP5 ADD SWAP3 SWAP1 SWAP3 MSTORE SWAP2 SWAP1 DUP5 EQ PUSH2 0x2082 JUMPI PUSH1 0x40 MLOAD PUSH3 0x461BCD PUSH1 0xE5 SHL DUP2 MSTORE PUSH1 0x4 ADD PUSH2 0x5EE SWAP2 SWAP1 PUSH2 0x38A7 JUMP JUMPDEST POP PUSH1 0x1 PUSH1 0x4 DUP3 ADD SLOAD PUSH1 0xFF AND PUSH1 0x3 DUP2 GT ISZERO PUSH2 0x209E JUMPI PUSH2 0x209E PUSH2 0x354F JUMP JUMPDEST EQ PUSH1 0x40 MLOAD DUP1 PUSH1 0x40 ADD PUSH1 0x40 MSTORE DUP1 PUSH1 0x9 DUP2 MSTORE PUSH1 0x20 ADD PUSH9 0x4241445F5354415445 PUSH1 0xB8 SHL DUP2 MSTORE POP SWAP1 PUSH2 0x20DF JUMPI PUSH1 0x40 MLOAD PUSH3 0x461BCD PUSH1 0xE5 SHL DUP2 MSTORE PUSH1 0x4 ADD PUSH2 0x5EE SWAP2 SWAP1 PUSH2 0x38A7 JUMP JUMPDEST POP PUSH1 0x3 DUP3 ADD SLOAD PUSH0 SWAP1 PUSH2 0x20F9 SWAP1 PUSH1 0x1 PUSH1 0x1 PUSH1 0xA0 SHL SUB AND PUSH2 0x3173 JUMP JUMPDEST SWAP1 POP DUP1 PUSH1 0xC0 ADD MLOAD PUSH4 0xFFFFFFFF AND DUP4 PUSH1 0x9 ADD SLOAD PUSH2 0x2115 SWAP2 SWAP1 PUSH2 0x3906 JUMP JUMPDEST TIMESTAMP GT ISZERO PUSH1 0x40 MLOAD DUP1 PUSH1 0x40 ADD PUSH1 0x40 MSTORE DUP1 PUSH1 0xE DUP2 MSTORE PUSH1 0x20 ADD PUSH14 0x15D2539113D5D7D1561412549151 PUSH1 0x92 SHL DUP2 MSTORE POP SWAP1 PUSH2 0x215D JUMPI PUSH1 0x40 MLOAD PUSH3 0x461BCD PUSH1 0xE5 SHL DUP2 MSTORE PUSH1 0x4 ADD PUSH2 0x5EE SWAP2 SWAP1 PUSH2 0x38A7 JUMP JUMPDEST POP PUSH1 0x3 DUP4 ADD SLOAD PUSH1 0x4 DUP5 ADD SLOAD PUSH0 SWAP2 PUSH2 0x217F SWAP2 PUSH1 0x1 PUSH1 0x1 PUSH1 0xA0 SHL SUB SWAP1 SWAP2 AND SWAP1 PUSH2 0x34EC JUMP JUMPDEST PUSH1 0x3 DUP6 ADD SLOAD PUSH1 0x4 DUP7 ADD SLOAD SWAP2 SWAP3 POP PUSH0 SWAP2 PUSH2 0x21A1 SWAP2 PUSH1 0x1 PUSH1 0x1 PUSH1 0xA0 SHL SUB AND SWAP1 PUSH2 0x34B6 JUMP JUMPDEST SWAP1 POP PUSH0 DUP2 GT PUSH2 0x21E6 JUMPI PUSH1 0x40 MLOAD PUSH3 0x461BCD PUSH1 0xE5 SHL DUP2 MSTORE PUSH1 0x20 PUSH1 0x4 DUP3 ADD MSTORE PUSH1 0x11 PUSH1 0x24 DUP3 ADD MSTORE PUSH17 0x444953505554455F424F4E445F5A45524F PUSH1 0x78 SHL PUSH1 0x44 DUP3 ADD MSTORE PUSH1 0x64 ADD PUSH2 0x5EE JUMP JUMPDEST PUSH0 DUP2 DUP4 DUP8 PUSH1 0x4 ADD SLOAD PUSH2 0x21F8 SWAP2 SWAP1 PUSH2 0x3906 JUMP JUMPDEST PUSH2 0x2202 SWAP2 SWAP1 PUSH2 0x3906 JUMP JUMPDEST PUSH1 0x3 DUP8 ADD SLOAD SWAP1 SWAP2 POP PUSH2 0x221F SWAP1 PUSH1 0x1 PUSH1 0x1 PUSH1 0xA0 SHL SUB AND CALLER ADDRESS DUP5 PUSH2 0x33B5 JUMP JUMPDEST PUSH1 0x5 DUP7 ADD DUP4 SWAP1 SSTORE PUSH1 0x7 DUP7 ADD DUP3 SWAP1 SSTORE PUSH1 0x8 DUP7 ADD DUP1 SLOAD PUSH1 0xFF NOT AND PUSH1 0x2 OR SWAP1 SSTORE TIMESTAMP PUSH1 0xA DUP8 ADD SSTORE PUSH1 0x4 DUP7 ADD SLOAD PUSH1 0x40 DUP1 MLOAD SWAP2 DUP3 MSTORE PUSH1 0x20 DUP3 ADD DUP6 SWAP1 MSTORE DUP2 ADD DUP4 SWAP1 MSTORE DUP8 SWAP1 PUSH32 0x95B75F24B53ADD0217458D088AA8DB8EEFCE3337DCB4BB8E7571A0604AEB0A64 SWAP1 PUSH1 0x60 ADD PUSH1 0x40 MLOAD DUP1 SWAP2 SUB SWAP1 LOG2 POP POP POP POP POP POP POP JUMP JUMPDEST CALLER PUSH0 SWAP1 DUP2 MSTORE PUSH1 0x2 PUSH1 0x20 SWAP1 DUP2 MSTORE PUSH1 0x40 SWAP2 DUP3 SWAP1 KECCAK256 SLOAD DUP3 MLOAD DUP1 DUP5 ADD SWAP1 SWAP4 MSTORE PUSH1 0xE DUP4 MSTORE PUSH14 0x2727AA2FA0A92124AA2920AA27A9 PUSH1 0x91 SHL SWAP2 DUP4 ADD SWAP2 SWAP1 SWAP2 MSTORE PUSH1 0xFF AND PUSH2 0x22EA JUMPI PUSH1 0x40 MLOAD PUSH3 0x461BCD PUSH1 0xE5 SHL DUP2 MSTORE PUSH1 0x4 ADD PUSH2 0x5EE SWAP2 SWAP1 PUSH2 0x38A7 JUMP JUMPDEST POP PUSH0 DUP3 DUP2 MSTORE PUSH1 0x9 PUSH1 0x20 MSTORE PUSH1 0x40 DUP2 KECCAK256 DUP1 SLOAD SWAP1 SWAP2 SUB PUSH2 0x2319 JUMPI PUSH1 0x40 MLOAD PUSH3 0x461BCD PUSH1 0xE5 SHL DUP2 MSTORE PUSH1 0x4 ADD PUSH2 0x5EE SWAP1 PUSH2 0x387D JUMP JUMPDEST PUSH1 0x4 PUSH1 0x8 DUP3 ADD SLOAD PUSH1 0xFF AND PUSH1 0x6 DUP2 GT ISZERO PUSH2 0x2334 JUMPI PUSH2 0x2334 PUSH2 0x354F JUMP JUMPDEST EQ PUSH1 0x40 MLOAD DUP1 PUSH1 0x40 ADD PUSH1 0x40 MSTORE DUP1 PUSH1 0x9 DUP2 MSTORE PUSH1 0x20 ADD PUSH9 0x4241445F5354415445 PUSH1 0xB8 SHL DUP2 MSTORE POP SWAP1 PUSH2 0x2375 JUMPI PUSH1 0x40 MLOAD PUSH3 0x461BCD PUSH1 0xE5 SHL DUP2 MSTORE PUSH1 0x4 ADD PUSH2 0x5EE SWAP2 SWAP1 PUSH2 0x38A7 JUMP JUMPDEST POP PUSH1 0xC DUP2 ADD SLOAD PUSH1 0xFF AND DUP1 ISZERO PUSH2 0x2394 JUMPI POP PUSH1 0xC DUP2 ADD SLOAD PUSH2 0x100 SWAP1 DIV PUSH1 0xFF AND ISZERO JUMPDEST PUSH2 0x23CF JUMPI PUSH1 0x40 MLOAD PUSH3 0x461BCD PUSH1 0xE5 SHL DUP2 MSTORE PUSH1 0x20 PUSH1 0x4 DUP3 ADD MSTORE PUSH1 0xC PUSH1 0x24 DUP3 ADD MSTORE PUSH12 0x444953505554455F444F4E45 PUSH1 0xA0 SHL PUSH1 0x44 DUP3 ADD MSTORE PUSH1 0x64 ADD PUSH2 0x5EE JUMP JUMPDEST PUSH1 0x5 DUP2 ADD SLOAD ISZERO PUSH2 0x2407 JUMPI PUSH1 0x3 DUP1 SLOAD PUSH1 0x5 DUP4 ADD SLOAD SWAP2 DUP4 ADD SLOAD PUSH2 0x2400 SWAP3 PUSH1 0x1 PUSH1 0x1 PUSH1 0xA0 SHL SUB SWAP2 DUP3 AND SWAP3 SWAP2 SWAP1 SWAP2 AND SWAP1 PUSH2 0x32AA JUMP JUMPDEST PUSH0 PUSH1 0x5 DUP3 ADD SSTORE JUMPDEST PUSH0 DUP3 PUSH1 0x1 DUP2 GT ISZERO PUSH2 0x241A JUMPI PUSH2 0x241A PUSH2 0x354F JUMP JUMPDEST SUB PUSH2 0x244B JUMPI PUSH1 0x1 DUP2 ADD SLOAD PUSH1 0x4 DUP3 ADD SLOAD PUSH1 0x3 DUP4 ADD SLOAD PUSH2 0x2446 SWAP3 PUSH1 0x1 PUSH1 0x1 PUSH1 0xA0 SHL SUB SWAP2 DUP3 AND SWAP3 SWAP2 AND SWAP1 PUSH2 0x32AA JUMP JUMPDEST PUSH2 0x2472 JUMP JUMPDEST PUSH1 0x2 DUP2 ADD SLOAD PUSH1 0x4 DUP3 ADD SLOAD PUSH1 0x3 DUP4 ADD SLOAD PUSH2 0x2472 SWAP3 PUSH1 0x1 PUSH1 0x1 PUSH1 0xA0 SHL SUB SWAP2 DUP3 AND SWAP3 SWAP2 AND SWAP1 PUSH2 0x32AA JUMP JUMPDEST PUSH0 PUSH1 0x4 DUP3 ADD DUP2 SWAP1 SSTORE DUP3 PUSH1 0x1 DUP2 GT ISZERO PUSH2 0x248C JUMPI PUSH2 0x248C PUSH2 0x354F JUMP JUMPDEST SUB PUSH2 0x25A9 JUMPI PUSH1 0x6 DUP2 ADD SLOAD ISZERO PUSH2 0x256C JUMPI PUSH1 0x6 DUP2 ADD SLOAD PUSH1 0x1 DUP3 ADD SLOAD PUSH1 0x1 PUSH1 0x1 PUSH1 0xA0 SHL SUB SWAP1 DUP2 AND PUSH0 SWAP1 DUP2 MSTORE PUSH1 0x5 PUSH1 0x20 SWAP1 DUP2 MSTORE PUSH1 0x40 DUP1 DUP4 KECCAK256 PUSH1 0x3 DUP8 ADD SLOAD SWAP1 SWAP5 AND DUP4 MSTORE SWAP3 SWAP1 MSTORE SWAP1 DUP2 KECCAK256 DUP1 SLOAD SWAP1 SWAP2 SWAP1 PUSH2 0x24E0 SWAP1 DUP5 SWAP1 PUSH2 0x3906 JUMP JUMPDEST SWAP1 SWAP2 SSTORE POP POP PUSH1 0x3 DUP2 ADD SLOAD PUSH1 0x1 DUP3 ADD SLOAD PUSH1 0x6 DUP4 ADD SLOAD PUSH1 0x40 MLOAD PUSH17 0x212AACA2A92FA224A9A82AAA22AFABA4A7 PUSH1 0x79 SHL PUSH1 0x20 DUP3 ADD MSTORE PUSH1 0x31 DUP2 ADD DUP8 SWAP1 MSTORE PUSH1 0x1 PUSH1 0x1 PUSH1 0xA0 SHL SUB SWAP4 DUP5 AND SWAP4 SWAP1 SWAP3 AND SWAP2 PUSH0 DUP1 MLOAD PUSH1 0x20 PUSH2 0x3C11 DUP4 CODECOPY DUP2 MLOAD SWAP2 MSTORE SWAP2 SWAP1 PUSH1 0x51 ADD PUSH1 0x40 DUP1 MLOAD PUSH1 0x1F NOT DUP2 DUP5 SUB ADD DUP2 MSTORE DUP3 DUP3 MSTORE DUP1 MLOAD PUSH1 0x20 SWAP2 DUP3 ADD KECCAK256 SWAP4 DUP4 MSTORE DUP3 ADD SWAP3 SWAP1 SWAP3 MSTORE ADD PUSH1 0x40 MLOAD DUP1 SWAP2 SUB SWAP1 LOG3 PUSH0 PUSH1 0x6 DUP3 ADD SSTORE JUMPDEST PUSH1 0x7 DUP2 ADD SLOAD ISZERO PUSH2 0x25A4 JUMPI PUSH1 0x3 DUP1 SLOAD PUSH1 0x7 DUP4 ADD SLOAD SWAP2 DUP4 ADD SLOAD PUSH2 0x259D SWAP3 PUSH1 0x1 PUSH1 0x1 PUSH1 0xA0 SHL SUB SWAP2 DUP3 AND SWAP3 SWAP2 SWAP1 SWAP2 AND SWAP1 PUSH2 0x32AA JUMP JUMPDEST PUSH0 PUSH1 0x7 DUP3 ADD SSTORE JUMPDEST PUSH2 0x26BD JUMP JUMPDEST PUSH1 0x7 DUP2 ADD SLOAD ISZERO PUSH2 0x2685 JUMPI PUSH1 0x7 DUP2 ADD SLOAD PUSH1 0x2 DUP3 ADD SLOAD PUSH1 0x1 PUSH1 0x1 PUSH1 0xA0 SHL SUB SWAP1 DUP2 AND PUSH0 SWAP1 DUP2 MSTORE PUSH1 0x5 PUSH1 0x20 SWAP1 DUP2 MSTORE PUSH1 0x40 DUP1 DUP4 KECCAK256 PUSH1 0x3 DUP8 ADD SLOAD SWAP1 SWAP5 AND DUP4 MSTORE SWAP3 SWAP1 MSTORE SWAP1 DUP2 KECCAK256 DUP1 SLOAD SWAP1 SWAP2 SWAP1 PUSH2 0x25F8 SWAP1 DUP5 SWAP1 PUSH2 0x3906 JUMP JUMPDEST SWAP1 SWAP2 SSTORE POP POP PUSH1 0x3 DUP2 ADD SLOAD PUSH1 0x2 DUP3 ADD SLOAD PUSH1 0x7 DUP4 ADD SLOAD PUSH1 0x40 MLOAD PUSH18 0x29A2A62622A92FA224A9A82AAA22AFABA4A7 PUSH1 0x71 SHL PUSH1 0x20 DUP3 ADD MSTORE PUSH1 0x32 DUP2 ADD DUP8 SWAP1 MSTORE PUSH1 0x1 PUSH1 0x1 PUSH1 0xA0 SHL SUB SWAP4 DUP5 AND SWAP4 SWAP1 SWAP3 AND SWAP2 PUSH0 DUP1 MLOAD PUSH1 0x20 PUSH2 0x3C11 DUP4 CODECOPY DUP2 MLOAD SWAP2 MSTORE SWAP2 SWAP1 PUSH1 0x52 ADD PUSH1 0x40 DUP1 MLOAD PUSH1 0x1F NOT DUP2 DUP5 SUB ADD DUP2 MSTORE DUP3 DUP3 MSTORE DUP1 MLOAD PUSH1 0x20 SWAP2 DUP3 ADD KECCAK256 SWAP4 DUP4 MSTORE DUP3 ADD SWAP3 SWAP1 SWAP3 MSTORE ADD PUSH1 0x40 MLOAD DUP1 SWAP2 SUB SWAP1 LOG3 PUSH0 PUSH1 0x7 DUP3 ADD SSTORE JUMPDEST PUSH1 0x6 DUP2 ADD SLOAD ISZERO PUSH2 0x26BD JUMPI PUSH1 0x3 DUP1 SLOAD PUSH1 0x6 DUP4 ADD SLOAD SWAP2 DUP4 ADD SLOAD PUSH2 0x26B6 SWAP3 PUSH1 0x1 PUSH1 0x1 PUSH1 0xA0 SHL SUB SWAP2 DUP3 AND SWAP3 SWAP2 SWAP1 SWAP2 AND SWAP1 PUSH2 0x32AA JUMP JUMPDEST PUSH0 PUSH1 0x6 DUP3 ADD SSTORE JUMPDEST DUP1 SLOAD PUSH0 SWAP1 DUP2 MSTORE PUSH1 0x8 PUSH1 0x20 MSTORE PUSH1 0x40 SWAP1 KECCAK256 PUSH1 0x3 DUP2 ADD SLOAD ISZERO PUSH2 0x27A9 JUMPI PUSH1 0x3 DUP2 ADD SLOAD DUP2 SLOAD PUSH1 0x1 PUSH1 0x1 PUSH1 0xA0 SHL SUB SWAP1 DUP2 AND PUSH0 SWAP1 DUP2 MSTORE PUSH1 0x5 PUSH1 0x20 SWAP1 DUP2 MSTORE PUSH1 0x40 DUP1 DUP4 KECCAK256 PUSH1 0x1 DUP8 ADD SLOAD SWAP1 SWAP5 AND DUP4 MSTORE SWAP3 SWAP1 MSTORE SWAP1 DUP2 KECCAK256 DUP1 SLOAD SWAP1 SWAP2 SWAP1 PUSH2 0x2718 SWAP1 DUP5 SWAP1 PUSH2 0x3906 JUMP JUMPDEST SWAP1 SWAP2 SSTORE POP POP PUSH1 0x1 DUP2 ADD SLOAD DUP2 SLOAD PUSH1 0x3 DUP4 ADD SLOAD DUP5 SLOAD PUSH1 0x40 MLOAD PUSH22 0x41445F424F4E445F524546554E445F44495350555445 PUSH1 0x50 SHL PUSH1 0x20 DUP3 ADD MSTORE PUSH1 0x36 DUP2 ADD SWAP2 SWAP1 SWAP2 MSTORE PUSH1 0x1 PUSH1 0x1 PUSH1 0xA0 SHL SUB SWAP4 DUP5 AND SWAP4 SWAP1 SWAP3 AND SWAP2 PUSH0 DUP1 MLOAD PUSH1 0x20 PUSH2 0x3C11 DUP4 CODECOPY DUP2 MLOAD SWAP2 MSTORE SWAP2 SWAP1 PUSH1 0x56 ADD PUSH1 0x40 DUP1 MLOAD PUSH1 0x1F NOT DUP2 DUP5 SUB ADD DUP2 MSTORE DUP3 DUP3 MSTORE DUP1 MLOAD PUSH1 0x20 SWAP2 DUP3 ADD KECCAK256 SWAP4 DUP4 MSTORE DUP3 ADD SWAP3 SWAP1 SWAP3 MSTORE ADD PUSH1 0x40 MLOAD DUP1 SWAP2 SUB SWAP1 LOG3 PUSH0 PUSH1 0x3 DUP3 ADD SSTORE JUMPDEST PUSH1 0xC DUP3 ADD DUP1 SLOAD PUSH2 0xFF00 NOT AND PUSH2 0x100 OR SWAP1 SSTORE PUSH1 0x8 DUP3 ADD DUP1 SLOAD PUSH1 0x5 PUSH1 0xFF NOT SWAP2 DUP3 AND DUP2 OR SWAP1 SWAP3 SSTORE PUSH1 0x4 DUP4 ADD DUP1 SLOAD PUSH1 0x3 SWAP3 AND SWAP2 SWAP1 SWAP2 OR SWAP1 SSTORE PUSH0 SWAP1 DUP3 ADD SSTORE PUSH1 0x40 MLOAD DUP5 SWAP1 PUSH32 0x2FFCFEE146BC0D5FF304C6B65111A0D485AF9456DC64EEE7D66EBDCC90B223EA SWAP1 PUSH2 0x2814 SWAP1 DUP7 SWAP1 PUSH2 0x3BA5 JUMP JUMPDEST PUSH1 0x40 MLOAD DUP1 SWAP2 SUB SWAP1 LOG2 PUSH1 0x40 MLOAD DUP5 SWAP1 PUSH32 0x69833829D5691AE09424AF7D16F73ADF033451149EA9C2FC6FCB4C44108EEF67 SWAP1 PUSH0 SWAP1 LOG2 DUP2 SLOAD PUSH1 0x40 MLOAD PUSH32 0x1B5620E4ACDA71640915DF6184C97B2EF8B032A94BB3886BB01DF0F3248A15C0 SWAP1 PUSH0 SWAP1 LOG2 POP POP POP POP JUMP JUMPDEST PUSH0 DUP2 DUP2 MSTORE PUSH1 0x9 PUSH1 0x20 MSTORE PUSH1 0x40 DUP2 KECCAK256 DUP1 SLOAD SWAP1 SWAP2 SUB PUSH2 0x28A4 JUMPI PUSH1 0x40 MLOAD PUSH3 0x461BCD PUSH1 0xE5 SHL DUP2 MSTORE PUSH1 0x4 ADD PUSH2 0x5EE SWAP1 PUSH2 0x387D JUMP JUMPDEST PUSH1 0x3 PUSH1 0x8 DUP3 ADD SLOAD PUSH1 0xFF AND PUSH1 0x6 DUP2 GT ISZERO PUSH2 0x28BF JUMPI PUSH2 0x28BF PUSH2 0x354F JUMP JUMPDEST EQ PUSH1 0x40 MLOAD DUP1 PUSH1 0x40 ADD PUSH1 0x40 MSTORE DUP1 PUSH1 0x9 DUP2 MSTORE PUSH1 0x20 ADD PUSH9 0x4241445F5354415445 PUSH1 0xB8 SHL DUP2 MSTORE POP SWAP1 PUSH2 0x2900 JUMPI PUSH1 0x40 MLOAD PUSH3 0x461BCD PUSH1 0xE5 SHL DUP2 MSTORE PUSH1 0x4 ADD PUSH2 0x5EE SWAP2 SWAP1 PUSH2 0x38A7 JUMP JUMPDEST POP PUSH1 0x2 DUP2 ADD SLOAD PUSH1 0x40 DUP1 MLOAD DUP1 DUP3 ADD SWAP1 SWAP2 MSTORE PUSH1 0xA DUP2 MSTORE PUSH10 0x2727AA2FA9A2A62622A9 PUSH1 0xB1 SHL PUSH1 0x20 DUP3 ADD MSTORE SWAP1 PUSH1 0x1 PUSH1 0x1 PUSH1 0xA0 SHL SUB AND CALLER EQ PUSH2 0x2950 JUMPI PUSH1 0x40 MLOAD PUSH3 0x461BCD PUSH1 0xE5 SHL DUP2 MSTORE PUSH1 0x4 ADD PUSH2 0x5EE SWAP2 SWAP1 PUSH2 0x38A7 JUMP JUMPDEST POP PUSH1 0x1 DUP2 ADD SLOAD PUSH1 0x4 DUP3 ADD SLOAD PUSH1 0x3 DUP4 ADD SLOAD PUSH2 0x2978 SWAP3 PUSH1 0x1 PUSH1 0x1 PUSH1 0xA0 SHL SUB SWAP2 DUP3 AND SWAP3 SWAP2 AND SWAP1 PUSH2 0x32AA JUMP JUMPDEST PUSH1 0x5 DUP2 ADD SLOAD ISZERO PUSH2 0x29A9 JUMPI PUSH1 0x3 DUP1 SLOAD PUSH1 0x5 DUP4 ADD SLOAD SWAP2 DUP4 ADD SLOAD PUSH2 0x29A9 SWAP3 PUSH1 0x1 PUSH1 0x1 PUSH1 0xA0 SHL SUB SWAP2 DUP3 AND SWAP3 SWAP2 SWAP1 SWAP2 AND SWAP1 PUSH2 0x32AA JUMP JUMPDEST PUSH1 0x6 DUP2 ADD SLOAD ISZERO PUSH2 0x2A87 JUMPI PUSH1 0x6 DUP2 ADD SLOAD PUSH1 0x1 DUP3 ADD SLOAD PUSH1 0x1 PUSH1 0x1 PUSH1 0xA0 SHL SUB SWAP1 DUP2 AND PUSH0 SWAP1 DUP2 MSTORE PUSH1 0x5 PUSH1 0x20 SWAP1 DUP2 MSTORE PUSH1 0x40 DUP1 DUP4 KECCAK256 PUSH1 0x3 DUP8 ADD SLOAD SWAP1 SWAP5 AND DUP4 MSTORE SWAP3 SWAP1 MSTORE SWAP1 DUP2 KECCAK256 DUP1 SLOAD SWAP1 SWAP2 SWAP1 PUSH2 0x29F8 SWAP1 DUP5 SWAP1 PUSH2 0x3906 JUMP JUMPDEST SWAP1 SWAP2 SSTORE POP POP PUSH1 0x3 DUP2 ADD SLOAD PUSH1 0x1 DUP3 ADD SLOAD PUSH1 0x6 DUP4 ADD SLOAD PUSH1 0x40 MLOAD PUSH20 0x109556515497D11254D415551157D49151955391 PUSH1 0x62 SHL PUSH1 0x20 DUP3 ADD MSTORE PUSH1 0x34 DUP2 ADD DUP7 SWAP1 MSTORE PUSH1 0x1 PUSH1 0x1 PUSH1 0xA0 SHL SUB SWAP4 DUP5 AND SWAP4 SWAP1 SWAP3 AND SWAP2 PUSH0 DUP1 MLOAD PUSH1 0x20 PUSH2 0x3C11 DUP4 CODECOPY DUP2 MLOAD SWAP2 MSTORE SWAP2 SWAP1 PUSH1 0x54 ADD PUSH1 0x40 DUP1 MLOAD PUSH1 0x1F NOT DUP2 DUP5 SUB ADD DUP2 MSTORE DUP3 DUP3 MSTORE DUP1 MLOAD PUSH1 0x20 SWAP2 DUP3 ADD KECCAK256 SWAP4 DUP4 MSTORE DUP3 ADD SWAP3 SWAP1 SWAP3 MSTORE ADD PUSH1 0x40 MLOAD DUP1 SWAP2 SUB SWAP1 LOG3 PUSH0 PUSH1 0x6 DUP3 ADD SSTORE JUMPDEST PUSH1 0x7 DUP2 ADD SLOAD ISZERO PUSH2 0x2B66 JUMPI PUSH1 0x7 DUP2 ADD SLOAD PUSH1 0x2 DUP3 ADD SLOAD PUSH1 0x1 PUSH1 0x1 PUSH1 0xA0 SHL SUB SWAP1 DUP2 AND PUSH0 SWAP1 DUP2 MSTORE PUSH1 0x5 PUSH1 0x20 SWAP1 DUP2 MSTORE PUSH1 0x40 DUP1 DUP4 KECCAK256 PUSH1 0x3 DUP8 ADD SLOAD SWAP1 SWAP5 AND DUP4 MSTORE SWAP3 SWAP1 MSTORE SWAP1 DUP2 KECCAK256 DUP1 SLOAD SWAP1 SWAP2 SWAP1 PUSH2 0x2AD6 SWAP1 DUP5 SWAP1 PUSH2 0x3906 JUMP JUMPDEST SWAP1 SWAP2 SSTORE POP POP PUSH1 0x3 DUP2 ADD SLOAD PUSH1 0x2 DUP3 ADD SLOAD PUSH1 0x7 DUP4 ADD SLOAD PUSH1 0x40 MLOAD PUSH21 0x14D15313115497D11254D415551157D49151955391 PUSH1 0x5A SHL PUSH1 0x20 DUP3 ADD MSTORE PUSH1 0x35 DUP2 ADD DUP7 SWAP1 MSTORE PUSH1 0x1 PUSH1 0x1 PUSH1 0xA0 SHL SUB SWAP4 DUP5 AND SWAP4 SWAP1 SWAP3 AND SWAP2 PUSH0 DUP1 MLOAD PUSH1 0x20 PUSH2 0x3C11 DUP4 CODECOPY DUP2 MLOAD SWAP2 MSTORE SWAP2 SWAP1 PUSH1 0x55 ADD PUSH1 0x40 DUP1 MLOAD PUSH1 0x1F NOT DUP2 DUP5 SUB ADD DUP2 MSTORE DUP3 DUP3 MSTORE DUP1 MLOAD PUSH1 0x20 SWAP2 DUP3 ADD KECCAK256 SWAP4 DUP4 MSTORE DUP3 ADD SWAP3 SWAP1 SWAP3 MSTORE ADD PUSH1 0x40 MLOAD DUP1 SWAP2 SUB SWAP1 LOG3 PUSH0 PUSH1 0x7 DUP3 ADD SSTORE JUMPDEST DUP1 SLOAD PUSH0 SWAP1 DUP2 MSTORE PUSH1 0x8 PUSH1 0x20 MSTORE PUSH1 0x40 SWAP1 KECCAK256 PUSH1 0x3 DUP2 ADD SLOAD ISZERO PUSH2 0x2C4A JUMPI PUSH1 0x3 DUP2 ADD SLOAD DUP2 SLOAD PUSH1 0x1 PUSH1 0x1 PUSH1 0xA0 SHL SUB SWAP1 DUP2 AND PUSH0 SWAP1 DUP2 MSTORE PUSH1 0x5 PUSH1 0x20 SWAP1 DUP2 MSTORE PUSH1 0x40 DUP1 DUP4 KECCAK256 PUSH1 0x1 DUP8 ADD SLOAD SWAP1 SWAP5 AND DUP4 MSTORE SWAP3 SWAP1 MSTORE SWAP1 DUP2 KECCAK256 DUP1 SLOAD SWAP1 SWAP2 SWAP1 PUSH2 0x2BC1 SWAP1 DUP5 SWAP1 PUSH2 0x3906 JUMP JUMPDEST SWAP1 SWAP2 SSTORE POP POP PUSH1 0x1 DUP2 ADD SLOAD DUP2 SLOAD PUSH1 0x3 DUP4 ADD SLOAD DUP5 SLOAD PUSH1 0x40 MLOAD PUSH14 0x105117D093D39117D49151955391 PUSH1 0x92 SHL PUSH1 0x20 DUP3 ADD MSTORE PUSH1 0x2E DUP2 ADD SWAP2 SWAP1 SWAP2 MSTORE PUSH1 0x1 PUSH1 0x1 PUSH1 0xA0 SHL SUB SWAP4 DUP5 AND SWAP4 SWAP1 SWAP3 AND SWAP2 PUSH0 DUP1 MLOAD PUSH1 0x20 PUSH2 0x3C11 DUP4 CODECOPY DUP2 MLOAD SWAP2 MSTORE SWAP2 SWAP1 PUSH1 0x4E ADD PUSH1 0x40 DUP1 MLOAD PUSH1 0x1F NOT DUP2 DUP5 SUB ADD DUP2 MSTORE DUP3 DUP3 MSTORE DUP1 MLOAD PUSH1 0x20 SWAP2 DUP3 ADD KECCAK256 SWAP4 DUP4 MSTORE DUP3 ADD SWAP3 SWAP1 SWAP3 MSTORE ADD PUSH1 0x40 MLOAD DUP1 SWAP2 SUB SWAP1 LOG3 PUSH0 PUSH1 0x3 DUP3 ADD SSTORE JUMPDEST PUSH1 0x8 DUP3 ADD DUP1 SLOAD PUSH1 0xFF NOT SWAP1 DUP2 AND PUSH1 0x5 SWAP1 DUP2 OR SWAP1 SWAP3 SSTORE PUSH1 0x4 DUP4 ADD DUP1 SLOAD SWAP1 SWAP2 AND PUSH1 0x3 OR SWAP1 SSTORE PUSH0 SWAP1 DUP3 ADD DUP2 SWAP1 SSTORE PUSH1 0x40 MLOAD DUP5 SWAP2 PUSH32 0x69833829D5691AE09424AF7D16F73ADF033451149EA9C2FC6FCB4C44108EEF67 SWAP2 LOG2 DUP2 SLOAD PUSH1 0x40 MLOAD PUSH32 0x1B5620E4ACDA71640915DF6184C97B2EF8B032A94BB3886BB01DF0F3248A15C0 SWAP1 PUSH0 SWAP1 LOG2 POP POP POP JUMP JUMPDEST PUSH0 SLOAD PUSH1 0x40 DUP1 MLOAD DUP1 DUP3 ADD SWAP1 SWAP2 MSTORE PUSH1 0x9 DUP2 MSTORE PUSH9 0x2727AA2FA7ABA722A9 PUSH1 0xB9 SHL PUSH1 0x20 DUP3 ADD MSTORE SWAP1 PUSH1 0x1 PUSH1 0x1 PUSH1 0xA0 SHL SUB AND CALLER EQ PUSH2 0x2D15 JUMPI PUSH1 0x40 MLOAD PUSH3 0x461BCD PUSH1 0xE5 SHL DUP2 MSTORE PUSH1 0x4 ADD PUSH2 0x5EE SWAP2 SWAP1 PUSH2 0x38A7 JUMP JUMPDEST POP PUSH1 0x1 PUSH1 0x1 PUSH1 0xA0 SHL SUB DUP2 AND PUSH2 0x2D5C JUMPI PUSH1 0x40 MLOAD PUSH3 0x461BCD PUSH1 0xE5 SHL DUP2 MSTORE PUSH1 0x20 PUSH1 0x4 DUP3 ADD MSTORE PUSH1 0xD PUSH1 0x24 DUP3 ADD MSTORE PUSH13 0x5A45524F5F5452454153555259 PUSH1 0x98 SHL PUSH1 0x44 DUP3 ADD MSTORE PUSH1 0x64 ADD PUSH2 0x5EE JUMP JUMPDEST PUSH1 0x3 DUP1 SLOAD PUSH1 0x1 PUSH1 0x1 PUSH1 0xA0 SHL SUB NOT AND PUSH1 0x1 PUSH1 0x1 PUSH1 0xA0 SHL SUB DUP4 AND SWAP1 DUP2 OR SWAP1 SWAP2 SSTORE PUSH1 0x40 MLOAD PUSH32 0x3C864541EF71378C6229510ED90F376565EE42D9C5E0904A984A9E863E6DB44F SWAP1 PUSH0 SWAP1 LOG2 POP JUMP JUMPDEST PUSH0 SLOAD PUSH1 0x40 DUP1 MLOAD DUP1 DUP3 ADD SWAP1 SWAP2 MSTORE PUSH1 0x9 DUP2 MSTORE PUSH9 0x2727AA2FA7ABA722A9 PUSH1 0xB9 SHL PUSH1 0x20 DUP3 ADD MSTORE SWAP1 PUSH1 0x1 PUSH1 0x1 PUSH1 0xA0 SHL SUB AND CALLER EQ PUSH2 0x2DF0 JUMPI PUSH1 0x40 MLOAD PUSH3 0x461BCD PUSH1 0xE5 SHL DUP2 MSTORE PUSH1 0x4 ADD PUSH2 0x5EE SWAP2 SWAP1 PUSH2 0x38A7 JUMP JUMPDEST POP PUSH1 0x1 PUSH1 0x1 PUSH1 0xA0 SHL SUB DUP2 AND PUSH2 0x2E34 JUMPI PUSH1 0x40 MLOAD PUSH3 0x461BCD PUSH1 0xE5 SHL DUP2 MSTORE PUSH1 0x20 PUSH1 0x4 DUP3 ADD MSTORE PUSH1 0xA PUSH1 0x24 DUP3 ADD MSTORE PUSH10 0x2D22A927AFA7ABA722A9 PUSH1 0xB1 SHL PUSH1 0x44 DUP3 ADD MSTORE PUSH1 0x64 ADD PUSH2 0x5EE JUMP JUMPDEST PUSH0 DUP1 SLOAD PUSH1 0x40 MLOAD PUSH1 0x1 PUSH1 0x1 PUSH1 0xA0 SHL SUB DUP1 DUP6 AND SWAP4 SWAP3 AND SWAP2 PUSH32 0x8BE0079C531659141344CD1FD0A4F28419497F9722A3DAAFE3B4186F6B6457E0 SWAP2 LOG3 PUSH0 DUP1 SLOAD PUSH1 0x1 PUSH1 0x1 PUSH1 0xA0 SHL SUB NOT AND PUSH1 0x1 PUSH1 0x1 PUSH1 0xA0 SHL SUB SWAP3 SWAP1 SWAP3 AND SWAP2 SWAP1 SWAP2 OR SWAP1 SSTORE JUMP JUMPDEST PUSH0 DUP3 DUP2 MSTORE PUSH1 0x8 PUSH1 0x20 MSTORE PUSH1 0x40 SWAP1 KECCAK256 DUP1 SLOAD PUSH1 0x1 PUSH1 0x1 PUSH1 0xA0 SHL SUB AND PUSH2 0x2EC1 JUMPI PUSH1 0x40 MLOAD PUSH3 0x461BCD PUSH1 0xE5 SHL DUP2 MSTORE PUSH1 0x4 ADD PUSH2 0x5EE SWAP1 PUSH2 0x3919 JUMP JUMPDEST DUP1 SLOAD PUSH1 0x40 DUP1 MLOAD DUP1 DUP3 ADD SWAP1 SWAP2 MSTORE PUSH1 0x9 DUP2 MSTORE PUSH9 0x2727AA2FA6A0A5A2A9 PUSH1 0xB9 SHL PUSH1 0x20 DUP3 ADD MSTORE SWAP1 PUSH1 0x1 PUSH1 0x1 PUSH1 0xA0 SHL SUB AND CALLER EQ PUSH2 0x2F0C JUMPI PUSH1 0x40 MLOAD PUSH3 0x461BCD PUSH1 0xE5 SHL DUP2 MSTORE PUSH1 0x4 ADD PUSH2 0x5EE SWAP2 SWAP1 PUSH2 0x38A7 JUMP JUMPDEST POP PUSH0 PUSH1 0x4 DUP3 ADD SLOAD PUSH1 0xFF AND PUSH1 0x3 DUP2 GT ISZERO PUSH2 0x2F27 JUMPI PUSH2 0x2F27 PUSH2 0x354F JUMP JUMPDEST EQ PUSH1 0x40 MLOAD DUP1 PUSH1 0x40 ADD PUSH1 0x40 MSTORE DUP1 PUSH1 0x9 DUP2 MSTORE PUSH1 0x20 ADD PUSH9 0x4241445F5354415445 PUSH1 0xB8 SHL DUP2 MSTORE POP SWAP1 PUSH2 0x2F68 JUMPI PUSH1 0x40 MLOAD PUSH3 0x461BCD PUSH1 0xE5 SHL DUP2 MSTORE PUSH1 0x4 ADD PUSH2 0x5EE SWAP2 SWAP1 PUSH2 0x38A7 JUMP JUMPDEST POP PUSH1 0x5 DUP2 ADD SLOAD PUSH1 0x40 DUP1 MLOAD DUP1 DUP3 ADD SWAP1 SWAP2 MSTORE PUSH1 0x9 DUP2 MSTORE PUSH9 0x4241445F5354415445 PUSH1 0xB8 SHL PUSH1 0x20 DUP3 ADD MSTORE SWAP1 ISZERO PUSH2 0x2FAD JUMPI PUSH1 0x40 MLOAD PUSH3 0x461BCD PUSH1 0xE5 SHL DUP2 MSTORE PUSH1 0x4 ADD PUSH2 0x5EE SWAP2 SWAP1 PUSH2 0x38A7 JUMP JUMPDEST POP PUSH0 DUP3 GT PUSH2 0x2FCD JUMPI PUSH1 0x40 MLOAD PUSH3 0x461BCD PUSH1 0xE5 SHL DUP2 MSTORE PUSH1 0x4 ADD PUSH2 0x5EE SWAP1 PUSH2 0x3B55 JUMP JUMPDEST PUSH1 0x2 DUP2 ADD DUP3 SWAP1 SSTORE PUSH1 0x40 MLOAD DUP3 DUP2 MSTORE DUP4 SWAP1 PUSH32 0x703D5AB1F448A472C939C18589EAFA88AC50049582A4BBA8F0103382FB470444 SWAP1 PUSH1 0x20 ADD PUSH1 0x40 MLOAD DUP1 SWAP2 SUB SWAP1 LOG2 POP POP POP JUMP JUMPDEST PUSH0 SLOAD PUSH1 0x1 PUSH1 0x1 PUSH1 0xA0 SHL SUB AND CALLER EQ DUP1 PUSH2 0x3034 JUMPI POP CALLER PUSH0 SWAP1 DUP2 MSTORE PUSH1 0x1 PUSH1 0x20 MSTORE PUSH1 0x40 SWAP1 KECCAK256 SLOAD PUSH1 0xFF AND JUMPDEST PUSH1 0x40 MLOAD DUP1 PUSH1 0x40 ADD PUSH1 0x40 MSTORE DUP1 PUSH1 0x9 DUP2 MSTORE PUSH1 0x20 ADD PUSH9 0x2727AA2FA0A226A4A7 PUSH1 0xB9 SHL DUP2 MSTORE POP SWAP1 PUSH2 0x3074 JUMPI PUSH1 0x40 MLOAD PUSH3 0x461BCD PUSH1 0xE5 SHL DUP2 MSTORE PUSH1 0x4 ADD PUSH2 0x5EE SWAP2 SWAP1 PUSH2 0x38A7 JUMP JUMPDEST POP PUSH1 0x1 PUSH1 0x1 PUSH1 0xA0 SHL SUB DUP5 AND PUSH2 0x30B7 JUMPI PUSH1 0x40 MLOAD PUSH3 0x461BCD PUSH1 0xE5 SHL DUP2 MSTORE PUSH1 0x20 PUSH1 0x4 DUP3 ADD MSTORE PUSH1 0x9 PUSH1 0x24 DUP3 ADD MSTORE PUSH9 0x2D22A927AFAAA9A2A9 PUSH1 0xB9 SHL PUSH1 0x44 DUP3 ADD MSTORE PUSH1 0x64 ADD PUSH2 0x5EE JUMP JUMPDEST PUSH1 0x1 PUSH1 0x1 PUSH1 0xA0 SHL SUB DUP4 AND PUSH2 0x30DD JUMPI PUSH1 0x40 MLOAD PUSH3 0x461BCD PUSH1 0xE5 SHL DUP2 MSTORE PUSH1 0x4 ADD PUSH2 0x5EE SWAP1 PUSH2 0x393F JUMP JUMPDEST PUSH0 DUP3 GT PUSH2 0x30FC JUMPI PUSH1 0x40 MLOAD PUSH3 0x461BCD PUSH1 0xE5 SHL DUP2 MSTORE PUSH1 0x4 ADD PUSH2 0x5EE SWAP1 PUSH2 0x3B55 JUMP JUMPDEST PUSH1 0x1 PUSH1 0x1 PUSH1 0xA0 SHL SUB DUP1 DUP6 AND PUSH0 SWAP1 DUP2 MSTORE PUSH1 0x5 PUSH1 0x20 SWAP1 DUP2 MSTORE PUSH1 0x40 DUP1 DUP4 KECCAK256 SWAP4 DUP8 AND DUP4 MSTORE SWAP3 SWAP1 MSTORE SWAP1 DUP2 KECCAK256 DUP1 SLOAD DUP5 SWAP3 SWAP1 PUSH2 0x3132 SWAP1 DUP5 SWAP1 PUSH2 0x3906 JUMP JUMPDEST SWAP1 SWAP2 SSTORE POP POP PUSH1 0x40 DUP1 MLOAD DUP4 DUP2 MSTORE PUSH1 0x20 DUP2 ADD DUP4 SWAP1 MSTORE PUSH1 0x1 PUSH1 0x1 PUSH1 0xA0 SHL SUB DUP1 DUP7 AND SWAP3 SWAP1 DUP8 AND SWAP2 PUSH0 DUP1 MLOAD PUSH1 0x20 PUSH2 0x3C11 DUP4 CODECOPY DUP2 MLOAD SWAP2 MSTORE SWAP2 ADD PUSH1 0x40 MLOAD DUP1 SWAP2 SUB SWAP1 LOG3 POP POP POP POP JUMP JUMPDEST PUSH1 0x40 DUP1 MLOAD PUSH2 0x120 DUP2 ADD DUP3 MSTORE PUSH0 DUP1 DUP3 MSTORE PUSH1 0x20 DUP3 ADD DUP2 SWAP1 MSTORE SWAP2 DUP2 ADD DUP3 SWAP1 MSTORE PUSH1 0x60 DUP2 ADD DUP3 SWAP1 MSTORE PUSH1 0x80 DUP2 ADD DUP3 SWAP1 MSTORE PUSH1 0xA0 DUP2 ADD DUP3 SWAP1 MSTORE PUSH1 0xC0 DUP2 ADD DUP3 SWAP1 MSTORE PUSH1 0xE0 DUP2 ADD DUP3 SWAP1 MSTORE PUSH2 0x100 DUP2 ADD SWAP2 SWAP1 SWAP2 MSTORE POP PUSH1 0x1 PUSH1 0x1 PUSH1 0xA0 SHL SUB DUP2 AND PUSH0 SWAP1 DUP2 MSTORE PUSH1 0x4 PUSH1 0x20 SWAP1 DUP2 MSTORE PUSH1 0x40 SWAP2 DUP3 SWAP1 KECCAK256 DUP3 MLOAD PUSH2 0x120 DUP2 ADD DUP5 MSTORE DUP2 SLOAD PUSH1 0xFF DUP2 AND ISZERO ISZERO DUP1 DUP4 MSTORE PUSH2 0xFFFF PUSH2 0x100 DUP1 DUP5 DIV DUP3 AND DUP6 DUP9 ADD MSTORE PUSH4 0x1000000 DUP5 DIV DUP3 AND DUP6 DUP10 ADD MSTORE PUSH6 0x10000000000 SWAP1 SWAP4 DIV DUP2 AND PUSH1 0x60 DUP6 ADD MSTORE PUSH1 0x1 DUP6 ADD SLOAD PUSH1 0x80 DUP6 ADD MSTORE PUSH1 0x2 SWAP1 SWAP5 ADD SLOAD SWAP4 DUP5 AND PUSH1 0xA0 DUP5 ADD MSTORE PUSH4 0xFFFFFFFF PUSH3 0x10000 DUP6 DIV DUP2 AND PUSH1 0xC0 DUP6 ADD MSTORE PUSH1 0x1 PUSH1 0x30 SHL DUP6 DIV DUP2 AND PUSH1 0xE0 DUP6 ADD MSTORE PUSH1 0x1 PUSH1 0x50 SHL SWAP1 SWAP5 DIV SWAP1 SWAP4 AND SWAP1 DUP3 ADD MSTORE DUP4 MLOAD DUP1 DUP6 ADD SWAP1 SWAP5 MSTORE PUSH1 0xE DUP5 MSTORE PUSH14 0x1513D2D15397D11254D050931151 PUSH1 0x92 SHL SWAP3 DUP5 ADD SWAP3 SWAP1 SWAP3 MSTORE SWAP1 SWAP2 SWAP1 PUSH2 0x32A4 JUMPI PUSH1 0x40 MLOAD PUSH3 0x461BCD PUSH1 0xE5 SHL DUP2 MSTORE PUSH1 0x4 ADD PUSH2 0x5EE SWAP2 SWAP1 PUSH2 0x38A7 JUMP JUMPDEST POP SWAP2 SWAP1 POP JUMP JUMPDEST PUSH1 0x40 MLOAD PUSH4 0xA9059CBB PUSH1 0xE0 SHL DUP2 MSTORE PUSH1 0x1 PUSH1 0x1 PUSH1 0xA0 SHL SUB DUP4 DUP2 AND PUSH1 0x4 DUP4 ADD MSTORE PUSH1 0x24 DUP3 ADD DUP4 SWAP1 MSTORE PUSH0 SWAP2 SWAP1 DUP6 AND SWAP1 PUSH4 0xA9059CBB SWAP1 PUSH1 0x44 ADD PUSH1 0x20 PUSH1 0x40 MLOAD DUP1 DUP4 SUB DUP2 PUSH0 DUP8 GAS CALL ISZERO DUP1 ISZERO PUSH2 0x32F9 JUMPI RETURNDATASIZE PUSH0 DUP1 RETURNDATACOPY RETURNDATASIZE PUSH0 REVERT JUMPDEST POP POP POP POP PUSH1 0x40 MLOAD RETURNDATASIZE PUSH1 0x1F NOT PUSH1 0x1F DUP3 ADD AND DUP3 ADD DUP1 PUSH1 0x40 MSTORE POP DUP2 ADD SWAP1 PUSH2 0x331D SWAP2 SWAP1 PUSH2 0x3BBF JUMP JUMPDEST SWAP1 POP DUP1 PUSH2 0x1E05 JUMPI PUSH1 0x40 MLOAD PUSH3 0x461BCD PUSH1 0xE5 SHL DUP2 MSTORE PUSH1 0x20 PUSH1 0x4 DUP3 ADD MSTORE PUSH1 0x14 PUSH1 0x24 DUP3 ADD MSTORE PUSH20 0x14D0519157D514905394D1915497D19052531151 PUSH1 0x62 SHL PUSH1 0x44 DUP3 ADD MSTORE PUSH1 0x64 ADD PUSH2 0x5EE JUMP JUMPDEST PUSH0 DUP1 PUSH2 0x336E DUP5 PUSH2 0x3173 JUMP JUMPDEST PUSH1 0xA0 DUP2 ADD MLOAD SWAP1 SWAP2 POP PUSH2 0xFFFF AND ISZERO PUSH2 0x33A8 JUMPI PUSH2 0x2710 DUP2 PUSH1 0xA0 ADD MLOAD PUSH2 0xFFFF AND DUP5 PUSH2 0x3396 SWAP2 SWAP1 PUSH2 0x3BDA JUMP JUMPDEST PUSH2 0x33A0 SWAP2 SWAP1 PUSH2 0x3BF1 JUMP JUMPDEST SWAP2 POP POP PUSH2 0x33AF JUMP JUMPDEST PUSH1 0x80 ADD MLOAD SWAP1 POP JUMPDEST SWAP3 SWAP2 POP POP JUMP JUMPDEST PUSH1 0x40 MLOAD PUSH4 0x23B872DD PUSH1 0xE0 SHL DUP2 MSTORE PUSH1 0x1 PUSH1 0x1 PUSH1 0xA0 SHL SUB DUP5 DUP2 AND PUSH1 0x4 DUP4 ADD MSTORE DUP4 DUP2 AND PUSH1 0x24 DUP4 ADD MSTORE PUSH1 0x44 DUP3 ADD DUP4 SWAP1 MSTORE PUSH0 SWAP2 SWAP1 DUP7 AND SWAP1 PUSH4 0x23B872DD SWAP1 PUSH1 0x64 ADD PUSH1 0x20 PUSH1 0x40 MLOAD DUP1 DUP4 SUB DUP2 PUSH0 DUP8 GAS CALL ISZERO DUP1 ISZERO PUSH2 0x340C JUMPI RETURNDATASIZE PUSH0 DUP1 RETURNDATACOPY RETURNDATASIZE PUSH0 REVERT JUMPDEST POP POP POP POP PUSH1 0x40 MLOAD RETURNDATASIZE PUSH1 0x1F NOT PUSH1 0x1F DUP3 ADD AND DUP3 ADD DUP1 PUSH1 0x40 MSTORE POP DUP2 ADD SWAP1 PUSH2 0x3430 SWAP2 SWAP1 PUSH2 0x3BBF JUMP JUMPDEST SWAP1 POP DUP1 PUSH2 0x347F JUMPI PUSH1 0x40 MLOAD PUSH3 0x461BCD PUSH1 0xE5 SHL DUP2 MSTORE PUSH1 0x20 PUSH1 0x4 DUP3 ADD MSTORE PUSH1 0x19 PUSH1 0x24 DUP3 ADD MSTORE PUSH32 0x534146455F5452414E534645525F46524F4D5F4641494C454400000000000000 PUSH1 0x44 DUP3 ADD MSTORE PUSH1 0x64 ADD PUSH2 0x5EE JUMP JUMPDEST POP POP POP POP POP JUMP JUMPDEST PUSH0 DUP3 PUSH1 0x20 ADD MLOAD PUSH2 0x3497 JUMPI DUP3 MLOAD PUSH2 0x3499 JUMP JUMPDEST DUP2 JUMPDEST SWAP4 SWAP3 POP POP POP JUMP JUMPDEST PUSH0 DUP3 PUSH1 0x20 ADD MLOAD PUSH2 0x34B0 JUMPI DUP2 PUSH2 0x3499 JUMP JUMPDEST POP POP MLOAD SWAP1 JUMP JUMPDEST PUSH0 DUP1 PUSH2 0x34C1 DUP5 PUSH2 0x3173 JUMP JUMPDEST SWAP1 POP PUSH2 0x2710 DUP2 PUSH1 0x60 ADD MLOAD PUSH2 0xFFFF AND DUP5 PUSH2 0x34DA SWAP2 SWAP1 PUSH2 0x3BDA JUMP JUMPDEST PUSH2 0x34E4 SWAP2 SWAP1 PUSH2 0x3BF1 JUMP JUMPDEST SWAP5 SWAP4 POP POP POP POP JUMP JUMPDEST PUSH0 DUP1 PUSH2 0x34F7 DUP5 PUSH2 0x3173 JUMP JUMPDEST SWAP1 POP PUSH0 DUP2 PUSH1 0x40 ADD MLOAD PUSH2 0xFFFF AND DUP3 PUSH1 0x20 ADD MLOAD PUSH2 0xFFFF AND PUSH2 0x3516 SWAP2 SWAP1 PUSH2 0x3906 JUMP JUMPDEST SWAP1 POP PUSH2 0x2710 PUSH2 0x3525 DUP3 DUP7 PUSH2 0x3BDA JUMP JUMPDEST PUSH2 0x352F SWAP2 SWAP1 PUSH2 0x3BF1 JUMP JUMPDEST SWAP6 SWAP5 POP POP POP POP POP JUMP JUMPDEST PUSH0 PUSH1 0x20 DUP3 DUP5 SUB SLT ISZERO PUSH2 0x3548 JUMPI PUSH0 DUP1 REVERT JUMPDEST POP CALLDATALOAD SWAP2 SWAP1 POP JUMP JUMPDEST PUSH4 0x4E487B71 PUSH1 0xE0 SHL PUSH0 MSTORE PUSH1 0x21 PUSH1 0x4 MSTORE PUSH1 0x24 PUSH0 REVERT JUMPDEST PUSH1 0x7 DUP2 LT PUSH2 0x3573 JUMPI PUSH2 0x3573 PUSH2 0x354F JUMP JUMPDEST SWAP1 MSTORE JUMP JUMPDEST DUP15 DUP2 MSTORE PUSH1 0x1 PUSH1 0x1 PUSH1 0xA0 SHL SUB DUP15 DUP2 AND PUSH1 0x20 DUP4 ADD MSTORE DUP14 DUP2 AND PUSH1 0x40 DUP4 ADD MSTORE DUP13 AND PUSH1 0x60 DUP3 ADD MSTORE PUSH1 0x80 DUP2 ADD DUP12 SWAP1 MSTORE PUSH1 0xA0 DUP2 ADD DUP11 SWAP1 MSTORE PUSH1 0xC0 DUP2 ADD DUP10 SWAP1 MSTORE PUSH1 0xE0 DUP2 ADD DUP9 SWAP1 MSTORE PUSH2 0x1C0 DUP2 ADD PUSH2 0x35C8 PUSH2 0x100 DUP4 ADD DUP10 PUSH2 0x3563 JUMP JUMPDEST DUP7 PUSH2 0x120 DUP4 ADD MSTORE DUP6 PUSH2 0x140 DUP4 ADD MSTORE DUP5 PUSH2 0x160 DUP4 ADD MSTORE PUSH2 0x35EC PUSH2 0x180 DUP4 ADD DUP6 ISZERO ISZERO SWAP1 MSTORE JUMP JUMPDEST DUP3 ISZERO ISZERO PUSH2 0x1A0 DUP4 ADD MSTORE SWAP16 SWAP15 POP POP POP POP POP POP POP POP POP POP POP POP POP POP POP JUMP JUMPDEST PUSH1 0x1 PUSH1 0x1 PUSH1 0xA0 SHL SUB DUP9 DUP2 AND DUP3 MSTORE DUP8 ISZERO ISZERO PUSH1 0x20 DUP4 ADD MSTORE DUP7 AND PUSH1 0x40 DUP3 ADD MSTORE PUSH1 0x60 DUP2 ADD DUP6 SWAP1 MSTORE PUSH1 0x80 DUP2 ADD DUP5 SWAP1 MSTORE PUSH1 0xE0 DUP2 ADD PUSH1 0x4 DUP5 LT PUSH2 0x3646 JUMPI PUSH2 0x3646 PUSH2 0x354F JUMP JUMPDEST PUSH1 0xA0 DUP3 ADD SWAP4 SWAP1 SWAP4 MSTORE PUSH1 0xC0 ADD MSTORE SWAP6 SWAP5 POP POP POP POP POP JUMP JUMPDEST DUP1 CALLDATALOAD PUSH1 0x1 PUSH1 0x1 PUSH1 0xA0 SHL SUB DUP2 AND DUP2 EQ PUSH2 0x3671 JUMPI PUSH0 DUP1 REVERT JUMPDEST SWAP2 SWAP1 POP JUMP JUMPDEST PUSH0 PUSH1 0x20 DUP3 DUP5 SUB SLT ISZERO PUSH2 0x3686 JUMPI PUSH0 DUP1 REVERT JUMPDEST PUSH2 0x3499 DUP3 PUSH2 0x365B JUMP JUMPDEST DUP1 ISZERO ISZERO DUP2 EQ PUSH2 0x369C JUMPI PUSH0 DUP1 REVERT JUMPDEST POP JUMP JUMPDEST PUSH0 DUP1 PUSH1 0x40 DUP4 DUP6 SUB SLT ISZERO PUSH2 0x36B0 JUMPI PUSH0 DUP1 REVERT JUMPDEST PUSH2 0x36B9 DUP4 PUSH2 0x365B JUMP JUMPDEST SWAP2 POP PUSH1 0x20 DUP4 ADD CALLDATALOAD PUSH2 0x36C9 DUP2 PUSH2 0x368F JUMP JUMPDEST DUP1 SWAP2 POP POP SWAP3 POP SWAP3 SWAP1 POP JUMP JUMPDEST PUSH0 DUP1 PUSH1 0x40 DUP4 DUP6 SUB SLT ISZERO PUSH2 0x36E5 JUMPI PUSH0 DUP1 REVERT JUMPDEST PUSH2 0x36EE DUP4 PUSH2 0x365B JUMP JUMPDEST SWAP2 POP PUSH2 0x36FC PUSH1 0x20 DUP5 ADD PUSH2 0x365B JUMP JUMPDEST SWAP1 POP SWAP3 POP SWAP3 SWAP1 POP JUMP JUMPDEST PUSH0 DUP1 DUP3 DUP5 SUB PUSH2 0x140 DUP2 SLT ISZERO PUSH2 0x3718 JUMPI PUSH0 DUP1 REVERT JUMPDEST PUSH2 0x3721 DUP5 PUSH2 0x365B JUMP JUMPDEST SWAP3 POP PUSH2 0x120 PUSH1 0x1F NOT DUP3 ADD SLT ISZERO PUSH2 0x3735 JUMPI PUSH0 DUP1 REVERT JUMPDEST POP PUSH1 0x20 DUP4 ADD SWAP1 POP SWAP3 POP SWAP3 SWAP1 POP JUMP JUMPDEST PUSH0 DUP1 PUSH0 PUSH1 0x60 DUP5 DUP7 SUB SLT ISZERO PUSH2 0x3755 JUMPI PUSH0 DUP1 REVERT JUMPDEST DUP4 CALLDATALOAD PUSH2 0x3760 DUP2 PUSH2 0x368F JUMP JUMPDEST SWAP3 POP PUSH2 0x376E PUSH1 0x20 DUP6 ADD PUSH2 0x365B JUMP JUMPDEST SWAP2 POP PUSH1 0x40 DUP5 ADD CALLDATALOAD SWAP1 POP SWAP3 POP SWAP3 POP SWAP3 JUMP JUMPDEST PUSH0 DUP1 PUSH1 0x40 DUP4 DUP6 SUB SLT ISZERO PUSH2 0x378F JUMPI PUSH0 DUP1 REVERT JUMPDEST PUSH2 0x3798 DUP4 PUSH2 0x365B JUMP JUMPDEST SWAP5 PUSH1 0x20 SWAP4 SWAP1 SWAP4 ADD CALLDATALOAD SWAP4 POP POP POP JUMP JUMPDEST PUSH0 DUP1 PUSH1 0x40 DUP4 DUP6 SUB SLT ISZERO PUSH2 0x37B7 JUMPI PUSH0 DUP1 REVERT JUMPDEST DUP3 CALLDATALOAD SWAP2 POP PUSH1 0x20 DUP4 ADD CALLDATALOAD PUSH1 0x2 DUP2 LT PUSH2 0x36C9 JUMPI PUSH0 DUP1 REVERT JUMPDEST PUSH0 DUP1 PUSH1 0x40 DUP4 DUP6 SUB SLT ISZERO PUSH2 0x37DD JUMPI PUSH0 DUP1 REVERT JUMPDEST POP POP DUP1 CALLDATALOAD SWAP3 PUSH1 0x20 SWAP1 SWAP2 ADD CALLDATALOAD SWAP2 POP JUMP JUMPDEST PUSH0 DUP1 PUSH0 DUP1 PUSH1 0x80 DUP6 DUP8 SUB SLT ISZERO PUSH2 0x37FF JUMPI PUSH0 DUP1 REVERT JUMPDEST PUSH2 0x3808 DUP6 PUSH2 0x365B JUMP JUMPDEST SWAP4 POP PUSH2 0x3816 PUSH1 0x20 DUP7 ADD PUSH2 0x365B JUMP JUMPDEST SWAP4 SWAP7 SWAP4 SWAP6 POP POP POP POP PUSH1 0x40 DUP3 ADD CALLDATALOAD SWAP2 PUSH1 0x60 ADD CALLDATALOAD SWAP1 JUMP JUMPDEST SWAP9 ISZERO ISZERO DUP10 MSTORE PUSH2 0xFFFF SWAP8 DUP9 AND PUSH1 0x20 DUP11 ADD MSTORE SWAP6 DUP8 AND PUSH1 0x40 DUP10 ADD MSTORE SWAP4 DUP7 AND PUSH1 0x60 DUP9 ADD MSTORE PUSH1 0x80 DUP8 ADD SWAP3 SWAP1 SWAP3 MSTORE SWAP1 SWAP4 AND PUSH1 0xA0 DUP6 ADD MSTORE PUSH4 0xFFFFFFFF SWAP3 DUP4 AND PUSH1 0xC0 DUP6 ADD MSTORE DUP3 AND PUSH1 0xE0 DUP5 ADD MSTORE AND PUSH2 0x100 DUP3 ADD MSTORE PUSH2 0x120 ADD SWAP1 JUMP JUMPDEST PUSH1 0x20 DUP1 DUP3 MSTORE PUSH1 0x10 SWAP1 DUP3 ADD MSTORE PUSH16 0x1154D0D493D5D7D393D517D193D55391 PUSH1 0x82 SHL PUSH1 0x40 DUP3 ADD MSTORE PUSH1 0x60 ADD SWAP1 JUMP JUMPDEST PUSH0 PUSH1 0x20 DUP1 DUP4 MSTORE DUP4 MLOAD DUP1 DUP3 DUP6 ADD MSTORE PUSH0 JUMPDEST DUP2 DUP2 LT ISZERO PUSH2 0x38D2 JUMPI DUP6 DUP2 ADD DUP4 ADD MLOAD DUP6 DUP3 ADD PUSH1 0x40 ADD MSTORE DUP3 ADD PUSH2 0x38B6 JUMP JUMPDEST POP PUSH0 PUSH1 0x40 DUP3 DUP7 ADD ADD MSTORE PUSH1 0x40 PUSH1 0x1F NOT PUSH1 0x1F DUP4 ADD AND DUP6 ADD ADD SWAP3 POP POP POP SWAP3 SWAP2 POP POP JUMP JUMPDEST PUSH4 0x4E487B71 PUSH1 0xE0 SHL PUSH0 MSTORE PUSH1 0x11 PUSH1 0x4 MSTORE PUSH1 0x24 PUSH0 REVERT JUMPDEST DUP1 DUP3 ADD DUP1 DUP3 GT ISZERO PUSH2 0x33AF JUMPI PUSH2 0x33AF PUSH2 0x38F2 JUMP JUMPDEST PUSH1 0x20 DUP1 DUP3 MSTORE PUSH1 0xC SWAP1 DUP3 ADD MSTORE PUSH12 0x105117D393D517D193D55391 PUSH1 0xA2 SHL PUSH1 0x40 DUP3 ADD MSTORE PUSH1 0x60 ADD SWAP1 JUMP JUMPDEST PUSH1 0x20 DUP1 DUP3 MSTORE PUSH1 0xA SWAP1 DUP3 ADD MSTORE PUSH10 0x2D22A927AFAA27A5A2A7 PUSH1 0xB1 SHL PUSH1 0x40 DUP3 ADD MSTORE PUSH1 0x60 ADD SWAP1 JUMP JUMPDEST PUSH2 0xFFFF DUP2 AND DUP2 EQ PUSH2 0x369C JUMPI PUSH0 DUP1 REVERT JUMPDEST PUSH0 PUSH1 0x20 DUP3 DUP5 SUB SLT ISZERO PUSH2 0x3982 JUMPI PUSH0 DUP1 REVERT JUMPDEST DUP2 CALLDATALOAD PUSH2 0x3499 DUP2 PUSH2 0x3963 JUMP JUMPDEST PUSH0 DUP2 CALLDATALOAD PUSH2 0x33AF DUP2 PUSH2 0x3963 JUMP JUMPDEST PUSH4 0xFFFFFFFF DUP2 AND DUP2 EQ PUSH2 0x369C JUMPI PUSH0 DUP1 REVERT JUMPDEST PUSH0 DUP2 CALLDATALOAD PUSH2 0x33AF DUP2 PUSH2 0x3999 JUMP JUMPDEST DUP2 CALLDATALOAD PUSH2 0x39C1 DUP2 PUSH2 0x368F JUMP JUMPDEST DUP2 SLOAD SWAP1 ISZERO ISZERO PUSH1 0xFF AND PUSH1 0xFF NOT SWAP2 SWAP1 SWAP2 AND OR DUP2 SSTORE PUSH2 0x39FA PUSH2 0x39E2 PUSH1 0x20 DUP5 ADD PUSH2 0x398D JUMP JUMPDEST DUP3 SLOAD PUSH3 0xFFFF00 NOT AND PUSH1 0x8 SWAP2 SWAP1 SWAP2 SHL PUSH3 0xFFFF00 AND OR DUP3 SSTORE JUMP JUMPDEST PUSH2 0x3A25 PUSH2 0x3A09 PUSH1 0x40 DUP5 ADD PUSH2 0x398D JUMP JUMPDEST DUP3 SLOAD PUSH5 0xFFFF000000 NOT AND PUSH1 0x18 SWAP2 SWAP1 SWAP2 SHL PUSH5 0xFFFF000000 AND OR DUP3 SSTORE JUMP JUMPDEST PUSH2 0x3A54 PUSH2 0x3A34 PUSH1 0x60 DUP5 ADD PUSH2 0x398D JUMP JUMPDEST DUP3 SLOAD PUSH7 0xFFFF0000000000 NOT AND PUSH1 0x28 SWAP2 SWAP1 SWAP2 SHL PUSH7 0xFFFF0000000000 AND OR DUP3 SSTORE JUMP JUMPDEST PUSH1 0x80 DUP3 ADD CALLDATALOAD PUSH1 0x1 DUP3 ADD SSTORE PUSH1 0x2 DUP2 ADD PUSH2 0x3A84 PUSH2 0x3A71 PUSH1 0xA0 DUP6 ADD PUSH2 0x398D JUMP JUMPDEST DUP3 SLOAD PUSH2 0xFFFF NOT AND PUSH2 0xFFFF SWAP2 SWAP1 SWAP2 AND OR DUP3 SSTORE JUMP JUMPDEST PUSH2 0x3AB1 PUSH2 0x3A93 PUSH1 0xC0 DUP6 ADD PUSH2 0x39AA JUMP JUMPDEST DUP3 SLOAD PUSH6 0xFFFFFFFF0000 NOT AND PUSH1 0x10 SWAP2 SWAP1 SWAP2 SHL PUSH6 0xFFFFFFFF0000 AND OR DUP3 SSTORE JUMP JUMPDEST PUSH2 0x3AE6 PUSH2 0x3AC0 PUSH1 0xE0 DUP6 ADD PUSH2 0x39AA JUMP JUMPDEST DUP3 SLOAD PUSH10 0xFFFFFFFF000000000000 NOT AND PUSH1 0x30 SWAP2 SWAP1 SWAP2 SHL PUSH10 0xFFFFFFFF000000000000 AND OR DUP3 SSTORE JUMP JUMPDEST PUSH2 0x3B1A PUSH2 0x3AF6 PUSH2 0x100 DUP6 ADD PUSH2 0x39AA JUMP JUMPDEST DUP3 DUP1 SLOAD PUSH4 0xFFFFFFFF PUSH1 0x50 SHL NOT AND PUSH1 0x50 SWAP3 SWAP1 SWAP3 SHL PUSH4 0xFFFFFFFF PUSH1 0x50 SHL AND SWAP2 SWAP1 SWAP2 OR SWAP1 SSTORE JUMP JUMPDEST POP POP POP JUMP JUMPDEST PUSH0 PUSH1 0x20 DUP3 DUP5 SUB SLT ISZERO PUSH2 0x3B2F JUMPI PUSH0 DUP1 REVERT JUMPDEST DUP2 CALLDATALOAD PUSH2 0x3499 DUP2 PUSH2 0x368F JUMP JUMPDEST PUSH0 PUSH1 0x20 DUP3 DUP5 SUB SLT ISZERO PUSH2 0x3B4A JUMPI PUSH0 DUP1 REVERT JUMPDEST DUP2 CALLDATALOAD PUSH2 0x3499 DUP2 PUSH2 0x3999 JUMP JUMPDEST PUSH1 0x20 DUP1 DUP3 MSTORE PUSH1 0xB SWAP1 DUP3 ADD MSTORE PUSH11 0x16915493D7D05353D55395 PUSH1 0xAA SHL PUSH1 0x40 DUP3 ADD MSTORE PUSH1 0x60 ADD SWAP1 JUMP JUMPDEST PUSH0 PUSH1 0x1 DUP3 ADD PUSH2 0x3B8B JUMPI PUSH2 0x3B8B PUSH2 0x38F2 JUMP JUMPDEST POP PUSH1 0x1 ADD SWAP1 JUMP JUMPDEST DUP2 DUP2 SUB DUP2 DUP2 GT ISZERO PUSH2 0x33AF JUMPI PUSH2 0x33AF PUSH2 0x38F2 JUMP JUMPDEST PUSH1 0x20 DUP2 ADD PUSH1 0x2 DUP4 LT PUSH2 0x3BB9 JUMPI PUSH2 0x3BB9 PUSH2 0x354F JUMP JUMPDEST SWAP2 SWAP1 MSTORE SWAP1 JUMP JUMPDEST PUSH0 PUSH1 0x20 DUP3 DUP5 SUB SLT ISZERO PUSH2 0x3BCF JUMPI PUSH0 DUP1 REVERT JUMPDEST DUP2 MLOAD PUSH2 0x3499 DUP2 PUSH2 0x368F JUMP JUMPDEST DUP1 DUP3 MUL DUP2 ISZERO DUP3 DUP3 DIV DUP5 EQ OR PUSH2 0x33AF JUMPI PUSH2 0x33AF PUSH2 0x38F2 JUMP JUMPDEST PUSH0 DUP3 PUSH2 0x3C0B JUMPI PUSH4 0x4E487B71 PUSH1 0xE0 SHL PUSH0 MSTORE PUSH1 0x12 PUSH1 0x4 MSTORE PUSH1 0x24 PUSH0 REVERT JUMPDEST POP DIV SWAP1 JUMP INVALID SLT PUSH20 0xB3BC238763D2765ACCFD266760C5513354F6778B ADDMOD 0xE5 SHR SELFDESTRUCT ADD PUSH31 0x354434FA26469706673582212203EE48C2A18BC054827FF2FD7304281B4D2 STATICCALL CALLVALUE 0xEE ADD EQ SHL 0xEC SWAP4 0x2F RETURNDATASIZE 0xA7 SWAP9 DUP8 0x23 0xB2 PUSH5 0x736F6C6343 STOP ADDMOD EQ STOP CALLER "
		},
		"gasEstimates": {
			"creation": {
				"codeDepositCost": "3092400",
				"executionCost": "infinite",
				"totalCost": "infinite"
			},
			"external": {
				"adminAddCredit(address,address,uint256,bytes32)": "infinite",
				"ads(uint256)": "13357",
				"buyerMayDispute(uint256)": "17979",
				"cancelAd(uint256)": "infinite",
				"confirmPayment(uint256)": "infinite",
				"createAd(bool,address,uint256)": "infinite",
				"creditBalance(address,address)": "infinite",
				"editAd(uint256,uint256)": "infinite",
				"escrows(uint256)": "28397",
				"expireBuyerConfirmation(uint256)": "infinite",
				"expireSellerFunding(uint256)": "infinite",
				"fundEscrow(uint256)": "infinite",
				"isAdmin(address)": "2574",
				"isArbitrator(address)": "2573",
				"nextAdId()": "2385",
				"nextEscrowId()": "2362",
				"openDispute(uint256)": "infinite",
				"owner()": "2425",
				"releaseEscrow(uint256)": "infinite",
				"resolveDispute(uint256,uint8)": "infinite",
				"setAdmin(address,bool)": "infinite",
				"setArbitrator(address,bool)": "infinite",
				"setTokenConfig(address,(bool,uint16,uint16,uint16,uint256,uint16,uint32,uint32,uint32))": "infinite",
				"setTreasury(address)": "infinite",
				"takeAd(uint256)": "infinite",
				"tokenConfig(address)": "7252",
				"transferOwnership(address)": "infinite",
				"treasury()": "2447",
				"withdrawCredit(address,uint256)": "infinite"
			},
			"internal": {
				"_adBond(address,uint256)": "infinite",
				"_buyerOfAd(struct TrustfyEscrowV4_2_Amended.Ad memory,address)": "infinite",
				"_cfg(address)": "infinite",
				"_disputeBond(address,uint256)": "infinite",
				"_feeAmount(address,uint256)": "infinite",
				"_makerIsFundingParty(struct TrustfyEscrowV4_2_Amended.Ad memory)": "infinite",
				"_sellerOfAd(struct TrustfyEscrowV4_2_Amended.Ad memory,address)": "infinite"
			}
		},
		"methodIdentifiers": {
			"adminAddCredit(address,address,uint256,bytes32)": "fb90fb4a",
			"ads(uint256)": "11a7a4c0",
			"buyerMayDispute(uint256)": "c3a7a61a",
			"cancelAd(uint256)": "3f11710b",
			"confirmPayment(uint256)": "876ca09f",
			"createAd(bool,address,uint256)": "4d4d4265",
			"creditBalance(address,address)": "3219abe4",
			"editAd(uint256,uint256)": "f4f8b266",
			"escrows(uint256)": "012f52ee",
			"expireBuyerConfirmation(uint256)": "354c5e01",
			"expireSellerFunding(uint256)": "c15e23e1",
			"fundEscrow(uint256)": "c9c31af5",
			"isAdmin(address)": "24d7806c",
			"isArbitrator(address)": "9f6bd2a9",
			"nextAdId()": "1a8bb68d",
			"nextEscrowId()": "89cb29dd",
			"openDispute(uint256)": "27d00fb0",
			"owner()": "8da5cb5b",
			"releaseEscrow(uint256)": "ed653164",
			"resolveDispute(uint256,uint8)": "e55e4211",
			"setAdmin(address,bool)": "4b0bddd2",
			"setArbitrator(address,bool)": "2bc0b076",
			"setTokenConfig(address,(bool,uint16,uint16,uint16,uint256,uint16,uint32,uint32,uint32))": "4c3fc8ad",
			"setTreasury(address)": "f0f44260",
			"takeAd(uint256)": "af4d7c6f",
			"tokenConfig(address)": "fe136c4e",
			"transferOwnership(address)": "f2fde38b",
			"treasury()": "61d027b3",
			"withdrawCredit(address,uint256)": "502b7469"
		}
	},
	"abi": [
		{
			"inputs": [
				{
					"internalType": "address",
					"name": "treasury_",
					"type": "address"
				}
			],
			"stateMutability": "nonpayable",
			"type": "constructor"
		},
		{
			"anonymous": false,
			"inputs": [
				{
					"indexed": true,
					"internalType": "uint256",
					"name": "adId",
					"type": "uint256"
				}
			],
			"name": "AdCancelled",
			"type": "event"
		},
		{
			"anonymous": false,
			"inputs": [
				{
					"indexed": true,
					"internalType": "uint256",
					"name": "adId",
					"type": "uint256"
				}
			],
			"name": "AdCompleted",
			"type": "event"
		},
		{
			"anonymous": false,
			"inputs": [
				{
					"indexed": true,
					"internalType": "uint256",
					"name": "adId",
					"type": "uint256"
				},
				{
					"indexed": true,
					"internalType": "address",
					"name": "maker",
					"type": "address"
				},
				{
					"indexed": false,
					"internalType": "bool",
					"name": "isSellAd",
					"type": "bool"
				},
				{
					"indexed": true,
					"internalType": "address",
					"name": "token",
					"type": "address"
				},
				{
					"indexed": false,
					"internalType": "uint256",
					"name": "amount",
					"type": "uint256"
				},
				{
					"indexed": false,
					"internalType": "uint256",
					"name": "adBond",
					"type": "uint256"
				}
			],
			"name": "AdCreated",
			"type": "event"
		},
		{
			"anonymous": false,
			"inputs": [
				{
					"indexed": true,
					"internalType": "uint256",
					"name": "adId",
					"type": "uint256"
				},
				{
					"indexed": false,
					"internalType": "uint256",
					"name": "newAmount",
					"type": "uint256"
				}
			],
			"name": "AdEdited",
			"type": "event"
		},
		{
			"anonymous": false,
			"inputs": [
				{
					"indexed": true,
					"internalType": "address",
					"name": "account",
					"type": "address"
				},
				{
					"indexed": false,
					"internalType": "bool",
					"name": "enabled",
					"type": "bool"
				}
			],
			"name": "AdminSet",
			"type": "event"
		},
		{
			"anonymous": false,
			"inputs": [
				{
					"indexed": true,
					"internalType": "address",
					"name": "account",
					"type": "address"
				},
				{
					"indexed": false,
					"internalType": "bool",
					"name": "enabled",
					"type": "bool"
				}
			],
			"name": "ArbitratorSet",
			"type": "event"
		},
		{
			"anonymous": false,
			"inputs": [
				{
					"indexed": true,
					"internalType": "address",
					"name": "user",
					"type": "address"
				},
				{
					"indexed": true,
					"internalType": "address",
					"name": "token",
					"type": "address"
				},
				{
					"indexed": false,
					"internalType": "uint256",
					"name": "amount",
					"type": "uint256"
				},
				{
					"indexed": false,
					"internalType": "bytes32",
					"name": "ref",
					"type": "bytes32"
				}
			],
			"name": "CreditAdded",
			"type": "event"
		},
		{
			"anonymous": false,
			"inputs": [
				{
					"indexed": true,
					"internalType": "address",
					"name": "user",
					"type": "address"
				},
				{
					"indexed": true,
					"internalType": "address",
					"name": "token",
					"type": "address"
				},
				{
					"indexed": false,
					"internalType": "uint256",
					"name": "amount",
					"type": "uint256"
				}
			],
			"name": "CreditWithdrawn",
			"type": "event"
		},
		{
			"anonymous": false,
			"inputs": [
				{
					"indexed": true,
					"internalType": "uint256",
					"name": "escrowId",
					"type": "uint256"
				},
				{
					"indexed": true,
					"internalType": "address",
					"name": "opener",
					"type": "address"
				}
			],
			"name": "DisputeOpened",
			"type": "event"
		},
		{
			"anonymous": false,
			"inputs": [
				{
					"indexed": true,
					"internalType": "uint256",
					"name": "escrowId",
					"type": "uint256"
				},
				{
					"indexed": false,
					"internalType": "enum TrustfyEscrowV4_2_Amended.DisputeOutcome",
					"name": "outcome",
					"type": "uint8"
				}
			],
			"name": "DisputeResolved",
			"type": "event"
		},
		{
			"anonymous": false,
			"inputs": [
				{
					"indexed": true,
					"internalType": "uint256",
					"name": "escrowId",
					"type": "uint256"
				},
				{
					"indexed": false,
					"internalType": "string",
					"name": "reason",
					"type": "string"
				}
			],
			"name": "EscrowCancelled",
			"type": "event"
		},
		{
			"anonymous": false,
			"inputs": [
				{
					"indexed": true,
					"internalType": "uint256",
					"name": "escrowId",
					"type": "uint256"
				},
				{
					"indexed": false,
					"internalType": "uint256",
					"name": "amount",
					"type": "uint256"
				},
				{
					"indexed": false,
					"internalType": "uint256",
					"name": "feeAmount",
					"type": "uint256"
				},
				{
					"indexed": false,
					"internalType": "uint256",
					"name": "sellerDisputeBond",
					"type": "uint256"
				}
			],
			"name": "EscrowFunded",
			"type": "event"
		},
		{
			"anonymous": false,
			"inputs": [
				{
					"indexed": true,
					"internalType": "uint256",
					"name": "escrowId",
					"type": "uint256"
				}
			],
			"name": "EscrowReleased",
			"type": "event"
		},
		{
			"anonymous": false,
			"inputs": [
				{
					"indexed": true,
					"internalType": "uint256",
					"name": "escrowId",
					"type": "uint256"
				},
				{
					"indexed": true,
					"internalType": "uint256",
					"name": "adId",
					"type": "uint256"
				},
				{
					"indexed": true,
					"internalType": "address",
					"name": "buyer",
					"type": "address"
				},
				{
					"indexed": false,
					"internalType": "address",
					"name": "seller",
					"type": "address"
				},
				{
					"indexed": false,
					"internalType": "uint256",
					"name": "buyerDisputeBond",
					"type": "uint256"
				}
			],
			"name": "EscrowTaken",
			"type": "event"
		},
		{
			"anonymous": false,
			"inputs": [
				{
					"indexed": true,
					"internalType": "address",
					"name": "oldOwner",
					"type": "address"
				},
				{
					"indexed": true,
					"internalType": "address",
					"name": "newOwner",
					"type": "address"
				}
			],
			"name": "OwnershipTransferred",
			"type": "event"
		},
		{
			"anonymous": false,
			"inputs": [
				{
					"indexed": true,
					"internalType": "uint256",
					"name": "escrowId",
					"type": "uint256"
				},
				{
					"indexed": true,
					"internalType": "address",
					"name": "buyer",
					"type": "address"
				}
			],
			"name": "PaymentConfirmed",
			"type": "event"
		},
		{
			"anonymous": false,
			"inputs": [
				{
					"indexed": true,
					"internalType": "address",
					"name": "token",
					"type": "address"
				},
				{
					"indexed": false,
					"internalType": "bool",
					"name": "enabled",
					"type": "bool"
				},
				{
					"indexed": false,
					"internalType": "uint16",
					"name": "makerFeeBps",
					"type": "uint16"
				},
				{
					"indexed": false,
					"internalType": "uint16",
					"name": "takerFeeBps",
					"type": "uint16"
				},
				{
					"indexed": false,
					"internalType": "uint16",
					"name": "disputeBondBps",
					"type": "uint16"
				},
				{
					"indexed": false,
					"internalType": "uint256",
					"name": "adBondFixed",
					"type": "uint256"
				},
				{
					"indexed": false,
					"internalType": "uint16",
					"name": "adBondBps",
					"type": "uint16"
				},
				{
					"indexed": false,
					"internalType": "uint32",
					"name": "sellerFundWindow",
					"type": "uint32"
				},
				{
					"indexed": false,
					"internalType": "uint32",
					"name": "buyerConfirmWindow",
					"type": "uint32"
				},
				{
					"indexed": false,
					"internalType": "uint32",
					"name": "sellerReleaseWindow",
					"type": "uint32"
				}
			],
			"name": "TokenConfigSet",
			"type": "event"
		},
		{
			"anonymous": false,
			"inputs": [
				{
					"indexed": true,
					"internalType": "address",
					"name": "treasury",
					"type": "address"
				}
			],
			"name": "TreasurySet",
			"type": "event"
		},
		{
			"inputs": [
				{
					"internalType": "address",
					"name": "user",
					"type": "address"
				},
				{
					"internalType": "address",
					"name": "token",
					"type": "address"
				},
				{
					"internalType": "uint256",
					"name": "amount",
					"type": "uint256"
				},
				{
					"internalType": "bytes32",
					"name": "ref",
					"type": "bytes32"
				}
			],
			"name": "adminAddCredit",
			"outputs": [],
			"stateMutability": "nonpayable",
			"type": "function"
		},
		{
			"inputs": [
				{
					"internalType": "uint256",
					"name": "",
					"type": "uint256"
				}
			],
			"name": "ads",
			"outputs": [
				{
					"internalType": "address",
					"name": "maker",
					"type": "address"
				},
				{
					"internalType": "bool",
					"name": "isSellAd",
					"type": "bool"
				},
				{
					"internalType": "address",
					"name": "token",
					"type": "address"
				},
				{
					"internalType": "uint256",
					"name": "amount",
					"type": "uint256"
				},
				{
					"internalType": "uint256",
					"name": "adBond",
					"type": "uint256"
				},
				{
					"internalType": "enum TrustfyEscrowV4_2_Amended.AdState",
					"name": "state",
					"type": "uint8"
				},
				{
					"internalType": "uint256",
					"name": "activeEscrowId",
					"type": "uint256"
				}
			],
			"stateMutability": "view",
			"type": "function"
		},
		{
			"inputs": [
				{
					"internalType": "uint256",
					"name": "escrowId",
					"type": "uint256"
				}
			],
			"name": "buyerMayDispute",
			"outputs": [
				{
					"internalType": "bool",
					"name": "",
					"type": "bool"
				}
			],
			"stateMutability": "view",
			"type": "function"
		},
		{
			"inputs": [
				{
					"internalType": "uint256",
					"name": "adId",
					"type": "uint256"
				}
			],
			"name": "cancelAd",
			"outputs": [],
			"stateMutability": "nonpayable",
			"type": "function"
		},
		{
			"inputs": [
				{
					"internalType": "uint256",
					"name": "escrowId",
					"type": "uint256"
				}
			],
			"name": "confirmPayment",
			"outputs": [],
			"stateMutability": "nonpayable",
			"type": "function"
		},
		{
			"inputs": [
				{
					"internalType": "bool",
					"name": "isSellAd",
					"type": "bool"
				},
				{
					"internalType": "address",
					"name": "token",
					"type": "address"
				},
				{
					"internalType": "uint256",
					"name": "amount",
					"type": "uint256"
				}
			],
			"name": "createAd",
			"outputs": [
				{
					"internalType": "uint256",
					"name": "adId",
					"type": "uint256"
				}
			],
			"stateMutability": "nonpayable",
			"type": "function"
		},
		{
			"inputs": [
				{
					"internalType": "address",
					"name": "",
					"type": "address"
				},
				{
					"internalType": "address",
					"name": "",
					"type": "address"
				}
			],
			"name": "creditBalance",
			"outputs": [
				{
					"internalType": "uint256",
					"name": "",
					"type": "uint256"
				}
			],
			"stateMutability": "view",
			"type": "function"
		},
		{
			"inputs": [
				{
					"internalType": "uint256",
					"name": "adId",
					"type": "uint256"
				},
				{
					"internalType": "uint256",
					"name": "newAmount",
					"type": "uint256"
				}
			],
			"name": "editAd",
			"outputs": [],
			"stateMutability": "nonpayable",
			"type": "function"
		},
		{
			"inputs": [
				{
					"internalType": "uint256",
					"name": "",
					"type": "uint256"
				}
			],
			"name": "escrows",
			"outputs": [
				{
					"internalType": "uint256",
					"name": "adId",
					"type": "uint256"
				},
				{
					"internalType": "address",
					"name": "buyer",
					"type": "address"
				},
				{
					"internalType": "address",
					"name": "seller",
					"type": "address"
				},
				{
					"internalType": "address",
					"name": "token",
					"type": "address"
				},
				{
					"internalType": "uint256",
					"name": "amount",
					"type": "uint256"
				},
				{
					"internalType": "uint256",
					"name": "feeAmount",
					"type": "uint256"
				},
				{
					"internalType": "uint256",
					"name": "buyerDisputeBond",
					"type": "uint256"
				},
				{
					"internalType": "uint256",
					"name": "sellerDisputeBond",
					"type": "uint256"
				},
				{
					"internalType": "enum TrustfyEscrowV4_2_Amended.EscrowStatus",
					"name": "status",
					"type": "uint8"
				},
				{
					"internalType": "uint256",
					"name": "takenAt",
					"type": "uint256"
				},
				{
					"internalType": "uint256",
					"name": "fundedAt",
					"type": "uint256"
				},
				{
					"internalType": "uint256",
					"name": "paymentConfirmedAt",
					"type": "uint256"
				},
				{
					"internalType": "bool",
					"name": "disputeOpened",
					"type": "bool"
				},
				{
					"internalType": "bool",
					"name": "disputeResolved",
					"type": "bool"
				}
			],
			"stateMutability": "view",
			"type": "function"
		},
		{
			"inputs": [
				{
					"internalType": "uint256",
					"name": "escrowId",
					"type": "uint256"
				}
			],
			"name": "expireBuyerConfirmation",
			"outputs": [],
			"stateMutability": "nonpayable",
			"type": "function"
		},
		{
			"inputs": [
				{
					"internalType": "uint256",
					"name": "escrowId",
					"type": "uint256"
				}
			],
			"name": "expireSellerFunding",
			"outputs": [],
			"stateMutability": "nonpayable",
			"type": "function"
		},
		{
			"inputs": [
				{
					"internalType": "uint256",
					"name": "escrowId",
					"type": "uint256"
				}
			],
			"name": "fundEscrow",
			"outputs": [],
			"stateMutability": "nonpayable",
			"type": "function"
		},
		{
			"inputs": [
				{
					"internalType": "address",
					"name": "",
					"type": "address"
				}
			],
			"name": "isAdmin",
			"outputs": [
				{
					"internalType": "bool",
					"name": "",
					"type": "bool"
				}
			],
			"stateMutability": "view",
			"type": "function"
		},
		{
			"inputs": [
				{
					"internalType": "address",
					"name": "",
					"type": "address"
				}
			],
			"name": "isArbitrator",
			"outputs": [
				{
					"internalType": "bool",
					"name": "",
					"type": "bool"
				}
			],
			"stateMutability": "view",
			"type": "function"
		},
		{
			"inputs": [],
			"name": "nextAdId",
			"outputs": [
				{
					"internalType": "uint256",
					"name": "",
					"type": "uint256"
				}
			],
			"stateMutability": "view",
			"type": "function"
		},
		{
			"inputs": [],
			"name": "nextEscrowId",
			"outputs": [
				{
					"internalType": "uint256",
					"name": "",
					"type": "uint256"
				}
			],
			"stateMutability": "view",
			"type": "function"
		},
		{
			"inputs": [
				{
					"internalType": "uint256",
					"name": "escrowId",
					"type": "uint256"
				}
			],
			"name": "openDispute",
			"outputs": [],
			"stateMutability": "nonpayable",
			"type": "function"
		},
		{
			"inputs": [],
			"name": "owner",
			"outputs": [
				{
					"internalType": "address",
					"name": "",
					"type": "address"
				}
			],
			"stateMutability": "view",
			"type": "function"
		},
		{
			"inputs": [
				{
					"internalType": "uint256",
					"name": "escrowId",
					"type": "uint256"
				}
			],
			"name": "releaseEscrow",
			"outputs": [],
			"stateMutability": "nonpayable",
			"type": "function"
		},
		{
			"inputs": [
				{
					"internalType": "uint256",
					"name": "escrowId",
					"type": "uint256"
				},
				{
					"internalType": "enum TrustfyEscrowV4_2_Amended.DisputeOutcome",
					"name": "outcome",
					"type": "uint8"
				}
			],
			"name": "resolveDispute",
			"outputs": [],
			"stateMutability": "nonpayable",
			"type": "function"
		},
		{
			"inputs": [
				{
					"internalType": "address",
					"name": "account",
					"type": "address"
				},
				{
					"internalType": "bool",
					"name": "enabled",
					"type": "bool"
				}
			],
			"name": "setAdmin",
			"outputs": [],
			"stateMutability": "nonpayable",
			"type": "function"
		},
		{
			"inputs": [
				{
					"internalType": "address",
					"name": "account",
					"type": "address"
				},
				{
					"internalType": "bool",
					"name": "enabled",
					"type": "bool"
				}
			],
			"name": "setArbitrator",
			"outputs": [],
			"stateMutability": "nonpayable",
			"type": "function"
		},
		{
			"inputs": [
				{
					"internalType": "address",
					"name": "token",
					"type": "address"
				},
				{
					"components": [
						{
							"internalType": "bool",
							"name": "enabled",
							"type": "bool"
						},
						{
							"internalType": "uint16",
							"name": "makerFeeBps",
							"type": "uint16"
						},
						{
							"internalType": "uint16",
							"name": "takerFeeBps",
							"type": "uint16"
						},
						{
							"internalType": "uint16",
							"name": "disputeBondBps",
							"type": "uint16"
						},
						{
							"internalType": "uint256",
							"name": "adBondFixed",
							"type": "uint256"
						},
						{
							"internalType": "uint16",
							"name": "adBondBps",
							"type": "uint16"
						},
						{
							"internalType": "uint32",
							"name": "sellerFundWindow",
							"type": "uint32"
						},
						{
							"internalType": "uint32",
							"name": "buyerConfirmWindow",
							"type": "uint32"
						},
						{
							"internalType": "uint32",
							"name": "sellerReleaseWindow",
							"type": "uint32"
						}
					],
					"internalType": "struct TrustfyEscrowV4_2_Amended.TokenConfig",
					"name": "cfg",
					"type": "tuple"
				}
			],
			"name": "setTokenConfig",
			"outputs": [],
			"stateMutability": "nonpayable",
			"type": "function"
		},
		{
			"inputs": [
				{
					"internalType": "address",
					"name": "treasury_",
					"type": "address"
				}
			],
			"name": "setTreasury",
			"outputs": [],
			"stateMutability": "nonpayable",
			"type": "function"
		},
		{
			"inputs": [
				{
					"internalType": "uint256",
					"name": "adId",
					"type": "uint256"
				}
			],
			"name": "takeAd",
			"outputs": [
				{
					"internalType": "uint256",
					"name": "escrowId",
					"type": "uint256"
				}
			],
			"stateMutability": "nonpayable",
			"type": "function"
		},
		{
			"inputs": [
				{
					"internalType": "address",
					"name": "",
					"type": "address"
				}
			],
			"name": "tokenConfig",
			"outputs": [
				{
					"internalType": "bool",
					"name": "enabled",
					"type": "bool"
				},
				{
					"internalType": "uint16",
					"name": "makerFeeBps",
					"type": "uint16"
				},
				{
					"internalType": "uint16",
					"name": "takerFeeBps",
					"type": "uint16"
				},
				{
					"internalType": "uint16",
					"name": "disputeBondBps",
					"type": "uint16"
				},
				{
					"internalType": "uint256",
					"name": "adBondFixed",
					"type": "uint256"
				},
				{
					"internalType": "uint16",
					"name": "adBondBps",
					"type": "uint16"
				},
				{
					"internalType": "uint32",
					"name": "sellerFundWindow",
					"type": "uint32"
				},
				{
					"internalType": "uint32",
					"name": "buyerConfirmWindow",
					"type": "uint32"
				},
				{
					"internalType": "uint32",
					"name": "sellerReleaseWindow",
					"type": "uint32"
				}
			],
			"stateMutability": "view",
			"type": "function"
		},
		{
			"inputs": [
				{
					"internalType": "address",
					"name": "newOwner",
					"type": "address"
				}
			],
			"name": "transferOwnership",
			"outputs": [],
			"stateMutability": "nonpayable",
			"type": "function"
		},
		{
			"inputs": [],
			"name": "treasury",
			"outputs": [
				{
					"internalType": "address",
					"name": "",
					"type": "address"
				}
			],
			"stateMutability": "view",
			"type": "function"
		},
		{
			"inputs": [
				{
					"internalType": "address",
					"name": "token",
					"type": "address"
				},
				{
					"internalType": "uint256",
					"name": "amount",
					"type": "uint256"
				}
			],
			"name": "withdrawCredit",
			"outputs": [],
			"stateMutability": "nonpayable",
			"type": "function"
		}
	]
}