{
	"TRUSTFY v4.3 — Contract.sol": {
		"TrustfyEscrowV4_2_Amended": {
			"abi": [
				{
					"inputs": [
						{
							"internalType": "address",
							"name": "treasury_",
							"type": "address"
						}
					],
					"stateMutability": "nonpayable",
					"type": "constructor"
				},
				{
					"anonymous": false,
					"inputs": [
						{
							"indexed": true,
							"internalType": "uint256",
							"name": "adId",
							"type": "uint256"
						}
					],
					"name": "AdCancelled",
					"type": "event"
				},
				{
					"anonymous": false,
					"inputs": [
						{
							"indexed": true,
							"internalType": "uint256",
							"name": "adId",
							"type": "uint256"
						}
					],
					"name": "AdCompleted",
					"type": "event"
				},
				{
					"anonymous": false,
					"inputs": [
						{
							"indexed": true,
							"internalType": "uint256",
							"name": "adId",
							"type": "uint256"
						},
						{
							"indexed": true,
							"internalType": "address",
							"name": "maker",
							"type": "address"
						},
						{
							"indexed": false,
							"internalType": "bool",
							"name": "isSellAd",
							"type": "bool"
						},
						{
							"indexed": true,
							"internalType": "address",
							"name": "token",
							"type": "address"
						},
						{
							"indexed": false,
							"internalType": "uint256",
							"name": "amount",
							"type": "uint256"
						},
						{
							"indexed": false,
							"internalType": "uint256",
							"name": "adBond",
							"type": "uint256"
						}
					],
					"name": "AdCreated",
					"type": "event"
				},
				{
					"anonymous": false,
					"inputs": [
						{
							"indexed": true,
							"internalType": "uint256",
							"name": "adId",
							"type": "uint256"
						},
						{
							"indexed": false,
							"internalType": "uint256",
							"name": "newAmount",
							"type": "uint256"
						}
					],
					"name": "AdEdited",
					"type": "event"
				},
				{
					"anonymous": false,
					"inputs": [
						{
							"indexed": true,
							"internalType": "address",
							"name": "account",
							"type": "address"
						},
						{
							"indexed": false,
							"internalType": "bool",
							"name": "enabled",
							"type": "bool"
						}
					],
					"name": "AdminSet",
					"type": "event"
				},
				{
					"anonymous": false,
					"inputs": [
						{
							"indexed": true,
							"internalType": "address",
							"name": "account",
							"type": "address"
						},
						{
							"indexed": false,
							"internalType": "bool",
							"name": "enabled",
							"type": "bool"
						}
					],
					"name": "ArbitratorSet",
					"type": "event"
				},
				{
					"anonymous": false,
					"inputs": [
						{
							"indexed": true,
							"internalType": "address",
							"name": "user",
							"type": "address"
						},
						{
							"indexed": true,
							"internalType": "address",
							"name": "token",
							"type": "address"
						},
						{
							"indexed": false,
							"internalType": "uint256",
							"name": "amount",
							"type": "uint256"
						},
						{
							"indexed": false,
							"internalType": "bytes32",
							"name": "ref",
							"type": "bytes32"
						}
					],
					"name": "CreditAdded",
					"type": "event"
				},
				{
					"anonymous": false,
					"inputs": [
						{
							"indexed": true,
							"internalType": "address",
							"name": "user",
							"type": "address"
						},
						{
							"indexed": true,
							"internalType": "address",
							"name": "token",
							"type": "address"
						},
						{
							"indexed": false,
							"internalType": "uint256",
							"name": "amount",
							"type": "uint256"
						}
					],
					"name": "CreditWithdrawn",
					"type": "event"
				},
				{
					"anonymous": false,
					"inputs": [
						{
							"indexed": true,
							"internalType": "uint256",
							"name": "escrowId",
							"type": "uint256"
						},
						{
							"indexed": true,
							"internalType": "address",
							"name": "opener",
							"type": "address"
						}
					],
					"name": "DisputeOpened",
					"type": "event"
				},
				{
					"anonymous": false,
					"inputs": [
						{
							"indexed": true,
							"internalType": "uint256",
							"name": "escrowId",
							"type": "uint256"
						},
						{
							"indexed": false,
							"internalType": "enum TrustfyEscrowV4_2_Amended.DisputeOutcome",
							"name": "outcome",
							"type": "uint8"
						}
					],
					"name": "DisputeResolved",
					"type": "event"
				},
				{
					"anonymous": false,
					"inputs": [
						{
							"indexed": true,
							"internalType": "uint256",
							"name": "escrowId",
							"type": "uint256"
						},
						{
							"indexed": false,
							"internalType": "string",
							"name": "reason",
							"type": "string"
						}
					],
					"name": "EscrowCancelled",
					"type": "event"
				},
				{
					"anonymous": false,
					"inputs": [
						{
							"indexed": true,
							"internalType": "uint256",
							"name": "escrowId",
							"type": "uint256"
						},
						{
							"indexed": false,
							"internalType": "uint256",
							"name": "amount",
							"type": "uint256"
						},
						{
							"indexed": false,
							"internalType": "uint256",
							"name": "feeAmount",
							"type": "uint256"
						},
						{
							"indexed": false,
							"internalType": "uint256",
							"name": "sellerDisputeBond",
							"type": "uint256"
						}
					],
					"name": "EscrowFunded",
					"type": "event"
				},
				{
					"anonymous": false,
					"inputs": [
						{
							"indexed": true,
							"internalType": "uint256",
							"name": "escrowId",
							"type": "uint256"
						}
					],
					"name": "EscrowReleased",
					"type": "event"
				},
				{
					"anonymous": false,
					"inputs": [
						{
							"indexed": true,
							"internalType": "uint256",
							"name": "escrowId",
							"type": "uint256"
						},
						{
							"indexed": true,
							"internalType": "uint256",
							"name": "adId",
							"type": "uint256"
						},
						{
							"indexed": true,
							"internalType": "address",
							"name": "buyer",
							"type": "address"
						},
						{
							"indexed": false,
							"internalType": "address",
							"name": "seller",
							"type": "address"
						},
						{
							"indexed": false,
							"internalType": "uint256",
							"name": "buyerDisputeBond",
							"type": "uint256"
						}
					],
					"name": "EscrowTaken",
					"type": "event"
				},
				{
					"anonymous": false,
					"inputs": [
						{
							"indexed": true,
							"internalType": "address",
							"name": "oldOwner",
							"type": "address"
						},
						{
							"indexed": true,
							"internalType": "address",
							"name": "newOwner",
							"type": "address"
						}
					],
					"name": "OwnershipTransferred",
					"type": "event"
				},
				{
					"anonymous": false,
					"inputs": [
						{
							"indexed": true,
							"internalType": "uint256",
							"name": "escrowId",
							"type": "uint256"
						},
						{
							"indexed": true,
							"internalType": "address",
							"name": "buyer",
							"type": "address"
						}
					],
					"name": "PaymentConfirmed",
					"type": "event"
				},
				{
					"anonymous": false,
					"inputs": [
						{
							"indexed": true,
							"internalType": "address",
							"name": "token",
							"type": "address"
						},
						{
							"indexed": false,
							"internalType": "bool",
							"name": "enabled",
							"type": "bool"
						},
						{
							"indexed": false,
							"internalType": "uint16",
							"name": "makerFeeBps",
							"type": "uint16"
						},
						{
							"indexed": false,
							"internalType": "uint16",
							"name": "takerFeeBps",
							"type": "uint16"
						},
						{
							"indexed": false,
							"internalType": "uint16",
							"name": "disputeBondBps",
							"type": "uint16"
						},
						{
							"indexed": false,
							"internalType": "uint256",
							"name": "adBondFixed",
							"type": "uint256"
						},
						{
							"indexed": false,
							"internalType": "uint16",
							"name": "adBondBps",
							"type": "uint16"
						},
						{
							"indexed": false,
							"internalType": "uint32",
							"name": "sellerFundWindow",
							"type": "uint32"
						},
						{
							"indexed": false,
							"internalType": "uint32",
							"name": "buyerConfirmWindow",
							"type": "uint32"
						},
						{
							"indexed": false,
							"internalType": "uint32",
							"name": "sellerReleaseWindow",
							"type": "uint32"
						}
					],
					"name": "TokenConfigSet",
					"type": "event"
				},
				{
					"anonymous": false,
					"inputs": [
						{
							"indexed": true,
							"internalType": "address",
							"name": "treasury",
							"type": "address"
						}
					],
					"name": "TreasurySet",
					"type": "event"
				},
				{
					"inputs": [
						{
							"internalType": "address",
							"name": "user",
							"type": "address"
						},
						{
							"internalType": "address",
							"name": "token",
							"type": "address"
						},
						{
							"internalType": "uint256",
							"name": "amount",
							"type": "uint256"
						},
						{
							"internalType": "bytes32",
							"name": "ref",
							"type": "bytes32"
						}
					],
					"name": "adminAddCredit",
					"outputs": [],
					"stateMutability": "nonpayable",
					"type": "function"
				},
				{
					"inputs": [
						{
							"internalType": "uint256",
							"name": "",
							"type": "uint256"
						}
					],
					"name": "ads",
					"outputs": [
						{
							"internalType": "address",
							"name": "maker",
							"type": "address"
						},
						{
							"internalType": "bool",
							"name": "isSellAd",
							"type": "bool"
						},
						{
							"internalType": "address",
							"name": "token",
							"type": "address"
						},
						{
							"internalType": "uint256",
							"name": "amount",
							"type": "uint256"
						},
						{
							"internalType": "uint256",
							"name": "adBond",
							"type": "uint256"
						},
						{
							"internalType": "enum TrustfyEscrowV4_2_Amended.AdState",
							"name": "state",
							"type": "uint8"
						},
						{
							"internalType": "uint256",
							"name": "activeEscrowId",
							"type": "uint256"
						}
					],
					"stateMutability": "view",
					"type": "function"
				},
				{
					"inputs": [
						{
							"internalType": "uint256",
							"name": "escrowId",
							"type": "uint256"
						}
					],
					"name": "buyerMayDispute",
					"outputs": [
						{
							"internalType": "bool",
							"name": "",
							"type": "bool"
						}
					],
					"stateMutability": "view",
					"type": "function"
				},
				{
					"inputs": [
						{
							"internalType": "uint256",
							"name": "adId",
							"type": "uint256"
						}
					],
					"name": "cancelAd",
					"outputs": [],
					"stateMutability": "nonpayable",
					"type": "function"
				},
				{
					"inputs": [
						{
							"internalType": "uint256",
							"name": "escrowId",
							"type": "uint256"
						}
					],
					"name": "confirmPayment",
					"outputs": [],
					"stateMutability": "nonpayable",
					"type": "function"
				},
				{
					"inputs": [
						{
							"internalType": "bool",
							"name": "isSellAd",
							"type": "bool"
						},
						{
							"internalType": "address",
							"name": "token",
							"type": "address"
						},
						{
							"internalType": "uint256",
							"name": "amount",
							"type": "uint256"
						}
					],
					"name": "createAd",
					"outputs": [
						{
							"internalType": "uint256",
							"name": "adId",
							"type": "uint256"
						}
					],
					"stateMutability": "nonpayable",
					"type": "function"
				},
				{
					"inputs": [
						{
							"internalType": "address",
							"name": "",
							"type": "address"
						},
						{
							"internalType": "address",
							"name": "",
							"type": "address"
						}
					],
					"name": "creditBalance",
					"outputs": [
						{
							"internalType": "uint256",
							"name": "",
							"type": "uint256"
						}
					],
					"stateMutability": "view",
					"type": "function"
				},
				{
					"inputs": [
						{
							"internalType": "uint256",
							"name": "adId",
							"type": "uint256"
						},
						{
							"internalType": "uint256",
							"name": "newAmount",
							"type": "uint256"
						}
					],
					"name": "editAd",
					"outputs": [],
					"stateMutability": "nonpayable",
					"type": "function"
				},
				{
					"inputs": [
						{
							"internalType": "uint256",
							"name": "",
							"type": "uint256"
						}
					],
					"name": "escrows",
					"outputs": [
						{
							"internalType": "uint256",
							"name": "adId",
							"type": "uint256"
						},
						{
							"internalType": "address",
							"name": "buyer",
							"type": "address"
						},
						{
							"internalType": "address",
							"name": "seller",
							"type": "address"
						},
						{
							"internalType": "address",
							"name": "token",
							"type": "address"
						},
						{
							"internalType": "uint256",
							"name": "amount",
							"type": "uint256"
						},
						{
							"internalType": "uint256",
							"name": "feeAmount",
							"type": "uint256"
						},
						{
							"internalType": "uint256",
							"name": "buyerDisputeBond",
							"type": "uint256"
						},
						{
							"internalType": "uint256",
							"name": "sellerDisputeBond",
							"type": "uint256"
						},
						{
							"internalType": "enum TrustfyEscrowV4_2_Amended.EscrowStatus",
							"name": "status",
							"type": "uint8"
						},
						{
							"internalType": "uint256",
							"name": "takenAt",
							"type": "uint256"
						},
						{
							"internalType": "uint256",
							"name": "fundedAt",
							"type": "uint256"
						},
						{
							"internalType": "uint256",
							"name": "paymentConfirmedAt",
							"type": "uint256"
						},
						{
							"internalType": "bool",
							"name": "disputeOpened",
							"type": "bool"
						},
						{
							"internalType": "bool",
							"name": "disputeResolved",
							"type": "bool"
						}
					],
					"stateMutability": "view",
					"type": "function"
				},
				{
					"inputs": [
						{
							"internalType": "uint256",
							"name": "escrowId",
							"type": "uint256"
						}
					],
					"name": "expireBuyerConfirmation",
					"outputs": [],
					"stateMutability": "nonpayable",
					"type": "function"
				},
				{
					"inputs": [
						{
							"internalType": "uint256",
							"name": "escrowId",
							"type": "uint256"
						}
					],
					"name": "expireSellerFunding",
					"outputs": [],
					"stateMutability": "nonpayable",
					"type": "function"
				},
				{
					"inputs": [
						{
							"internalType": "uint256",
							"name": "escrowId",
							"type": "uint256"
						}
					],
					"name": "fundEscrow",
					"outputs": [],
					"stateMutability": "nonpayable",
					"type": "function"
				},
				{
					"inputs": [
						{
							"internalType": "address",
							"name": "",
							"type": "address"
						}
					],
					"name": "isAdmin",
					"outputs": [
						{
							"internalType": "bool",
							"name": "",
							"type": "bool"
						}
					],
					"stateMutability": "view",
					"type": "function"
				},
				{
					"inputs": [
						{
							"internalType": "address",
							"name": "",
							"type": "address"
						}
					],
					"name": "isArbitrator",
					"outputs": [
						{
							"internalType": "bool",
							"name": "",
							"type": "bool"
						}
					],
					"stateMutability": "view",
					"type": "function"
				},
				{
					"inputs": [],
					"name": "nextAdId",
					"outputs": [
						{
							"internalType": "uint256",
							"name": "",
							"type": "uint256"
						}
					],
					"stateMutability": "view",
					"type": "function"
				},
				{
					"inputs": [],
					"name": "nextEscrowId",
					"outputs": [
						{
							"internalType": "uint256",
							"name": "",
							"type": "uint256"
						}
					],
					"stateMutability": "view",
					"type": "function"
				},
				{
					"inputs": [
						{
							"internalType": "uint256",
							"name": "escrowId",
							"type": "uint256"
						}
					],
					"name": "openDispute",
					"outputs": [],
					"stateMutability": "nonpayable",
					"type": "function"
				},
				{
					"inputs": [],
					"name": "owner",
					"outputs": [
						{
							"internalType": "address",
							"name": "",
							"type": "address"
						}
					],
					"stateMutability": "view",
					"type": "function"
				},
				{
					"inputs": [
						{
							"internalType": "uint256",
							"name": "escrowId",
							"type": "uint256"
						}
					],
					"name": "releaseEscrow",
					"outputs": [],
					"stateMutability": "nonpayable",
					"type": "function"
				},
				{
					"inputs": [
						{
							"internalType": "uint256",
							"name": "escrowId",
							"type": "uint256"
						},
						{
							"internalType": "enum TrustfyEscrowV4_2_Amended.DisputeOutcome",
							"name": "outcome",
							"type": "uint8"
						}
					],
					"name": "resolveDispute",
					"outputs": [],
					"stateMutability": "nonpayable",
					"type": "function"
				},
				{
					"inputs": [
						{
							"internalType": "address",
							"name": "account",
							"type": "address"
						},
						{
							"internalType": "bool",
							"name": "enabled",
							"type": "bool"
						}
					],
					"name": "setAdmin",
					"outputs": [],
					"stateMutability": "nonpayable",
					"type": "function"
				},
				{
					"inputs": [
						{
							"internalType": "address",
							"name": "account",
							"type": "address"
						},
						{
							"internalType": "bool",
							"name": "enabled",
							"type": "bool"
						}
					],
					"name": "setArbitrator",
					"outputs": [],
					"stateMutability": "nonpayable",
					"type": "function"
				},
				{
					"inputs": [
						{
							"internalType": "address",
							"name": "token",
							"type": "address"
						},
						{
							"components": [
								{
									"internalType": "bool",
									"name": "enabled",
									"type": "bool"
								},
								{
									"internalType": "uint16",
									"name": "makerFeeBps",
									"type": "uint16"
								},
								{
									"internalType": "uint16",
									"name": "takerFeeBps",
									"type": "uint16"
								},
								{
									"internalType": "uint16",
									"name": "disputeBondBps",
									"type": "uint16"
								},
								{
									"internalType": "uint256",
									"name": "adBondFixed",
									"type": "uint256"
								},
								{
									"internalType": "uint16",
									"name": "adBondBps",
									"type": "uint16"
								},
								{
									"internalType": "uint32",
									"name": "sellerFundWindow",
									"type": "uint32"
								},
								{
									"internalType": "uint32",
									"name": "buyerConfirmWindow",
									"type": "uint32"
								},
								{
									"internalType": "uint32",
									"name": "sellerReleaseWindow",
									"type": "uint32"
								}
							],
							"internalType": "struct TrustfyEscrowV4_2_Amended.TokenConfig",
							"name": "cfg",
							"type": "tuple"
						}
					],
					"name": "setTokenConfig",
					"outputs": [],
					"stateMutability": "nonpayable",
					"type": "function"
				},
				{
					"inputs": [
						{
							"internalType": "address",
							"name": "treasury_",
							"type": "address"
						}
					],
					"name": "setTreasury",
					"outputs": [],
					"stateMutability": "nonpayable",
					"type": "function"
				},
				{
					"inputs": [
						{
							"internalType": "uint256",
							"name": "adId",
							"type": "uint256"
						}
					],
					"name": "takeAd",
					"outputs": [
						{
							"internalType": "uint256",
							"name": "escrowId",
							"type": "uint256"
						}
					],
					"stateMutability": "nonpayable",
					"type": "function"
				},
				{
					"inputs": [
						{
							"internalType": "address",
							"name": "",
							"type": "address"
						}
					],
					"name": "tokenConfig",
					"outputs": [
						{
							"internalType": "bool",
							"name": "enabled",
							"type": "bool"
						},
						{
							"internalType": "uint16",
							"name": "makerFeeBps",
							"type": "uint16"
						},
						{
							"internalType": "uint16",
							"name": "takerFeeBps",
							"type": "uint16"
						},
						{
							"internalType": "uint16",
							"name": "disputeBondBps",
							"type": "uint16"
						},
						{
							"internalType": "uint256",
							"name": "adBondFixed",
							"type": "uint256"
						},
						{
							"internalType": "uint16",
							"name": "adBondBps",
							"type": "uint16"
						},
						{
							"internalType": "uint32",
							"name": "sellerFundWindow",
							"type": "uint32"
						},
						{
							"internalType": "uint32",
							"name": "buyerConfirmWindow",
							"type": "uint32"
						},
						{
							"internalType": "uint32",
							"name": "sellerReleaseWindow",
							"type": "uint32"
						}
					],
					"stateMutability": "view",
					"type": "function"
				},
				{
					"inputs": [
						{
							"internalType": "address",
							"name": "newOwner",
							"type": "address"
						}
					],
					"name": "transferOwnership",
					"outputs": [],
					"stateMutability": "nonpayable",
					"type": "function"
				},
				{
					"inputs": [],
					"name": "treasury",
					"outputs": [
						{
							"internalType": "address",
							"name": "",
							"type": "address"
						}
					],
					"stateMutability": "view",
					"type": "function"
				},
				{
					"inputs": [
						{
							"internalType": "address",
							"name": "token",
							"type": "address"
						},
						{
							"internalType": "uint256",
							"name": "amount",
							"type": "uint256"
						}
					],
					"name": "withdrawCredit",
					"outputs": [],
					"stateMutability": "nonpayable",
					"type": "function"
				}
			],
			"devdoc": {
				"kind": "dev",
				"methods": {},
				"version": 1
			},
			"evm": {
				"assembly": "    /* \"TRUSTFY v4.3 \\xe2\\x80\\x94 Contract.sol\":2286:26717  contract TrustfyEscrowV4_2_Amended {... */\n  mstore(0x40, 0x80)\n    /* \"TRUSTFY v4.3 \\xe2\\x80\\x94 Contract.sol\":5134:5135  1 */\n  0x01\n    /* \"TRUSTFY v4.3 \\xe2\\x80\\x94 Contract.sol\":5108:5135  uint256 public nextAdId = 1 */\n  0x06\n  sstore\n    /* \"TRUSTFY v4.3 \\xe2\\x80\\x94 Contract.sol\":5171:5172  1 */\n  0x01\n    /* \"TRUSTFY v4.3 \\xe2\\x80\\x94 Contract.sol\":5141:5172  uint256 public nextEscrowId = 1 */\n  0x07\n  sstore\n    /* \"TRUSTFY v4.3 \\xe2\\x80\\x94 Contract.sol\":8394:8586  constructor(address treasury_) {... */\n  callvalue\n  dup1\n  iszero\n  tag_1\n  jumpi\n  0x00\n  dup1\n  revert\ntag_1:\n  pop\n  mload(0x40)\n  sub(codesize, bytecodeSize)\n  dup1\n  bytecodeSize\n  dup4\n  codecopy\n  dup2\n  add\n  0x40\n  dup2\n  swap1\n  mstore\n  tag_2\n  swap2\n  tag_3\n  jump\t// in\ntag_2:\n  sub(shl(0xa0, 0x01), 0x01)\n    /* \"TRUSTFY v4.3 \\xe2\\x80\\x94 Contract.sol\":8443:8466  treasury_ != address(0) */\n  dup2\n  and\n    /* \"TRUSTFY v4.3 \\xe2\\x80\\x94 Contract.sol\":8435:8484  require(treasury_ != address(0), \"ZERO_TREASURY\") */\n  tag_6\n  jumpi\n  mload(0x40)\n  shl(0xe5, 0x461bcd)\n  dup2\n  mstore\n    /* \"#utility.yul\":511:513   */\n  0x20\n    /* \"TRUSTFY v4.3 \\xe2\\x80\\x94 Contract.sol\":8435:8484  require(treasury_ != address(0), \"ZERO_TREASURY\") */\n  0x04\n  dup3\n  add\n    /* \"#utility.yul\":493:514   */\n  mstore\n    /* \"#utility.yul\":550:552   */\n  0x0d\n    /* \"#utility.yul\":530:548   */\n  0x24\n  dup3\n  add\n    /* \"#utility.yul\":523:553   */\n  mstore\n  shl(0x98, 0x5a45524f5f5452454153555259)\n    /* \"#utility.yul\":569:587   */\n  0x44\n  dup3\n  add\n    /* \"#utility.yul\":562:605   */\n  mstore\n    /* \"#utility.yul\":622:640   */\n  0x64\n  add\n    /* \"TRUSTFY v4.3 \\xe2\\x80\\x94 Contract.sol\":8435:8484  require(treasury_ != address(0), \"ZERO_TREASURY\") */\n  mload(0x40)\n  dup1\n  swap2\n  sub\n  swap1\n  revert\ntag_6:\n    /* \"TRUSTFY v4.3 \\xe2\\x80\\x94 Contract.sol\":8494:8499  owner */\n  0x00\n    /* \"TRUSTFY v4.3 \\xe2\\x80\\x94 Contract.sol\":8494:8512  owner = msg.sender */\n  dup1\n  sload\n  not(sub(shl(0xa0, 0x01), 0x01))\n  swap1\n  dup2\n  and\n    /* \"TRUSTFY v4.3 \\xe2\\x80\\x94 Contract.sol\":8502:8512  msg.sender */\n  caller\n    /* \"TRUSTFY v4.3 \\xe2\\x80\\x94 Contract.sol\":8494:8512  owner = msg.sender */\n  or\n  dup3\n  sstore\n    /* \"TRUSTFY v4.3 \\xe2\\x80\\x94 Contract.sol\":8522:8530  treasury */\n  0x03\n    /* \"TRUSTFY v4.3 \\xe2\\x80\\x94 Contract.sol\":8522:8542  treasury = treasury_ */\n  dup1\n  sload\n  sub(shl(0xa0, 0x01), 0x01)\n  dup6\n  and\n  swap3\n  and\n  dup3\n  or\n  swap1\n  sstore\n    /* \"TRUSTFY v4.3 \\xe2\\x80\\x94 Contract.sol\":8557:8579  TreasurySet(treasury_) */\n  mload(0x40)\n    /* \"TRUSTFY v4.3 \\xe2\\x80\\x94 Contract.sol\":8522:8542  treasury = treasury_ */\n  swap1\n  swap2\n    /* \"TRUSTFY v4.3 \\xe2\\x80\\x94 Contract.sol\":8557:8579  TreasurySet(treasury_) */\n  0x3c864541ef71378c6229510ed90f376565ee42d9c5e0904a984a9e863e6db44f\n  swap2\n  log2\n    /* \"TRUSTFY v4.3 \\xe2\\x80\\x94 Contract.sol\":8394:8586  constructor(address treasury_) {... */\n  pop\n    /* \"TRUSTFY v4.3 \\xe2\\x80\\x94 Contract.sol\":2286:26717  contract TrustfyEscrowV4_2_Amended {... */\n  jump(tag_10)\n    /* \"#utility.yul\":14:304   */\ntag_3:\n    /* \"#utility.yul\":84:90   */\n  0x00\n    /* \"#utility.yul\":137:139   */\n  0x20\n    /* \"#utility.yul\":125:134   */\n  dup3\n    /* \"#utility.yul\":116:123   */\n  dup5\n    /* \"#utility.yul\":112:135   */\n  sub\n    /* \"#utility.yul\":108:140   */\n  slt\n    /* \"#utility.yul\":105:157   */\n  iszero\n  tag_12\n  jumpi\n    /* \"#utility.yul\":153:154   */\n  0x00\n    /* \"#utility.yul\":150:151   */\n  dup1\n    /* \"#utility.yul\":143:155   */\n  revert\n    /* \"#utility.yul\":105:157   */\ntag_12:\n    /* \"#utility.yul\":179:195   */\n  dup2\n  mload\n  sub(shl(0xa0, 0x01), 0x01)\n    /* \"#utility.yul\":224:255   */\n  dup2\n  and\n    /* \"#utility.yul\":214:256   */\n  dup2\n  eq\n    /* \"#utility.yul\":204:274   */\n  tag_13\n  jumpi\n    /* \"#utility.yul\":270:271   */\n  0x00\n    /* \"#utility.yul\":267:268   */\n  dup1\n    /* \"#utility.yul\":260:272   */\n  revert\n    /* \"#utility.yul\":204:274   */\ntag_13:\n    /* \"#utility.yul\":293:298   */\n  swap4\n    /* \"#utility.yul\":14:304   */\n  swap3\n  pop\n  pop\n  pop\n  jump\t// out\n    /* \"#utility.yul\":309:646   */\ntag_10:\n    /* \"TRUSTFY v4.3 \\xe2\\x80\\x94 Contract.sol\":2286:26717  contract TrustfyEscrowV4_2_Amended {... */\n  dataSize(sub_0)\n  dup1\n  dataOffset(sub_0)\n  0x00\n  codecopy\n  0x00\n  return\nstop\n\nsub_0: assembly {\n        /* \"TRUSTFY v4.3 \\xe2\\x80\\x94 Contract.sol\":2286:26717  contract TrustfyEscrowV4_2_Amended {... */\n      mstore(0x40, 0x80)\n      callvalue\n      dup1\n      iszero\n      tag_1\n      jumpi\n      0x00\n      dup1\n      revert\n    tag_1:\n      pop\n      jumpi(tag_2, lt(calldatasize, 0x04))\n      shr(0xe0, calldataload(0x00))\n      dup1\n      0x876ca09f\n      gt\n      tag_32\n      jumpi\n      dup1\n      0xc9c31af5\n      gt\n      tag_33\n      jumpi\n      dup1\n      0xf2fde38b\n      gt\n      tag_34\n      jumpi\n      dup1\n      0xf2fde38b\n      eq\n      tag_28\n      jumpi\n      dup1\n      0xf4f8b266\n      eq\n      tag_29\n      jumpi\n      dup1\n      0xfb90fb4a\n      eq\n      tag_30\n      jumpi\n      dup1\n      0xfe136c4e\n      eq\n      tag_31\n      jumpi\n      0x00\n      dup1\n      revert\n    tag_34:\n      dup1\n      0xc9c31af5\n      eq\n      tag_24\n      jumpi\n      dup1\n      0xe55e4211\n      eq\n      tag_25\n      jumpi\n      dup1\n      0xed653164\n      eq\n      tag_26\n      jumpi\n      dup1\n      0xf0f44260\n      eq\n      tag_27\n      jumpi\n      0x00\n      dup1\n      revert\n    tag_33:\n      dup1\n      0x9f6bd2a9\n      gt\n      tag_35\n      jumpi\n      dup1\n      0x9f6bd2a9\n      eq\n      tag_20\n      jumpi\n      dup1\n      0xaf4d7c6f\n      eq\n      tag_21\n      jumpi\n      dup1\n      0xc15e23e1\n      eq\n      tag_22\n      jumpi\n      dup1\n      0xc3a7a61a\n      eq\n      tag_23\n      jumpi\n      0x00\n      dup1\n      revert\n    tag_35:\n      dup1\n      0x876ca09f\n      eq\n      tag_17\n      jumpi\n      dup1\n      0x89cb29dd\n      eq\n      tag_18\n      jumpi\n      dup1\n      0x8da5cb5b\n      eq\n      tag_19\n      jumpi\n      0x00\n      dup1\n      revert\n    tag_32:\n      dup1\n      0x354c5e01\n      gt\n      tag_36\n      jumpi\n      dup1\n      0x4c3fc8ad\n      gt\n      tag_37\n      jumpi\n      dup1\n      0x4c3fc8ad\n      eq\n      tag_13\n      jumpi\n      dup1\n      0x4d4d4265\n      eq\n      tag_14\n      jumpi\n      dup1\n      0x502b7469\n      eq\n      tag_15\n      jumpi\n      dup1\n      0x61d027b3\n      eq\n      tag_16\n      jumpi\n      0x00\n      dup1\n      revert\n    tag_37:\n      dup1\n      0x354c5e01\n      eq\n      tag_10\n      jumpi\n      dup1\n      0x3f11710b\n      eq\n      tag_11\n      jumpi\n      dup1\n      0x4b0bddd2\n      eq\n      tag_12\n      jumpi\n      0x00\n      dup1\n      revert\n    tag_36:\n      dup1\n      0x24d7806c\n      gt\n      tag_38\n      jumpi\n      dup1\n      0x24d7806c\n      eq\n      tag_6\n      jumpi\n      dup1\n      0x27d00fb0\n      eq\n      tag_7\n      jumpi\n      dup1\n      0x2bc0b076\n      eq\n      tag_8\n      jumpi\n      dup1\n      0x3219abe4\n      eq\n      tag_9\n      jumpi\n      0x00\n      dup1\n      revert\n    tag_38:\n      dup1\n      0x012f52ee\n      eq\n      tag_3\n      jumpi\n      dup1\n      0x11a7a4c0\n      eq\n      tag_4\n      jumpi\n      dup1\n      0x1a8bb68d\n      eq\n      tag_5\n      jumpi\n    tag_2:\n      0x00\n      dup1\n      revert\n        /* \"TRUSTFY v4.3 \\xe2\\x80\\x94 Contract.sol\":5218:5259  mapping(uint256 => Escrow) public escrows */\n    tag_3:\n      tag_39\n      tag_40\n      calldatasize\n      0x04\n      tag_41\n      jump\t// in\n    tag_40:\n      0x09\n      0x20\n      dup2\n      swap1\n      mstore\n      0x00\n      swap2\n      dup3\n      mstore\n      0x40\n      swap1\n      swap2\n      keccak256\n      dup1\n      sload\n      0x01\n      dup3\n      add\n      sload\n      0x02\n      dup4\n      add\n      sload\n      0x03\n      dup5\n      add\n      sload\n      0x04\n      dup6\n      add\n      sload\n      0x05\n      dup7\n      add\n      sload\n      0x06\n      dup8\n      add\n      sload\n      0x07\n      dup9\n      add\n      sload\n      0x08\n      dup10\n      add\n      sload\n      swap10\n      dup10\n      add\n      sload\n      0x0a\n      dup11\n      add\n      sload\n      0x0b\n      dup12\n      add\n      sload\n      0x0c\n      swap1\n      swap12\n      add\n      sload\n      swap10\n      swap12\n      sub(shl(0xa0, 0x01), 0x01)\n      swap10\n      dup11\n      and\n      swap12\n      swap9\n      dup11\n      and\n      swap11\n      swap8\n      swap1\n      swap10\n      and\n      swap9\n      swap6\n      swap8\n      swap5\n      swap7\n      swap4\n      swap6\n      swap3\n      swap5\n      0xff\n      swap4\n      dup5\n      and\n      swap5\n      swap3\n      swap4\n      swap2\n      swap3\n      swap1\n      swap2\n      dup2\n      dup2\n      and\n      swap2\n      0x0100\n      swap1\n      div\n      and\n      dup15\n      jump\n    tag_39:\n      mload(0x40)\n      tag_43\n      swap15\n      swap14\n      swap13\n      swap12\n      swap11\n      swap10\n      swap9\n      swap8\n      swap7\n      swap6\n      swap5\n      swap4\n      swap3\n      swap2\n      swap1\n      tag_44\n      jump\t// in\n    tag_43:\n      mload(0x40)\n      dup1\n      swap2\n      sub\n      swap1\n      return\n        /* \"TRUSTFY v4.3 \\xe2\\x80\\x94 Contract.sol\":5179:5212  mapping(uint256 => Ad) public ads */\n    tag_4:\n      tag_45\n      tag_46\n      calldatasize\n      0x04\n      tag_41\n      jump\t// in\n    tag_46:\n      mstore(0x20, 0x08)\n      0x00\n      swap1\n      dup2\n      mstore\n      0x40\n      swap1\n      keccak256\n      dup1\n      sload\n      0x01\n      dup3\n      add\n      sload\n      0x02\n      dup4\n      add\n      sload\n      0x03\n      dup5\n      add\n      sload\n      0x04\n      dup6\n      add\n      sload\n      0x05\n      swap1\n      swap6\n      add\n      sload\n      sub(shl(0xa0, 0x01), 0x01)\n      dup1\n      dup7\n      and\n      swap7\n      0xff\n      shl(0xa0, 0x01)\n      swap1\n      swap8\n      div\n      dup8\n      and\n      swap7\n      swap6\n      swap1\n      swap2\n      and\n      swap5\n      and\n      swap1\n      dup8\n      jump\n    tag_45:\n      mload(0x40)\n      tag_43\n      swap8\n      swap7\n      swap6\n      swap5\n      swap4\n      swap3\n      swap2\n      swap1\n      tag_49\n      jump\t// in\n        /* \"TRUSTFY v4.3 \\xe2\\x80\\x94 Contract.sol\":5108:5135  uint256 public nextAdId = 1 */\n    tag_5:\n      tag_50\n      sload(0x06)\n      dup2\n      jump\n    tag_50:\n      mload(0x40)\n        /* \"#utility.yul\":2708:2733   */\n      swap1\n      dup2\n      mstore\n        /* \"#utility.yul\":2696:2698   */\n      0x20\n        /* \"#utility.yul\":2681:2699   */\n      add\n        /* \"TRUSTFY v4.3 \\xe2\\x80\\x94 Contract.sol\":5108:5135  uint256 public nextAdId = 1 */\n      tag_43\n        /* \"#utility.yul\":2562:2739   */\n      jump\n        /* \"TRUSTFY v4.3 \\xe2\\x80\\x94 Contract.sol\":2465:2504  mapping(address => bool) public isAdmin */\n    tag_6:\n      tag_54\n      tag_55\n      calldatasize\n      0x04\n      tag_56\n      jump\t// in\n    tag_55:\n      mstore(0x20, 0x01)\n      0x00\n      swap1\n      dup2\n      mstore\n      0x40\n      swap1\n      keccak256\n      sload\n      0xff\n      and\n      dup2\n      jump\n    tag_54:\n      mload(0x40)\n        /* \"#utility.yul\":3278:3292   */\n      swap1\n      iszero\n        /* \"#utility.yul\":3271:3293   */\n      iszero\n        /* \"#utility.yul\":3253:3294   */\n      dup2\n      mstore\n        /* \"#utility.yul\":3241:3243   */\n      0x20\n        /* \"#utility.yul\":3226:3244   */\n      add\n        /* \"TRUSTFY v4.3 \\xe2\\x80\\x94 Contract.sol\":2465:2504  mapping(address => bool) public isAdmin */\n      tag_43\n        /* \"#utility.yul\":3113:3300   */\n      jump\n        /* \"TRUSTFY v4.3 \\xe2\\x80\\x94 Contract.sol\":20018:20511  function openDispute(uint256 escrowId) external {... */\n    tag_7:\n      tag_60\n      tag_61\n      calldatasize\n      0x04\n      tag_41\n      jump\t// in\n    tag_61:\n      tag_62\n      jump\t// in\n    tag_60:\n      stop\n        /* \"TRUSTFY v4.3 \\xe2\\x80\\x94 Contract.sol\":9048:9222  function setArbitrator(address account, bool enabled) external onlyAdminOrOwner {... */\n    tag_8:\n      tag_60\n      tag_64\n      calldatasize\n      0x04\n      tag_65\n      jump\t// in\n    tag_64:\n      tag_66\n      jump\t// in\n        /* \"TRUSTFY v4.3 \\xe2\\x80\\x94 Contract.sol\":3893:3961  mapping(address => mapping(address => uint256)) public creditBalance */\n    tag_9:\n      tag_50\n      tag_68\n      calldatasize\n      0x04\n      tag_69\n      jump\t// in\n    tag_68:\n      0x05\n      0x20\n      swap1\n      dup2\n      mstore\n      0x00\n      swap3\n      dup4\n      mstore\n      0x40\n      dup1\n      dup5\n      keccak256\n      swap1\n      swap2\n      mstore\n      swap1\n      dup3\n      mstore\n      swap1\n      keccak256\n      sload\n      dup2\n      jump\n        /* \"TRUSTFY v4.3 \\xe2\\x80\\x94 Contract.sol\":24903:26142  function expireBuyerConfirmation(uint256 escrowId) external {... */\n    tag_10:\n      tag_60\n      tag_73\n      calldatasize\n      0x04\n      tag_41\n      jump\t// in\n    tag_73:\n      tag_74\n      jump\t// in\n        /* \"TRUSTFY v4.3 \\xe2\\x80\\x94 Contract.sol\":14089:14643  function cancelAd(uint256 adId) external {... */\n    tag_11:\n      tag_60\n      tag_76\n      calldatasize\n      0x04\n      tag_41\n      jump\t// in\n    tag_76:\n      tag_77\n      jump\t// in\n        /* \"TRUSTFY v4.3 \\xe2\\x80\\x94 Contract.sol\":8890:9042  function setAdmin(address account, bool enabled) external onlyOwner {... */\n    tag_12:\n      tag_60\n      tag_79\n      calldatasize\n      0x04\n      tag_65\n      jump\t// in\n    tag_79:\n      tag_80\n      jump\t// in\n        /* \"TRUSTFY v4.3 \\xe2\\x80\\x94 Contract.sol\":9426:10120  function setTokenConfig(address token, TokenConfig calldata cfg) external onlyAdminOrOwner {... */\n    tag_13:\n      tag_60\n      tag_82\n      calldatasize\n      0x04\n      tag_83\n      jump\t// in\n    tag_82:\n      tag_84\n      jump\t// in\n        /* \"TRUSTFY v4.3 \\xe2\\x80\\x94 Contract.sol\":12883:13629  function createAd(bool isSellAd, address token, uint256 amount) external returns (uint256 adId) {... */\n    tag_14:\n      tag_50\n      tag_86\n      calldatasize\n      0x04\n      tag_87\n      jump\t// in\n    tag_86:\n      tag_88\n      jump\t// in\n        /* \"TRUSTFY v4.3 \\xe2\\x80\\x94 Contract.sol\":10224:10672  function withdrawCredit(address token, uint256 amount) external {... */\n    tag_15:\n      tag_60\n      tag_91\n      calldatasize\n      0x04\n      tag_92\n      jump\t// in\n    tag_91:\n      tag_93\n      jump\t// in\n        /* \"TRUSTFY v4.3 \\xe2\\x80\\x94 Contract.sol\":2643:2666  address public treasury */\n    tag_16:\n      sload(0x03)\n      tag_94\n      swap1\n      sub(shl(0xa0, 0x01), 0x01)\n      and\n      dup2\n      jump\n    tag_94:\n      mload(0x40)\n      sub(shl(0xa0, 0x01), 0x01)\n        /* \"#utility.yul\":5176:5208   */\n      swap1\n      swap2\n      and\n        /* \"#utility.yul\":5158:5209   */\n      dup2\n      mstore\n        /* \"#utility.yul\":5146:5148   */\n      0x20\n        /* \"#utility.yul\":5131:5149   */\n      add\n        /* \"TRUSTFY v4.3 \\xe2\\x80\\x94 Contract.sol\":2643:2666  address public treasury */\n      tag_43\n        /* \"#utility.yul\":5012:5215   */\n      jump\n        /* \"TRUSTFY v4.3 \\xe2\\x80\\x94 Contract.sol\":17531:18110  function confirmPayment(uint256 escrowId) external {... */\n    tag_17:\n      tag_60\n      tag_99\n      calldatasize\n      0x04\n      tag_41\n      jump\t// in\n    tag_99:\n      tag_100\n      jump\t// in\n        /* \"TRUSTFY v4.3 \\xe2\\x80\\x94 Contract.sol\":5141:5172  uint256 public nextEscrowId = 1 */\n    tag_18:\n      tag_50\n      sload(0x07)\n      dup2\n      jump\n        /* \"TRUSTFY v4.3 \\xe2\\x80\\x94 Contract.sol\":2439:2459  address public owner */\n    tag_19:\n      sload(0x00)\n      tag_94\n      swap1\n      sub(shl(0xa0, 0x01), 0x01)\n      and\n      dup2\n      jump\n        /* \"TRUSTFY v4.3 \\xe2\\x80\\x94 Contract.sol\":2510:2554  mapping(address => bool) public isArbitrator */\n    tag_20:\n      tag_54\n      tag_108\n      calldatasize\n      0x04\n      tag_56\n      jump\t// in\n    tag_108:\n      mstore(0x20, 0x02)\n      0x00\n      swap1\n      dup2\n      mstore\n      0x40\n      swap1\n      keccak256\n      sload\n      0xff\n      and\n      dup2\n      jump\n        /* \"TRUSTFY v4.3 \\xe2\\x80\\x94 Contract.sol\":14758:16163  function takeAd(uint256 adId) external returns (uint256 escrowId) {... */\n    tag_21:\n      tag_50\n      tag_112\n      calldatasize\n      0x04\n      tag_41\n      jump\t// in\n    tag_112:\n      tag_113\n      jump\t// in\n        /* \"TRUSTFY v4.3 \\xe2\\x80\\x94 Contract.sol\":23179:24775  function expireSellerFunding(uint256 escrowId) external {... */\n    tag_22:\n      tag_60\n      tag_116\n      calldatasize\n      0x04\n      tag_41\n      jump\t// in\n    tag_116:\n      tag_117\n      jump\t// in\n        /* \"TRUSTFY v4.3 \\xe2\\x80\\x94 Contract.sol\":26251:26715  function buyerMayDispute(uint256 escrowId) external view returns (bool) {... */\n    tag_23:\n      tag_54\n      tag_119\n      calldatasize\n      0x04\n      tag_41\n      jump\t// in\n    tag_119:\n      tag_120\n      jump\t// in\n        /* \"TRUSTFY v4.3 \\xe2\\x80\\x94 Contract.sol\":16308:17407  function fundEscrow(uint256 escrowId) external {... */\n    tag_24:\n      tag_60\n      tag_123\n      calldatasize\n      0x04\n      tag_41\n      jump\t// in\n    tag_123:\n      tag_124\n      jump\t// in\n        /* \"TRUSTFY v4.3 \\xe2\\x80\\x94 Contract.sol\":20619:23063  function resolveDispute(uint256 escrowId, DisputeOutcome outcome) external onlyArbitrator {... */\n    tag_25:\n      tag_60\n      tag_126\n      calldatasize\n      0x04\n      tag_127\n      jump\t// in\n    tag_126:\n      tag_128\n      jump\t// in\n        /* \"TRUSTFY v4.3 \\xe2\\x80\\x94 Contract.sol\":18225:19895  function releaseEscrow(uint256 escrowId) external {... */\n    tag_26:\n      tag_60\n      tag_130\n      calldatasize\n      0x04\n      tag_41\n      jump\t// in\n    tag_130:\n      tag_131\n      jump\t// in\n        /* \"TRUSTFY v4.3 \\xe2\\x80\\x94 Contract.sol\":9228:9420  function setTreasury(address treasury_) external onlyOwner {... */\n    tag_27:\n      tag_60\n      tag_133\n      calldatasize\n      0x04\n      tag_56\n      jump\t// in\n    tag_133:\n      tag_134\n      jump\t// in\n        /* \"TRUSTFY v4.3 \\xe2\\x80\\x94 Contract.sol\":8680:8884  function transferOwnership(address newOwner) external onlyOwner {... */\n    tag_28:\n      tag_60\n      tag_136\n      calldatasize\n      0x04\n      tag_56\n      jump\t// in\n    tag_136:\n      tag_137\n      jump\t// in\n        /* \"TRUSTFY v4.3 \\xe2\\x80\\x94 Contract.sol\":13635:14083  function editAd(uint256 adId, uint256 newAmount) external {... */\n    tag_29:\n      tag_60\n      tag_139\n      calldatasize\n      0x04\n      tag_140\n      jump\t// in\n    tag_139:\n      tag_141\n      jump\t// in\n        /* \"TRUSTFY v4.3 \\xe2\\x80\\x94 Contract.sol\":10722:11081  function adminAddCredit(address user, address token, uint256 amount, bytes32 ref) external onlyAdminOrOwner {... */\n    tag_30:\n      tag_60\n      tag_143\n      calldatasize\n      0x04\n      tag_144\n      jump\t// in\n    tag_143:\n      tag_145\n      jump\t// in\n        /* \"TRUSTFY v4.3 \\xe2\\x80\\x94 Contract.sol\":3731:3781  mapping(address => TokenConfig) public tokenConfig */\n    tag_31:\n      tag_146\n      tag_147\n      calldatasize\n      0x04\n      tag_56\n      jump\t// in\n    tag_147:\n      mstore(0x20, 0x04)\n      0x00\n      swap1\n      dup2\n      mstore\n      0x40\n      swap1\n      keccak256\n      dup1\n      sload\n      0x01\n      dup3\n      add\n      sload\n      0x02\n      swap1\n      swap3\n      add\n      sload\n      0xff\n      dup3\n      and\n      swap3\n      0xffff\n      0x0100\n      dup5\n      div\n      dup2\n      and\n      swap4\n      0x01000000\n      dup2\n      div\n      dup3\n      and\n      swap4\n      0x010000000000\n      swap1\n      swap2\n      div\n      dup3\n      and\n      swap3\n      swap2\n      dup2\n      and\n      swap1\n      0xffffffff\n      0x010000\n      dup3\n      div\n      dup2\n      and\n      swap2\n      shl(0x30, 0x01)\n      dup2\n      div\n      dup3\n      and\n      swap2\n      shl(0x50, 0x01)\n      swap1\n      swap2\n      div\n      and\n      dup10\n      jump\n    tag_146:\n      mload(0x40)\n      tag_43\n      swap10\n      swap9\n      swap8\n      swap7\n      swap6\n      swap5\n      swap4\n      swap3\n      swap2\n      swap1\n      tag_150\n      jump\t// in\n        /* \"TRUSTFY v4.3 \\xe2\\x80\\x94 Contract.sol\":20018:20511  function openDispute(uint256 escrowId) external {... */\n    tag_62:\n        /* \"TRUSTFY v4.3 \\xe2\\x80\\x94 Contract.sol\":20076:20092  Escrow storage e */\n      0x00\n        /* \"TRUSTFY v4.3 \\xe2\\x80\\x94 Contract.sol\":20095:20112  escrows[escrowId] */\n      dup2\n      dup2\n      mstore\n        /* \"TRUSTFY v4.3 \\xe2\\x80\\x94 Contract.sol\":20095:20102  escrows */\n      0x09\n        /* \"TRUSTFY v4.3 \\xe2\\x80\\x94 Contract.sol\":20095:20112  escrows[escrowId] */\n      0x20\n      mstore\n      0x40\n      dup2\n      keccak256\n        /* \"TRUSTFY v4.3 \\xe2\\x80\\x94 Contract.sol\":20130:20136  e.adId */\n      dup1\n      sload\n        /* \"TRUSTFY v4.3 \\xe2\\x80\\x94 Contract.sol\":20095:20112  escrows[escrowId] */\n      swap1\n      swap2\n        /* \"TRUSTFY v4.3 \\xe2\\x80\\x94 Contract.sol\":20130:20141  e.adId != 0 */\n      sub\n        /* \"TRUSTFY v4.3 \\xe2\\x80\\x94 Contract.sol\":20122:20162  require(e.adId != 0, \"ESCROW_NOT_FOUND\") */\n      tag_152\n      jumpi\n      mload(0x40)\n      shl(0xe5, 0x461bcd)\n      dup2\n      mstore\n      0x04\n      add\n      tag_153\n      swap1\n      tag_154\n      jump\t// in\n    tag_153:\n      mload(0x40)\n      dup1\n      swap2\n      sub\n      swap1\n      revert\n    tag_152:\n        /* \"TRUSTFY v4.3 \\xe2\\x80\\x94 Contract.sol\":20192:20222  EscrowStatus.PAYMENT_CONFIRMED */\n      0x03\n        /* \"TRUSTFY v4.3 \\xe2\\x80\\x94 Contract.sol\":20180:20188  e.status */\n      0x08\n      dup3\n      add\n      sload\n      0xff\n      and\n        /* \"TRUSTFY v4.3 \\xe2\\x80\\x94 Contract.sol\":20180:20222  e.status == EscrowStatus.PAYMENT_CONFIRMED */\n      0x06\n      dup2\n      gt\n      iszero\n      tag_159\n      jumpi\n      tag_159\n      tag_157\n      jump\t// in\n    tag_159:\n      eq\n        /* \"TRUSTFY v4.3 \\xe2\\x80\\x94 Contract.sol\":20224:20237  ERR_BAD_STATE */\n      mload(0x40)\n      dup1\n      0x40\n      add\n      0x40\n      mstore\n      dup1\n      0x09\n      dup2\n      mstore\n      0x20\n      add\n      shl(0xb8, 0x4241445f5354415445)\n      dup2\n      mstore\n      pop\n        /* \"TRUSTFY v4.3 \\xe2\\x80\\x94 Contract.sol\":20172:20238  require(e.status == EscrowStatus.PAYMENT_CONFIRMED, ERR_BAD_STATE) */\n      swap1\n      tag_160\n      jumpi\n      mload(0x40)\n      shl(0xe5, 0x461bcd)\n      dup2\n      mstore\n      0x04\n      add\n      tag_153\n      swap2\n      swap1\n      tag_162\n      jump\t// in\n    tag_160:\n      pop\n        /* \"TRUSTFY v4.3 \\xe2\\x80\\x94 Contract.sol\":20270:20277  e.buyer */\n      0x01\n      dup2\n      add\n      sload\n      sub(shl(0xa0, 0x01), 0x01)\n      and\n        /* \"TRUSTFY v4.3 \\xe2\\x80\\x94 Contract.sol\":20256:20266  msg.sender */\n      caller\n        /* \"TRUSTFY v4.3 \\xe2\\x80\\x94 Contract.sol\":20256:20277  msg.sender == e.buyer */\n      eq\n      dup1\n        /* \"TRUSTFY v4.3 \\xe2\\x80\\x94 Contract.sol\":20256:20303  msg.sender == e.buyer || msg.sender == e.seller */\n      tag_163\n      jumpi\n      pop\n        /* \"TRUSTFY v4.3 \\xe2\\x80\\x94 Contract.sol\":20295:20303  e.seller */\n      0x02\n      dup2\n      add\n      sload\n      sub(shl(0xa0, 0x01), 0x01)\n      and\n        /* \"TRUSTFY v4.3 \\xe2\\x80\\x94 Contract.sol\":20281:20291  msg.sender */\n      caller\n        /* \"TRUSTFY v4.3 \\xe2\\x80\\x94 Contract.sol\":20281:20303  msg.sender == e.seller */\n      eq\n        /* \"TRUSTFY v4.3 \\xe2\\x80\\x94 Contract.sol\":20256:20303  msg.sender == e.buyer || msg.sender == e.seller */\n    tag_163:\n        /* \"TRUSTFY v4.3 \\xe2\\x80\\x94 Contract.sol\":20248:20323  require(msg.sender == e.buyer || msg.sender == e.seller, \"NOT_PARTICIPANT\") */\n      tag_164\n      jumpi\n      mload(0x40)\n      shl(0xe5, 0x461bcd)\n      dup2\n      mstore\n        /* \"#utility.yul\":8191:8193   */\n      0x20\n        /* \"TRUSTFY v4.3 \\xe2\\x80\\x94 Contract.sol\":20248:20323  require(msg.sender == e.buyer || msg.sender == e.seller, \"NOT_PARTICIPANT\") */\n      0x04\n      dup3\n      add\n        /* \"#utility.yul\":8173:8194   */\n      mstore\n        /* \"#utility.yul\":8230:8232   */\n      0x0f\n        /* \"#utility.yul\":8210:8228   */\n      0x24\n      dup3\n      add\n        /* \"#utility.yul\":8203:8233   */\n      mstore\n      shl(0x8a, 0x1393d517d41054951250d254105395)\n        /* \"#utility.yul\":8249:8267   */\n      0x44\n      dup3\n      add\n        /* \"#utility.yul\":8242:8287   */\n      mstore\n        /* \"#utility.yul\":8304:8322   */\n      0x64\n      add\n        /* \"TRUSTFY v4.3 \\xe2\\x80\\x94 Contract.sol\":20248:20323  require(msg.sender == e.buyer || msg.sender == e.seller, \"NOT_PARTICIPANT\") */\n      tag_153\n        /* \"#utility.yul\":7989:8328   */\n      jump\n        /* \"TRUSTFY v4.3 \\xe2\\x80\\x94 Contract.sol\":20248:20323  require(msg.sender == e.buyer || msg.sender == e.seller, \"NOT_PARTICIPANT\") */\n    tag_164:\n        /* \"TRUSTFY v4.3 \\xe2\\x80\\x94 Contract.sol\":20342:20357  e.disputeOpened */\n      0x0c\n      dup2\n      add\n      sload\n        /* \"TRUSTFY v4.3 \\xe2\\x80\\x94 Contract.sol\":20359:20377  ERR_DISPUTE_EXISTS */\n      0x40\n      dup1\n      mload\n      dup1\n      dup3\n      add\n      swap1\n      swap2\n      mstore\n      0x0e\n      dup2\n      mstore\n      shl(0x90, 0x444953505554455f455849535453)\n      0x20\n      dup3\n      add\n      mstore\n      swap1\n        /* \"TRUSTFY v4.3 \\xe2\\x80\\x94 Contract.sol\":20342:20357  e.disputeOpened */\n      0xff\n      and\n        /* \"TRUSTFY v4.3 \\xe2\\x80\\x94 Contract.sol\":20341:20357  !e.disputeOpened */\n      iszero\n        /* \"TRUSTFY v4.3 \\xe2\\x80\\x94 Contract.sol\":20333:20378  require(!e.disputeOpened, ERR_DISPUTE_EXISTS) */\n      tag_167\n      jumpi\n      mload(0x40)\n      shl(0xe5, 0x461bcd)\n      dup2\n      mstore\n      0x04\n      add\n      tag_153\n      swap2\n      swap1\n      tag_162\n      jump\t// in\n    tag_167:\n      pop\n        /* \"TRUSTFY v4.3 \\xe2\\x80\\x94 Contract.sol\":20389:20397  e.status */\n      0x08\n      dup2\n      add\n        /* \"TRUSTFY v4.3 \\xe2\\x80\\x94 Contract.sol\":20389:20421  e.status = EscrowStatus.DISPUTED */\n      dup1\n      sload\n      not(0xff)\n      swap1\n      dup2\n      and\n        /* \"TRUSTFY v4.3 \\xe2\\x80\\x94 Contract.sol\":20400:20421  EscrowStatus.DISPUTED */\n      0x04\n        /* \"TRUSTFY v4.3 \\xe2\\x80\\x94 Contract.sol\":20389:20421  e.status = EscrowStatus.DISPUTED */\n      or\n      swap1\n      swap2\n      sstore\n        /* \"TRUSTFY v4.3 \\xe2\\x80\\x94 Contract.sol\":20431:20446  e.disputeOpened */\n      0x0c\n      dup3\n      add\n        /* \"TRUSTFY v4.3 \\xe2\\x80\\x94 Contract.sol\":20431:20453  e.disputeOpened = true */\n      dup1\n      sload\n      swap1\n      swap2\n      and\n        /* \"TRUSTFY v4.3 \\xe2\\x80\\x94 Contract.sol\":20389:20421  e.status = EscrowStatus.DISPUTED */\n      0x01\n        /* \"TRUSTFY v4.3 \\xe2\\x80\\x94 Contract.sol\":20431:20453  e.disputeOpened = true */\n      or\n      swap1\n      sstore\n        /* \"TRUSTFY v4.3 \\xe2\\x80\\x94 Contract.sol\":20469:20504  DisputeOpened(escrowId, msg.sender) */\n      mload(0x40)\n        /* \"TRUSTFY v4.3 \\xe2\\x80\\x94 Contract.sol\":20493:20503  msg.sender */\n      caller\n      swap1\n        /* \"TRUSTFY v4.3 \\xe2\\x80\\x94 Contract.sol\":20483:20491  escrowId */\n      dup4\n      swap1\n        /* \"TRUSTFY v4.3 \\xe2\\x80\\x94 Contract.sol\":20469:20504  DisputeOpened(escrowId, msg.sender) */\n      0x44f3c3ed15c708331582bc379d28659a58f183a563abe41aa4c8889db469f71c\n      swap1\n      0x00\n      swap1\n      log3\n        /* \"TRUSTFY v4.3 \\xe2\\x80\\x94 Contract.sol\":20066:20511  {... */\n      pop\n        /* \"TRUSTFY v4.3 \\xe2\\x80\\x94 Contract.sol\":20018:20511  function openDispute(uint256 escrowId) external {... */\n      pop\n      jump\t// out\n        /* \"TRUSTFY v4.3 \\xe2\\x80\\x94 Contract.sol\":9048:9222  function setArbitrator(address account, bool enabled) external onlyAdminOrOwner {... */\n    tag_66:\n        /* \"TRUSTFY v4.3 \\xe2\\x80\\x94 Contract.sol\":8213:8218  owner */\n      and(sub(shl(0xa0, 0x01), 0x01), sload(0x00))\n        /* \"TRUSTFY v4.3 \\xe2\\x80\\x94 Contract.sol\":8199:8209  msg.sender */\n      caller\n        /* \"TRUSTFY v4.3 \\xe2\\x80\\x94 Contract.sol\":8199:8218  msg.sender == owner */\n      eq\n      dup1\n        /* \"TRUSTFY v4.3 \\xe2\\x80\\x94 Contract.sol\":8199:8241  msg.sender == owner || isAdmin[msg.sender] */\n      tag_172\n      jumpi\n      pop\n        /* \"TRUSTFY v4.3 \\xe2\\x80\\x94 Contract.sol\":8230:8240  msg.sender */\n      caller\n        /* \"TRUSTFY v4.3 \\xe2\\x80\\x94 Contract.sol\":8222:8241  isAdmin[msg.sender] */\n      0x00\n      swap1\n      dup2\n      mstore\n        /* \"TRUSTFY v4.3 \\xe2\\x80\\x94 Contract.sol\":8222:8229  isAdmin */\n      0x01\n        /* \"TRUSTFY v4.3 \\xe2\\x80\\x94 Contract.sol\":8222:8241  isAdmin[msg.sender] */\n      0x20\n      mstore\n      0x40\n      swap1\n      keccak256\n      sload\n      0xff\n      and\n        /* \"TRUSTFY v4.3 \\xe2\\x80\\x94 Contract.sol\":8199:8241  msg.sender == owner || isAdmin[msg.sender] */\n    tag_172:\n        /* \"TRUSTFY v4.3 \\xe2\\x80\\x94 Contract.sol\":8243:8256  ERR_NOT_ADMIN */\n      mload(0x40)\n      dup1\n      0x40\n      add\n      0x40\n      mstore\n      dup1\n      0x09\n      dup2\n      mstore\n      0x20\n      add\n      shl(0xb9, 0x2727aa2fa0a226a4a7)\n      dup2\n      mstore\n      pop\n        /* \"TRUSTFY v4.3 \\xe2\\x80\\x94 Contract.sol\":8191:8257  require(msg.sender == owner || isAdmin[msg.sender], ERR_NOT_ADMIN) */\n      swap1\n      tag_173\n      jumpi\n      mload(0x40)\n      shl(0xe5, 0x461bcd)\n      dup2\n      mstore\n      0x04\n      add\n      tag_153\n      swap2\n      swap1\n      tag_162\n      jump\t// in\n    tag_173:\n      pop\n      sub(shl(0xa0, 0x01), 0x01)\n        /* \"TRUSTFY v4.3 \\xe2\\x80\\x94 Contract.sol\":9138:9159  isArbitrator[account] */\n      dup3\n      and\n      0x00\n      dup2\n      dup2\n      mstore\n        /* \"TRUSTFY v4.3 \\xe2\\x80\\x94 Contract.sol\":9138:9150  isArbitrator */\n      0x02\n        /* \"TRUSTFY v4.3 \\xe2\\x80\\x94 Contract.sol\":9138:9159  isArbitrator[account] */\n      0x20\n      swap1\n      dup2\n      mstore\n      0x40\n      swap2\n      dup3\n      swap1\n      keccak256\n        /* \"TRUSTFY v4.3 \\xe2\\x80\\x94 Contract.sol\":9138:9169  isArbitrator[account] = enabled */\n      dup1\n      sload\n      not(0xff)\n      and\n      dup6\n      iszero\n      iszero\n      swap1\n      dup2\n      or\n      swap1\n      swap2\n      sstore\n        /* \"TRUSTFY v4.3 \\xe2\\x80\\x94 Contract.sol\":9184:9215  ArbitratorSet(account, enabled) */\n      swap2\n      mload\n        /* \"#utility.yul\":3253:3294   */\n      swap2\n      dup3\n      mstore\n        /* \"TRUSTFY v4.3 \\xe2\\x80\\x94 Contract.sol\":9184:9215  ArbitratorSet(account, enabled) */\n      0x07e703270dd349aa2afca0f59467c19b0c4f7029c7057d0fad2fc0223e6cae5e\n      swap2\n        /* \"#utility.yul\":3226:3244   */\n      add\n        /* \"TRUSTFY v4.3 \\xe2\\x80\\x94 Contract.sol\":9184:9215  ArbitratorSet(account, enabled) */\n    tag_176:\n      mload(0x40)\n      dup1\n      swap2\n      sub\n      swap1\n      log2\n        /* \"TRUSTFY v4.3 \\xe2\\x80\\x94 Contract.sol\":9048:9222  function setArbitrator(address account, bool enabled) external onlyAdminOrOwner {... */\n      pop\n      pop\n      jump\t// out\n        /* \"TRUSTFY v4.3 \\xe2\\x80\\x94 Contract.sol\":24903:26142  function expireBuyerConfirmation(uint256 escrowId) external {... */\n    tag_74:\n        /* \"TRUSTFY v4.3 \\xe2\\x80\\x94 Contract.sol\":24973:24989  Escrow storage e */\n      0x00\n        /* \"TRUSTFY v4.3 \\xe2\\x80\\x94 Contract.sol\":24992:25009  escrows[escrowId] */\n      dup2\n      dup2\n      mstore\n        /* \"TRUSTFY v4.3 \\xe2\\x80\\x94 Contract.sol\":24992:24999  escrows */\n      0x09\n        /* \"TRUSTFY v4.3 \\xe2\\x80\\x94 Contract.sol\":24992:25009  escrows[escrowId] */\n      0x20\n      mstore\n      0x40\n      dup2\n      keccak256\n        /* \"TRUSTFY v4.3 \\xe2\\x80\\x94 Contract.sol\":25027:25033  e.adId */\n      dup1\n      sload\n        /* \"TRUSTFY v4.3 \\xe2\\x80\\x94 Contract.sol\":24992:25009  escrows[escrowId] */\n      swap1\n      swap2\n        /* \"TRUSTFY v4.3 \\xe2\\x80\\x94 Contract.sol\":25027:25038  e.adId != 0 */\n      sub\n        /* \"TRUSTFY v4.3 \\xe2\\x80\\x94 Contract.sol\":25019:25059  require(e.adId != 0, \"ESCROW_NOT_FOUND\") */\n      tag_178\n      jumpi\n      mload(0x40)\n      shl(0xe5, 0x461bcd)\n      dup2\n      mstore\n      0x04\n      add\n      tag_153\n      swap1\n      tag_154\n      jump\t// in\n    tag_178:\n        /* \"TRUSTFY v4.3 \\xe2\\x80\\x94 Contract.sol\":25089:25108  EscrowStatus.FUNDED */\n      0x02\n        /* \"TRUSTFY v4.3 \\xe2\\x80\\x94 Contract.sol\":25077:25085  e.status */\n      0x08\n      dup3\n      add\n      sload\n      0xff\n      and\n        /* \"TRUSTFY v4.3 \\xe2\\x80\\x94 Contract.sol\":25077:25108  e.status == EscrowStatus.FUNDED */\n      0x06\n      dup2\n      gt\n      iszero\n      tag_183\n      jumpi\n      tag_183\n      tag_157\n      jump\t// in\n    tag_183:\n      eq\n        /* \"TRUSTFY v4.3 \\xe2\\x80\\x94 Contract.sol\":25110:25123  ERR_BAD_STATE */\n      mload(0x40)\n      dup1\n      0x40\n      add\n      0x40\n      mstore\n      dup1\n      0x09\n      dup2\n      mstore\n      0x20\n      add\n      shl(0xb8, 0x4241445f5354415445)\n      dup2\n      mstore\n      pop\n        /* \"TRUSTFY v4.3 \\xe2\\x80\\x94 Contract.sol\":25069:25124  require(e.status == EscrowStatus.FUNDED, ERR_BAD_STATE) */\n      swap1\n      tag_184\n      jumpi\n      mload(0x40)\n      shl(0xe5, 0x461bcd)\n      dup2\n      mstore\n      0x04\n      add\n      tag_153\n      swap2\n      swap1\n      tag_162\n      jump\t// in\n    tag_184:\n      pop\n        /* \"TRUSTFY v4.3 \\xe2\\x80\\x94 Contract.sol\":25165:25172  e.token */\n      0x03\n      dup2\n      add\n      sload\n        /* \"TRUSTFY v4.3 \\xe2\\x80\\x94 Contract.sol\":25135:25157  TokenConfig memory cfg */\n      0x00\n      swap1\n        /* \"TRUSTFY v4.3 \\xe2\\x80\\x94 Contract.sol\":25160:25173  _cfg(e.token) */\n      tag_186\n      swap1\n      sub(shl(0xa0, 0x01), 0x01)\n        /* \"TRUSTFY v4.3 \\xe2\\x80\\x94 Contract.sol\":25165:25172  e.token */\n      and\n        /* \"TRUSTFY v4.3 \\xe2\\x80\\x94 Contract.sol\":25160:25164  _cfg */\n      tag_187\n        /* \"TRUSTFY v4.3 \\xe2\\x80\\x94 Contract.sol\":25160:25173  _cfg(e.token) */\n      jump\t// in\n    tag_186:\n        /* \"TRUSTFY v4.3 \\xe2\\x80\\x94 Contract.sol\":25135:25173  TokenConfig memory cfg = _cfg(e.token) */\n      swap1\n      pop\n        /* \"TRUSTFY v4.3 \\xe2\\x80\\x94 Contract.sol\":25230:25233  cfg */\n      dup1\n        /* \"TRUSTFY v4.3 \\xe2\\x80\\x94 Contract.sol\":25230:25252  cfg.buyerConfirmWindow */\n      0xe0\n      add\n      mload\n        /* \"TRUSTFY v4.3 \\xe2\\x80\\x94 Contract.sol\":25222:25253  uint256(cfg.buyerConfirmWindow) */\n      0xffffffff\n      and\n        /* \"TRUSTFY v4.3 \\xe2\\x80\\x94 Contract.sol\":25209:25210  e */\n      dup3\n        /* \"TRUSTFY v4.3 \\xe2\\x80\\x94 Contract.sol\":25209:25219  e.fundedAt */\n      0x0a\n      add\n      sload\n        /* \"TRUSTFY v4.3 \\xe2\\x80\\x94 Contract.sol\":25209:25253  e.fundedAt + uint256(cfg.buyerConfirmWindow) */\n      tag_188\n      swap2\n      swap1\n      tag_189\n      jump\t// in\n    tag_188:\n        /* \"TRUSTFY v4.3 \\xe2\\x80\\x94 Contract.sol\":25191:25206  block.timestamp */\n      timestamp\n        /* \"TRUSTFY v4.3 \\xe2\\x80\\x94 Contract.sol\":25191:25253  block.timestamp > e.fundedAt + uint256(cfg.buyerConfirmWindow) */\n      gt\n        /* \"TRUSTFY v4.3 \\xe2\\x80\\x94 Contract.sol\":25255:25277  ERR_WINDOW_NOT_EXPIRED */\n      mload(0x40)\n      dup1\n      0x40\n      add\n      0x40\n      mstore\n      dup1\n      0x12\n      dup2\n      mstore\n      0x20\n      add\n      shl(0x72, 0x15d2539113d5d7d393d517d1561412549151)\n      dup2\n      mstore\n      pop\n        /* \"TRUSTFY v4.3 \\xe2\\x80\\x94 Contract.sol\":25183:25278  require(block.timestamp > e.fundedAt + uint256(cfg.buyerConfirmWindow), ERR_WINDOW_NOT_EXPIRED) */\n      swap1\n      tag_190\n      jumpi\n      mload(0x40)\n      shl(0xe5, 0x461bcd)\n      dup2\n      mstore\n      0x04\n      add\n      tag_153\n      swap2\n      swap1\n      tag_162\n      jump\t// in\n    tag_190:\n      pop\n        /* \"TRUSTFY v4.3 \\xe2\\x80\\x94 Contract.sol\":25309:25315  e.adId */\n      dup2\n      sload\n        /* \"TRUSTFY v4.3 \\xe2\\x80\\x94 Contract.sol\":25289:25302  Ad storage ad */\n      0x00\n        /* \"TRUSTFY v4.3 \\xe2\\x80\\x94 Contract.sol\":25305:25316  ads[e.adId] */\n      swap1\n      dup2\n      mstore\n        /* \"TRUSTFY v4.3 \\xe2\\x80\\x94 Contract.sol\":25305:25308  ads */\n      0x08\n        /* \"TRUSTFY v4.3 \\xe2\\x80\\x94 Contract.sol\":25305:25316  ads[e.adId] */\n      0x20\n      swap1\n      dup2\n      mstore\n      0x40\n      swap2\n      dup3\n      swap1\n      keccak256\n        /* \"TRUSTFY v4.3 \\xe2\\x80\\x94 Contract.sol\":25334:25351  ad.activeEscrowId */\n      0x05\n      dup2\n      add\n      sload\n        /* \"TRUSTFY v4.3 \\xe2\\x80\\x94 Contract.sol\":25365:25384  ERR_ESCROW_MISMATCH */\n      dup4\n      mload\n      dup1\n      dup6\n      add\n      swap1\n      swap5\n      mstore\n      0x0f\n      dup5\n      mstore\n      shl(0x8b, 0x08aa686a49eaebe9a92a69a82a8869)\n      swap3\n      dup5\n      add\n      swap3\n      swap1\n      swap3\n      mstore\n        /* \"TRUSTFY v4.3 \\xe2\\x80\\x94 Contract.sol\":25305:25316  ads[e.adId] */\n      swap2\n        /* \"TRUSTFY v4.3 \\xe2\\x80\\x94 Contract.sol\":25365:25384  ERR_ESCROW_MISMATCH */\n      swap1\n        /* \"TRUSTFY v4.3 \\xe2\\x80\\x94 Contract.sol\":25334:25363  ad.activeEscrowId == escrowId */\n      dup6\n      eq\n        /* \"TRUSTFY v4.3 \\xe2\\x80\\x94 Contract.sol\":25326:25385  require(ad.activeEscrowId == escrowId, ERR_ESCROW_MISMATCH) */\n      tag_192\n      jumpi\n      mload(0x40)\n      shl(0xe5, 0x461bcd)\n      dup2\n      mstore\n      0x04\n      add\n      tag_153\n      swap2\n      swap1\n      tag_162\n      jump\t// in\n    tag_192:\n      pop\n        /* \"TRUSTFY v4.3 \\xe2\\x80\\x94 Contract.sol\":25415:25428  AdState.TAKEN */\n      0x01\n        /* \"TRUSTFY v4.3 \\xe2\\x80\\x94 Contract.sol\":25403:25411  ad.state */\n      0x04\n      dup3\n      add\n      sload\n      0xff\n      and\n        /* \"TRUSTFY v4.3 \\xe2\\x80\\x94 Contract.sol\":25403:25428  ad.state == AdState.TAKEN */\n      0x03\n      dup2\n      gt\n      iszero\n      tag_197\n      jumpi\n      tag_197\n      tag_157\n      jump\t// in\n    tag_197:\n      eq\n        /* \"TRUSTFY v4.3 \\xe2\\x80\\x94 Contract.sol\":25430:25443  ERR_BAD_STATE */\n      mload(0x40)\n      dup1\n      0x40\n      add\n      0x40\n      mstore\n      dup1\n      0x09\n      dup2\n      mstore\n      0x20\n      add\n      shl(0xb8, 0x4241445f5354415445)\n      dup2\n      mstore\n      pop\n        /* \"TRUSTFY v4.3 \\xe2\\x80\\x94 Contract.sol\":25395:25444  require(ad.state == AdState.TAKEN, ERR_BAD_STATE) */\n      swap1\n      tag_198\n      jumpi\n      mload(0x40)\n      shl(0xe5, 0x461bcd)\n      dup2\n      mstore\n      0x04\n      add\n      tag_153\n      swap2\n      swap1\n      tag_162\n      jump\t// in\n    tag_198:\n      pop\n        /* \"TRUSTFY v4.3 \\xe2\\x80\\x94 Contract.sol\":25509:25527  e.buyerDisputeBond */\n      0x06\n      dup4\n      add\n      sload\n        /* \"TRUSTFY v4.3 \\xe2\\x80\\x94 Contract.sol\":25509:25531  e.buyerDisputeBond > 0 */\n      iszero\n        /* \"TRUSTFY v4.3 \\xe2\\x80\\x94 Contract.sol\":25505:25652  if (e.buyerDisputeBond > 0) {... */\n      tag_200\n      jumpi\n        /* \"TRUSTFY v4.3 \\xe2\\x80\\x94 Contract.sol\":25576:25584  treasury */\n      0x03\n      dup1\n      sload\n        /* \"TRUSTFY v4.3 \\xe2\\x80\\x94 Contract.sol\":25586:25604  e.buyerDisputeBond */\n      0x06\n      dup6\n      add\n      sload\n        /* \"TRUSTFY v4.3 \\xe2\\x80\\x94 Contract.sol\":25554:25561  e.token */\n      swap2\n      dup6\n      add\n      sload\n        /* \"TRUSTFY v4.3 \\xe2\\x80\\x94 Contract.sol\":25547:25605  IERC20(e.token).safeTransfer(treasury, e.buyerDisputeBond) */\n      tag_201\n      swap3\n      sub(shl(0xa0, 0x01), 0x01)\n        /* \"TRUSTFY v4.3 \\xe2\\x80\\x94 Contract.sol\":25554:25561  e.token */\n      swap2\n      dup3\n      and\n      swap3\n        /* \"TRUSTFY v4.3 \\xe2\\x80\\x94 Contract.sol\":25576:25584  treasury */\n      swap2\n      swap1\n      swap2\n      and\n      swap1\n        /* \"TRUSTFY v4.3 \\xe2\\x80\\x94 Contract.sol\":25547:25575  IERC20(e.token).safeTransfer */\n      tag_202\n        /* \"TRUSTFY v4.3 \\xe2\\x80\\x94 Contract.sol\":25547:25605  IERC20(e.token).safeTransfer(treasury, e.buyerDisputeBond) */\n      jump\t// in\n    tag_201:\n        /* \"TRUSTFY v4.3 \\xe2\\x80\\x94 Contract.sol\":25640:25641  0 */\n      0x00\n        /* \"TRUSTFY v4.3 \\xe2\\x80\\x94 Contract.sol\":25619:25637  e.buyerDisputeBond */\n      0x06\n      dup5\n      add\n        /* \"TRUSTFY v4.3 \\xe2\\x80\\x94 Contract.sol\":25619:25641  e.buyerDisputeBond = 0 */\n      sstore\n        /* \"TRUSTFY v4.3 \\xe2\\x80\\x94 Contract.sol\":25505:25652  if (e.buyerDisputeBond > 0) {... */\n    tag_200:\n        /* \"TRUSTFY v4.3 \\xe2\\x80\\x94 Contract.sol\":25717:25731  uint256 refund */\n      0x00\n        /* \"TRUSTFY v4.3 \\xe2\\x80\\x94 Contract.sol\":25759:25760  e */\n      dup4\n        /* \"TRUSTFY v4.3 \\xe2\\x80\\x94 Contract.sol\":25759:25778  e.sellerDisputeBond */\n      0x07\n      add\n      sload\n        /* \"TRUSTFY v4.3 \\xe2\\x80\\x94 Contract.sol\":25745:25746  e */\n      dup5\n        /* \"TRUSTFY v4.3 \\xe2\\x80\\x94 Contract.sol\":25745:25756  e.feeAmount */\n      0x05\n      add\n      sload\n        /* \"TRUSTFY v4.3 \\xe2\\x80\\x94 Contract.sol\":25734:25735  e */\n      dup6\n        /* \"TRUSTFY v4.3 \\xe2\\x80\\x94 Contract.sol\":25734:25742  e.amount */\n      0x04\n      add\n      sload\n        /* \"TRUSTFY v4.3 \\xe2\\x80\\x94 Contract.sol\":25734:25756  e.amount + e.feeAmount */\n      tag_203\n      swap2\n      swap1\n      tag_189\n      jump\t// in\n    tag_203:\n        /* \"TRUSTFY v4.3 \\xe2\\x80\\x94 Contract.sol\":25734:25778  e.amount + e.feeAmount + e.sellerDisputeBond */\n      tag_204\n      swap2\n      swap1\n      tag_189\n      jump\t// in\n    tag_204:\n        /* \"TRUSTFY v4.3 \\xe2\\x80\\x94 Contract.sol\":25717:25778  uint256 refund = e.amount + e.feeAmount + e.sellerDisputeBond */\n      swap1\n      pop\n        /* \"TRUSTFY v4.3 \\xe2\\x80\\x94 Contract.sol\":25792:25802  refund > 0 */\n      dup1\n      iszero\n        /* \"TRUSTFY v4.3 \\xe2\\x80\\x94 Contract.sol\":25788:25875  if (refund > 0) {... */\n      tag_206\n      jumpi\n        /* \"TRUSTFY v4.3 \\xe2\\x80\\x94 Contract.sol\":25847:25855  e.seller */\n      0x02\n      dup5\n      add\n      sload\n        /* \"TRUSTFY v4.3 \\xe2\\x80\\x94 Contract.sol\":25825:25832  e.token */\n      0x03\n      dup6\n      add\n      sload\n        /* \"TRUSTFY v4.3 \\xe2\\x80\\x94 Contract.sol\":25818:25864  IERC20(e.token).safeTransfer(e.seller, refund) */\n      tag_206\n      swap2\n      sub(shl(0xa0, 0x01), 0x01)\n        /* \"TRUSTFY v4.3 \\xe2\\x80\\x94 Contract.sol\":25825:25832  e.token */\n      swap2\n      dup3\n      and\n      swap2\n        /* \"TRUSTFY v4.3 \\xe2\\x80\\x94 Contract.sol\":25847:25855  e.seller */\n      and\n        /* \"TRUSTFY v4.3 \\xe2\\x80\\x94 Contract.sol\":25857:25863  refund */\n      dup4\n        /* \"TRUSTFY v4.3 \\xe2\\x80\\x94 Contract.sol\":25818:25846  IERC20(e.token).safeTransfer */\n      tag_202\n        /* \"TRUSTFY v4.3 \\xe2\\x80\\x94 Contract.sol\":25818:25864  IERC20(e.token).safeTransfer(e.seller, refund) */\n      jump\t// in\n    tag_206:\n        /* \"TRUSTFY v4.3 \\xe2\\x80\\x94 Contract.sol\":25896:25897  0 */\n      0x00\n        /* \"TRUSTFY v4.3 \\xe2\\x80\\x94 Contract.sol\":25885:25893  e.amount */\n      0x04\n      dup6\n      dup2\n      add\n        /* \"TRUSTFY v4.3 \\xe2\\x80\\x94 Contract.sol\":25885:25897  e.amount = 0 */\n      dup3\n      swap1\n      sstore\n        /* \"TRUSTFY v4.3 \\xe2\\x80\\x94 Contract.sol\":25907:25918  e.feeAmount */\n      0x05\n      dup1\n      dup8\n      add\n        /* \"TRUSTFY v4.3 \\xe2\\x80\\x94 Contract.sol\":25907:25922  e.feeAmount = 0 */\n      dup4\n      swap1\n      sstore\n        /* \"TRUSTFY v4.3 \\xe2\\x80\\x94 Contract.sol\":25932:25951  e.sellerDisputeBond */\n      0x07\n      dup8\n      add\n        /* \"TRUSTFY v4.3 \\xe2\\x80\\x94 Contract.sol\":25932:25955  e.sellerDisputeBond = 0 */\n      dup4\n      swap1\n      sstore\n        /* \"TRUSTFY v4.3 \\xe2\\x80\\x94 Contract.sol\":25966:25974  e.status */\n      0x08\n      dup8\n      add\n        /* \"TRUSTFY v4.3 \\xe2\\x80\\x94 Contract.sol\":25966:25999  e.status = EscrowStatus.CANCELLED */\n      dup1\n      sload\n        /* \"TRUSTFY v4.3 \\xe2\\x80\\x94 Contract.sol\":25977:25999  EscrowStatus.CANCELLED */\n      0x06\n      not(0xff)\n        /* \"TRUSTFY v4.3 \\xe2\\x80\\x94 Contract.sol\":25966:25999  e.status = EscrowStatus.CANCELLED */\n      swap2\n      dup3\n      and\n      or\n      swap1\n      swap2\n      sstore\n        /* \"TRUSTFY v4.3 \\xe2\\x80\\x94 Contract.sol\":26009:26017  ad.state */\n      swap2\n      dup6\n      add\n        /* \"TRUSTFY v4.3 \\xe2\\x80\\x94 Contract.sol\":26009:26035  ad.state = AdState.CREATED */\n      dup1\n      sload\n      swap1\n      swap3\n      and\n      swap1\n      swap2\n      sstore\n        /* \"TRUSTFY v4.3 \\xe2\\x80\\x94 Contract.sol\":26045:26062  ad.activeEscrowId */\n      dup4\n      add\n        /* \"TRUSTFY v4.3 \\xe2\\x80\\x94 Contract.sol\":26045:26066  ad.activeEscrowId = 0 */\n      sstore\n        /* \"TRUSTFY v4.3 \\xe2\\x80\\x94 Contract.sol\":26082:26135  EscrowCancelled(escrowId, \"BUYER_NO_CONFIRM_FORFEIT\") */\n      0x40\n      dup1\n      mload\n        /* \"#utility.yul\":8797:8799   */\n      0x20\n        /* \"#utility.yul\":8779:8800   */\n      dup1\n      dup3\n      mstore\n        /* \"#utility.yul\":8836:8838   */\n      0x18\n        /* \"#utility.yul\":8816:8834   */\n      swap1\n      dup3\n      add\n        /* \"#utility.yul\":8809:8839   */\n      mstore\n        /* \"#utility.yul\":8875:8901   */\n      0x42555945525f4e4f5f434f4e4649524d5f464f52464549540000000000000000\n        /* \"#utility.yul\":8855:8873   */\n      dup2\n      dup4\n      add\n        /* \"#utility.yul\":8848:8902   */\n      mstore\n        /* \"TRUSTFY v4.3 \\xe2\\x80\\x94 Contract.sol\":26082:26135  EscrowCancelled(escrowId, \"BUYER_NO_CONFIRM_FORFEIT\") */\n      swap1\n      mload\n        /* \"TRUSTFY v4.3 \\xe2\\x80\\x94 Contract.sol\":26098:26106  escrowId */\n      dup7\n      swap2\n        /* \"TRUSTFY v4.3 \\xe2\\x80\\x94 Contract.sol\":26082:26135  EscrowCancelled(escrowId, \"BUYER_NO_CONFIRM_FORFEIT\") */\n      0xdf5af23a8bfbd700e381c19607d03504d7a5ba1876c669cccd37feace1f5adaa\n      swap2\n      swap1\n      dup2\n      swap1\n      sub\n        /* \"#utility.yul\":8934:8936   */\n      0x60\n        /* \"TRUSTFY v4.3 \\xe2\\x80\\x94 Contract.sol\":26082:26135  EscrowCancelled(escrowId, \"BUYER_NO_CONFIRM_FORFEIT\") */\n      add\n      swap1\n      log2\n        /* \"TRUSTFY v4.3 \\xe2\\x80\\x94 Contract.sol\":24963:26142  {... */\n      pop\n      pop\n      pop\n      pop\n        /* \"TRUSTFY v4.3 \\xe2\\x80\\x94 Contract.sol\":24903:26142  function expireBuyerConfirmation(uint256 escrowId) external {... */\n      pop\n      jump\t// out\n        /* \"TRUSTFY v4.3 \\xe2\\x80\\x94 Contract.sol\":14089:14643  function cancelAd(uint256 adId) external {... */\n    tag_77:\n        /* \"TRUSTFY v4.3 \\xe2\\x80\\x94 Contract.sol\":14140:14153  Ad storage ad */\n      0x00\n        /* \"TRUSTFY v4.3 \\xe2\\x80\\x94 Contract.sol\":14156:14165  ads[adId] */\n      dup2\n      dup2\n      mstore\n        /* \"TRUSTFY v4.3 \\xe2\\x80\\x94 Contract.sol\":14156:14159  ads */\n      0x08\n        /* \"TRUSTFY v4.3 \\xe2\\x80\\x94 Contract.sol\":14156:14165  ads[adId] */\n      0x20\n      mstore\n      0x40\n      swap1\n      keccak256\n        /* \"TRUSTFY v4.3 \\xe2\\x80\\x94 Contract.sol\":14183:14191  ad.maker */\n      dup1\n      sload\n      sub(shl(0xa0, 0x01), 0x01)\n      and\n        /* \"TRUSTFY v4.3 \\xe2\\x80\\x94 Contract.sol\":14175:14222  require(ad.maker != address(0), \"AD_NOT_FOUND\") */\n      tag_214\n      jumpi\n      mload(0x40)\n      shl(0xe5, 0x461bcd)\n      dup2\n      mstore\n      0x04\n      add\n      tag_153\n      swap1\n      tag_216\n      jump\t// in\n    tag_214:\n        /* \"TRUSTFY v4.3 \\xe2\\x80\\x94 Contract.sol\":14254:14262  ad.maker */\n      dup1\n      sload\n        /* \"TRUSTFY v4.3 \\xe2\\x80\\x94 Contract.sol\":14264:14277  ERR_NOT_MAKER */\n      0x40\n      dup1\n      mload\n      dup1\n      dup3\n      add\n      swap1\n      swap2\n      mstore\n      0x09\n      dup2\n      mstore\n      shl(0xb9, 0x2727aa2fa6a0a5a2a9)\n      0x20\n      dup3\n      add\n      mstore\n      swap1\n      sub(shl(0xa0, 0x01), 0x01)\n        /* \"TRUSTFY v4.3 \\xe2\\x80\\x94 Contract.sol\":14254:14262  ad.maker */\n      and\n        /* \"TRUSTFY v4.3 \\xe2\\x80\\x94 Contract.sol\":14240:14250  msg.sender */\n      caller\n        /* \"TRUSTFY v4.3 \\xe2\\x80\\x94 Contract.sol\":14240:14262  msg.sender == ad.maker */\n      eq\n        /* \"TRUSTFY v4.3 \\xe2\\x80\\x94 Contract.sol\":14232:14278  require(msg.sender == ad.maker, ERR_NOT_MAKER) */\n      tag_217\n      jumpi\n      mload(0x40)\n      shl(0xe5, 0x461bcd)\n      dup2\n      mstore\n      0x04\n      add\n      tag_153\n      swap2\n      swap1\n      tag_162\n      jump\t// in\n    tag_217:\n      pop\n        /* \"TRUSTFY v4.3 \\xe2\\x80\\x94 Contract.sol\":14308:14323  AdState.CREATED */\n      0x00\n        /* \"TRUSTFY v4.3 \\xe2\\x80\\x94 Contract.sol\":14296:14304  ad.state */\n      0x04\n      dup3\n      add\n      sload\n      0xff\n      and\n        /* \"TRUSTFY v4.3 \\xe2\\x80\\x94 Contract.sol\":14296:14323  ad.state == AdState.CREATED */\n      0x03\n      dup2\n      gt\n      iszero\n      tag_222\n      jumpi\n      tag_222\n      tag_157\n      jump\t// in\n    tag_222:\n      eq\n        /* \"TRUSTFY v4.3 \\xe2\\x80\\x94 Contract.sol\":14325:14338  ERR_BAD_STATE */\n      mload(0x40)\n      dup1\n      0x40\n      add\n      0x40\n      mstore\n      dup1\n      0x09\n      dup2\n      mstore\n      0x20\n      add\n      shl(0xb8, 0x4241445f5354415445)\n      dup2\n      mstore\n      pop\n        /* \"TRUSTFY v4.3 \\xe2\\x80\\x94 Contract.sol\":14288:14339  require(ad.state == AdState.CREATED, ERR_BAD_STATE) */\n      swap1\n      tag_223\n      jumpi\n      mload(0x40)\n      shl(0xe5, 0x461bcd)\n      dup2\n      mstore\n      0x04\n      add\n      tag_153\n      swap2\n      swap1\n      tag_162\n      jump\t// in\n    tag_223:\n      pop\n        /* \"TRUSTFY v4.3 \\xe2\\x80\\x94 Contract.sol\":14357:14374  ad.activeEscrowId */\n      0x05\n      dup2\n      add\n      sload\n        /* \"TRUSTFY v4.3 \\xe2\\x80\\x94 Contract.sol\":14381:14394  ERR_BAD_STATE */\n      0x40\n      dup1\n      mload\n      dup1\n      dup3\n      add\n      swap1\n      swap2\n      mstore\n      0x09\n      dup2\n      mstore\n      shl(0xb8, 0x4241445f5354415445)\n      0x20\n      dup3\n      add\n      mstore\n      swap1\n        /* \"TRUSTFY v4.3 \\xe2\\x80\\x94 Contract.sol\":14357:14379  ad.activeEscrowId == 0 */\n      iszero\n        /* \"TRUSTFY v4.3 \\xe2\\x80\\x94 Contract.sol\":14349:14395  require(ad.activeEscrowId == 0, ERR_BAD_STATE) */\n      tag_225\n      jumpi\n      mload(0x40)\n      shl(0xe5, 0x461bcd)\n      dup2\n      mstore\n      0x04\n      add\n      tag_153\n      swap2\n      swap1\n      tag_162\n      jump\t// in\n    tag_225:\n      pop\n        /* \"TRUSTFY v4.3 \\xe2\\x80\\x94 Contract.sol\":14406:14414  ad.state */\n      0x04\n      dup2\n      add\n        /* \"TRUSTFY v4.3 \\xe2\\x80\\x94 Contract.sol\":14406:14434  ad.state = AdState.CANCELLED */\n      dup1\n      sload\n      not(0xff)\n      and\n        /* \"TRUSTFY v4.3 \\xe2\\x80\\x94 Contract.sol\":14417:14434  AdState.CANCELLED */\n      0x02\n        /* \"TRUSTFY v4.3 \\xe2\\x80\\x94 Contract.sol\":14406:14434  ad.state = AdState.CANCELLED */\n      or\n      swap1\n      sstore\n        /* \"TRUSTFY v4.3 \\xe2\\x80\\x94 Contract.sol\":14487:14496  ad.adBond */\n      0x03\n      dup2\n      add\n      sload\n        /* \"TRUSTFY v4.3 \\xe2\\x80\\x94 Contract.sol\":14487:14500  ad.adBond > 0 */\n      iszero\n        /* \"TRUSTFY v4.3 \\xe2\\x80\\x94 Contract.sol\":14483:14604  if (ad.adBond > 0) {... */\n      tag_229\n      jumpi\n        /* \"TRUSTFY v4.3 \\xe2\\x80\\x94 Contract.sol\":14546:14554  treasury */\n      0x03\n      dup1\n      sload\n        /* \"TRUSTFY v4.3 \\xe2\\x80\\x94 Contract.sol\":14556:14565  ad.adBond */\n      swap1\n      dup3\n      add\n      sload\n        /* \"TRUSTFY v4.3 \\xe2\\x80\\x94 Contract.sol\":14546:14554  treasury */\n      0x01\n        /* \"TRUSTFY v4.3 \\xe2\\x80\\x94 Contract.sol\":14523:14531  ad.token */\n      dup4\n      add\n      sload\n        /* \"TRUSTFY v4.3 \\xe2\\x80\\x94 Contract.sol\":14516:14566  IERC20(ad.token).safeTransfer(treasury, ad.adBond) */\n      tag_230\n      swap3\n      sub(shl(0xa0, 0x01), 0x01)\n        /* \"TRUSTFY v4.3 \\xe2\\x80\\x94 Contract.sol\":14523:14531  ad.token */\n      swap2\n      dup3\n      and\n      swap3\n        /* \"TRUSTFY v4.3 \\xe2\\x80\\x94 Contract.sol\":14546:14554  treasury */\n      swap2\n      and\n      swap1\n        /* \"TRUSTFY v4.3 \\xe2\\x80\\x94 Contract.sol\":14516:14545  IERC20(ad.token).safeTransfer */\n      tag_202\n        /* \"TRUSTFY v4.3 \\xe2\\x80\\x94 Contract.sol\":14516:14566  IERC20(ad.token).safeTransfer(treasury, ad.adBond) */\n      jump\t// in\n    tag_230:\n        /* \"TRUSTFY v4.3 \\xe2\\x80\\x94 Contract.sol\":14592:14593  0 */\n      0x00\n        /* \"TRUSTFY v4.3 \\xe2\\x80\\x94 Contract.sol\":14580:14589  ad.adBond */\n      0x03\n      dup3\n      add\n        /* \"TRUSTFY v4.3 \\xe2\\x80\\x94 Contract.sol\":14580:14593  ad.adBond = 0 */\n      sstore\n        /* \"TRUSTFY v4.3 \\xe2\\x80\\x94 Contract.sol\":14483:14604  if (ad.adBond > 0) {... */\n    tag_229:\n        /* \"TRUSTFY v4.3 \\xe2\\x80\\x94 Contract.sol\":14619:14636  AdCancelled(adId) */\n      mload(0x40)\n        /* \"TRUSTFY v4.3 \\xe2\\x80\\x94 Contract.sol\":14631:14635  adId */\n      dup3\n      swap1\n        /* \"TRUSTFY v4.3 \\xe2\\x80\\x94 Contract.sol\":14619:14636  AdCancelled(adId) */\n      0x20e953810446bfec422c45a49b30c7b446bc121960d6568e36a20016140f86b7\n      swap1\n      0x00\n      swap1\n      log2\n        /* \"TRUSTFY v4.3 \\xe2\\x80\\x94 Contract.sol\":14130:14643  {... */\n      pop\n        /* \"TRUSTFY v4.3 \\xe2\\x80\\x94 Contract.sol\":14089:14643  function cancelAd(uint256 adId) external {... */\n      pop\n      jump\t// out\n        /* \"TRUSTFY v4.3 \\xe2\\x80\\x94 Contract.sol\":8890:9042  function setAdmin(address account, bool enabled) external onlyOwner {... */\n    tag_80:\n        /* \"TRUSTFY v4.3 \\xe2\\x80\\x94 Contract.sol\":8108:8113  owner */\n      sload(0x00)\n        /* \"TRUSTFY v4.3 \\xe2\\x80\\x94 Contract.sol\":8115:8128  ERR_NOT_OWNER */\n      0x40\n      dup1\n      mload\n      dup1\n      dup3\n      add\n      swap1\n      swap2\n      mstore\n      0x09\n      dup2\n      mstore\n      shl(0xb9, 0x2727aa2fa7aba722a9)\n      0x20\n      dup3\n      add\n      mstore\n      swap1\n      sub(shl(0xa0, 0x01), 0x01)\n        /* \"TRUSTFY v4.3 \\xe2\\x80\\x94 Contract.sol\":8108:8113  owner */\n      and\n        /* \"TRUSTFY v4.3 \\xe2\\x80\\x94 Contract.sol\":8094:8104  msg.sender */\n      caller\n        /* \"TRUSTFY v4.3 \\xe2\\x80\\x94 Contract.sol\":8094:8113  msg.sender == owner */\n      eq\n        /* \"TRUSTFY v4.3 \\xe2\\x80\\x94 Contract.sol\":8086:8129  require(msg.sender == owner, ERR_NOT_OWNER) */\n      tag_232\n      jumpi\n      mload(0x40)\n      shl(0xe5, 0x461bcd)\n      dup2\n      mstore\n      0x04\n      add\n      tag_153\n      swap2\n      swap1\n      tag_162\n      jump\t// in\n    tag_232:\n      pop\n      sub(shl(0xa0, 0x01), 0x01)\n        /* \"TRUSTFY v4.3 \\xe2\\x80\\x94 Contract.sol\":8968:8984  isAdmin[account] */\n      dup3\n      and\n      0x00\n      dup2\n      dup2\n      mstore\n        /* \"TRUSTFY v4.3 \\xe2\\x80\\x94 Contract.sol\":8968:8975  isAdmin */\n      0x01\n        /* \"TRUSTFY v4.3 \\xe2\\x80\\x94 Contract.sol\":8968:8984  isAdmin[account] */\n      0x20\n      swap1\n      dup2\n      mstore\n      0x40\n      swap2\n      dup3\n      swap1\n      keccak256\n        /* \"TRUSTFY v4.3 \\xe2\\x80\\x94 Contract.sol\":8968:8994  isAdmin[account] = enabled */\n      dup1\n      sload\n      not(0xff)\n      and\n      dup6\n      iszero\n      iszero\n      swap1\n      dup2\n      or\n      swap1\n      swap2\n      sstore\n        /* \"TRUSTFY v4.3 \\xe2\\x80\\x94 Contract.sol\":9009:9035  AdminSet(account, enabled) */\n      swap2\n      mload\n        /* \"#utility.yul\":3253:3294   */\n      swap2\n      dup3\n      mstore\n        /* \"TRUSTFY v4.3 \\xe2\\x80\\x94 Contract.sol\":9009:9035  AdminSet(account, enabled) */\n      0xe68d2c359a771606c400cf8b87000cf5864010363d6a736e98f5047b7bbe18e9\n      swap2\n        /* \"#utility.yul\":3226:3244   */\n      add\n        /* \"TRUSTFY v4.3 \\xe2\\x80\\x94 Contract.sol\":9009:9035  AdminSet(account, enabled) */\n      tag_176\n        /* \"#utility.yul\":3113:3300   */\n      jump\n        /* \"TRUSTFY v4.3 \\xe2\\x80\\x94 Contract.sol\":9426:10120  function setTokenConfig(address token, TokenConfig calldata cfg) external onlyAdminOrOwner {... */\n    tag_84:\n        /* \"TRUSTFY v4.3 \\xe2\\x80\\x94 Contract.sol\":8213:8218  owner */\n      and(sub(shl(0xa0, 0x01), 0x01), sload(0x00))\n        /* \"TRUSTFY v4.3 \\xe2\\x80\\x94 Contract.sol\":8199:8209  msg.sender */\n      caller\n        /* \"TRUSTFY v4.3 \\xe2\\x80\\x94 Contract.sol\":8199:8218  msg.sender == owner */\n      eq\n      dup1\n        /* \"TRUSTFY v4.3 \\xe2\\x80\\x94 Contract.sol\":8199:8241  msg.sender == owner || isAdmin[msg.sender] */\n      tag_237\n      jumpi\n      pop\n        /* \"TRUSTFY v4.3 \\xe2\\x80\\x94 Contract.sol\":8230:8240  msg.sender */\n      caller\n        /* \"TRUSTFY v4.3 \\xe2\\x80\\x94 Contract.sol\":8222:8241  isAdmin[msg.sender] */\n      0x00\n      swap1\n      dup2\n      mstore\n        /* \"TRUSTFY v4.3 \\xe2\\x80\\x94 Contract.sol\":8222:8229  isAdmin */\n      0x01\n        /* \"TRUSTFY v4.3 \\xe2\\x80\\x94 Contract.sol\":8222:8241  isAdmin[msg.sender] */\n      0x20\n      mstore\n      0x40\n      swap1\n      keccak256\n      sload\n      0xff\n      and\n        /* \"TRUSTFY v4.3 \\xe2\\x80\\x94 Contract.sol\":8199:8241  msg.sender == owner || isAdmin[msg.sender] */\n    tag_237:\n        /* \"TRUSTFY v4.3 \\xe2\\x80\\x94 Contract.sol\":8243:8256  ERR_NOT_ADMIN */\n      mload(0x40)\n      dup1\n      0x40\n      add\n      0x40\n      mstore\n      dup1\n      0x09\n      dup2\n      mstore\n      0x20\n      add\n      shl(0xb9, 0x2727aa2fa0a226a4a7)\n      dup2\n      mstore\n      pop\n        /* \"TRUSTFY v4.3 \\xe2\\x80\\x94 Contract.sol\":8191:8257  require(msg.sender == owner || isAdmin[msg.sender], ERR_NOT_ADMIN) */\n      swap1\n      tag_238\n      jumpi\n      mload(0x40)\n      shl(0xe5, 0x461bcd)\n      dup2\n      mstore\n      0x04\n      add\n      tag_153\n      swap2\n      swap1\n      tag_162\n      jump\t// in\n    tag_238:\n      pop\n      sub(shl(0xa0, 0x01), 0x01)\n        /* \"TRUSTFY v4.3 \\xe2\\x80\\x94 Contract.sol\":9535:9554  token != address(0) */\n      dup3\n      and\n        /* \"TRUSTFY v4.3 \\xe2\\x80\\x94 Contract.sol\":9527:9569  require(token != address(0), \"ZERO_TOKEN\") */\n      tag_241\n      jumpi\n      mload(0x40)\n      shl(0xe5, 0x461bcd)\n      dup2\n      mstore\n      0x04\n      add\n      tag_153\n      swap1\n      tag_243\n      jump\t// in\n    tag_241:\n        /* \"TRUSTFY v4.3 \\xe2\\x80\\x94 Contract.sol\":9606:9612  10_000 */\n      0x2710\n        /* \"TRUSTFY v4.3 \\xe2\\x80\\x94 Contract.sol\":9587:9602  cfg.makerFeeBps */\n      tag_244\n      0x40\n      dup4\n      add\n      0x20\n      dup5\n      add\n      tag_245\n      jump\t// in\n    tag_244:\n        /* \"TRUSTFY v4.3 \\xe2\\x80\\x94 Contract.sol\":9587:9612  cfg.makerFeeBps <= 10_000 */\n      0xffff\n      and\n      gt\n      iszero\n        /* \"TRUSTFY v4.3 \\xe2\\x80\\x94 Contract.sol\":9587:9641  cfg.makerFeeBps <= 10_000 && cfg.takerFeeBps <= 10_000 */\n      dup1\n      iszero\n      tag_246\n      jumpi\n      pop\n        /* \"TRUSTFY v4.3 \\xe2\\x80\\x94 Contract.sol\":9635:9641  10_000 */\n      0x2710\n        /* \"TRUSTFY v4.3 \\xe2\\x80\\x94 Contract.sol\":9616:9631  cfg.takerFeeBps */\n      tag_247\n      0x60\n      dup4\n      add\n      0x40\n      dup5\n      add\n      tag_245\n      jump\t// in\n    tag_247:\n        /* \"TRUSTFY v4.3 \\xe2\\x80\\x94 Contract.sol\":9616:9641  cfg.takerFeeBps <= 10_000 */\n      0xffff\n      and\n      gt\n      iszero\n        /* \"TRUSTFY v4.3 \\xe2\\x80\\x94 Contract.sol\":9587:9641  cfg.makerFeeBps <= 10_000 && cfg.takerFeeBps <= 10_000 */\n    tag_246:\n        /* \"TRUSTFY v4.3 \\xe2\\x80\\x94 Contract.sol\":9643:9654  ERR_BAD_BPS */\n      mload(0x40)\n      dup1\n      0x40\n      add\n      0x40\n      mstore\n      dup1\n      0x07\n      dup2\n      mstore\n      0x20\n      add\n      shl(0xc8, 0x4241445f425053)\n      dup2\n      mstore\n      pop\n        /* \"TRUSTFY v4.3 \\xe2\\x80\\x94 Contract.sol\":9579:9655  require(cfg.makerFeeBps <= 10_000 && cfg.takerFeeBps <= 10_000, ERR_BAD_BPS) */\n      swap1\n      tag_248\n      jumpi\n      mload(0x40)\n      shl(0xe5, 0x461bcd)\n      dup2\n      mstore\n      0x04\n      add\n      tag_153\n      swap2\n      swap1\n      tag_162\n      jump\t// in\n    tag_248:\n      pop\n        /* \"TRUSTFY v4.3 \\xe2\\x80\\x94 Contract.sol\":9695:9701  10_000 */\n      0x2710\n        /* \"TRUSTFY v4.3 \\xe2\\x80\\x94 Contract.sol\":9673:9691  cfg.disputeBondBps */\n      tag_250\n      0x80\n      dup4\n      add\n      0x60\n      dup5\n      add\n      tag_245\n      jump\t// in\n    tag_250:\n        /* \"TRUSTFY v4.3 \\xe2\\x80\\x94 Contract.sol\":9673:9701  cfg.disputeBondBps <= 10_000 */\n      0xffff\n      and\n      gt\n      iszero\n        /* \"TRUSTFY v4.3 \\xe2\\x80\\x94 Contract.sol\":9673:9728  cfg.disputeBondBps <= 10_000 && cfg.adBondBps <= 10_000 */\n      dup1\n      iszero\n      tag_251\n      jumpi\n      pop\n        /* \"TRUSTFY v4.3 \\xe2\\x80\\x94 Contract.sol\":9722:9728  10_000 */\n      0x2710\n        /* \"TRUSTFY v4.3 \\xe2\\x80\\x94 Contract.sol\":9705:9718  cfg.adBondBps */\n      tag_252\n      0xc0\n      dup4\n      add\n      0xa0\n      dup5\n      add\n      tag_245\n      jump\t// in\n    tag_252:\n        /* \"TRUSTFY v4.3 \\xe2\\x80\\x94 Contract.sol\":9705:9728  cfg.adBondBps <= 10_000 */\n      0xffff\n      and\n      gt\n      iszero\n        /* \"TRUSTFY v4.3 \\xe2\\x80\\x94 Contract.sol\":9673:9728  cfg.disputeBondBps <= 10_000 && cfg.adBondBps <= 10_000 */\n    tag_251:\n        /* \"TRUSTFY v4.3 \\xe2\\x80\\x94 Contract.sol\":9730:9741  ERR_BAD_BPS */\n      mload(0x40)\n      dup1\n      0x40\n      add\n      0x40\n      mstore\n      dup1\n      0x07\n      dup2\n      mstore\n      0x20\n      add\n      shl(0xc8, 0x4241445f425053)\n      dup2\n      mstore\n      pop\n        /* \"TRUSTFY v4.3 \\xe2\\x80\\x94 Contract.sol\":9665:9742  require(cfg.disputeBondBps <= 10_000 && cfg.adBondBps <= 10_000, ERR_BAD_BPS) */\n      swap1\n      tag_253\n      jumpi\n      mload(0x40)\n      shl(0xe5, 0x461bcd)\n      dup2\n      mstore\n      0x04\n      add\n      tag_153\n      swap2\n      swap1\n      tag_162\n      jump\t// in\n    tag_253:\n      pop\n      sub(shl(0xa0, 0x01), 0x01)\n        /* \"TRUSTFY v4.3 \\xe2\\x80\\x94 Contract.sol\":9752:9770  tokenConfig[token] */\n      dup3\n      and\n      0x00\n      swap1\n      dup2\n      mstore\n        /* \"TRUSTFY v4.3 \\xe2\\x80\\x94 Contract.sol\":9752:9763  tokenConfig */\n      0x04\n        /* \"TRUSTFY v4.3 \\xe2\\x80\\x94 Contract.sol\":9752:9770  tokenConfig[token] */\n      0x20\n      mstore\n      0x40\n      swap1\n      keccak256\n        /* \"TRUSTFY v4.3 \\xe2\\x80\\x94 Contract.sol\":9773:9776  cfg */\n      dup2\n      swap1\n        /* \"TRUSTFY v4.3 \\xe2\\x80\\x94 Contract.sol\":9752:9776  tokenConfig[token] = cfg */\n      tag_255\n        /* \"TRUSTFY v4.3 \\xe2\\x80\\x94 Contract.sol\":9773:9776  cfg */\n      dup3\n        /* \"TRUSTFY v4.3 \\xe2\\x80\\x94 Contract.sol\":9752:9770  tokenConfig[token] */\n      dup3\n        /* \"TRUSTFY v4.3 \\xe2\\x80\\x94 Contract.sol\":9752:9776  tokenConfig[token] = cfg */\n      tag_256\n      jump\t// in\n    tag_255:\n      pop\n      pop\n      sub(shl(0xa0, 0x01), 0x01)\n        /* \"TRUSTFY v4.3 \\xe2\\x80\\x94 Contract.sol\":9792:10113  TokenConfigSet(... */\n      dup3\n      and\n      0x70df9bd9c5e9a1b5a52a86b9de9d2a79b37dbdbbaab91477d59f86d2502bbad1\n        /* \"TRUSTFY v4.3 \\xe2\\x80\\x94 Contract.sol\":9839:9850  cfg.enabled */\n      tag_257\n      0x20\n      dup5\n      add\n        /* \"TRUSTFY v4.3 \\xe2\\x80\\x94 Contract.sol\":9839:9842  cfg */\n      dup5\n        /* \"TRUSTFY v4.3 \\xe2\\x80\\x94 Contract.sol\":9839:9850  cfg.enabled */\n      tag_258\n      jump\t// in\n    tag_257:\n        /* \"TRUSTFY v4.3 \\xe2\\x80\\x94 Contract.sol\":9864:9879  cfg.makerFeeBps */\n      tag_259\n      0x40\n      dup6\n      add\n      0x20\n      dup7\n      add\n      tag_245\n      jump\t// in\n    tag_259:\n        /* \"TRUSTFY v4.3 \\xe2\\x80\\x94 Contract.sol\":9893:9908  cfg.takerFeeBps */\n      tag_260\n      0x60\n      dup7\n      add\n      0x40\n      dup8\n      add\n      tag_245\n      jump\t// in\n    tag_260:\n        /* \"TRUSTFY v4.3 \\xe2\\x80\\x94 Contract.sol\":9922:9940  cfg.disputeBondBps */\n      tag_261\n      0x80\n      dup8\n      add\n      0x60\n      dup9\n      add\n      tag_245\n      jump\t// in\n    tag_261:\n        /* \"TRUSTFY v4.3 \\xe2\\x80\\x94 Contract.sol\":9954:9969  cfg.adBondFixed */\n      0x80\n      dup8\n      add\n      calldataload\n        /* \"TRUSTFY v4.3 \\xe2\\x80\\x94 Contract.sol\":9983:9996  cfg.adBondBps */\n      tag_262\n      0xc0\n      dup10\n      add\n      0xa0\n      dup11\n      add\n      tag_245\n      jump\t// in\n    tag_262:\n        /* \"TRUSTFY v4.3 \\xe2\\x80\\x94 Contract.sol\":10010:10030  cfg.sellerFundWindow */\n      tag_263\n      0xe0\n      dup11\n      add\n      0xc0\n      dup12\n      add\n      tag_264\n      jump\t// in\n    tag_263:\n        /* \"TRUSTFY v4.3 \\xe2\\x80\\x94 Contract.sol\":10044:10066  cfg.buyerConfirmWindow */\n      tag_265\n      0x0100\n      dup12\n      add\n      0xe0\n      dup13\n      add\n      tag_264\n      jump\t// in\n    tag_265:\n        /* \"TRUSTFY v4.3 \\xe2\\x80\\x94 Contract.sol\":10080:10103  cfg.sellerReleaseWindow */\n      tag_266\n      0x0120\n      dup13\n      add\n      0x0100\n      dup14\n      add\n      tag_264\n      jump\t// in\n    tag_266:\n        /* \"TRUSTFY v4.3 \\xe2\\x80\\x94 Contract.sol\":9792:10113  TokenConfigSet(... */\n      mload(0x40)\n      tag_176\n      swap10\n      swap9\n      swap8\n      swap7\n      swap6\n      swap5\n      swap4\n      swap3\n      swap2\n      swap1\n      tag_150\n      jump\t// in\n        /* \"TRUSTFY v4.3 \\xe2\\x80\\x94 Contract.sol\":12883:13629  function createAd(bool isSellAd, address token, uint256 amount) external returns (uint256 adId) {... */\n    tag_88:\n        /* \"TRUSTFY v4.3 \\xe2\\x80\\x94 Contract.sol\":12965:12977  uint256 adId */\n      0x00\n      sub(shl(0xa0, 0x01), 0x01)\n        /* \"TRUSTFY v4.3 \\xe2\\x80\\x94 Contract.sol\":12997:13016  token != address(0) */\n      dup4\n      and\n        /* \"TRUSTFY v4.3 \\xe2\\x80\\x94 Contract.sol\":12989:13031  require(token != address(0), \"ZERO_TOKEN\") */\n      tag_269\n      jumpi\n      mload(0x40)\n      shl(0xe5, 0x461bcd)\n      dup2\n      mstore\n      0x04\n      add\n      tag_153\n      swap1\n      tag_243\n      jump\t// in\n    tag_269:\n        /* \"TRUSTFY v4.3 \\xe2\\x80\\x94 Contract.sol\":13058:13059  0 */\n      0x00\n        /* \"TRUSTFY v4.3 \\xe2\\x80\\x94 Contract.sol\":13049:13055  amount */\n      dup3\n        /* \"TRUSTFY v4.3 \\xe2\\x80\\x94 Contract.sol\":13049:13059  amount > 0 */\n      gt\n        /* \"TRUSTFY v4.3 \\xe2\\x80\\x94 Contract.sol\":13041:13075  require(amount > 0, \"ZERO_AMOUNT\") */\n      tag_271\n      jumpi\n      mload(0x40)\n      shl(0xe5, 0x461bcd)\n      dup2\n      mstore\n      0x04\n      add\n      tag_153\n      swap1\n      tag_273\n      jump\t// in\n    tag_271:\n        /* \"TRUSTFY v4.3 \\xe2\\x80\\x94 Contract.sol\":13085:13096  _cfg(token) */\n      tag_274\n        /* \"TRUSTFY v4.3 \\xe2\\x80\\x94 Contract.sol\":13090:13095  token */\n      dup4\n        /* \"TRUSTFY v4.3 \\xe2\\x80\\x94 Contract.sol\":13085:13089  _cfg */\n      tag_187\n        /* \"TRUSTFY v4.3 \\xe2\\x80\\x94 Contract.sol\":13085:13096  _cfg(token) */\n      jump\t// in\n    tag_274:\n      pop\n        /* \"TRUSTFY v4.3 \\xe2\\x80\\x94 Contract.sol\":13126:13138  uint256 bond */\n      0x00\n        /* \"TRUSTFY v4.3 \\xe2\\x80\\x94 Contract.sol\":13141:13163  _adBond(token, amount) */\n      tag_275\n        /* \"TRUSTFY v4.3 \\xe2\\x80\\x94 Contract.sol\":13149:13154  token */\n      dup5\n        /* \"TRUSTFY v4.3 \\xe2\\x80\\x94 Contract.sol\":13156:13162  amount */\n      dup5\n        /* \"TRUSTFY v4.3 \\xe2\\x80\\x94 Contract.sol\":13141:13148  _adBond */\n      tag_276\n        /* \"TRUSTFY v4.3 \\xe2\\x80\\x94 Contract.sol\":13141:13163  _adBond(token, amount) */\n      jump\t// in\n    tag_275:\n        /* \"TRUSTFY v4.3 \\xe2\\x80\\x94 Contract.sol\":13126:13163  uint256 bond = _adBond(token, amount) */\n      swap1\n      pop\n        /* \"TRUSTFY v4.3 \\xe2\\x80\\x94 Contract.sol\":13177:13185  bond > 0 */\n      dup1\n      iszero\n        /* \"TRUSTFY v4.3 \\xe2\\x80\\x94 Contract.sol\":13173:13275  if (bond > 0) {... */\n      tag_278\n      jumpi\n        /* \"TRUSTFY v4.3 \\xe2\\x80\\x94 Contract.sol\":13201:13264  IERC20(token).safeTransferFrom(msg.sender, address(this), bond) */\n      tag_278\n      sub(shl(0xa0, 0x01), 0x01)\n        /* \"TRUSTFY v4.3 \\xe2\\x80\\x94 Contract.sol\":13201:13231  IERC20(token).safeTransferFrom */\n      dup6\n      and\n        /* \"TRUSTFY v4.3 \\xe2\\x80\\x94 Contract.sol\":13232:13242  msg.sender */\n      caller\n        /* \"TRUSTFY v4.3 \\xe2\\x80\\x94 Contract.sol\":13252:13256  this */\n      address\n        /* \"TRUSTFY v4.3 \\xe2\\x80\\x94 Contract.sol\":13259:13263  bond */\n      dup5\n        /* \"TRUSTFY v4.3 \\xe2\\x80\\x94 Contract.sol\":13201:13231  IERC20(token).safeTransferFrom */\n      tag_279\n        /* \"TRUSTFY v4.3 \\xe2\\x80\\x94 Contract.sol\":13201:13264  IERC20(token).safeTransferFrom(msg.sender, address(this), bond) */\n      jump\t// in\n    tag_278:\n        /* \"TRUSTFY v4.3 \\xe2\\x80\\x94 Contract.sol\":13292:13300  nextAdId */\n      0x06\n        /* \"TRUSTFY v4.3 \\xe2\\x80\\x94 Contract.sol\":13292:13302  nextAdId++ */\n      dup1\n      sload\n      swap1\n        /* \"TRUSTFY v4.3 \\xe2\\x80\\x94 Contract.sol\":13292:13300  nextAdId */\n      0x00\n        /* \"TRUSTFY v4.3 \\xe2\\x80\\x94 Contract.sol\":13292:13302  nextAdId++ */\n      tag_280\n      dup4\n      tag_281\n      jump\t// in\n    tag_280:\n      swap2\n      swap1\n      pop\n      sstore\n        /* \"TRUSTFY v4.3 \\xe2\\x80\\x94 Contract.sol\":13285:13302  adId = nextAdId++ */\n      swap2\n      pop\n        /* \"TRUSTFY v4.3 \\xe2\\x80\\x94 Contract.sol\":13324:13548  Ad({... */\n      mload(0x40)\n      dup1\n      0xe0\n      add\n      0x40\n      mstore\n      dup1\n        /* \"TRUSTFY v4.3 \\xe2\\x80\\x94 Contract.sol\":13348:13358  msg.sender */\n      caller\n      sub(shl(0xa0, 0x01), 0x01)\n        /* \"TRUSTFY v4.3 \\xe2\\x80\\x94 Contract.sol\":13324:13548  Ad({... */\n      and\n      dup2\n      mstore\n      0x20\n      add\n        /* \"TRUSTFY v4.3 \\xe2\\x80\\x94 Contract.sol\":13382:13390  isSellAd */\n      dup7\n        /* \"TRUSTFY v4.3 \\xe2\\x80\\x94 Contract.sol\":13324:13548  Ad({... */\n      iszero\n      iszero\n      dup2\n      mstore\n      0x20\n      add\n        /* \"TRUSTFY v4.3 \\xe2\\x80\\x94 Contract.sol\":13411:13416  token */\n      dup6\n      sub(shl(0xa0, 0x01), 0x01)\n        /* \"TRUSTFY v4.3 \\xe2\\x80\\x94 Contract.sol\":13324:13548  Ad({... */\n      and\n      dup2\n      mstore\n      0x20\n      add\n        /* \"TRUSTFY v4.3 \\xe2\\x80\\x94 Contract.sol\":13438:13444  amount */\n      dup5\n        /* \"TRUSTFY v4.3 \\xe2\\x80\\x94 Contract.sol\":13324:13548  Ad({... */\n      dup2\n      mstore\n      0x20\n      add\n        /* \"TRUSTFY v4.3 \\xe2\\x80\\x94 Contract.sol\":13466:13470  bond */\n      dup3\n        /* \"TRUSTFY v4.3 \\xe2\\x80\\x94 Contract.sol\":13324:13548  Ad({... */\n      dup2\n      mstore\n      0x20\n      add\n        /* \"TRUSTFY v4.3 \\xe2\\x80\\x94 Contract.sol\":13491:13506  AdState.CREATED */\n      0x00\n        /* \"TRUSTFY v4.3 \\xe2\\x80\\x94 Contract.sol\":13324:13548  Ad({... */\n      0x03\n      dup2\n      gt\n      iszero\n      tag_283\n      jumpi\n      tag_283\n      tag_157\n      jump\t// in\n    tag_283:\n      dup2\n      mstore\n        /* \"TRUSTFY v4.3 \\xe2\\x80\\x94 Contract.sol\":13536:13537  0 */\n      0x00\n        /* \"TRUSTFY v4.3 \\xe2\\x80\\x94 Contract.sol\":13324:13548  Ad({... */\n      0x20\n      swap2\n      dup3\n      add\n      dup2\n      swap1\n      mstore\n        /* \"TRUSTFY v4.3 \\xe2\\x80\\x94 Contract.sol\":13312:13321  ads[adId] */\n      dup5\n      dup2\n      mstore\n        /* \"TRUSTFY v4.3 \\xe2\\x80\\x94 Contract.sol\":13312:13315  ads */\n      0x08\n        /* \"TRUSTFY v4.3 \\xe2\\x80\\x94 Contract.sol\":13312:13321  ads[adId] */\n      dup3\n      mstore\n      0x40\n      swap1\n      dup2\n      swap1\n      keccak256\n        /* \"TRUSTFY v4.3 \\xe2\\x80\\x94 Contract.sol\":13312:13548  ads[adId] = Ad({... */\n      dup4\n      mload\n      dup2\n      sload\n      swap4\n      dup6\n      add\n      mload\n      iszero\n      iszero\n      shl(0xa0, 0x01)\n      mul\n      not(sub(shl(0xa8, 0x01), 0x01))\n      swap1\n      swap5\n      and\n      sub(shl(0xa0, 0x01), 0x01)\n      swap2\n      dup3\n      and\n      or\n      swap4\n      swap1\n      swap4\n      or\n      dup2\n      sstore\n      swap1\n      dup4\n      add\n      mload\n      0x01\n      dup1\n      dup4\n      add\n      dup1\n      sload\n      swap3\n      swap1\n      swap5\n      and\n      not(sub(shl(0xa0, 0x01), 0x01))\n      swap3\n      swap1\n      swap3\n      and\n      swap2\n      swap1\n      swap2\n      or\n      swap1\n      swap3\n      sstore\n      0x60\n      dup4\n      add\n      mload\n      0x02\n      dup3\n      add\n      sstore\n      0x80\n      dup4\n      add\n      mload\n      0x03\n      dup1\n      dup4\n      add\n      swap2\n      swap1\n      swap2\n      sstore\n      0xa0\n      dup5\n      add\n      mload\n      0x04\n      dup4\n      add\n      dup1\n      sload\n        /* \"TRUSTFY v4.3 \\xe2\\x80\\x94 Contract.sol\":13312:13321  ads[adId] */\n      swap4\n      swap5\n        /* \"TRUSTFY v4.3 \\xe2\\x80\\x94 Contract.sol\":13312:13548  ads[adId] = Ad({... */\n      swap2\n      swap4\n      swap1\n      swap3\n      not(0xff)\n      swap1\n      swap2\n      and\n      swap2\n      swap1\n      dup5\n      swap1\n      dup2\n      gt\n      iszero\n      tag_285\n      jumpi\n      tag_285\n      tag_157\n      jump\t// in\n    tag_285:\n      mul\n      or\n      swap1\n      sstore\n      pop\n      0xc0\n      swap2\n      swap1\n      swap2\n      add\n      mload\n      0x05\n      swap1\n      swap2\n      add\n      sstore\n        /* \"TRUSTFY v4.3 \\xe2\\x80\\x94 Contract.sol\":13564:13622  AdCreated(adId, msg.sender, isSellAd, token, amount, bond) */\n      0x40\n      dup1\n      mload\n        /* \"#utility.yul\":14312:14326   */\n      dup7\n      iszero\n        /* \"#utility.yul\":14305:14327   */\n      iszero\n        /* \"#utility.yul\":14287:14328   */\n      dup2\n      mstore\n        /* \"#utility.yul\":14359:14361   */\n      0x20\n        /* \"#utility.yul\":14344:14362   */\n      dup2\n      add\n        /* \"#utility.yul\":14337:14371   */\n      dup6\n      swap1\n      mstore\n        /* \"#utility.yul\":14387:14405   */\n      swap1\n      dup2\n      add\n        /* \"#utility.yul\":14380:14414   */\n      dup3\n      swap1\n      mstore\n      sub(shl(0xa0, 0x01), 0x01)\n        /* \"TRUSTFY v4.3 \\xe2\\x80\\x94 Contract.sol\":13564:13622  AdCreated(adId, msg.sender, isSellAd, token, amount, bond) */\n      dup6\n      and\n      swap1\n        /* \"TRUSTFY v4.3 \\xe2\\x80\\x94 Contract.sol\":13580:13590  msg.sender */\n      caller\n      swap1\n        /* \"TRUSTFY v4.3 \\xe2\\x80\\x94 Contract.sol\":13574:13578  adId */\n      dup5\n      swap1\n        /* \"TRUSTFY v4.3 \\xe2\\x80\\x94 Contract.sol\":13564:13622  AdCreated(adId, msg.sender, isSellAd, token, amount, bond) */\n      0x636b1ad28db834fa17206311cfa78045878f0a5be34081a2213975144e70b55b\n      swap1\n        /* \"#utility.yul\":14275:14277   */\n      0x60\n        /* \"#utility.yul\":14260:14278   */\n      add\n        /* \"TRUSTFY v4.3 \\xe2\\x80\\x94 Contract.sol\":13564:13622  AdCreated(adId, msg.sender, isSellAd, token, amount, bond) */\n      mload(0x40)\n      dup1\n      swap2\n      sub\n      swap1\n      log4\n        /* \"TRUSTFY v4.3 \\xe2\\x80\\x94 Contract.sol\":12979:13629  {... */\n      pop\n        /* \"TRUSTFY v4.3 \\xe2\\x80\\x94 Contract.sol\":12883:13629  function createAd(bool isSellAd, address token, uint256 amount) external returns (uint256 adId) {... */\n      swap4\n      swap3\n      pop\n      pop\n      pop\n      jump\t// out\n        /* \"TRUSTFY v4.3 \\xe2\\x80\\x94 Contract.sol\":10224:10672  function withdrawCredit(address token, uint256 amount) external {... */\n    tag_93:\n      sub(shl(0xa0, 0x01), 0x01)\n        /* \"TRUSTFY v4.3 \\xe2\\x80\\x94 Contract.sol\":10306:10325  token != address(0) */\n      dup3\n      and\n        /* \"TRUSTFY v4.3 \\xe2\\x80\\x94 Contract.sol\":10298:10340  require(token != address(0), \"ZERO_TOKEN\") */\n      tag_289\n      jumpi\n      mload(0x40)\n      shl(0xe5, 0x461bcd)\n      dup2\n      mstore\n      0x04\n      add\n      tag_153\n      swap1\n      tag_243\n      jump\t// in\n    tag_289:\n        /* \"TRUSTFY v4.3 \\xe2\\x80\\x94 Contract.sol\":10367:10368  0 */\n      0x00\n        /* \"TRUSTFY v4.3 \\xe2\\x80\\x94 Contract.sol\":10358:10364  amount */\n      dup2\n        /* \"TRUSTFY v4.3 \\xe2\\x80\\x94 Contract.sol\":10358:10368  amount > 0 */\n      gt\n        /* \"TRUSTFY v4.3 \\xe2\\x80\\x94 Contract.sol\":10350:10384  require(amount > 0, \"ZERO_AMOUNT\") */\n      tag_291\n      jumpi\n      mload(0x40)\n      shl(0xe5, 0x461bcd)\n      dup2\n      mstore\n      0x04\n      add\n      tag_153\n      swap1\n      tag_273\n      jump\t// in\n    tag_291:\n        /* \"TRUSTFY v4.3 \\xe2\\x80\\x94 Contract.sol\":10422:10432  msg.sender */\n      caller\n        /* \"TRUSTFY v4.3 \\xe2\\x80\\x94 Contract.sol\":10394:10405  uint256 bal */\n      0x00\n        /* \"TRUSTFY v4.3 \\xe2\\x80\\x94 Contract.sol\":10408:10433  creditBalance[msg.sender] */\n      swap1\n      dup2\n      mstore\n        /* \"TRUSTFY v4.3 \\xe2\\x80\\x94 Contract.sol\":10408:10421  creditBalance */\n      0x05\n        /* \"TRUSTFY v4.3 \\xe2\\x80\\x94 Contract.sol\":10408:10433  creditBalance[msg.sender] */\n      0x20\n      swap1\n      dup2\n      mstore\n      0x40\n      dup1\n      dup4\n      keccak256\n      sub(shl(0xa0, 0x01), 0x01)\n        /* \"TRUSTFY v4.3 \\xe2\\x80\\x94 Contract.sol\":10408:10440  creditBalance[msg.sender][token] */\n      dup7\n      and\n      dup5\n      mstore\n      swap1\n      swap2\n      mstore\n      swap1\n      keccak256\n      sload\n        /* \"TRUSTFY v4.3 \\xe2\\x80\\x94 Contract.sol\":10458:10471  bal >= amount */\n      dup2\n      dup2\n      lt\n      iszero\n        /* \"TRUSTFY v4.3 \\xe2\\x80\\x94 Contract.sol\":10450:10495  require(bal >= amount, \"INSUFFICIENT_CREDIT\") */\n      tag_293\n      jumpi\n      mload(0x40)\n      shl(0xe5, 0x461bcd)\n      dup2\n      mstore\n        /* \"#utility.yul\":14627:14629   */\n      0x20\n        /* \"TRUSTFY v4.3 \\xe2\\x80\\x94 Contract.sol\":10450:10495  require(bal >= amount, \"INSUFFICIENT_CREDIT\") */\n      0x04\n      dup3\n      add\n        /* \"#utility.yul\":14609:14630   */\n      mstore\n        /* \"#utility.yul\":14666:14668   */\n      0x13\n        /* \"#utility.yul\":14646:14664   */\n      0x24\n      dup3\n      add\n        /* \"#utility.yul\":14639:14669   */\n      mstore\n      shl(0x6a, 0x125394d551919250d251539517d0d491511255)\n        /* \"#utility.yul\":14685:14703   */\n      0x44\n      dup3\n      add\n        /* \"#utility.yul\":14678:14727   */\n      mstore\n        /* \"#utility.yul\":14744:14762   */\n      0x64\n      add\n        /* \"TRUSTFY v4.3 \\xe2\\x80\\x94 Contract.sol\":10450:10495  require(bal >= amount, \"INSUFFICIENT_CREDIT\") */\n      tag_153\n        /* \"#utility.yul\":14425:14768   */\n      jump\n        /* \"TRUSTFY v4.3 \\xe2\\x80\\x94 Contract.sol\":10450:10495  require(bal >= amount, \"INSUFFICIENT_CREDIT\") */\n    tag_293:\n        /* \"TRUSTFY v4.3 \\xe2\\x80\\x94 Contract.sol\":10540:10552  bal - amount */\n      tag_296\n        /* \"TRUSTFY v4.3 \\xe2\\x80\\x94 Contract.sol\":10546:10552  amount */\n      dup3\n        /* \"TRUSTFY v4.3 \\xe2\\x80\\x94 Contract.sol\":10540:10543  bal */\n      dup3\n        /* \"TRUSTFY v4.3 \\xe2\\x80\\x94 Contract.sol\":10540:10552  bal - amount */\n      tag_297\n      jump\t// in\n    tag_296:\n        /* \"TRUSTFY v4.3 \\xe2\\x80\\x94 Contract.sol\":10519:10529  msg.sender */\n      caller\n        /* \"TRUSTFY v4.3 \\xe2\\x80\\x94 Contract.sol\":10505:10530  creditBalance[msg.sender] */\n      0x00\n      dup2\n      dup2\n      mstore\n        /* \"TRUSTFY v4.3 \\xe2\\x80\\x94 Contract.sol\":10505:10518  creditBalance */\n      0x05\n        /* \"TRUSTFY v4.3 \\xe2\\x80\\x94 Contract.sol\":10505:10530  creditBalance[msg.sender] */\n      0x20\n      swap1\n      dup2\n      mstore\n      0x40\n      dup1\n      dup4\n      keccak256\n      sub(shl(0xa0, 0x01), 0x01)\n        /* \"TRUSTFY v4.3 \\xe2\\x80\\x94 Contract.sol\":10505:10537  creditBalance[msg.sender][token] */\n      dup10\n      and\n      dup1\n      dup6\n      mstore\n      swap3\n      mstore\n      swap1\n      swap2\n      keccak256\n        /* \"TRUSTFY v4.3 \\xe2\\x80\\x94 Contract.sol\":10505:10552  creditBalance[msg.sender][token] = bal - amount */\n      swap3\n      swap1\n      swap3\n      sstore\n        /* \"TRUSTFY v4.3 \\xe2\\x80\\x94 Contract.sol\":10562:10608  IERC20(token).safeTransfer(msg.sender, amount) */\n      tag_298\n      swap2\n        /* \"TRUSTFY v4.3 \\xe2\\x80\\x94 Contract.sol\":10505:10537  creditBalance[msg.sender][token] */\n      swap1\n        /* \"TRUSTFY v4.3 \\xe2\\x80\\x94 Contract.sol\":10601:10607  amount */\n      dup5\n        /* \"TRUSTFY v4.3 \\xe2\\x80\\x94 Contract.sol\":10562:10588  IERC20(token).safeTransfer */\n      tag_202\n        /* \"TRUSTFY v4.3 \\xe2\\x80\\x94 Contract.sol\":10562:10608  IERC20(token).safeTransfer(msg.sender, amount) */\n      jump\t// in\n    tag_298:\n        /* \"TRUSTFY v4.3 \\xe2\\x80\\x94 Contract.sol\":10623:10665  CreditWithdrawn(msg.sender, token, amount) */\n      mload(0x40)\n        /* \"#utility.yul\":2708:2733   */\n      dup3\n      dup2\n      mstore\n      sub(shl(0xa0, 0x01), 0x01)\n        /* \"TRUSTFY v4.3 \\xe2\\x80\\x94 Contract.sol\":10623:10665  CreditWithdrawn(msg.sender, token, amount) */\n      dup5\n      and\n      swap1\n        /* \"TRUSTFY v4.3 \\xe2\\x80\\x94 Contract.sol\":10639:10649  msg.sender */\n      caller\n      swap1\n        /* \"TRUSTFY v4.3 \\xe2\\x80\\x94 Contract.sol\":10623:10665  CreditWithdrawn(msg.sender, token, amount) */\n      0x52fc0f9d902f33823a83590d3549f63f5492a0df5c6b6db8dee20deb94456b26\n      swap1\n        /* \"#utility.yul\":2696:2698   */\n      0x20\n        /* \"#utility.yul\":2681:2699   */\n      add\n        /* \"TRUSTFY v4.3 \\xe2\\x80\\x94 Contract.sol\":10623:10665  CreditWithdrawn(msg.sender, token, amount) */\n      mload(0x40)\n      dup1\n      swap2\n      sub\n      swap1\n      log3\n        /* \"TRUSTFY v4.3 \\xe2\\x80\\x94 Contract.sol\":10288:10672  {... */\n      pop\n        /* \"TRUSTFY v4.3 \\xe2\\x80\\x94 Contract.sol\":10224:10672  function withdrawCredit(address token, uint256 amount) external {... */\n      pop\n      pop\n      jump\t// out\n        /* \"TRUSTFY v4.3 \\xe2\\x80\\x94 Contract.sol\":17531:18110  function confirmPayment(uint256 escrowId) external {... */\n    tag_100:\n        /* \"TRUSTFY v4.3 \\xe2\\x80\\x94 Contract.sol\":17592:17608  Escrow storage e */\n      0x00\n        /* \"TRUSTFY v4.3 \\xe2\\x80\\x94 Contract.sol\":17611:17628  escrows[escrowId] */\n      dup2\n      dup2\n      mstore\n        /* \"TRUSTFY v4.3 \\xe2\\x80\\x94 Contract.sol\":17611:17618  escrows */\n      0x09\n        /* \"TRUSTFY v4.3 \\xe2\\x80\\x94 Contract.sol\":17611:17628  escrows[escrowId] */\n      0x20\n      mstore\n      0x40\n      dup2\n      keccak256\n        /* \"TRUSTFY v4.3 \\xe2\\x80\\x94 Contract.sol\":17646:17652  e.adId */\n      dup1\n      sload\n        /* \"TRUSTFY v4.3 \\xe2\\x80\\x94 Contract.sol\":17611:17628  escrows[escrowId] */\n      swap1\n      swap2\n        /* \"TRUSTFY v4.3 \\xe2\\x80\\x94 Contract.sol\":17646:17657  e.adId != 0 */\n      sub\n        /* \"TRUSTFY v4.3 \\xe2\\x80\\x94 Contract.sol\":17638:17678  require(e.adId != 0, \"ESCROW_NOT_FOUND\") */\n      tag_301\n      jumpi\n      mload(0x40)\n      shl(0xe5, 0x461bcd)\n      dup2\n      mstore\n      0x04\n      add\n      tag_153\n      swap1\n      tag_154\n      jump\t// in\n    tag_301:\n        /* \"TRUSTFY v4.3 \\xe2\\x80\\x94 Contract.sol\":17708:17727  EscrowStatus.FUNDED */\n      0x02\n        /* \"TRUSTFY v4.3 \\xe2\\x80\\x94 Contract.sol\":17696:17704  e.status */\n      0x08\n      dup3\n      add\n      sload\n      0xff\n      and\n        /* \"TRUSTFY v4.3 \\xe2\\x80\\x94 Contract.sol\":17696:17727  e.status == EscrowStatus.FUNDED */\n      0x06\n      dup2\n      gt\n      iszero\n      tag_306\n      jumpi\n      tag_306\n      tag_157\n      jump\t// in\n    tag_306:\n      eq\n        /* \"TRUSTFY v4.3 \\xe2\\x80\\x94 Contract.sol\":17729:17742  ERR_BAD_STATE */\n      mload(0x40)\n      dup1\n      0x40\n      add\n      0x40\n      mstore\n      dup1\n      0x09\n      dup2\n      mstore\n      0x20\n      add\n      shl(0xb8, 0x4241445f5354415445)\n      dup2\n      mstore\n      pop\n        /* \"TRUSTFY v4.3 \\xe2\\x80\\x94 Contract.sol\":17688:17743  require(e.status == EscrowStatus.FUNDED, ERR_BAD_STATE) */\n      swap1\n      tag_307\n      jumpi\n      mload(0x40)\n      shl(0xe5, 0x461bcd)\n      dup2\n      mstore\n      0x04\n      add\n      tag_153\n      swap2\n      swap1\n      tag_162\n      jump\t// in\n    tag_307:\n      pop\n        /* \"TRUSTFY v4.3 \\xe2\\x80\\x94 Contract.sol\":17775:17782  e.buyer */\n      0x01\n      dup2\n      add\n      sload\n        /* \"TRUSTFY v4.3 \\xe2\\x80\\x94 Contract.sol\":17784:17797  ERR_NOT_BUYER */\n      0x40\n      dup1\n      mload\n      dup1\n      dup3\n      add\n      swap1\n      swap2\n      mstore\n      0x09\n      dup2\n      mstore\n      shl(0xb9, 0x2727aa2fa12aaca2a9)\n      0x20\n      dup3\n      add\n      mstore\n      swap1\n      sub(shl(0xa0, 0x01), 0x01)\n        /* \"TRUSTFY v4.3 \\xe2\\x80\\x94 Contract.sol\":17775:17782  e.buyer */\n      and\n        /* \"TRUSTFY v4.3 \\xe2\\x80\\x94 Contract.sol\":17761:17771  msg.sender */\n      caller\n        /* \"TRUSTFY v4.3 \\xe2\\x80\\x94 Contract.sol\":17761:17782  msg.sender == e.buyer */\n      eq\n        /* \"TRUSTFY v4.3 \\xe2\\x80\\x94 Contract.sol\":17753:17798  require(msg.sender == e.buyer, ERR_NOT_BUYER) */\n      tag_309\n      jumpi\n      mload(0x40)\n      shl(0xe5, 0x461bcd)\n      dup2\n      mstore\n      0x04\n      add\n      tag_153\n      swap2\n      swap1\n      tag_162\n      jump\t// in\n    tag_309:\n      pop\n        /* \"TRUSTFY v4.3 \\xe2\\x80\\x94 Contract.sol\":17839:17846  e.token */\n      0x03\n      dup2\n      add\n      sload\n        /* \"TRUSTFY v4.3 \\xe2\\x80\\x94 Contract.sol\":17809:17831  TokenConfig memory cfg */\n      0x00\n      swap1\n        /* \"TRUSTFY v4.3 \\xe2\\x80\\x94 Contract.sol\":17834:17847  _cfg(e.token) */\n      tag_311\n      swap1\n      sub(shl(0xa0, 0x01), 0x01)\n        /* \"TRUSTFY v4.3 \\xe2\\x80\\x94 Contract.sol\":17839:17846  e.token */\n      and\n        /* \"TRUSTFY v4.3 \\xe2\\x80\\x94 Contract.sol\":17834:17838  _cfg */\n      tag_187\n        /* \"TRUSTFY v4.3 \\xe2\\x80\\x94 Contract.sol\":17834:17847  _cfg(e.token) */\n      jump\t// in\n    tag_311:\n        /* \"TRUSTFY v4.3 \\xe2\\x80\\x94 Contract.sol\":17809:17847  TokenConfig memory cfg = _cfg(e.token) */\n      swap1\n      pop\n        /* \"TRUSTFY v4.3 \\xe2\\x80\\x94 Contract.sol\":17905:17908  cfg */\n      dup1\n        /* \"TRUSTFY v4.3 \\xe2\\x80\\x94 Contract.sol\":17905:17927  cfg.buyerConfirmWindow */\n      0xe0\n      add\n      mload\n        /* \"TRUSTFY v4.3 \\xe2\\x80\\x94 Contract.sol\":17897:17928  uint256(cfg.buyerConfirmWindow) */\n      0xffffffff\n      and\n        /* \"TRUSTFY v4.3 \\xe2\\x80\\x94 Contract.sol\":17884:17885  e */\n      dup3\n        /* \"TRUSTFY v4.3 \\xe2\\x80\\x94 Contract.sol\":17884:17894  e.fundedAt */\n      0x0a\n      add\n      sload\n        /* \"TRUSTFY v4.3 \\xe2\\x80\\x94 Contract.sol\":17884:17928  e.fundedAt + uint256(cfg.buyerConfirmWindow) */\n      tag_312\n      swap2\n      swap1\n      tag_189\n      jump\t// in\n    tag_312:\n        /* \"TRUSTFY v4.3 \\xe2\\x80\\x94 Contract.sol\":17865:17880  block.timestamp */\n      timestamp\n        /* \"TRUSTFY v4.3 \\xe2\\x80\\x94 Contract.sol\":17865:17928  block.timestamp <= e.fundedAt + uint256(cfg.buyerConfirmWindow) */\n      gt\n      iszero\n        /* \"TRUSTFY v4.3 \\xe2\\x80\\x94 Contract.sol\":17930:17948  ERR_WINDOW_EXPIRED */\n      mload(0x40)\n      dup1\n      0x40\n      add\n      0x40\n      mstore\n      dup1\n      0x0e\n      dup2\n      mstore\n      0x20\n      add\n      shl(0x92, 0x15d2539113d5d7d1561412549151)\n      dup2\n      mstore\n      pop\n        /* \"TRUSTFY v4.3 \\xe2\\x80\\x94 Contract.sol\":17857:17949  require(block.timestamp <= e.fundedAt + uint256(cfg.buyerConfirmWindow), ERR_WINDOW_EXPIRED) */\n      swap1\n      tag_313\n      jumpi\n      mload(0x40)\n      shl(0xe5, 0x461bcd)\n      dup2\n      mstore\n      0x04\n      add\n      tag_153\n      swap2\n      swap1\n      tag_162\n      jump\t// in\n    tag_313:\n      pop\n        /* \"TRUSTFY v4.3 \\xe2\\x80\\x94 Contract.sol\":17960:17968  e.status */\n      0x08\n      dup3\n      add\n        /* \"TRUSTFY v4.3 \\xe2\\x80\\x94 Contract.sol\":17960:18001  e.status = EscrowStatus.PAYMENT_CONFIRMED */\n      dup1\n      sload\n      not(0xff)\n      and\n        /* \"TRUSTFY v4.3 \\xe2\\x80\\x94 Contract.sol\":17971:18001  EscrowStatus.PAYMENT_CONFIRMED */\n      0x03\n        /* \"TRUSTFY v4.3 \\xe2\\x80\\x94 Contract.sol\":17960:18001  e.status = EscrowStatus.PAYMENT_CONFIRMED */\n      or\n      swap1\n      sstore\n        /* \"TRUSTFY v4.3 \\xe2\\x80\\x94 Contract.sol\":18034:18049  block.timestamp */\n      timestamp\n        /* \"TRUSTFY v4.3 \\xe2\\x80\\x94 Contract.sol\":18011:18031  e.paymentConfirmedAt */\n      0x0b\n      dup4\n      add\n        /* \"TRUSTFY v4.3 \\xe2\\x80\\x94 Contract.sol\":18011:18049  e.paymentConfirmedAt = block.timestamp */\n      sstore\n        /* \"TRUSTFY v4.3 \\xe2\\x80\\x94 Contract.sol\":18065:18103  PaymentConfirmed(escrowId, msg.sender) */\n      mload(0x40)\n        /* \"TRUSTFY v4.3 \\xe2\\x80\\x94 Contract.sol\":18092:18102  msg.sender */\n      caller\n      swap1\n        /* \"TRUSTFY v4.3 \\xe2\\x80\\x94 Contract.sol\":18082:18090  escrowId */\n      dup5\n      swap1\n        /* \"TRUSTFY v4.3 \\xe2\\x80\\x94 Contract.sol\":18065:18103  PaymentConfirmed(escrowId, msg.sender) */\n      0x2bce41b08631cf63c2dfd0b519d88a1e3db7e906ba6f0234f853996915e09028\n      swap1\n      0x00\n      swap1\n      log3\n        /* \"TRUSTFY v4.3 \\xe2\\x80\\x94 Contract.sol\":17582:18110  {... */\n      pop\n      pop\n        /* \"TRUSTFY v4.3 \\xe2\\x80\\x94 Contract.sol\":17531:18110  function confirmPayment(uint256 escrowId) external {... */\n      pop\n      jump\t// out\n        /* \"TRUSTFY v4.3 \\xe2\\x80\\x94 Contract.sol\":14758:16163  function takeAd(uint256 adId) external returns (uint256 escrowId) {... */\n    tag_113:\n        /* \"TRUSTFY v4.3 \\xe2\\x80\\x94 Contract.sol\":14806:14822  uint256 escrowId */\n      0x00\n        /* \"TRUSTFY v4.3 \\xe2\\x80\\x94 Contract.sol\":14850:14859  ads[adId] */\n      dup2\n      dup2\n      mstore\n        /* \"TRUSTFY v4.3 \\xe2\\x80\\x94 Contract.sol\":14850:14853  ads */\n      0x08\n        /* \"TRUSTFY v4.3 \\xe2\\x80\\x94 Contract.sol\":14850:14859  ads[adId] */\n      0x20\n      mstore\n      0x40\n      dup2\n      keccak256\n        /* \"TRUSTFY v4.3 \\xe2\\x80\\x94 Contract.sol\":14877:14885  ad.maker */\n      dup1\n      sload\n      sub(shl(0xa0, 0x01), 0x01)\n      and\n        /* \"TRUSTFY v4.3 \\xe2\\x80\\x94 Contract.sol\":14869:14916  require(ad.maker != address(0), \"AD_NOT_FOUND\") */\n      tag_318\n      jumpi\n      mload(0x40)\n      shl(0xe5, 0x461bcd)\n      dup2\n      mstore\n      0x04\n      add\n      tag_153\n      swap1\n      tag_216\n      jump\t// in\n    tag_318:\n        /* \"TRUSTFY v4.3 \\xe2\\x80\\x94 Contract.sol\":14946:14961  AdState.CREATED */\n      0x00\n        /* \"TRUSTFY v4.3 \\xe2\\x80\\x94 Contract.sol\":14934:14942  ad.state */\n      0x04\n      dup3\n      add\n      sload\n      0xff\n      and\n        /* \"TRUSTFY v4.3 \\xe2\\x80\\x94 Contract.sol\":14934:14961  ad.state == AdState.CREATED */\n      0x03\n      dup2\n      gt\n      iszero\n      tag_323\n      jumpi\n      tag_323\n      tag_157\n      jump\t// in\n    tag_323:\n      eq\n        /* \"TRUSTFY v4.3 \\xe2\\x80\\x94 Contract.sol\":14963:14976  ERR_BAD_STATE */\n      mload(0x40)\n      dup1\n      0x40\n      add\n      0x40\n      mstore\n      dup1\n      0x09\n      dup2\n      mstore\n      0x20\n      add\n      shl(0xb8, 0x4241445f5354415445)\n      dup2\n      mstore\n      pop\n        /* \"TRUSTFY v4.3 \\xe2\\x80\\x94 Contract.sol\":14926:14977  require(ad.state == AdState.CREATED, ERR_BAD_STATE) */\n      swap1\n      tag_324\n      jumpi\n      mload(0x40)\n      shl(0xe5, 0x461bcd)\n      dup2\n      mstore\n      0x04\n      add\n      tag_153\n      swap2\n      swap1\n      tag_162\n      jump\t// in\n    tag_324:\n      pop\n        /* \"TRUSTFY v4.3 \\xe2\\x80\\x94 Contract.sol\":14995:15012  ad.activeEscrowId */\n      0x05\n      dup2\n      add\n      sload\n        /* \"TRUSTFY v4.3 \\xe2\\x80\\x94 Contract.sol\":15019:15036  ERR_ALREADY_TAKEN */\n      0x40\n      dup1\n      mload\n      dup1\n      dup3\n      add\n      swap1\n      swap2\n      mstore\n      0x0d\n      dup2\n      mstore\n      shl(0x99, 0x20a62922a0a22cafaa20a5a2a7)\n      0x20\n      dup3\n      add\n      mstore\n      swap1\n        /* \"TRUSTFY v4.3 \\xe2\\x80\\x94 Contract.sol\":14995:15017  ad.activeEscrowId == 0 */\n      iszero\n        /* \"TRUSTFY v4.3 \\xe2\\x80\\x94 Contract.sol\":14987:15037  require(ad.activeEscrowId == 0, ERR_ALREADY_TAKEN) */\n      tag_326\n      jumpi\n      mload(0x40)\n      shl(0xe5, 0x461bcd)\n      dup2\n      mstore\n      0x04\n      add\n      tag_153\n      swap2\n      swap1\n      tag_162\n      jump\t// in\n    tag_326:\n      pop\n        /* \"TRUSTFY v4.3 \\xe2\\x80\\x94 Contract.sol\":15064:15090  _buyerOfAd(ad, msg.sender) */\n      0x40\n      dup1\n      mload\n      0xe0\n      dup2\n      add\n      dup3\n      mstore\n      dup3\n      sload\n      sub(shl(0xa0, 0x01), 0x01)\n      dup1\n      dup3\n      and\n      dup4\n      mstore\n      0xff\n      shl(0xa0, 0x01)\n      swap1\n      swap3\n      div\n      dup3\n      and\n      iszero\n      iszero\n      0x20\n      dup5\n      add\n      mstore\n      0x01\n      dup6\n      add\n      sload\n      and\n      swap3\n      dup3\n      add\n      swap3\n      swap1\n      swap3\n      mstore\n      0x02\n      dup4\n      add\n      sload\n      0x60\n      dup3\n      add\n      mstore\n      0x03\n      dup1\n      dup5\n      add\n      sload\n      0x80\n      dup4\n      add\n      mstore\n      0x04\n      dup5\n      add\n      sload\n        /* \"TRUSTFY v4.3 \\xe2\\x80\\x94 Contract.sol\":15048:15061  address buyer */\n      0x00\n      swap4\n        /* \"TRUSTFY v4.3 \\xe2\\x80\\x94 Contract.sol\":15064:15090  _buyerOfAd(ad, msg.sender) */\n      tag_328\n      swap4\n      swap3\n        /* \"TRUSTFY v4.3 \\xe2\\x80\\x94 Contract.sol\":15075:15077  ad */\n      dup7\n      swap3\n        /* \"TRUSTFY v4.3 \\xe2\\x80\\x94 Contract.sol\":15064:15090  _buyerOfAd(ad, msg.sender) */\n      0xa0\n      dup6\n      add\n      swap3\n      and\n      swap1\n      dup2\n      gt\n      iszero\n      tag_330\n      jumpi\n      tag_330\n      tag_157\n      jump\t// in\n    tag_330:\n      0x03\n      dup2\n      gt\n      iszero\n      tag_332\n      jumpi\n      tag_332\n      tag_157\n      jump\t// in\n    tag_332:\n      dup2\n      mstore\n      0x20\n      add\n      0x05\n      dup3\n      add\n      sload\n      dup2\n      mstore\n      pop\n      pop\n        /* \"TRUSTFY v4.3 \\xe2\\x80\\x94 Contract.sol\":15079:15089  msg.sender */\n      caller\n        /* \"TRUSTFY v4.3 \\xe2\\x80\\x94 Contract.sol\":15064:15074  _buyerOfAd */\n      tag_333\n        /* \"TRUSTFY v4.3 \\xe2\\x80\\x94 Contract.sol\":15064:15090  _buyerOfAd(ad, msg.sender) */\n      jump\t// in\n    tag_328:\n        /* \"TRUSTFY v4.3 \\xe2\\x80\\x94 Contract.sol\":15117:15144  _sellerOfAd(ad, msg.sender) */\n      0x40\n      dup1\n      mload\n      0xe0\n      dup2\n      add\n      dup3\n      mstore\n      dup5\n      sload\n      sub(shl(0xa0, 0x01), 0x01)\n      dup1\n      dup3\n      and\n      dup4\n      mstore\n      0xff\n      shl(0xa0, 0x01)\n      swap1\n      swap3\n      div\n      dup3\n      and\n      iszero\n      iszero\n      0x20\n      dup5\n      add\n      mstore\n      0x01\n      dup8\n      add\n      sload\n      and\n      swap3\n      dup3\n      add\n      swap3\n      swap1\n      swap3\n      mstore\n      0x02\n      dup6\n      add\n      sload\n      0x60\n      dup3\n      add\n      mstore\n      0x03\n      dup1\n      dup7\n      add\n      sload\n      0x80\n      dup4\n      add\n      mstore\n      0x04\n      dup7\n      add\n      sload\n        /* \"TRUSTFY v4.3 \\xe2\\x80\\x94 Contract.sol\":15048:15090  address buyer = _buyerOfAd(ad, msg.sender) */\n      swap4\n      swap5\n      pop\n        /* \"TRUSTFY v4.3 \\xe2\\x80\\x94 Contract.sol\":15100:15114  address seller */\n      0x00\n      swap4\n        /* \"TRUSTFY v4.3 \\xe2\\x80\\x94 Contract.sol\":15117:15144  _sellerOfAd(ad, msg.sender) */\n      tag_334\n      swap4\n        /* \"TRUSTFY v4.3 \\xe2\\x80\\x94 Contract.sol\":15129:15131  ad */\n      dup8\n      swap3\n        /* \"TRUSTFY v4.3 \\xe2\\x80\\x94 Contract.sol\":15117:15144  _sellerOfAd(ad, msg.sender) */\n      0xa0\n      dup6\n      add\n      swap3\n      swap1\n      swap2\n      and\n      swap1\n      dup2\n      gt\n      iszero\n      tag_336\n      jumpi\n      tag_336\n      tag_157\n      jump\t// in\n    tag_336:\n      0x03\n      dup2\n      gt\n      iszero\n      tag_338\n      jumpi\n      tag_338\n      tag_157\n      jump\t// in\n    tag_338:\n      dup2\n      mstore\n      0x20\n      add\n      0x05\n      dup3\n      add\n      sload\n      dup2\n      mstore\n      pop\n      pop\n        /* \"TRUSTFY v4.3 \\xe2\\x80\\x94 Contract.sol\":15133:15143  msg.sender */\n      caller\n        /* \"TRUSTFY v4.3 \\xe2\\x80\\x94 Contract.sol\":15117:15128  _sellerOfAd */\n      tag_339\n        /* \"TRUSTFY v4.3 \\xe2\\x80\\x94 Contract.sol\":15117:15144  _sellerOfAd(ad, msg.sender) */\n      jump\t// in\n    tag_334:\n        /* \"TRUSTFY v4.3 \\xe2\\x80\\x94 Contract.sol\":15100:15144  address seller = _sellerOfAd(ad, msg.sender) */\n      swap1\n      pop\n        /* \"TRUSTFY v4.3 \\xe2\\x80\\x94 Contract.sol\":15212:15218  seller */\n      dup1\n      sub(shl(0xa0, 0x01), 0x01)\n        /* \"TRUSTFY v4.3 \\xe2\\x80\\x94 Contract.sol\":15203:15218  buyer != seller */\n      and\n        /* \"TRUSTFY v4.3 \\xe2\\x80\\x94 Contract.sol\":15203:15208  buyer */\n      dup3\n      sub(shl(0xa0, 0x01), 0x01)\n        /* \"TRUSTFY v4.3 \\xe2\\x80\\x94 Contract.sol\":15203:15218  buyer != seller */\n      and\n      sub\n        /* \"TRUSTFY v4.3 \\xe2\\x80\\x94 Contract.sol\":15195:15233  require(buyer != seller, \"SELF_TRADE\") */\n      tag_340\n      jumpi\n      mload(0x40)\n      shl(0xe5, 0x461bcd)\n      dup2\n      mstore\n        /* \"#utility.yul\":15108:15110   */\n      0x20\n        /* \"TRUSTFY v4.3 \\xe2\\x80\\x94 Contract.sol\":15195:15233  require(buyer != seller, \"SELF_TRADE\") */\n      0x04\n      dup3\n      add\n        /* \"#utility.yul\":15090:15111   */\n      mstore\n        /* \"#utility.yul\":15147:15149   */\n      0x0a\n        /* \"#utility.yul\":15127:15145   */\n      0x24\n      dup3\n      add\n        /* \"#utility.yul\":15120:15150   */\n      mstore\n      shl(0xb0, 0x53454c465f5452414445)\n        /* \"#utility.yul\":15166:15184   */\n      0x44\n      dup3\n      add\n        /* \"#utility.yul\":15159:15199   */\n      mstore\n        /* \"#utility.yul\":15216:15234   */\n      0x64\n      add\n        /* \"TRUSTFY v4.3 \\xe2\\x80\\x94 Contract.sol\":15195:15233  require(buyer != seller, \"SELF_TRADE\") */\n      tag_153\n        /* \"#utility.yul\":14906:15240   */\n      jump\n        /* \"TRUSTFY v4.3 \\xe2\\x80\\x94 Contract.sol\":15195:15233  require(buyer != seller, \"SELF_TRADE\") */\n    tag_340:\n        /* \"TRUSTFY v4.3 \\xe2\\x80\\x94 Contract.sol\":15272:15280  ad.token */\n      0x01\n      dup4\n      add\n      sload\n        /* \"TRUSTFY v4.3 \\xe2\\x80\\x94 Contract.sol\":15282:15291  ad.amount */\n      0x02\n      dup5\n      add\n      sload\n        /* \"TRUSTFY v4.3 \\xe2\\x80\\x94 Contract.sol\":15244:15256  uint256 bond */\n      0x00\n      swap2\n        /* \"TRUSTFY v4.3 \\xe2\\x80\\x94 Contract.sol\":15259:15292  _disputeBond(ad.token, ad.amount) */\n      tag_343\n      swap2\n      sub(shl(0xa0, 0x01), 0x01)\n        /* \"TRUSTFY v4.3 \\xe2\\x80\\x94 Contract.sol\":15272:15280  ad.token */\n      swap1\n      swap2\n      and\n      swap1\n        /* \"TRUSTFY v4.3 \\xe2\\x80\\x94 Contract.sol\":15259:15271  _disputeBond */\n      tag_344\n        /* \"TRUSTFY v4.3 \\xe2\\x80\\x94 Contract.sol\":15259:15292  _disputeBond(ad.token, ad.amount) */\n      jump\t// in\n    tag_343:\n        /* \"TRUSTFY v4.3 \\xe2\\x80\\x94 Contract.sol\":15244:15292  uint256 bond = _disputeBond(ad.token, ad.amount) */\n      swap1\n      pop\n        /* \"TRUSTFY v4.3 \\xe2\\x80\\x94 Contract.sol\":15317:15318  0 */\n      0x00\n        /* \"TRUSTFY v4.3 \\xe2\\x80\\x94 Contract.sol\":15310:15314  bond */\n      dup2\n        /* \"TRUSTFY v4.3 \\xe2\\x80\\x94 Contract.sol\":15310:15318  bond > 0 */\n      gt\n        /* \"TRUSTFY v4.3 \\xe2\\x80\\x94 Contract.sol\":15302:15340  require(bond > 0, \"DISPUTE_BOND_ZERO\") */\n      tag_345\n      jumpi\n      mload(0x40)\n      shl(0xe5, 0x461bcd)\n      dup2\n      mstore\n        /* \"#utility.yul\":15447:15449   */\n      0x20\n        /* \"TRUSTFY v4.3 \\xe2\\x80\\x94 Contract.sol\":15302:15340  require(bond > 0, \"DISPUTE_BOND_ZERO\") */\n      0x04\n      dup3\n      add\n        /* \"#utility.yul\":15429:15450   */\n      mstore\n        /* \"#utility.yul\":15486:15488   */\n      0x11\n        /* \"#utility.yul\":15466:15484   */\n      0x24\n      dup3\n      add\n        /* \"#utility.yul\":15459:15489   */\n      mstore\n      shl(0x78, 0x444953505554455f424f4e445f5a45524f)\n        /* \"#utility.yul\":15505:15523   */\n      0x44\n      dup3\n      add\n        /* \"#utility.yul\":15498:15545   */\n      mstore\n        /* \"#utility.yul\":15562:15580   */\n      0x64\n      add\n        /* \"TRUSTFY v4.3 \\xe2\\x80\\x94 Contract.sol\":15302:15340  require(bond > 0, \"DISPUTE_BOND_ZERO\") */\n      tag_153\n        /* \"#utility.yul\":15245:15586   */\n      jump\n        /* \"TRUSTFY v4.3 \\xe2\\x80\\x94 Contract.sol\":15302:15340  require(bond > 0, \"DISPUTE_BOND_ZERO\") */\n    tag_345:\n        /* \"TRUSTFY v4.3 \\xe2\\x80\\x94 Contract.sol\":15393:15401  ad.token */\n      0x01\n      dup5\n      add\n      sload\n        /* \"TRUSTFY v4.3 \\xe2\\x80\\x94 Contract.sol\":15386:15447  IERC20(ad.token).safeTransferFrom(buyer, address(this), bond) */\n      tag_348\n      swap1\n      sub(shl(0xa0, 0x01), 0x01)\n        /* \"TRUSTFY v4.3 \\xe2\\x80\\x94 Contract.sol\":15393:15401  ad.token */\n      and\n        /* \"TRUSTFY v4.3 \\xe2\\x80\\x94 Contract.sol\":15420:15425  buyer */\n      dup5\n        /* \"TRUSTFY v4.3 \\xe2\\x80\\x94 Contract.sol\":15435:15439  this */\n      address\n        /* \"TRUSTFY v4.3 \\xe2\\x80\\x94 Contract.sol\":15442:15446  bond */\n      dup5\n        /* \"TRUSTFY v4.3 \\xe2\\x80\\x94 Contract.sol\":15386:15419  IERC20(ad.token).safeTransferFrom */\n      tag_279\n        /* \"TRUSTFY v4.3 \\xe2\\x80\\x94 Contract.sol\":15386:15447  IERC20(ad.token).safeTransferFrom(buyer, address(this), bond) */\n      jump\t// in\n    tag_348:\n        /* \"TRUSTFY v4.3 \\xe2\\x80\\x94 Contract.sol\":15494:15506  nextEscrowId */\n      0x07\n        /* \"TRUSTFY v4.3 \\xe2\\x80\\x94 Contract.sol\":15494:15508  nextEscrowId++ */\n      dup1\n      sload\n      swap1\n        /* \"TRUSTFY v4.3 \\xe2\\x80\\x94 Contract.sol\":15494:15506  nextEscrowId */\n      0x00\n        /* \"TRUSTFY v4.3 \\xe2\\x80\\x94 Contract.sol\":15494:15508  nextEscrowId++ */\n      tag_349\n      dup4\n      tag_281\n      jump\t// in\n    tag_349:\n      swap1\n      swap2\n      sstore\n      pop\n        /* \"TRUSTFY v4.3 \\xe2\\x80\\x94 Contract.sol\":15538:15998  Escrow({... */\n      0x40\n      dup1\n      mload\n      0x01c0\n      dup2\n      add\n      dup3\n      mstore\n      dup9\n      dup2\n      mstore\n      sub(shl(0xa0, 0x01), 0x01)\n      dup7\n      dup2\n      and\n      0x20\n      dup1\n      dup5\n      add\n      swap2\n      dup3\n      mstore\n      dup8\n      dup4\n      and\n      dup5\n      dup7\n      add\n      swap1\n      dup2\n      mstore\n        /* \"TRUSTFY v4.3 \\xe2\\x80\\x94 Contract.sol\":15644:15652  ad.token */\n      0x01\n      dup12\n      dup2\n      add\n      sload\n      dup6\n      and\n        /* \"TRUSTFY v4.3 \\xe2\\x80\\x94 Contract.sol\":15538:15998  Escrow({... */\n      0x60\n      dup8\n      add\n      swap1\n      dup2\n      mstore\n        /* \"TRUSTFY v4.3 \\xe2\\x80\\x94 Contract.sol\":15674:15683  ad.amount */\n      0x02\n      dup1\n      dup15\n      add\n      sload\n        /* \"TRUSTFY v4.3 \\xe2\\x80\\x94 Contract.sol\":15538:15998  Escrow({... */\n      0x80\n      dup10\n      add\n      swap1\n      dup2\n      mstore\n      0x00\n      0xa0\n      dup11\n      add\n      dup2\n      dup2\n      mstore\n      0xc0\n      dup12\n      add\n      dup15\n      dup2\n      mstore\n      0xe0\n      dup13\n      add\n      dup4\n      dup2\n      mstore\n        /* \"TRUSTFY v4.3 \\xe2\\x80\\x94 Contract.sol\":15644:15652  ad.token */\n      0x0100\n        /* \"TRUSTFY v4.3 \\xe2\\x80\\x94 Contract.sol\":15538:15998  Escrow({... */\n      dup14\n      add\n      dup9\n      dup2\n      mstore\n        /* \"TRUSTFY v4.3 \\xe2\\x80\\x94 Contract.sol\":15842:15857  block.timestamp */\n      timestamp\n        /* \"TRUSTFY v4.3 \\xe2\\x80\\x94 Contract.sol\":15538:15998  Escrow({... */\n      0x0120\n      dup16\n      add\n      mstore\n      0x0140\n      dup15\n      add\n      dup6\n      swap1\n      mstore\n      0x0160\n      dup15\n      add\n      dup6\n      swap1\n      mstore\n      0x0180\n      dup15\n      add\n      dup6\n      swap1\n      mstore\n      0x01a0\n      dup15\n      add\n      dup6\n      swap1\n      mstore\n        /* \"TRUSTFY v4.3 \\xe2\\x80\\x94 Contract.sol\":15518:15535  escrows[escrowId] */\n      dup16\n      dup6\n      mstore\n        /* \"TRUSTFY v4.3 \\xe2\\x80\\x94 Contract.sol\":15518:15525  escrows */\n      0x09\n        /* \"TRUSTFY v4.3 \\xe2\\x80\\x94 Contract.sol\":15518:15535  escrows[escrowId] */\n      swap1\n      swap11\n      mstore\n      swap13\n      swap1\n      swap3\n      keccak256\n        /* \"TRUSTFY v4.3 \\xe2\\x80\\x94 Contract.sol\":15518:15998  escrows[escrowId] = Escrow({... */\n      dup12\n      mload\n      dup2\n      sstore\n      swap9\n      mload\n      dup10\n      dup8\n      add\n      dup1\n      sload\n      swap2\n      dup13\n      and\n      not(sub(shl(0xa0, 0x01), 0x01))\n      swap3\n      dup4\n      and\n      or\n      swap1\n      sstore\n      swap7\n      mload\n      swap4\n      dup10\n      add\n      dup1\n      sload\n      swap5\n      dup12\n      and\n      swap5\n      dup9\n      and\n      swap5\n      swap1\n      swap5\n      or\n      swap1\n      swap4\n      sstore\n      swap3\n      mload\n      0x03\n      dup9\n      add\n      dup1\n      sload\n      swap2\n      swap1\n      swap10\n      and\n      swap6\n      and\n      swap5\n      swap1\n      swap5\n      or\n      swap1\n      swap7\n      sstore\n      swap2\n      mload\n      0x04\n      dup6\n      add\n      sstore\n      swap4\n      mload\n      0x05\n      dup5\n      add\n      sstore\n      mload\n      0x06\n      dup1\n      dup5\n      add\n      swap2\n      swap1\n      swap2\n      sstore\n      swap5\n      mload\n      0x07\n      dup4\n      add\n      sstore\n      mload\n      0x08\n      dup3\n      add\n      dup1\n      sload\n        /* \"TRUSTFY v4.3 \\xe2\\x80\\x94 Contract.sol\":15483:15508  escrowId = nextEscrowId++ */\n      swap7\n      swap12\n      pop\n        /* \"TRUSTFY v4.3 \\xe2\\x80\\x94 Contract.sol\":15538:15998  Escrow({... */\n      swap4\n      swap6\n        /* \"TRUSTFY v4.3 \\xe2\\x80\\x94 Contract.sol\":15518:15535  escrows[escrowId] */\n      swap2\n      swap5\n        /* \"TRUSTFY v4.3 \\xe2\\x80\\x94 Contract.sol\":15518:15998  escrows[escrowId] = Escrow({... */\n      swap1\n      swap4\n      swap3\n      not(0xff)\n      swap3\n      swap1\n      swap3\n      and\n      swap2\n        /* \"TRUSTFY v4.3 \\xe2\\x80\\x94 Contract.sol\":15644:15652  ad.token */\n      swap1\n        /* \"TRUSTFY v4.3 \\xe2\\x80\\x94 Contract.sol\":15518:15998  escrows[escrowId] = Escrow({... */\n      dup5\n      swap1\n      dup2\n      gt\n      iszero\n      tag_353\n      jumpi\n      tag_353\n      tag_157\n      jump\t// in\n    tag_353:\n      mul\n      or\n      swap1\n      sstore\n      pop\n      0x0120\n      dup3\n      add\n      mload\n      0x09\n      dup3\n      add\n      sstore\n      0x0140\n      dup3\n      add\n      mload\n      0x0a\n      dup3\n      add\n      sstore\n      0x0160\n      dup3\n      add\n      mload\n      0x0b\n      dup3\n      add\n      sstore\n      0x0180\n      dup3\n      add\n      mload\n      0x0c\n      swap1\n      swap2\n      add\n      dup1\n      sload\n      0x01a0\n      swap1\n      swap4\n      add\n      mload\n      not(0xffff)\n      swap1\n      swap4\n      and\n      swap2\n      iszero\n      iszero\n      not(0xff00)\n      and\n      swap2\n      swap1\n      swap2\n      or\n      0x0100\n      swap3\n      iszero\n      iszero\n      swap3\n      swap1\n      swap3\n      mul\n      swap2\n      swap1\n      swap2\n      or\n      swap1\n      sstore\n        /* \"TRUSTFY v4.3 \\xe2\\x80\\x94 Contract.sol\":16030:16038  ad.state */\n      0x04\n      dup5\n      add\n        /* \"TRUSTFY v4.3 \\xe2\\x80\\x94 Contract.sol\":16030:16054  ad.state = AdState.TAKEN */\n      dup1\n      sload\n      not(0xff)\n      and\n      0x01\n      or\n      swap1\n      sstore\n      0x05\n        /* \"TRUSTFY v4.3 \\xe2\\x80\\x94 Contract.sol\":16064:16081  ad.activeEscrowId */\n      dup5\n      add\n        /* \"TRUSTFY v4.3 \\xe2\\x80\\x94 Contract.sol\":16064:16092  ad.activeEscrowId = escrowId */\n      dup6\n      swap1\n      sstore\n        /* \"TRUSTFY v4.3 \\xe2\\x80\\x94 Contract.sol\":16108:16156  EscrowTaken(escrowId, adId, buyer, seller, bond) */\n      0x40\n      dup1\n      mload\n      sub(shl(0xa0, 0x01), 0x01)\n        /* \"#utility.yul\":15783:15815   */\n      dup5\n      dup2\n      and\n        /* \"#utility.yul\":15765:15816   */\n      dup3\n      mstore\n        /* \"#utility.yul\":15847:15849   */\n      0x20\n        /* \"#utility.yul\":15832:15850   */\n      dup3\n      add\n        /* \"#utility.yul\":15825:15859   */\n      dup5\n      swap1\n      mstore\n        /* \"TRUSTFY v4.3 \\xe2\\x80\\x94 Contract.sol\":16108:16156  EscrowTaken(escrowId, adId, buyer, seller, bond) */\n      dup6\n      and\n      swap2\n        /* \"TRUSTFY v4.3 \\xe2\\x80\\x94 Contract.sol\":16130:16134  adId */\n      dup9\n      swap2\n        /* \"TRUSTFY v4.3 \\xe2\\x80\\x94 Contract.sol\":16064:16092  ad.activeEscrowId = escrowId */\n      dup9\n      swap2\n        /* \"TRUSTFY v4.3 \\xe2\\x80\\x94 Contract.sol\":16108:16156  EscrowTaken(escrowId, adId, buyer, seller, bond) */\n      0x0b0ee7fc34cffd8fddd757fa75752da0281ea49136350e672a73edb07cf327d8\n      swap2\n        /* \"#utility.yul\":15738:15756   */\n      add\n        /* \"TRUSTFY v4.3 \\xe2\\x80\\x94 Contract.sol\":16108:16156  EscrowTaken(escrowId, adId, buyer, seller, bond) */\n      mload(0x40)\n      dup1\n      swap2\n      sub\n      swap1\n      log4\n        /* \"TRUSTFY v4.3 \\xe2\\x80\\x94 Contract.sol\":14824:16163  {... */\n      pop\n      pop\n      pop\n      pop\n        /* \"TRUSTFY v4.3 \\xe2\\x80\\x94 Contract.sol\":14758:16163  function takeAd(uint256 adId) external returns (uint256 escrowId) {... */\n      swap2\n      swap1\n      pop\n      jump\t// out\n        /* \"TRUSTFY v4.3 \\xe2\\x80\\x94 Contract.sol\":23179:24775  function expireSellerFunding(uint256 escrowId) external {... */\n    tag_117:\n        /* \"TRUSTFY v4.3 \\xe2\\x80\\x94 Contract.sol\":23245:23261  Escrow storage e */\n      0x00\n        /* \"TRUSTFY v4.3 \\xe2\\x80\\x94 Contract.sol\":23264:23281  escrows[escrowId] */\n      dup2\n      dup2\n      mstore\n        /* \"TRUSTFY v4.3 \\xe2\\x80\\x94 Contract.sol\":23264:23271  escrows */\n      0x09\n        /* \"TRUSTFY v4.3 \\xe2\\x80\\x94 Contract.sol\":23264:23281  escrows[escrowId] */\n      0x20\n      mstore\n      0x40\n      dup2\n      keccak256\n        /* \"TRUSTFY v4.3 \\xe2\\x80\\x94 Contract.sol\":23299:23305  e.adId */\n      dup1\n      sload\n        /* \"TRUSTFY v4.3 \\xe2\\x80\\x94 Contract.sol\":23264:23281  escrows[escrowId] */\n      swap1\n      swap2\n        /* \"TRUSTFY v4.3 \\xe2\\x80\\x94 Contract.sol\":23299:23310  e.adId != 0 */\n      sub\n        /* \"TRUSTFY v4.3 \\xe2\\x80\\x94 Contract.sol\":23291:23331  require(e.adId != 0, \"ESCROW_NOT_FOUND\") */\n      tag_359\n      jumpi\n      mload(0x40)\n      shl(0xe5, 0x461bcd)\n      dup2\n      mstore\n      0x04\n      add\n      tag_153\n      swap1\n      tag_154\n      jump\t// in\n    tag_359:\n        /* \"TRUSTFY v4.3 \\xe2\\x80\\x94 Contract.sol\":23361:23379  EscrowStatus.TAKEN */\n      0x01\n        /* \"TRUSTFY v4.3 \\xe2\\x80\\x94 Contract.sol\":23349:23357  e.status */\n      0x08\n      dup3\n      add\n      sload\n      0xff\n      and\n        /* \"TRUSTFY v4.3 \\xe2\\x80\\x94 Contract.sol\":23349:23379  e.status == EscrowStatus.TAKEN */\n      0x06\n      dup2\n      gt\n      iszero\n      tag_364\n      jumpi\n      tag_364\n      tag_157\n      jump\t// in\n    tag_364:\n      eq\n        /* \"TRUSTFY v4.3 \\xe2\\x80\\x94 Contract.sol\":23381:23394  ERR_BAD_STATE */\n      mload(0x40)\n      dup1\n      0x40\n      add\n      0x40\n      mstore\n      dup1\n      0x09\n      dup2\n      mstore\n      0x20\n      add\n      shl(0xb8, 0x4241445f5354415445)\n      dup2\n      mstore\n      pop\n        /* \"TRUSTFY v4.3 \\xe2\\x80\\x94 Contract.sol\":23341:23395  require(e.status == EscrowStatus.TAKEN, ERR_BAD_STATE) */\n      swap1\n      tag_365\n      jumpi\n      mload(0x40)\n      shl(0xe5, 0x461bcd)\n      dup2\n      mstore\n      0x04\n      add\n      tag_153\n      swap2\n      swap1\n      tag_162\n      jump\t// in\n    tag_365:\n      pop\n        /* \"TRUSTFY v4.3 \\xe2\\x80\\x94 Contract.sol\":23436:23443  e.token */\n      0x03\n      dup2\n      add\n      sload\n        /* \"TRUSTFY v4.3 \\xe2\\x80\\x94 Contract.sol\":23406:23428  TokenConfig memory cfg */\n      0x00\n      swap1\n        /* \"TRUSTFY v4.3 \\xe2\\x80\\x94 Contract.sol\":23431:23444  _cfg(e.token) */\n      tag_367\n      swap1\n      sub(shl(0xa0, 0x01), 0x01)\n        /* \"TRUSTFY v4.3 \\xe2\\x80\\x94 Contract.sol\":23436:23443  e.token */\n      and\n        /* \"TRUSTFY v4.3 \\xe2\\x80\\x94 Contract.sol\":23431:23435  _cfg */\n      tag_187\n        /* \"TRUSTFY v4.3 \\xe2\\x80\\x94 Contract.sol\":23431:23444  _cfg(e.token) */\n      jump\t// in\n    tag_367:\n        /* \"TRUSTFY v4.3 \\xe2\\x80\\x94 Contract.sol\":23406:23444  TokenConfig memory cfg = _cfg(e.token) */\n      swap1\n      pop\n        /* \"TRUSTFY v4.3 \\xe2\\x80\\x94 Contract.sol\":23500:23503  cfg */\n      dup1\n        /* \"TRUSTFY v4.3 \\xe2\\x80\\x94 Contract.sol\":23500:23520  cfg.sellerFundWindow */\n      0xc0\n      add\n      mload\n        /* \"TRUSTFY v4.3 \\xe2\\x80\\x94 Contract.sol\":23492:23521  uint256(cfg.sellerFundWindow) */\n      0xffffffff\n      and\n        /* \"TRUSTFY v4.3 \\xe2\\x80\\x94 Contract.sol\":23480:23481  e */\n      dup3\n        /* \"TRUSTFY v4.3 \\xe2\\x80\\x94 Contract.sol\":23480:23489  e.takenAt */\n      0x09\n      add\n      sload\n        /* \"TRUSTFY v4.3 \\xe2\\x80\\x94 Contract.sol\":23480:23521  e.takenAt + uint256(cfg.sellerFundWindow) */\n      tag_368\n      swap2\n      swap1\n      tag_189\n      jump\t// in\n    tag_368:\n        /* \"TRUSTFY v4.3 \\xe2\\x80\\x94 Contract.sol\":23462:23477  block.timestamp */\n      timestamp\n        /* \"TRUSTFY v4.3 \\xe2\\x80\\x94 Contract.sol\":23462:23521  block.timestamp > e.takenAt + uint256(cfg.sellerFundWindow) */\n      gt\n        /* \"TRUSTFY v4.3 \\xe2\\x80\\x94 Contract.sol\":23523:23545  ERR_WINDOW_NOT_EXPIRED */\n      mload(0x40)\n      dup1\n      0x40\n      add\n      0x40\n      mstore\n      dup1\n      0x12\n      dup2\n      mstore\n      0x20\n      add\n      shl(0x72, 0x15d2539113d5d7d393d517d1561412549151)\n      dup2\n      mstore\n      pop\n        /* \"TRUSTFY v4.3 \\xe2\\x80\\x94 Contract.sol\":23454:23546  require(block.timestamp > e.takenAt + uint256(cfg.sellerFundWindow), ERR_WINDOW_NOT_EXPIRED) */\n      swap1\n      tag_369\n      jumpi\n      mload(0x40)\n      shl(0xe5, 0x461bcd)\n      dup2\n      mstore\n      0x04\n      add\n      tag_153\n      swap2\n      swap1\n      tag_162\n      jump\t// in\n    tag_369:\n      pop\n        /* \"TRUSTFY v4.3 \\xe2\\x80\\x94 Contract.sol\":23577:23583  e.adId */\n      dup2\n      sload\n        /* \"TRUSTFY v4.3 \\xe2\\x80\\x94 Contract.sol\":23557:23570  Ad storage ad */\n      0x00\n        /* \"TRUSTFY v4.3 \\xe2\\x80\\x94 Contract.sol\":23573:23584  ads[e.adId] */\n      swap1\n      dup2\n      mstore\n        /* \"TRUSTFY v4.3 \\xe2\\x80\\x94 Contract.sol\":23573:23576  ads */\n      0x08\n        /* \"TRUSTFY v4.3 \\xe2\\x80\\x94 Contract.sol\":23573:23584  ads[e.adId] */\n      0x20\n      swap1\n      dup2\n      mstore\n      0x40\n      swap2\n      dup3\n      swap1\n      keccak256\n        /* \"TRUSTFY v4.3 \\xe2\\x80\\x94 Contract.sol\":23602:23619  ad.activeEscrowId */\n      0x05\n      dup2\n      add\n      sload\n        /* \"TRUSTFY v4.3 \\xe2\\x80\\x94 Contract.sol\":23633:23652  ERR_ESCROW_MISMATCH */\n      dup4\n      mload\n      dup1\n      dup6\n      add\n      swap1\n      swap5\n      mstore\n      0x0f\n      dup5\n      mstore\n      shl(0x8b, 0x08aa686a49eaebe9a92a69a82a8869)\n      swap3\n      dup5\n      add\n      swap3\n      swap1\n      swap3\n      mstore\n        /* \"TRUSTFY v4.3 \\xe2\\x80\\x94 Contract.sol\":23573:23584  ads[e.adId] */\n      swap2\n        /* \"TRUSTFY v4.3 \\xe2\\x80\\x94 Contract.sol\":23633:23652  ERR_ESCROW_MISMATCH */\n      swap1\n        /* \"TRUSTFY v4.3 \\xe2\\x80\\x94 Contract.sol\":23602:23631  ad.activeEscrowId == escrowId */\n      dup6\n      eq\n        /* \"TRUSTFY v4.3 \\xe2\\x80\\x94 Contract.sol\":23594:23653  require(ad.activeEscrowId == escrowId, ERR_ESCROW_MISMATCH) */\n      tag_371\n      jumpi\n      mload(0x40)\n      shl(0xe5, 0x461bcd)\n      dup2\n      mstore\n      0x04\n      add\n      tag_153\n      swap2\n      swap1\n      tag_162\n      jump\t// in\n    tag_371:\n      pop\n        /* \"TRUSTFY v4.3 \\xe2\\x80\\x94 Contract.sol\":23683:23696  AdState.TAKEN */\n      0x01\n        /* \"TRUSTFY v4.3 \\xe2\\x80\\x94 Contract.sol\":23671:23679  ad.state */\n      0x04\n      dup3\n      add\n      sload\n      0xff\n      and\n        /* \"TRUSTFY v4.3 \\xe2\\x80\\x94 Contract.sol\":23671:23696  ad.state == AdState.TAKEN */\n      0x03\n      dup2\n      gt\n      iszero\n      tag_376\n      jumpi\n      tag_376\n      tag_157\n      jump\t// in\n    tag_376:\n      eq\n        /* \"TRUSTFY v4.3 \\xe2\\x80\\x94 Contract.sol\":23698:23711  ERR_BAD_STATE */\n      mload(0x40)\n      dup1\n      0x40\n      add\n      0x40\n      mstore\n      dup1\n      0x09\n      dup2\n      mstore\n      0x20\n      add\n      shl(0xb8, 0x4241445f5354415445)\n      dup2\n      mstore\n      pop\n        /* \"TRUSTFY v4.3 \\xe2\\x80\\x94 Contract.sol\":23663:23712  require(ad.state == AdState.TAKEN, ERR_BAD_STATE) */\n      swap1\n      tag_377\n      jumpi\n      mload(0x40)\n      shl(0xe5, 0x461bcd)\n      dup2\n      mstore\n      0x04\n      add\n      tag_153\n      swap2\n      swap1\n      tag_162\n      jump\t// in\n    tag_377:\n      pop\n        /* \"TRUSTFY v4.3 \\xe2\\x80\\x94 Contract.sol\":23774:23792  e.buyerDisputeBond */\n      0x06\n      dup4\n      add\n      sload\n        /* \"TRUSTFY v4.3 \\xe2\\x80\\x94 Contract.sol\":23774:23796  e.buyerDisputeBond > 0 */\n      iszero\n        /* \"TRUSTFY v4.3 \\xe2\\x80\\x94 Contract.sol\":23770:24058  if (e.buyerDisputeBond > 0) {... */\n      tag_379\n      jumpi\n        /* \"TRUSTFY v4.3 \\xe2\\x80\\x94 Contract.sol\":23847:23865  e.buyerDisputeBond */\n      0x06\n      dup4\n      add\n      sload\n        /* \"TRUSTFY v4.3 \\xe2\\x80\\x94 Contract.sol\":23826:23833  e.buyer */\n      0x01\n      dup5\n      add\n      sload\n      sub(shl(0xa0, 0x01), 0x01)\n      swap1\n      dup2\n      and\n        /* \"TRUSTFY v4.3 \\xe2\\x80\\x94 Contract.sol\":23812:23834  creditBalance[e.buyer] */\n      0x00\n      swap1\n      dup2\n      mstore\n        /* \"TRUSTFY v4.3 \\xe2\\x80\\x94 Contract.sol\":23812:23825  creditBalance */\n      0x05\n        /* \"TRUSTFY v4.3 \\xe2\\x80\\x94 Contract.sol\":23812:23834  creditBalance[e.buyer] */\n      0x20\n      swap1\n      dup2\n      mstore\n      0x40\n      dup1\n      dup4\n      keccak256\n        /* \"TRUSTFY v4.3 \\xe2\\x80\\x94 Contract.sol\":23835:23842  e.token */\n      0x03\n      dup10\n      add\n      sload\n      swap1\n      swap5\n      and\n        /* \"TRUSTFY v4.3 \\xe2\\x80\\x94 Contract.sol\":23812:23843  creditBalance[e.buyer][e.token] */\n      dup4\n      mstore\n      swap3\n      swap1\n      mstore\n      swap1\n      dup2\n      keccak256\n        /* \"TRUSTFY v4.3 \\xe2\\x80\\x94 Contract.sol\":23812:23865  creditBalance[e.buyer][e.token] += e.buyerDisputeBond */\n      dup1\n      sload\n        /* \"TRUSTFY v4.3 \\xe2\\x80\\x94 Contract.sol\":23812:23843  creditBalance[e.buyer][e.token] */\n      swap1\n      swap2\n        /* \"TRUSTFY v4.3 \\xe2\\x80\\x94 Contract.sol\":23812:23834  creditBalance[e.buyer] */\n      swap1\n        /* \"TRUSTFY v4.3 \\xe2\\x80\\x94 Contract.sol\":23812:23865  creditBalance[e.buyer][e.token] += e.buyerDisputeBond */\n      tag_380\n      swap1\n        /* \"TRUSTFY v4.3 \\xe2\\x80\\x94 Contract.sol\":23847:23865  e.buyerDisputeBond */\n      dup5\n      swap1\n        /* \"TRUSTFY v4.3 \\xe2\\x80\\x94 Contract.sol\":23812:23865  creditBalance[e.buyer][e.token] += e.buyerDisputeBond */\n      tag_189\n      jump\t// in\n    tag_380:\n      swap1\n      swap2\n      sstore\n      pop\n      pop\n        /* \"TRUSTFY v4.3 \\xe2\\x80\\x94 Contract.sol\":23905:23912  e.token */\n      0x03\n      dup4\n      add\n      sload\n      0x01\n        /* \"TRUSTFY v4.3 \\xe2\\x80\\x94 Contract.sol\":23896:23903  e.buyer */\n      dup5\n      add\n      sload\n        /* \"TRUSTFY v4.3 \\xe2\\x80\\x94 Contract.sol\":23914:23932  e.buyerDisputeBond */\n      0x06\n      dup6\n      add\n      sload\n        /* \"TRUSTFY v4.3 \\xe2\\x80\\x94 Contract.sol\":23944:24009  abi.encodePacked(\"BUYER_DISPUTE_REFUND_SELLER_NO_FUND\", escrowId) */\n      0x40\n      dup1\n      mload\n        /* \"#utility.yul\":16112:16146   */\n      0x42555945525f444953505554455f524546554e445f53454c4c45525f4e4f5f46\n        /* \"TRUSTFY v4.3 \\xe2\\x80\\x94 Contract.sol\":23944:24009  abi.encodePacked(\"BUYER_DISPUTE_REFUND_SELLER_NO_FUND\", escrowId) */\n      0x20\n      dup3\n      add\n        /* \"#utility.yul\":16100:16147   */\n      mstore\n      shl(0xea, 0x155391)\n        /* \"#utility.yul\":16163:16175   */\n      swap2\n      dup2\n      add\n        /* \"#utility.yul\":16156:16183   */\n      swap2\n      swap1\n      swap2\n      mstore\n        /* \"#utility.yul\":16199:16211   */\n      0x43\n      dup2\n      add\n        /* \"#utility.yul\":16192:16220   */\n      dup9\n      swap1\n      mstore\n      sub(shl(0xa0, 0x01), 0x01)\n        /* \"TRUSTFY v4.3 \\xe2\\x80\\x94 Contract.sol\":23905:23912  e.token */\n      swap4\n      dup5\n      and\n      swap4\n        /* \"TRUSTFY v4.3 \\xe2\\x80\\x94 Contract.sol\":23896:23903  e.buyer */\n      swap1\n      swap3\n      and\n      swap2\n      0x00\n      dup1\n      mload\n      0x20\n      data_a1787636192da96984a031a805d7165b97afdc9cf24262e59bc86055df6ab426\n      dup4\n      codecopy\n      dup2\n      mload\n      swap2\n      mstore\n        /* \"TRUSTFY v4.3 \\xe2\\x80\\x94 Contract.sol\":23884:24011  CreditAdded(e.buyer, e.token, e.buyerDisputeBond, keccak256(abi.encodePacked(\"BUYER_DISPUTE_REFUND_SELLER_NO_FUND\", escrowId))) */\n      swap2\n        /* \"TRUSTFY v4.3 \\xe2\\x80\\x94 Contract.sol\":23914:23932  e.buyerDisputeBond */\n      swap1\n        /* \"#utility.yul\":16236:16248   */\n      0x63\n      add\n        /* \"TRUSTFY v4.3 \\xe2\\x80\\x94 Contract.sol\":23944:24009  abi.encodePacked(\"BUYER_DISPUTE_REFUND_SELLER_NO_FUND\", escrowId) */\n      0x40\n      dup1\n      mload\n      not(0x1f)\n      dup2\n      dup5\n      sub\n      add\n      dup2\n      mstore\n      dup3\n      dup3\n      mstore\n        /* \"TRUSTFY v4.3 \\xe2\\x80\\x94 Contract.sol\":23934:24010  keccak256(abi.encodePacked(\"BUYER_DISPUTE_REFUND_SELLER_NO_FUND\", escrowId)) */\n      dup1\n      mload\n        /* \"TRUSTFY v4.3 \\xe2\\x80\\x94 Contract.sol\":23944:24009  abi.encodePacked(\"BUYER_DISPUTE_REFUND_SELLER_NO_FUND\", escrowId) */\n      0x20\n        /* \"TRUSTFY v4.3 \\xe2\\x80\\x94 Contract.sol\":23934:24010  keccak256(abi.encodePacked(\"BUYER_DISPUTE_REFUND_SELLER_NO_FUND\", escrowId)) */\n      swap2\n      dup3\n      add\n      keccak256\n        /* \"#utility.yul\":16433:16458   */\n      swap4\n      dup4\n      mstore\n        /* \"#utility.yul\":16474:16492   */\n      dup3\n      add\n        /* \"#utility.yul\":16467:16501   */\n      swap3\n      swap1\n      swap3\n      mstore\n        /* \"#utility.yul\":16406:16424   */\n      add\n        /* \"TRUSTFY v4.3 \\xe2\\x80\\x94 Contract.sol\":23884:24011  CreditAdded(e.buyer, e.token, e.buyerDisputeBond, keccak256(abi.encodePacked(\"BUYER_DISPUTE_REFUND_SELLER_NO_FUND\", escrowId))) */\n      mload(0x40)\n      dup1\n      swap2\n      sub\n      swap1\n      log3\n        /* \"TRUSTFY v4.3 \\xe2\\x80\\x94 Contract.sol\":24046:24047  0 */\n      0x00\n        /* \"TRUSTFY v4.3 \\xe2\\x80\\x94 Contract.sol\":24025:24043  e.buyerDisputeBond */\n      0x06\n      dup5\n      add\n        /* \"TRUSTFY v4.3 \\xe2\\x80\\x94 Contract.sol\":24025:24047  e.buyerDisputeBond = 0 */\n      sstore\n        /* \"TRUSTFY v4.3 \\xe2\\x80\\x94 Contract.sol\":23770:24058  if (e.buyerDisputeBond > 0) {... */\n    tag_379:\n        /* \"TRUSTFY v4.3 \\xe2\\x80\\x94 Contract.sol\":24068:24076  e.status */\n      0x08\n      dup4\n      add\n        /* \"TRUSTFY v4.3 \\xe2\\x80\\x94 Contract.sol\":24068:24101  e.status = EscrowStatus.CANCELLED */\n      dup1\n      sload\n        /* \"TRUSTFY v4.3 \\xe2\\x80\\x94 Contract.sol\":24079:24101  EscrowStatus.CANCELLED */\n      0x06\n      not(0xff)\n        /* \"TRUSTFY v4.3 \\xe2\\x80\\x94 Contract.sol\":24068:24101  e.status = EscrowStatus.CANCELLED */\n      swap1\n      swap2\n      and\n      or\n      swap1\n      sstore\n        /* \"TRUSTFY v4.3 \\xe2\\x80\\x94 Contract.sol\":24186:24210  _makerIsFundingParty(ad) */\n      0x40\n      dup1\n      mload\n      0xe0\n      dup2\n      add\n      dup3\n      mstore\n      dup3\n      sload\n      sub(shl(0xa0, 0x01), 0x01)\n      dup1\n      dup3\n      and\n      dup4\n      mstore\n      0xff\n      shl(0xa0, 0x01)\n      swap1\n      swap3\n      div\n      dup3\n      and\n      iszero\n      iszero\n      0x20\n      dup5\n      add\n      mstore\n      0x01\n      dup6\n      add\n      sload\n      and\n      swap3\n      dup3\n      add\n      swap3\n      swap1\n      swap3\n      mstore\n      0x02\n      dup4\n      add\n      sload\n      0x60\n      dup3\n      add\n      mstore\n      0x03\n      dup1\n      dup5\n      add\n      sload\n      0x80\n      dup4\n      add\n      mstore\n      0x04\n      dup5\n      add\n      sload\n      tag_387\n      swap4\n      dup6\n      swap3\n      0xa0\n      dup6\n      add\n      swap3\n      swap1\n      swap2\n      and\n      swap1\n      dup2\n      gt\n      iszero\n      tag_389\n      jumpi\n      tag_389\n      tag_157\n      jump\t// in\n    tag_389:\n      0x03\n      dup2\n      gt\n      iszero\n      tag_391\n      jumpi\n      tag_391\n      tag_157\n      jump\t// in\n    tag_391:\n      dup2\n      mstore\n      0x20\n      add\n      0x05\n      dup3\n      add\n      sload\n      dup2\n      mstore\n      pop\n      pop\n        /* \"TRUSTFY v4.3 \\xe2\\x80\\x94 Contract.sol\":12773:12784  ad.isSellAd */\n      0x20\n      add\n      mload\n      swap1\n        /* \"TRUSTFY v4.3 \\xe2\\x80\\x94 Contract.sol\":12563:12791  function _makerIsFundingParty(Ad memory ad) internal pure returns (bool) {... */\n      jump\n        /* \"TRUSTFY v4.3 \\xe2\\x80\\x94 Contract.sol\":24186:24210  _makerIsFundingParty(ad) */\n    tag_387:\n        /* \"TRUSTFY v4.3 \\xe2\\x80\\x94 Contract.sol\":24182:24769  if (_makerIsFundingParty(ad)) {... */\n      iszero\n      tag_393\n      jumpi\n        /* \"TRUSTFY v4.3 \\xe2\\x80\\x94 Contract.sol\":24226:24234  ad.state */\n      0x04\n      dup2\n      add\n        /* \"TRUSTFY v4.3 \\xe2\\x80\\x94 Contract.sol\":24226:24254  ad.state = AdState.CANCELLED */\n      dup1\n      sload\n      not(0xff)\n      and\n        /* \"TRUSTFY v4.3 \\xe2\\x80\\x94 Contract.sol\":24237:24254  AdState.CANCELLED */\n      0x02\n        /* \"TRUSTFY v4.3 \\xe2\\x80\\x94 Contract.sol\":24226:24254  ad.state = AdState.CANCELLED */\n      or\n      swap1\n      sstore\n        /* \"TRUSTFY v4.3 \\xe2\\x80\\x94 Contract.sol\":24272:24281  ad.adBond */\n      0x03\n      dup2\n      add\n      sload\n        /* \"TRUSTFY v4.3 \\xe2\\x80\\x94 Contract.sol\":24272:24285  ad.adBond > 0 */\n      iszero\n        /* \"TRUSTFY v4.3 \\xe2\\x80\\x94 Contract.sol\":24268:24401  if (ad.adBond > 0) {... */\n      tag_396\n      jumpi\n        /* \"TRUSTFY v4.3 \\xe2\\x80\\x94 Contract.sol\":24335:24343  treasury */\n      0x03\n      dup1\n      sload\n        /* \"TRUSTFY v4.3 \\xe2\\x80\\x94 Contract.sol\":24345:24354  ad.adBond */\n      swap1\n      dup3\n      add\n      sload\n        /* \"TRUSTFY v4.3 \\xe2\\x80\\x94 Contract.sol\":24335:24343  treasury */\n      0x01\n        /* \"TRUSTFY v4.3 \\xe2\\x80\\x94 Contract.sol\":24312:24320  ad.token */\n      dup4\n      add\n      sload\n        /* \"TRUSTFY v4.3 \\xe2\\x80\\x94 Contract.sol\":24305:24355  IERC20(ad.token).safeTransfer(treasury, ad.adBond) */\n      tag_397\n      swap3\n      sub(shl(0xa0, 0x01), 0x01)\n        /* \"TRUSTFY v4.3 \\xe2\\x80\\x94 Contract.sol\":24312:24320  ad.token */\n      swap2\n      dup3\n      and\n      swap3\n        /* \"TRUSTFY v4.3 \\xe2\\x80\\x94 Contract.sol\":24335:24343  treasury */\n      swap2\n      and\n      swap1\n        /* \"TRUSTFY v4.3 \\xe2\\x80\\x94 Contract.sol\":24305:24334  IERC20(ad.token).safeTransfer */\n      tag_202\n        /* \"TRUSTFY v4.3 \\xe2\\x80\\x94 Contract.sol\":24305:24355  IERC20(ad.token).safeTransfer(treasury, ad.adBond) */\n      jump\t// in\n    tag_397:\n        /* \"TRUSTFY v4.3 \\xe2\\x80\\x94 Contract.sol\":24385:24386  0 */\n      0x00\n        /* \"TRUSTFY v4.3 \\xe2\\x80\\x94 Contract.sol\":24373:24382  ad.adBond */\n      0x03\n      dup3\n      add\n        /* \"TRUSTFY v4.3 \\xe2\\x80\\x94 Contract.sol\":24373:24386  ad.adBond = 0 */\n      sstore\n        /* \"TRUSTFY v4.3 \\xe2\\x80\\x94 Contract.sol\":24268:24401  if (ad.adBond > 0) {... */\n    tag_396:\n        /* \"TRUSTFY v4.3 \\xe2\\x80\\x94 Contract.sol\":24434:24435  0 */\n      0x00\n        /* \"TRUSTFY v4.3 \\xe2\\x80\\x94 Contract.sol\":24414:24431  ad.activeEscrowId */\n      0x05\n      dup3\n      add\n        /* \"TRUSTFY v4.3 \\xe2\\x80\\x94 Contract.sol\":24414:24435  ad.activeEscrowId = 0 */\n      dup2\n      swap1\n      sstore\n        /* \"TRUSTFY v4.3 \\xe2\\x80\\x94 Contract.sol\":24466:24472  e.adId */\n      dup4\n      sload\n        /* \"TRUSTFY v4.3 \\xe2\\x80\\x94 Contract.sol\":24454:24473  AdCancelled(e.adId) */\n      mload(0x40)\n        /* \"TRUSTFY v4.3 \\xe2\\x80\\x94 Contract.sol\":24466:24472  e.adId */\n      swap1\n      swap2\n        /* \"TRUSTFY v4.3 \\xe2\\x80\\x94 Contract.sol\":24454:24473  AdCancelled(e.adId) */\n      0x20e953810446bfec422c45a49b30c7b446bc121960d6568e36a20016140f86b7\n      swap2\n      log2\n        /* \"TRUSTFY v4.3 \\xe2\\x80\\x94 Contract.sol\":24508:24516  escrowId */\n      dup4\n        /* \"TRUSTFY v4.3 \\xe2\\x80\\x94 Contract.sol\":24492:24549  EscrowCancelled(escrowId, \"SELLER_NO_FUND_MAKER_PENALTY\") */\n      0xdf5af23a8bfbd700e381c19607d03504d7a5ba1876c669cccd37feace1f5adaa\n      mload(0x40)\n      tag_398\n      swap1\n        /* \"#utility.yul\":16714:16716   */\n      0x20\n        /* \"#utility.yul\":16696:16717   */\n      dup1\n      dup3\n      mstore\n        /* \"#utility.yul\":16753:16755   */\n      0x1c\n        /* \"#utility.yul\":16733:16751   */\n      swap1\n      dup3\n      add\n        /* \"#utility.yul\":16726:16756   */\n      mstore\n        /* \"#utility.yul\":16792:16822   */\n      0x53454c4c45525f4e4f5f46554e445f4d414b45525f50454e414c545900000000\n        /* \"#utility.yul\":16787:16789   */\n      0x40\n        /* \"#utility.yul\":16772:16790   */\n      dup3\n      add\n        /* \"#utility.yul\":16765:16823   */\n      mstore\n        /* \"#utility.yul\":16855:16857   */\n      0x60\n        /* \"#utility.yul\":16840:16858   */\n      add\n      swap1\n        /* \"#utility.yul\":16512:16864   */\n      jump\n        /* \"TRUSTFY v4.3 \\xe2\\x80\\x94 Contract.sol\":24492:24549  EscrowCancelled(escrowId, \"SELLER_NO_FUND_MAKER_PENALTY\") */\n    tag_398:\n      mload(0x40)\n      dup1\n      swap2\n      sub\n      swap1\n      log2\n        /* \"TRUSTFY v4.3 \\xe2\\x80\\x94 Contract.sol\":24182:24769  if (_makerIsFundingParty(ad)) {... */\n      jump(tag_400)\n    tag_393:\n        /* \"TRUSTFY v4.3 \\xe2\\x80\\x94 Contract.sol\":24628:24636  ad.state */\n      0x04\n      dup2\n      add\n        /* \"TRUSTFY v4.3 \\xe2\\x80\\x94 Contract.sol\":24628:24654  ad.state = AdState.CREATED */\n      dup1\n      sload\n      not(0xff)\n      and\n      swap1\n      sstore\n      0x00\n        /* \"TRUSTFY v4.3 \\xe2\\x80\\x94 Contract.sol\":24668:24685  ad.activeEscrowId */\n      0x05\n      dup3\n      add\n        /* \"TRUSTFY v4.3 \\xe2\\x80\\x94 Contract.sol\":24668:24689  ad.activeEscrowId = 0 */\n      sstore\n        /* \"TRUSTFY v4.3 \\xe2\\x80\\x94 Contract.sol\":24708:24758  EscrowCancelled(escrowId, \"SELLER_NO_FUND_REOPEN\") */\n      0x40\n      dup1\n      mload\n        /* \"#utility.yul\":17071:17073   */\n      0x20\n        /* \"#utility.yul\":17053:17074   */\n      dup1\n      dup3\n      mstore\n        /* \"#utility.yul\":17110:17112   */\n      0x15\n        /* \"#utility.yul\":17090:17108   */\n      swap1\n      dup3\n      add\n        /* \"#utility.yul\":17083:17113   */\n      mstore\n      shl(0x59, 0x29a2a62622a92fa727afa32aa7222fa922a7a822a7)\n        /* \"#utility.yul\":17129:17147   */\n      dup2\n      dup4\n      add\n        /* \"#utility.yul\":17122:17173   */\n      mstore\n        /* \"TRUSTFY v4.3 \\xe2\\x80\\x94 Contract.sol\":24708:24758  EscrowCancelled(escrowId, \"SELLER_NO_FUND_REOPEN\") */\n      swap1\n      mload\n        /* \"TRUSTFY v4.3 \\xe2\\x80\\x94 Contract.sol\":24724:24732  escrowId */\n      dup6\n      swap2\n        /* \"TRUSTFY v4.3 \\xe2\\x80\\x94 Contract.sol\":24708:24758  EscrowCancelled(escrowId, \"SELLER_NO_FUND_REOPEN\") */\n      0xdf5af23a8bfbd700e381c19607d03504d7a5ba1876c669cccd37feace1f5adaa\n      swap2\n      swap1\n      dup2\n      swap1\n      sub\n        /* \"#utility.yul\":17205:17207   */\n      0x60\n        /* \"TRUSTFY v4.3 \\xe2\\x80\\x94 Contract.sol\":24708:24758  EscrowCancelled(escrowId, \"SELLER_NO_FUND_REOPEN\") */\n      add\n      swap1\n      log2\n        /* \"TRUSTFY v4.3 \\xe2\\x80\\x94 Contract.sol\":24182:24769  if (_makerIsFundingParty(ad)) {... */\n    tag_400:\n        /* \"TRUSTFY v4.3 \\xe2\\x80\\x94 Contract.sol\":23235:24775  {... */\n      pop\n      pop\n      pop\n        /* \"TRUSTFY v4.3 \\xe2\\x80\\x94 Contract.sol\":23179:24775  function expireSellerFunding(uint256 escrowId) external {... */\n      pop\n      jump\t// out\n        /* \"TRUSTFY v4.3 \\xe2\\x80\\x94 Contract.sol\":26251:26715  function buyerMayDispute(uint256 escrowId) external view returns (bool) {... */\n    tag_120:\n        /* \"TRUSTFY v4.3 \\xe2\\x80\\x94 Contract.sol\":26317:26321  bool */\n      0x00\n        /* \"TRUSTFY v4.3 \\xe2\\x80\\x94 Contract.sol\":26352:26369  escrows[escrowId] */\n      dup2\n      dup2\n      mstore\n        /* \"TRUSTFY v4.3 \\xe2\\x80\\x94 Contract.sol\":26352:26359  escrows */\n      0x09\n        /* \"TRUSTFY v4.3 \\xe2\\x80\\x94 Contract.sol\":26352:26369  escrows[escrowId] */\n      0x20\n      mstore\n      0x40\n      dup2\n      keccak256\n        /* \"TRUSTFY v4.3 \\xe2\\x80\\x94 Contract.sol\":26383:26389  e.adId */\n      dup1\n      sload\n        /* \"TRUSTFY v4.3 \\xe2\\x80\\x94 Contract.sol\":26383:26394  e.adId == 0 */\n      dup3\n      sub\n        /* \"TRUSTFY v4.3 \\xe2\\x80\\x94 Contract.sol\":26379:26408  if (e.adId == 0) return false */\n      tag_406\n      jumpi\n      pop\n        /* \"TRUSTFY v4.3 \\xe2\\x80\\x94 Contract.sol\":26403:26408  false */\n      0x00\n      swap3\n        /* \"TRUSTFY v4.3 \\xe2\\x80\\x94 Contract.sol\":26251:26715  function buyerMayDispute(uint256 escrowId) external view returns (bool) {... */\n      swap2\n      pop\n      pop\n      jump\t// out\n        /* \"TRUSTFY v4.3 \\xe2\\x80\\x94 Contract.sol\":26379:26408  if (e.adId == 0) return false */\n    tag_406:\n        /* \"TRUSTFY v4.3 \\xe2\\x80\\x94 Contract.sol\":26434:26464  EscrowStatus.PAYMENT_CONFIRMED */\n      0x03\n        /* \"TRUSTFY v4.3 \\xe2\\x80\\x94 Contract.sol\":26422:26430  e.status */\n      0x08\n      dup3\n      add\n      sload\n      0xff\n      and\n        /* \"TRUSTFY v4.3 \\xe2\\x80\\x94 Contract.sol\":26422:26464  e.status != EscrowStatus.PAYMENT_CONFIRMED */\n      0x06\n      dup2\n      gt\n      iszero\n      tag_410\n      jumpi\n      tag_410\n      tag_157\n      jump\t// in\n    tag_410:\n      eq\n        /* \"TRUSTFY v4.3 \\xe2\\x80\\x94 Contract.sol\":26418:26478  if (e.status != EscrowStatus.PAYMENT_CONFIRMED) return false */\n      tag_411\n      jumpi\n      pop\n        /* \"TRUSTFY v4.3 \\xe2\\x80\\x94 Contract.sol\":26473:26478  false */\n      0x00\n      swap3\n        /* \"TRUSTFY v4.3 \\xe2\\x80\\x94 Contract.sol\":26251:26715  function buyerMayDispute(uint256 escrowId) external view returns (bool) {... */\n      swap2\n      pop\n      pop\n      jump\t// out\n        /* \"TRUSTFY v4.3 \\xe2\\x80\\x94 Contract.sol\":26418:26478  if (e.status != EscrowStatus.PAYMENT_CONFIRMED) return false */\n    tag_411:\n        /* \"TRUSTFY v4.3 \\xe2\\x80\\x94 Contract.sol\":26526:26533  e.token */\n      0x03\n      dup2\n      add\n      sload\n      sub(shl(0xa0, 0x01), 0x01)\n      and\n        /* \"TRUSTFY v4.3 \\xe2\\x80\\x94 Contract.sol\":26489:26511  TokenConfig memory cfg */\n      0x00\n        /* \"TRUSTFY v4.3 \\xe2\\x80\\x94 Contract.sol\":26514:26534  tokenConfig[e.token] */\n      swap1\n      dup2\n      mstore\n        /* \"TRUSTFY v4.3 \\xe2\\x80\\x94 Contract.sol\":26514:26525  tokenConfig */\n      0x04\n        /* \"TRUSTFY v4.3 \\xe2\\x80\\x94 Contract.sol\":26514:26534  tokenConfig[e.token] */\n      0x20\n      swap1\n      dup2\n      mstore\n      0x40\n      swap2\n      dup3\n      swap1\n      keccak256\n        /* \"TRUSTFY v4.3 \\xe2\\x80\\x94 Contract.sol\":26489:26534  TokenConfig memory cfg = tokenConfig[e.token] */\n      dup3\n      mload\n      0x0120\n      dup2\n      add\n      dup5\n      mstore\n      dup2\n      sload\n      0xff\n      dup2\n      and\n      iszero\n      iszero\n      dup1\n      dup4\n      mstore\n      0xffff\n        /* \"TRUSTFY v4.3 \\xe2\\x80\\x94 Contract.sol\":26526:26533  e.token */\n      0x0100\n        /* \"TRUSTFY v4.3 \\xe2\\x80\\x94 Contract.sol\":26489:26534  TokenConfig memory cfg = tokenConfig[e.token] */\n      dup1\n      dup5\n      div\n      dup3\n      and\n      swap7\n      dup6\n      add\n      swap7\n      swap1\n      swap7\n      mstore\n      0x01000000\n      dup4\n      div\n      dup2\n      and\n      swap7\n      dup5\n      add\n      swap7\n      swap1\n      swap7\n      mstore\n      0x010000000000\n      swap1\n      swap2\n      div\n      dup6\n      and\n      0x60\n      dup4\n      add\n      mstore\n        /* \"TRUSTFY v4.3 \\xe2\\x80\\x94 Contract.sol\":26526:26533  e.token */\n      0x01\n        /* \"TRUSTFY v4.3 \\xe2\\x80\\x94 Contract.sol\":26489:26534  TokenConfig memory cfg = tokenConfig[e.token] */\n      dup4\n      add\n      sload\n      0x80\n      dup4\n      add\n      mstore\n      0x02\n      swap1\n      swap3\n      add\n      sload\n      swap4\n      dup5\n      and\n      0xa0\n      dup3\n      add\n      mstore\n      0xffffffff\n      0x010000\n      dup6\n      div\n      dup2\n      and\n      0xc0\n      dup4\n      add\n      mstore\n      shl(0x30, 0x01)\n      dup6\n      div\n      dup2\n      and\n      0xe0\n      dup4\n      add\n      mstore\n      shl(0x50, 0x01)\n      swap1\n      swap5\n      div\n      swap1\n      swap4\n      and\n      swap2\n      dup4\n      add\n      swap2\n      swap1\n      swap2\n      mstore\n        /* \"TRUSTFY v4.3 \\xe2\\x80\\x94 Contract.sol\":26544:26574  if (!cfg.enabled) return false */\n      tag_412\n      jumpi\n      pop\n        /* \"TRUSTFY v4.3 \\xe2\\x80\\x94 Contract.sol\":26569:26574  false */\n      0x00\n      swap4\n        /* \"TRUSTFY v4.3 \\xe2\\x80\\x94 Contract.sol\":26251:26715  function buyerMayDispute(uint256 escrowId) external view returns (bool) {... */\n      swap3\n      pop\n      pop\n      pop\n      jump\t// out\n        /* \"TRUSTFY v4.3 \\xe2\\x80\\x94 Contract.sol\":26544:26574  if (!cfg.enabled) return false */\n    tag_412:\n        /* \"TRUSTFY v4.3 \\xe2\\x80\\x94 Contract.sol\":26588:26603  e.disputeOpened */\n      0x0c\n      dup3\n      add\n      sload\n      0xff\n      and\n        /* \"TRUSTFY v4.3 \\xe2\\x80\\x94 Contract.sol\":26584:26617  if (e.disputeOpened) return false */\n      iszero\n      tag_413\n      jumpi\n      pop\n        /* \"TRUSTFY v4.3 \\xe2\\x80\\x94 Contract.sol\":26612:26617  false */\n      0x00\n      swap4\n        /* \"TRUSTFY v4.3 \\xe2\\x80\\x94 Contract.sol\":26251:26715  function buyerMayDispute(uint256 escrowId) external view returns (bool) {... */\n      swap3\n      pop\n      pop\n      pop\n      jump\t// out\n        /* \"TRUSTFY v4.3 \\xe2\\x80\\x94 Contract.sol\":26584:26617  if (e.disputeOpened) return false */\n    tag_413:\n        /* \"TRUSTFY v4.3 \\xe2\\x80\\x94 Contract.sol\":26684:26687  cfg */\n      dup1\n        /* \"TRUSTFY v4.3 \\xe2\\x80\\x94 Contract.sol\":26684:26707  cfg.sellerReleaseWindow */\n      0x0100\n      add\n      mload\n        /* \"TRUSTFY v4.3 \\xe2\\x80\\x94 Contract.sol\":26676:26708  uint256(cfg.sellerReleaseWindow) */\n      0xffffffff\n      and\n        /* \"TRUSTFY v4.3 \\xe2\\x80\\x94 Contract.sol\":26653:26654  e */\n      dup3\n        /* \"TRUSTFY v4.3 \\xe2\\x80\\x94 Contract.sol\":26653:26673  e.paymentConfirmedAt */\n      0x0b\n      add\n      sload\n        /* \"TRUSTFY v4.3 \\xe2\\x80\\x94 Contract.sol\":26653:26708  e.paymentConfirmedAt + uint256(cfg.sellerReleaseWindow) */\n      tag_414\n      swap2\n      swap1\n      tag_189\n      jump\t// in\n    tag_414:\n        /* \"TRUSTFY v4.3 \\xe2\\x80\\x94 Contract.sol\":26635:26650  block.timestamp */\n      timestamp\n        /* \"TRUSTFY v4.3 \\xe2\\x80\\x94 Contract.sol\":26635:26708  block.timestamp > e.paymentConfirmedAt + uint256(cfg.sellerReleaseWindow) */\n      gt\n      swap5\n        /* \"TRUSTFY v4.3 \\xe2\\x80\\x94 Contract.sol\":26251:26715  function buyerMayDispute(uint256 escrowId) external view returns (bool) {... */\n      swap4\n      pop\n      pop\n      pop\n      pop\n      jump\t// out\n        /* \"TRUSTFY v4.3 \\xe2\\x80\\x94 Contract.sol\":16308:17407  function fundEscrow(uint256 escrowId) external {... */\n    tag_124:\n        /* \"TRUSTFY v4.3 \\xe2\\x80\\x94 Contract.sol\":16365:16381  Escrow storage e */\n      0x00\n        /* \"TRUSTFY v4.3 \\xe2\\x80\\x94 Contract.sol\":16384:16401  escrows[escrowId] */\n      dup2\n      dup2\n      mstore\n        /* \"TRUSTFY v4.3 \\xe2\\x80\\x94 Contract.sol\":16384:16391  escrows */\n      0x09\n        /* \"TRUSTFY v4.3 \\xe2\\x80\\x94 Contract.sol\":16384:16401  escrows[escrowId] */\n      0x20\n      mstore\n      0x40\n      dup2\n      keccak256\n        /* \"TRUSTFY v4.3 \\xe2\\x80\\x94 Contract.sol\":16419:16425  e.adId */\n      dup1\n      sload\n        /* \"TRUSTFY v4.3 \\xe2\\x80\\x94 Contract.sol\":16384:16401  escrows[escrowId] */\n      swap1\n      swap2\n        /* \"TRUSTFY v4.3 \\xe2\\x80\\x94 Contract.sol\":16419:16430  e.adId != 0 */\n      sub\n        /* \"TRUSTFY v4.3 \\xe2\\x80\\x94 Contract.sol\":16411:16451  require(e.adId != 0, \"ESCROW_NOT_FOUND\") */\n      tag_416\n      jumpi\n      mload(0x40)\n      shl(0xe5, 0x461bcd)\n      dup2\n      mstore\n      0x04\n      add\n      tag_153\n      swap1\n      tag_154\n      jump\t// in\n    tag_416:\n        /* \"TRUSTFY v4.3 \\xe2\\x80\\x94 Contract.sol\":16481:16499  EscrowStatus.TAKEN */\n      0x01\n        /* \"TRUSTFY v4.3 \\xe2\\x80\\x94 Contract.sol\":16469:16477  e.status */\n      0x08\n      dup3\n      add\n      sload\n      0xff\n      and\n        /* \"TRUSTFY v4.3 \\xe2\\x80\\x94 Contract.sol\":16469:16499  e.status == EscrowStatus.TAKEN */\n      0x06\n      dup2\n      gt\n      iszero\n      tag_421\n      jumpi\n      tag_421\n      tag_157\n      jump\t// in\n    tag_421:\n      eq\n        /* \"TRUSTFY v4.3 \\xe2\\x80\\x94 Contract.sol\":16501:16514  ERR_BAD_STATE */\n      mload(0x40)\n      dup1\n      0x40\n      add\n      0x40\n      mstore\n      dup1\n      0x09\n      dup2\n      mstore\n      0x20\n      add\n      shl(0xb8, 0x4241445f5354415445)\n      dup2\n      mstore\n      pop\n        /* \"TRUSTFY v4.3 \\xe2\\x80\\x94 Contract.sol\":16461:16515  require(e.status == EscrowStatus.TAKEN, ERR_BAD_STATE) */\n      swap1\n      tag_422\n      jumpi\n      mload(0x40)\n      shl(0xe5, 0x461bcd)\n      dup2\n      mstore\n      0x04\n      add\n      tag_153\n      swap2\n      swap1\n      tag_162\n      jump\t// in\n    tag_422:\n      pop\n        /* \"TRUSTFY v4.3 \\xe2\\x80\\x94 Contract.sol\":16547:16555  e.seller */\n      0x02\n      dup2\n      add\n      sload\n        /* \"TRUSTFY v4.3 \\xe2\\x80\\x94 Contract.sol\":16557:16571  ERR_NOT_SELLER */\n      0x40\n      dup1\n      mload\n      dup1\n      dup3\n      add\n      swap1\n      swap2\n      mstore\n      0x0a\n      dup2\n      mstore\n      shl(0xb1, 0x2727aa2fa9a2a62622a9)\n      0x20\n      dup3\n      add\n      mstore\n      swap1\n      sub(shl(0xa0, 0x01), 0x01)\n        /* \"TRUSTFY v4.3 \\xe2\\x80\\x94 Contract.sol\":16547:16555  e.seller */\n      and\n        /* \"TRUSTFY v4.3 \\xe2\\x80\\x94 Contract.sol\":16533:16543  msg.sender */\n      caller\n        /* \"TRUSTFY v4.3 \\xe2\\x80\\x94 Contract.sol\":16533:16555  msg.sender == e.seller */\n      eq\n        /* \"TRUSTFY v4.3 \\xe2\\x80\\x94 Contract.sol\":16525:16572  require(msg.sender == e.seller, ERR_NOT_SELLER) */\n      tag_424\n      jumpi\n      mload(0x40)\n      shl(0xe5, 0x461bcd)\n      dup2\n      mstore\n      0x04\n      add\n      tag_153\n      swap2\n      swap1\n      tag_162\n      jump\t// in\n    tag_424:\n      pop\n        /* \"TRUSTFY v4.3 \\xe2\\x80\\x94 Contract.sol\":16603:16609  e.adId */\n      dup1\n      sload\n        /* \"TRUSTFY v4.3 \\xe2\\x80\\x94 Contract.sol\":16583:16596  Ad storage ad */\n      0x00\n        /* \"TRUSTFY v4.3 \\xe2\\x80\\x94 Contract.sol\":16599:16610  ads[e.adId] */\n      swap1\n      dup2\n      mstore\n        /* \"TRUSTFY v4.3 \\xe2\\x80\\x94 Contract.sol\":16599:16602  ads */\n      0x08\n        /* \"TRUSTFY v4.3 \\xe2\\x80\\x94 Contract.sol\":16599:16610  ads[e.adId] */\n      0x20\n      swap1\n      dup2\n      mstore\n      0x40\n      swap2\n      dup3\n      swap1\n      keccak256\n        /* \"TRUSTFY v4.3 \\xe2\\x80\\x94 Contract.sol\":16628:16645  ad.activeEscrowId */\n      0x05\n      dup2\n      add\n      sload\n        /* \"TRUSTFY v4.3 \\xe2\\x80\\x94 Contract.sol\":16659:16678  ERR_ESCROW_MISMATCH */\n      dup4\n      mload\n      dup1\n      dup6\n      add\n      swap1\n      swap5\n      mstore\n      0x0f\n      dup5\n      mstore\n      shl(0x8b, 0x08aa686a49eaebe9a92a69a82a8869)\n      swap3\n      dup5\n      add\n      swap3\n      swap1\n      swap3\n      mstore\n        /* \"TRUSTFY v4.3 \\xe2\\x80\\x94 Contract.sol\":16599:16610  ads[e.adId] */\n      swap2\n        /* \"TRUSTFY v4.3 \\xe2\\x80\\x94 Contract.sol\":16659:16678  ERR_ESCROW_MISMATCH */\n      swap1\n        /* \"TRUSTFY v4.3 \\xe2\\x80\\x94 Contract.sol\":16628:16657  ad.activeEscrowId == escrowId */\n      dup5\n      eq\n        /* \"TRUSTFY v4.3 \\xe2\\x80\\x94 Contract.sol\":16620:16679  require(ad.activeEscrowId == escrowId, ERR_ESCROW_MISMATCH) */\n      tag_426\n      jumpi\n      mload(0x40)\n      shl(0xe5, 0x461bcd)\n      dup2\n      mstore\n      0x04\n      add\n      tag_153\n      swap2\n      swap1\n      tag_162\n      jump\t// in\n    tag_426:\n      pop\n        /* \"TRUSTFY v4.3 \\xe2\\x80\\x94 Contract.sol\":16709:16722  AdState.TAKEN */\n      0x01\n        /* \"TRUSTFY v4.3 \\xe2\\x80\\x94 Contract.sol\":16697:16705  ad.state */\n      0x04\n      dup3\n      add\n      sload\n      0xff\n      and\n        /* \"TRUSTFY v4.3 \\xe2\\x80\\x94 Contract.sol\":16697:16722  ad.state == AdState.TAKEN */\n      0x03\n      dup2\n      gt\n      iszero\n      tag_431\n      jumpi\n      tag_431\n      tag_157\n      jump\t// in\n    tag_431:\n      eq\n        /* \"TRUSTFY v4.3 \\xe2\\x80\\x94 Contract.sol\":16724:16737  ERR_BAD_STATE */\n      mload(0x40)\n      dup1\n      0x40\n      add\n      0x40\n      mstore\n      dup1\n      0x09\n      dup2\n      mstore\n      0x20\n      add\n      shl(0xb8, 0x4241445f5354415445)\n      dup2\n      mstore\n      pop\n        /* \"TRUSTFY v4.3 \\xe2\\x80\\x94 Contract.sol\":16689:16738  require(ad.state == AdState.TAKEN, ERR_BAD_STATE) */\n      swap1\n      tag_432\n      jumpi\n      mload(0x40)\n      shl(0xe5, 0x461bcd)\n      dup2\n      mstore\n      0x04\n      add\n      tag_153\n      swap2\n      swap1\n      tag_162\n      jump\t// in\n    tag_432:\n      pop\n        /* \"TRUSTFY v4.3 \\xe2\\x80\\x94 Contract.sol\":16779:16786  e.token */\n      0x03\n      dup3\n      add\n      sload\n        /* \"TRUSTFY v4.3 \\xe2\\x80\\x94 Contract.sol\":16749:16771  TokenConfig memory cfg */\n      0x00\n      swap1\n        /* \"TRUSTFY v4.3 \\xe2\\x80\\x94 Contract.sol\":16774:16787  _cfg(e.token) */\n      tag_434\n      swap1\n      sub(shl(0xa0, 0x01), 0x01)\n        /* \"TRUSTFY v4.3 \\xe2\\x80\\x94 Contract.sol\":16779:16786  e.token */\n      and\n        /* \"TRUSTFY v4.3 \\xe2\\x80\\x94 Contract.sol\":16774:16778  _cfg */\n      tag_187\n        /* \"TRUSTFY v4.3 \\xe2\\x80\\x94 Contract.sol\":16774:16787  _cfg(e.token) */\n      jump\t// in\n    tag_434:\n        /* \"TRUSTFY v4.3 \\xe2\\x80\\x94 Contract.sol\":16749:16787  TokenConfig memory cfg = _cfg(e.token) */\n      swap1\n      pop\n        /* \"TRUSTFY v4.3 \\xe2\\x80\\x94 Contract.sol\":16845:16848  cfg */\n      dup1\n        /* \"TRUSTFY v4.3 \\xe2\\x80\\x94 Contract.sol\":16845:16865  cfg.sellerFundWindow */\n      0xc0\n      add\n      mload\n        /* \"TRUSTFY v4.3 \\xe2\\x80\\x94 Contract.sol\":16837:16866  uint256(cfg.sellerFundWindow) */\n      0xffffffff\n      and\n        /* \"TRUSTFY v4.3 \\xe2\\x80\\x94 Contract.sol\":16825:16826  e */\n      dup4\n        /* \"TRUSTFY v4.3 \\xe2\\x80\\x94 Contract.sol\":16825:16834  e.takenAt */\n      0x09\n      add\n      sload\n        /* \"TRUSTFY v4.3 \\xe2\\x80\\x94 Contract.sol\":16825:16866  e.takenAt + uint256(cfg.sellerFundWindow) */\n      tag_435\n      swap2\n      swap1\n      tag_189\n      jump\t// in\n    tag_435:\n        /* \"TRUSTFY v4.3 \\xe2\\x80\\x94 Contract.sol\":16806:16821  block.timestamp */\n      timestamp\n        /* \"TRUSTFY v4.3 \\xe2\\x80\\x94 Contract.sol\":16806:16866  block.timestamp <= e.takenAt + uint256(cfg.sellerFundWindow) */\n      gt\n      iszero\n        /* \"TRUSTFY v4.3 \\xe2\\x80\\x94 Contract.sol\":16868:16886  ERR_WINDOW_EXPIRED */\n      mload(0x40)\n      dup1\n      0x40\n      add\n      0x40\n      mstore\n      dup1\n      0x0e\n      dup2\n      mstore\n      0x20\n      add\n      shl(0x92, 0x15d2539113d5d7d1561412549151)\n      dup2\n      mstore\n      pop\n        /* \"TRUSTFY v4.3 \\xe2\\x80\\x94 Contract.sol\":16798:16887  require(block.timestamp <= e.takenAt + uint256(cfg.sellerFundWindow), ERR_WINDOW_EXPIRED) */\n      swap1\n      tag_436\n      jumpi\n      mload(0x40)\n      shl(0xe5, 0x461bcd)\n      dup2\n      mstore\n      0x04\n      add\n      tag_153\n      swap2\n      swap1\n      tag_162\n      jump\t// in\n    tag_436:\n      pop\n        /* \"TRUSTFY v4.3 \\xe2\\x80\\x94 Contract.sol\":16923:16930  e.token */\n      0x03\n      dup4\n      add\n      sload\n        /* \"TRUSTFY v4.3 \\xe2\\x80\\x94 Contract.sol\":16932:16940  e.amount */\n      0x04\n      dup5\n      add\n      sload\n        /* \"TRUSTFY v4.3 \\xe2\\x80\\x94 Contract.sol\":16898:16909  uint256 fee */\n      0x00\n      swap2\n        /* \"TRUSTFY v4.3 \\xe2\\x80\\x94 Contract.sol\":16912:16941  _feeAmount(e.token, e.amount) */\n      tag_438\n      swap2\n      sub(shl(0xa0, 0x01), 0x01)\n        /* \"TRUSTFY v4.3 \\xe2\\x80\\x94 Contract.sol\":16923:16930  e.token */\n      swap1\n      swap2\n      and\n      swap1\n        /* \"TRUSTFY v4.3 \\xe2\\x80\\x94 Contract.sol\":16912:16922  _feeAmount */\n      tag_439\n        /* \"TRUSTFY v4.3 \\xe2\\x80\\x94 Contract.sol\":16912:16941  _feeAmount(e.token, e.amount) */\n      jump\t// in\n    tag_438:\n        /* \"TRUSTFY v4.3 \\xe2\\x80\\x94 Contract.sol\":16985:16992  e.token */\n      0x03\n      dup6\n      add\n      sload\n        /* \"TRUSTFY v4.3 \\xe2\\x80\\x94 Contract.sol\":16994:17002  e.amount */\n      0x04\n      dup7\n      add\n      sload\n        /* \"TRUSTFY v4.3 \\xe2\\x80\\x94 Contract.sol\":16898:16941  uint256 fee = _feeAmount(e.token, e.amount) */\n      swap2\n      swap3\n      pop\n        /* \"TRUSTFY v4.3 \\xe2\\x80\\x94 Contract.sol\":16951:16969  uint256 sellerBond */\n      0x00\n      swap2\n        /* \"TRUSTFY v4.3 \\xe2\\x80\\x94 Contract.sol\":16972:17003  _disputeBond(e.token, e.amount) */\n      tag_440\n      swap2\n      sub(shl(0xa0, 0x01), 0x01)\n        /* \"TRUSTFY v4.3 \\xe2\\x80\\x94 Contract.sol\":16985:16992  e.token */\n      and\n      swap1\n        /* \"TRUSTFY v4.3 \\xe2\\x80\\x94 Contract.sol\":16972:16984  _disputeBond */\n      tag_344\n        /* \"TRUSTFY v4.3 \\xe2\\x80\\x94 Contract.sol\":16972:17003  _disputeBond(e.token, e.amount) */\n      jump\t// in\n    tag_440:\n        /* \"TRUSTFY v4.3 \\xe2\\x80\\x94 Contract.sol\":16951:17003  uint256 sellerBond = _disputeBond(e.token, e.amount) */\n      swap1\n      pop\n        /* \"TRUSTFY v4.3 \\xe2\\x80\\x94 Contract.sol\":17034:17035  0 */\n      0x00\n        /* \"TRUSTFY v4.3 \\xe2\\x80\\x94 Contract.sol\":17021:17031  sellerBond */\n      dup2\n        /* \"TRUSTFY v4.3 \\xe2\\x80\\x94 Contract.sol\":17021:17035  sellerBond > 0 */\n      gt\n        /* \"TRUSTFY v4.3 \\xe2\\x80\\x94 Contract.sol\":17013:17057  require(sellerBond > 0, \"DISPUTE_BOND_ZERO\") */\n      tag_441\n      jumpi\n      mload(0x40)\n      shl(0xe5, 0x461bcd)\n      dup2\n      mstore\n        /* \"#utility.yul\":15447:15449   */\n      0x20\n        /* \"TRUSTFY v4.3 \\xe2\\x80\\x94 Contract.sol\":17013:17057  require(sellerBond > 0, \"DISPUTE_BOND_ZERO\") */\n      0x04\n      dup3\n      add\n        /* \"#utility.yul\":15429:15450   */\n      mstore\n        /* \"#utility.yul\":15486:15488   */\n      0x11\n        /* \"#utility.yul\":15466:15484   */\n      0x24\n      dup3\n      add\n        /* \"#utility.yul\":15459:15489   */\n      mstore\n      shl(0x78, 0x444953505554455f424f4e445f5a45524f)\n        /* \"#utility.yul\":15505:15523   */\n      0x44\n      dup3\n      add\n        /* \"#utility.yul\":15498:15545   */\n      mstore\n        /* \"#utility.yul\":15562:15580   */\n      0x64\n      add\n        /* \"TRUSTFY v4.3 \\xe2\\x80\\x94 Contract.sol\":17013:17057  require(sellerBond > 0, \"DISPUTE_BOND_ZERO\") */\n      tag_153\n        /* \"#utility.yul\":15245:15586   */\n      jump\n        /* \"TRUSTFY v4.3 \\xe2\\x80\\x94 Contract.sol\":17013:17057  require(sellerBond > 0, \"DISPUTE_BOND_ZERO\") */\n    tag_441:\n        /* \"TRUSTFY v4.3 \\xe2\\x80\\x94 Contract.sol\":17068:17081  uint256 total */\n      0x00\n        /* \"TRUSTFY v4.3 \\xe2\\x80\\x94 Contract.sol\":17101:17111  sellerBond */\n      dup2\n        /* \"TRUSTFY v4.3 \\xe2\\x80\\x94 Contract.sol\":17095:17098  fee */\n      dup4\n        /* \"TRUSTFY v4.3 \\xe2\\x80\\x94 Contract.sol\":17084:17085  e */\n      dup8\n        /* \"TRUSTFY v4.3 \\xe2\\x80\\x94 Contract.sol\":17084:17092  e.amount */\n      0x04\n      add\n      sload\n        /* \"TRUSTFY v4.3 \\xe2\\x80\\x94 Contract.sol\":17084:17098  e.amount + fee */\n      tag_443\n      swap2\n      swap1\n      tag_189\n      jump\t// in\n    tag_443:\n        /* \"TRUSTFY v4.3 \\xe2\\x80\\x94 Contract.sol\":17084:17111  e.amount + fee + sellerBond */\n      tag_444\n      swap2\n      swap1\n      tag_189\n      jump\t// in\n    tag_444:\n        /* \"TRUSTFY v4.3 \\xe2\\x80\\x94 Contract.sol\":17128:17135  e.token */\n      0x03\n      dup8\n      add\n      sload\n        /* \"TRUSTFY v4.3 \\xe2\\x80\\x94 Contract.sol\":17068:17111  uint256 total = e.amount + fee + sellerBond */\n      swap1\n      swap2\n      pop\n        /* \"TRUSTFY v4.3 \\xe2\\x80\\x94 Contract.sol\":17121:17187  IERC20(e.token).safeTransferFrom(msg.sender, address(this), total) */\n      tag_445\n      swap1\n      sub(shl(0xa0, 0x01), 0x01)\n        /* \"TRUSTFY v4.3 \\xe2\\x80\\x94 Contract.sol\":17128:17135  e.token */\n      and\n        /* \"TRUSTFY v4.3 \\xe2\\x80\\x94 Contract.sol\":17154:17164  msg.sender */\n      caller\n        /* \"TRUSTFY v4.3 \\xe2\\x80\\x94 Contract.sol\":17174:17178  this */\n      address\n        /* \"TRUSTFY v4.3 \\xe2\\x80\\x94 Contract.sol\":17068:17111  uint256 total = e.amount + fee + sellerBond */\n      dup5\n        /* \"TRUSTFY v4.3 \\xe2\\x80\\x94 Contract.sol\":17121:17153  IERC20(e.token).safeTransferFrom */\n      tag_279\n        /* \"TRUSTFY v4.3 \\xe2\\x80\\x94 Contract.sol\":17121:17187  IERC20(e.token).safeTransferFrom(msg.sender, address(this), total) */\n      jump\t// in\n    tag_445:\n        /* \"TRUSTFY v4.3 \\xe2\\x80\\x94 Contract.sol\":17198:17209  e.feeAmount */\n      0x05\n      dup7\n      add\n        /* \"TRUSTFY v4.3 \\xe2\\x80\\x94 Contract.sol\":17198:17215  e.feeAmount = fee */\n      dup4\n      swap1\n      sstore\n        /* \"TRUSTFY v4.3 \\xe2\\x80\\x94 Contract.sol\":17225:17244  e.sellerDisputeBond */\n      0x07\n      dup7\n      add\n        /* \"TRUSTFY v4.3 \\xe2\\x80\\x94 Contract.sol\":17225:17257  e.sellerDisputeBond = sellerBond */\n      dup3\n      swap1\n      sstore\n        /* \"TRUSTFY v4.3 \\xe2\\x80\\x94 Contract.sol\":17267:17275  e.status */\n      0x08\n      dup7\n      add\n        /* \"TRUSTFY v4.3 \\xe2\\x80\\x94 Contract.sol\":17267:17297  e.status = EscrowStatus.FUNDED */\n      dup1\n      sload\n      not(0xff)\n      and\n        /* \"TRUSTFY v4.3 \\xe2\\x80\\x94 Contract.sol\":17278:17297  EscrowStatus.FUNDED */\n      0x02\n        /* \"TRUSTFY v4.3 \\xe2\\x80\\x94 Contract.sol\":17267:17297  e.status = EscrowStatus.FUNDED */\n      or\n      swap1\n      sstore\n        /* \"TRUSTFY v4.3 \\xe2\\x80\\x94 Contract.sol\":17320:17335  block.timestamp */\n      timestamp\n        /* \"TRUSTFY v4.3 \\xe2\\x80\\x94 Contract.sol\":17307:17317  e.fundedAt */\n      0x0a\n      dup8\n      add\n        /* \"TRUSTFY v4.3 \\xe2\\x80\\x94 Contract.sol\":17307:17335  e.fundedAt = block.timestamp */\n      sstore\n        /* \"TRUSTFY v4.3 \\xe2\\x80\\x94 Contract.sol\":17374:17382  e.amount */\n      0x04\n      dup7\n      add\n      sload\n        /* \"TRUSTFY v4.3 \\xe2\\x80\\x94 Contract.sol\":17351:17400  EscrowFunded(escrowId, e.amount, fee, sellerBond) */\n      0x40\n      dup1\n      mload\n        /* \"#utility.yul\":17421:17446   */\n      swap2\n      dup3\n      mstore\n        /* \"#utility.yul\":17477:17479   */\n      0x20\n        /* \"#utility.yul\":17462:17480   */\n      dup3\n      add\n        /* \"#utility.yul\":17455:17489   */\n      dup6\n      swap1\n      mstore\n        /* \"#utility.yul\":17505:17523   */\n      dup2\n      add\n        /* \"#utility.yul\":17498:17532   */\n      dup4\n      swap1\n      mstore\n        /* \"TRUSTFY v4.3 \\xe2\\x80\\x94 Contract.sol\":17364:17372  escrowId */\n      dup8\n      swap1\n        /* \"TRUSTFY v4.3 \\xe2\\x80\\x94 Contract.sol\":17351:17400  EscrowFunded(escrowId, e.amount, fee, sellerBond) */\n      0x95b75f24b53add0217458d088aa8db8eefce3337dcb4bb8e7571a0604aeb0a64\n      swap1\n        /* \"#utility.yul\":17409:17411   */\n      0x60\n        /* \"#utility.yul\":17394:17412   */\n      add\n        /* \"TRUSTFY v4.3 \\xe2\\x80\\x94 Contract.sol\":17351:17400  EscrowFunded(escrowId, e.amount, fee, sellerBond) */\n      mload(0x40)\n      dup1\n      swap2\n      sub\n      swap1\n      log2\n        /* \"TRUSTFY v4.3 \\xe2\\x80\\x94 Contract.sol\":16355:17407  {... */\n      pop\n      pop\n      pop\n      pop\n      pop\n      pop\n        /* \"TRUSTFY v4.3 \\xe2\\x80\\x94 Contract.sol\":16308:17407  function fundEscrow(uint256 escrowId) external {... */\n      pop\n      jump\t// out\n        /* \"TRUSTFY v4.3 \\xe2\\x80\\x94 Contract.sol\":20619:23063  function resolveDispute(uint256 escrowId, DisputeOutcome outcome) external onlyArbitrator {... */\n    tag_128:\n        /* \"TRUSTFY v4.3 \\xe2\\x80\\x94 Contract.sol\":8338:8348  msg.sender */\n      caller\n        /* \"TRUSTFY v4.3 \\xe2\\x80\\x94 Contract.sol\":8325:8349  isArbitrator[msg.sender] */\n      0x00\n      swap1\n      dup2\n      mstore\n        /* \"TRUSTFY v4.3 \\xe2\\x80\\x94 Contract.sol\":8325:8337  isArbitrator */\n      0x02\n        /* \"TRUSTFY v4.3 \\xe2\\x80\\x94 Contract.sol\":8325:8349  isArbitrator[msg.sender] */\n      0x20\n      swap1\n      dup2\n      mstore\n      0x40\n      swap2\n      dup3\n      swap1\n      keccak256\n      sload\n        /* \"TRUSTFY v4.3 \\xe2\\x80\\x94 Contract.sol\":8351:8369  ERR_NOT_ARBITRATOR */\n      dup3\n      mload\n      dup1\n      dup5\n      add\n      swap1\n      swap4\n      mstore\n      0x0e\n      dup4\n      mstore\n      shl(0x91, 0x2727aa2fa0a92124aa2920aa27a9)\n      swap2\n      dup4\n      add\n      swap2\n      swap1\n      swap2\n      mstore\n        /* \"TRUSTFY v4.3 \\xe2\\x80\\x94 Contract.sol\":8325:8349  isArbitrator[msg.sender] */\n      0xff\n      and\n        /* \"TRUSTFY v4.3 \\xe2\\x80\\x94 Contract.sol\":8317:8370  require(isArbitrator[msg.sender], ERR_NOT_ARBITRATOR) */\n      tag_451\n      jumpi\n      mload(0x40)\n      shl(0xe5, 0x461bcd)\n      dup2\n      mstore\n      0x04\n      add\n      tag_153\n      swap2\n      swap1\n      tag_162\n      jump\t// in\n    tag_451:\n      pop\n        /* \"TRUSTFY v4.3 \\xe2\\x80\\x94 Contract.sol\":20719:20735  Escrow storage e */\n      0x00\n        /* \"TRUSTFY v4.3 \\xe2\\x80\\x94 Contract.sol\":20738:20755  escrows[escrowId] */\n      dup3\n      dup2\n      mstore\n        /* \"TRUSTFY v4.3 \\xe2\\x80\\x94 Contract.sol\":20738:20745  escrows */\n      0x09\n        /* \"TRUSTFY v4.3 \\xe2\\x80\\x94 Contract.sol\":20738:20755  escrows[escrowId] */\n      0x20\n      mstore\n      0x40\n      dup2\n      keccak256\n        /* \"TRUSTFY v4.3 \\xe2\\x80\\x94 Contract.sol\":20773:20779  e.adId */\n      dup1\n      sload\n        /* \"TRUSTFY v4.3 \\xe2\\x80\\x94 Contract.sol\":20738:20755  escrows[escrowId] */\n      swap1\n      swap2\n        /* \"TRUSTFY v4.3 \\xe2\\x80\\x94 Contract.sol\":20773:20784  e.adId != 0 */\n      sub\n        /* \"TRUSTFY v4.3 \\xe2\\x80\\x94 Contract.sol\":20765:20805  require(e.adId != 0, \"ESCROW_NOT_FOUND\") */\n      tag_454\n      jumpi\n      mload(0x40)\n      shl(0xe5, 0x461bcd)\n      dup2\n      mstore\n      0x04\n      add\n      tag_153\n      swap1\n      tag_154\n      jump\t// in\n    tag_454:\n        /* \"TRUSTFY v4.3 \\xe2\\x80\\x94 Contract.sol\":20835:20856  EscrowStatus.DISPUTED */\n      0x04\n        /* \"TRUSTFY v4.3 \\xe2\\x80\\x94 Contract.sol\":20823:20831  e.status */\n      0x08\n      dup3\n      add\n      sload\n      0xff\n      and\n        /* \"TRUSTFY v4.3 \\xe2\\x80\\x94 Contract.sol\":20823:20856  e.status == EscrowStatus.DISPUTED */\n      0x06\n      dup2\n      gt\n      iszero\n      tag_459\n      jumpi\n      tag_459\n      tag_157\n      jump\t// in\n    tag_459:\n      eq\n        /* \"TRUSTFY v4.3 \\xe2\\x80\\x94 Contract.sol\":20858:20871  ERR_BAD_STATE */\n      mload(0x40)\n      dup1\n      0x40\n      add\n      0x40\n      mstore\n      dup1\n      0x09\n      dup2\n      mstore\n      0x20\n      add\n      shl(0xb8, 0x4241445f5354415445)\n      dup2\n      mstore\n      pop\n        /* \"TRUSTFY v4.3 \\xe2\\x80\\x94 Contract.sol\":20815:20872  require(e.status == EscrowStatus.DISPUTED, ERR_BAD_STATE) */\n      swap1\n      tag_460\n      jumpi\n      mload(0x40)\n      shl(0xe5, 0x461bcd)\n      dup2\n      mstore\n      0x04\n      add\n      tag_153\n      swap2\n      swap1\n      tag_162\n      jump\t// in\n    tag_460:\n      pop\n        /* \"TRUSTFY v4.3 \\xe2\\x80\\x94 Contract.sol\":20890:20905  e.disputeOpened */\n      0x0c\n      dup2\n      add\n      sload\n      0xff\n      and\n        /* \"TRUSTFY v4.3 \\xe2\\x80\\x94 Contract.sol\":20890:20927  e.disputeOpened && !e.disputeResolved */\n      dup1\n      iszero\n      tag_462\n      jumpi\n      pop\n        /* \"TRUSTFY v4.3 \\xe2\\x80\\x94 Contract.sol\":20910:20927  e.disputeResolved */\n      0x0c\n      dup2\n      add\n      sload\n      0x0100\n      swap1\n      div\n      0xff\n      and\n        /* \"TRUSTFY v4.3 \\xe2\\x80\\x94 Contract.sol\":20909:20927  !e.disputeResolved */\n      iszero\n        /* \"TRUSTFY v4.3 \\xe2\\x80\\x94 Contract.sol\":20890:20927  e.disputeOpened && !e.disputeResolved */\n    tag_462:\n        /* \"TRUSTFY v4.3 \\xe2\\x80\\x94 Contract.sol\":20882:20944  require(e.disputeOpened && !e.disputeResolved, \"DISPUTE_DONE\") */\n      tag_463\n      jumpi\n      mload(0x40)\n      shl(0xe5, 0x461bcd)\n      dup2\n      mstore\n        /* \"#utility.yul\":17745:17747   */\n      0x20\n        /* \"TRUSTFY v4.3 \\xe2\\x80\\x94 Contract.sol\":20882:20944  require(e.disputeOpened && !e.disputeResolved, \"DISPUTE_DONE\") */\n      0x04\n      dup3\n      add\n        /* \"#utility.yul\":17727:17748   */\n      mstore\n        /* \"#utility.yul\":17784:17786   */\n      0x0c\n        /* \"#utility.yul\":17764:17782   */\n      0x24\n      dup3\n      add\n        /* \"#utility.yul\":17757:17787   */\n      mstore\n      shl(0xa0, 0x444953505554455f444f4e45)\n        /* \"#utility.yul\":17803:17821   */\n      0x44\n      dup3\n      add\n        /* \"#utility.yul\":17796:17838   */\n      mstore\n        /* \"#utility.yul\":17855:17873   */\n      0x64\n      add\n        /* \"TRUSTFY v4.3 \\xe2\\x80\\x94 Contract.sol\":20882:20944  require(e.disputeOpened && !e.disputeResolved, \"DISPUTE_DONE\") */\n      tag_153\n        /* \"#utility.yul\":17543:17879   */\n      jump\n        /* \"TRUSTFY v4.3 \\xe2\\x80\\x94 Contract.sol\":20882:20944  require(e.disputeOpened && !e.disputeResolved, \"DISPUTE_DONE\") */\n    tag_463:\n        /* \"TRUSTFY v4.3 \\xe2\\x80\\x94 Contract.sol\":20986:20997  e.feeAmount */\n      0x05\n      dup2\n      add\n      sload\n        /* \"TRUSTFY v4.3 \\xe2\\x80\\x94 Contract.sol\":20986:21001  e.feeAmount > 0 */\n      iszero\n        /* \"TRUSTFY v4.3 \\xe2\\x80\\x94 Contract.sol\":20982:21108  if (e.feeAmount > 0) {... */\n      tag_466\n      jumpi\n        /* \"TRUSTFY v4.3 \\xe2\\x80\\x94 Contract.sol\":21046:21054  treasury */\n      0x03\n      dup1\n      sload\n        /* \"TRUSTFY v4.3 \\xe2\\x80\\x94 Contract.sol\":21056:21067  e.feeAmount */\n      0x05\n      dup4\n      add\n      sload\n        /* \"TRUSTFY v4.3 \\xe2\\x80\\x94 Contract.sol\":21024:21031  e.token */\n      swap2\n      dup4\n      add\n      sload\n        /* \"TRUSTFY v4.3 \\xe2\\x80\\x94 Contract.sol\":21017:21068  IERC20(e.token).safeTransfer(treasury, e.feeAmount) */\n      tag_467\n      swap3\n      sub(shl(0xa0, 0x01), 0x01)\n        /* \"TRUSTFY v4.3 \\xe2\\x80\\x94 Contract.sol\":21024:21031  e.token */\n      swap2\n      dup3\n      and\n      swap3\n        /* \"TRUSTFY v4.3 \\xe2\\x80\\x94 Contract.sol\":21046:21054  treasury */\n      swap2\n      swap1\n      swap2\n      and\n      swap1\n        /* \"TRUSTFY v4.3 \\xe2\\x80\\x94 Contract.sol\":21017:21045  IERC20(e.token).safeTransfer */\n      tag_202\n        /* \"TRUSTFY v4.3 \\xe2\\x80\\x94 Contract.sol\":21017:21068  IERC20(e.token).safeTransfer(treasury, e.feeAmount) */\n      jump\t// in\n    tag_467:\n        /* \"TRUSTFY v4.3 \\xe2\\x80\\x94 Contract.sol\":21096:21097  0 */\n      0x00\n        /* \"TRUSTFY v4.3 \\xe2\\x80\\x94 Contract.sol\":21082:21093  e.feeAmount */\n      0x05\n      dup3\n      add\n        /* \"TRUSTFY v4.3 \\xe2\\x80\\x94 Contract.sol\":21082:21097  e.feeAmount = 0 */\n      sstore\n        /* \"TRUSTFY v4.3 \\xe2\\x80\\x94 Contract.sol\":20982:21108  if (e.feeAmount > 0) {... */\n    tag_466:\n        /* \"TRUSTFY v4.3 \\xe2\\x80\\x94 Contract.sol\":21165:21190  DisputeOutcome.BUYER_WINS */\n      0x00\n        /* \"TRUSTFY v4.3 \\xe2\\x80\\x94 Contract.sol\":21154:21161  outcome */\n      dup3\n        /* \"TRUSTFY v4.3 \\xe2\\x80\\x94 Contract.sol\":21154:21190  outcome == DisputeOutcome.BUYER_WINS */\n      0x01\n      dup2\n      gt\n      iszero\n      tag_471\n      jumpi\n      tag_471\n      tag_157\n      jump\t// in\n    tag_471:\n      sub\n        /* \"TRUSTFY v4.3 \\xe2\\x80\\x94 Contract.sol\":21150:21343  if (outcome == DisputeOutcome.BUYER_WINS) {... */\n      tag_472\n      jumpi\n        /* \"TRUSTFY v4.3 \\xe2\\x80\\x94 Contract.sol\":21235:21242  e.buyer */\n      0x01\n      dup2\n      add\n      sload\n        /* \"TRUSTFY v4.3 \\xe2\\x80\\x94 Contract.sol\":21244:21252  e.amount */\n      0x04\n      dup3\n      add\n      sload\n        /* \"TRUSTFY v4.3 \\xe2\\x80\\x94 Contract.sol\":21213:21220  e.token */\n      0x03\n      dup4\n      add\n      sload\n        /* \"TRUSTFY v4.3 \\xe2\\x80\\x94 Contract.sol\":21206:21253  IERC20(e.token).safeTransfer(e.buyer, e.amount) */\n      tag_473\n      swap3\n      sub(shl(0xa0, 0x01), 0x01)\n        /* \"TRUSTFY v4.3 \\xe2\\x80\\x94 Contract.sol\":21213:21220  e.token */\n      swap2\n      dup3\n      and\n      swap3\n        /* \"TRUSTFY v4.3 \\xe2\\x80\\x94 Contract.sol\":21235:21242  e.buyer */\n      swap2\n      and\n      swap1\n        /* \"TRUSTFY v4.3 \\xe2\\x80\\x94 Contract.sol\":21206:21234  IERC20(e.token).safeTransfer */\n      tag_202\n        /* \"TRUSTFY v4.3 \\xe2\\x80\\x94 Contract.sol\":21206:21253  IERC20(e.token).safeTransfer(e.buyer, e.amount) */\n      jump\t// in\n    tag_473:\n        /* \"TRUSTFY v4.3 \\xe2\\x80\\x94 Contract.sol\":21150:21343  if (outcome == DisputeOutcome.BUYER_WINS) {... */\n      jump(tag_475)\n    tag_472:\n        /* \"TRUSTFY v4.3 \\xe2\\x80\\x94 Contract.sol\":21313:21321  e.seller */\n      0x02\n      dup2\n      add\n      sload\n        /* \"TRUSTFY v4.3 \\xe2\\x80\\x94 Contract.sol\":21323:21331  e.amount */\n      0x04\n      dup3\n      add\n      sload\n        /* \"TRUSTFY v4.3 \\xe2\\x80\\x94 Contract.sol\":21291:21298  e.token */\n      0x03\n      dup4\n      add\n      sload\n        /* \"TRUSTFY v4.3 \\xe2\\x80\\x94 Contract.sol\":21284:21332  IERC20(e.token).safeTransfer(e.seller, e.amount) */\n      tag_475\n      swap3\n      sub(shl(0xa0, 0x01), 0x01)\n        /* \"TRUSTFY v4.3 \\xe2\\x80\\x94 Contract.sol\":21291:21298  e.token */\n      swap2\n      dup3\n      and\n      swap3\n        /* \"TRUSTFY v4.3 \\xe2\\x80\\x94 Contract.sol\":21313:21321  e.seller */\n      swap2\n      and\n      swap1\n        /* \"TRUSTFY v4.3 \\xe2\\x80\\x94 Contract.sol\":21284:21312  IERC20(e.token).safeTransfer */\n      tag_202\n        /* \"TRUSTFY v4.3 \\xe2\\x80\\x94 Contract.sol\":21284:21332  IERC20(e.token).safeTransfer(e.seller, e.amount) */\n      jump\t// in\n    tag_475:\n        /* \"TRUSTFY v4.3 \\xe2\\x80\\x94 Contract.sol\":21363:21364  0 */\n      0x00\n        /* \"TRUSTFY v4.3 \\xe2\\x80\\x94 Contract.sol\":21352:21360  e.amount */\n      0x04\n      dup3\n      add\n        /* \"TRUSTFY v4.3 \\xe2\\x80\\x94 Contract.sol\":21352:21364  e.amount = 0 */\n      dup2\n      swap1\n      sstore\n        /* \"TRUSTFY v4.3 \\xe2\\x80\\x94 Contract.sol\":21413:21420  outcome */\n      dup3\n        /* \"TRUSTFY v4.3 \\xe2\\x80\\x94 Contract.sol\":21413:21449  outcome == DisputeOutcome.BUYER_WINS */\n      0x01\n      dup2\n      gt\n      iszero\n      tag_479\n      jumpi\n      tag_479\n      tag_157\n      jump\t// in\n    tag_479:\n      sub\n        /* \"TRUSTFY v4.3 \\xe2\\x80\\x94 Contract.sol\":21409:22431  if (outcome == DisputeOutcome.BUYER_WINS) {... */\n      tag_480\n      jumpi\n        /* \"TRUSTFY v4.3 \\xe2\\x80\\x94 Contract.sol\":21469:21487  e.buyerDisputeBond */\n      0x06\n      dup2\n      add\n      sload\n        /* \"TRUSTFY v4.3 \\xe2\\x80\\x94 Contract.sol\":21469:21491  e.buyerDisputeBond > 0 */\n      iszero\n        /* \"TRUSTFY v4.3 \\xe2\\x80\\x94 Contract.sol\":21465:21751  if (e.buyerDisputeBond > 0) {... */\n      tag_481\n      jumpi\n        /* \"TRUSTFY v4.3 \\xe2\\x80\\x94 Contract.sol\":21546:21564  e.buyerDisputeBond */\n      0x06\n      dup2\n      add\n      sload\n        /* \"TRUSTFY v4.3 \\xe2\\x80\\x94 Contract.sol\":21525:21532  e.buyer */\n      0x01\n      dup3\n      add\n      sload\n      sub(shl(0xa0, 0x01), 0x01)\n      swap1\n      dup2\n      and\n        /* \"TRUSTFY v4.3 \\xe2\\x80\\x94 Contract.sol\":21511:21533  creditBalance[e.buyer] */\n      0x00\n      swap1\n      dup2\n      mstore\n        /* \"TRUSTFY v4.3 \\xe2\\x80\\x94 Contract.sol\":21511:21524  creditBalance */\n      0x05\n        /* \"TRUSTFY v4.3 \\xe2\\x80\\x94 Contract.sol\":21511:21533  creditBalance[e.buyer] */\n      0x20\n      swap1\n      dup2\n      mstore\n      0x40\n      dup1\n      dup4\n      keccak256\n        /* \"TRUSTFY v4.3 \\xe2\\x80\\x94 Contract.sol\":21534:21541  e.token */\n      0x03\n      dup8\n      add\n      sload\n      swap1\n      swap5\n      and\n        /* \"TRUSTFY v4.3 \\xe2\\x80\\x94 Contract.sol\":21511:21542  creditBalance[e.buyer][e.token] */\n      dup4\n      mstore\n      swap3\n      swap1\n      mstore\n      swap1\n      dup2\n      keccak256\n        /* \"TRUSTFY v4.3 \\xe2\\x80\\x94 Contract.sol\":21511:21564  creditBalance[e.buyer][e.token] += e.buyerDisputeBond */\n      dup1\n      sload\n        /* \"TRUSTFY v4.3 \\xe2\\x80\\x94 Contract.sol\":21511:21542  creditBalance[e.buyer][e.token] */\n      swap1\n      swap2\n        /* \"TRUSTFY v4.3 \\xe2\\x80\\x94 Contract.sol\":21511:21533  creditBalance[e.buyer] */\n      swap1\n        /* \"TRUSTFY v4.3 \\xe2\\x80\\x94 Contract.sol\":21511:21564  creditBalance[e.buyer][e.token] += e.buyerDisputeBond */\n      tag_482\n      swap1\n        /* \"TRUSTFY v4.3 \\xe2\\x80\\x94 Contract.sol\":21546:21564  e.buyerDisputeBond */\n      dup5\n      swap1\n        /* \"TRUSTFY v4.3 \\xe2\\x80\\x94 Contract.sol\":21511:21564  creditBalance[e.buyer][e.token] += e.buyerDisputeBond */\n      tag_189\n      jump\t// in\n    tag_482:\n      swap1\n      swap2\n      sstore\n      pop\n      pop\n        /* \"TRUSTFY v4.3 \\xe2\\x80\\x94 Contract.sol\":21608:21615  e.token */\n      0x03\n      dup2\n      add\n      sload\n      0x01\n        /* \"TRUSTFY v4.3 \\xe2\\x80\\x94 Contract.sol\":21599:21606  e.buyer */\n      dup3\n      add\n      sload\n        /* \"TRUSTFY v4.3 \\xe2\\x80\\x94 Contract.sol\":21617:21635  e.buyerDisputeBond */\n      0x06\n      dup4\n      add\n      sload\n        /* \"TRUSTFY v4.3 \\xe2\\x80\\x94 Contract.sol\":21647:21694  abi.encodePacked(\"BUYER_DISPUTE_WIN\", escrowId) */\n      mload(0x40)\n      shl(0x79, 0x212aaca2a92fa224a9a82aaa22afaba4a7)\n      0x20\n      dup3\n      add\n        /* \"#utility.yul\":18114:18146   */\n      mstore\n        /* \"#utility.yul\":18162:18174   */\n      0x31\n      dup2\n      add\n        /* \"#utility.yul\":18155:18183   */\n      dup8\n      swap1\n      mstore\n      sub(shl(0xa0, 0x01), 0x01)\n        /* \"TRUSTFY v4.3 \\xe2\\x80\\x94 Contract.sol\":21608:21615  e.token */\n      swap4\n      dup5\n      and\n      swap4\n        /* \"TRUSTFY v4.3 \\xe2\\x80\\x94 Contract.sol\":21599:21606  e.buyer */\n      swap1\n      swap3\n      and\n      swap2\n      0x00\n      dup1\n      mload\n      0x20\n      data_a1787636192da96984a031a805d7165b97afdc9cf24262e59bc86055df6ab426\n      dup4\n      codecopy\n      dup2\n      mload\n      swap2\n      mstore\n        /* \"TRUSTFY v4.3 \\xe2\\x80\\x94 Contract.sol\":21587:21696  CreditAdded(e.buyer, e.token, e.buyerDisputeBond, keccak256(abi.encodePacked(\"BUYER_DISPUTE_WIN\", escrowId))) */\n      swap2\n        /* \"TRUSTFY v4.3 \\xe2\\x80\\x94 Contract.sol\":21617:21635  e.buyerDisputeBond */\n      swap1\n        /* \"#utility.yul\":18199:18211   */\n      0x51\n      add\n        /* \"TRUSTFY v4.3 \\xe2\\x80\\x94 Contract.sol\":21647:21694  abi.encodePacked(\"BUYER_DISPUTE_WIN\", escrowId) */\n      0x40\n      dup1\n      mload\n      not(0x1f)\n      dup2\n      dup5\n      sub\n      add\n      dup2\n      mstore\n      dup3\n      dup3\n      mstore\n        /* \"TRUSTFY v4.3 \\xe2\\x80\\x94 Contract.sol\":21637:21695  keccak256(abi.encodePacked(\"BUYER_DISPUTE_WIN\", escrowId)) */\n      dup1\n      mload\n        /* \"TRUSTFY v4.3 \\xe2\\x80\\x94 Contract.sol\":21647:21694  abi.encodePacked(\"BUYER_DISPUTE_WIN\", escrowId) */\n      0x20\n        /* \"TRUSTFY v4.3 \\xe2\\x80\\x94 Contract.sol\":21637:21695  keccak256(abi.encodePacked(\"BUYER_DISPUTE_WIN\", escrowId)) */\n      swap2\n      dup3\n      add\n      keccak256\n        /* \"#utility.yul\":16433:16458   */\n      swap4\n      dup4\n      mstore\n        /* \"#utility.yul\":16474:16492   */\n      dup3\n      add\n        /* \"#utility.yul\":16467:16501   */\n      swap3\n      swap1\n      swap3\n      mstore\n        /* \"#utility.yul\":16406:16424   */\n      add\n        /* \"TRUSTFY v4.3 \\xe2\\x80\\x94 Contract.sol\":21587:21696  CreditAdded(e.buyer, e.token, e.buyerDisputeBond, keccak256(abi.encodePacked(\"BUYER_DISPUTE_WIN\", escrowId))) */\n      mload(0x40)\n      dup1\n      swap2\n      sub\n      swap1\n      log3\n        /* \"TRUSTFY v4.3 \\xe2\\x80\\x94 Contract.sol\":21735:21736  0 */\n      0x00\n        /* \"TRUSTFY v4.3 \\xe2\\x80\\x94 Contract.sol\":21714:21732  e.buyerDisputeBond */\n      0x06\n      dup3\n      add\n        /* \"TRUSTFY v4.3 \\xe2\\x80\\x94 Contract.sol\":21714:21736  e.buyerDisputeBond = 0 */\n      sstore\n        /* \"TRUSTFY v4.3 \\xe2\\x80\\x94 Contract.sol\":21465:21751  if (e.buyerDisputeBond > 0) {... */\n    tag_481:\n        /* \"TRUSTFY v4.3 \\xe2\\x80\\x94 Contract.sol\":21768:21787  e.sellerDisputeBond */\n      0x07\n      dup2\n      add\n      sload\n        /* \"TRUSTFY v4.3 \\xe2\\x80\\x94 Contract.sol\":21768:21791  e.sellerDisputeBond > 0 */\n      iszero\n        /* \"TRUSTFY v4.3 \\xe2\\x80\\x94 Contract.sol\":21764:21926  if (e.sellerDisputeBond > 0) {... */\n      tag_486\n      jumpi\n        /* \"TRUSTFY v4.3 \\xe2\\x80\\x94 Contract.sol\":21840:21848  treasury */\n      0x03\n      dup1\n      sload\n        /* \"TRUSTFY v4.3 \\xe2\\x80\\x94 Contract.sol\":21850:21869  e.sellerDisputeBond */\n      0x07\n      dup4\n      add\n      sload\n        /* \"TRUSTFY v4.3 \\xe2\\x80\\x94 Contract.sol\":21818:21825  e.token */\n      swap2\n      dup4\n      add\n      sload\n        /* \"TRUSTFY v4.3 \\xe2\\x80\\x94 Contract.sol\":21811:21870  IERC20(e.token).safeTransfer(treasury, e.sellerDisputeBond) */\n      tag_487\n      swap3\n      sub(shl(0xa0, 0x01), 0x01)\n        /* \"TRUSTFY v4.3 \\xe2\\x80\\x94 Contract.sol\":21818:21825  e.token */\n      swap2\n      dup3\n      and\n      swap3\n        /* \"TRUSTFY v4.3 \\xe2\\x80\\x94 Contract.sol\":21840:21848  treasury */\n      swap2\n      swap1\n      swap2\n      and\n      swap1\n        /* \"TRUSTFY v4.3 \\xe2\\x80\\x94 Contract.sol\":21811:21839  IERC20(e.token).safeTransfer */\n      tag_202\n        /* \"TRUSTFY v4.3 \\xe2\\x80\\x94 Contract.sol\":21811:21870  IERC20(e.token).safeTransfer(treasury, e.sellerDisputeBond) */\n      jump\t// in\n    tag_487:\n        /* \"TRUSTFY v4.3 \\xe2\\x80\\x94 Contract.sol\":21910:21911  0 */\n      0x00\n        /* \"TRUSTFY v4.3 \\xe2\\x80\\x94 Contract.sol\":21888:21907  e.sellerDisputeBond */\n      0x07\n      dup3\n      add\n        /* \"TRUSTFY v4.3 \\xe2\\x80\\x94 Contract.sol\":21888:21911  e.sellerDisputeBond = 0 */\n      sstore\n        /* \"TRUSTFY v4.3 \\xe2\\x80\\x94 Contract.sol\":21764:21926  if (e.sellerDisputeBond > 0) {... */\n    tag_486:\n        /* \"TRUSTFY v4.3 \\xe2\\x80\\x94 Contract.sol\":21409:22431  if (outcome == DisputeOutcome.BUYER_WINS) {... */\n      jump(tag_494)\n    tag_480:\n        /* \"TRUSTFY v4.3 \\xe2\\x80\\x94 Contract.sol\":21960:21979  e.sellerDisputeBond */\n      0x07\n      dup2\n      add\n      sload\n        /* \"TRUSTFY v4.3 \\xe2\\x80\\x94 Contract.sol\":21960:21983  e.sellerDisputeBond > 0 */\n      iszero\n        /* \"TRUSTFY v4.3 \\xe2\\x80\\x94 Contract.sol\":21956:22249  if (e.sellerDisputeBond > 0) {... */\n      tag_489\n      jumpi\n        /* \"TRUSTFY v4.3 \\xe2\\x80\\x94 Contract.sol\":22039:22058  e.sellerDisputeBond */\n      0x07\n      dup2\n      add\n      sload\n        /* \"TRUSTFY v4.3 \\xe2\\x80\\x94 Contract.sol\":22017:22025  e.seller */\n      0x02\n      dup3\n      add\n      sload\n      sub(shl(0xa0, 0x01), 0x01)\n      swap1\n      dup2\n      and\n        /* \"TRUSTFY v4.3 \\xe2\\x80\\x94 Contract.sol\":22003:22026  creditBalance[e.seller] */\n      0x00\n      swap1\n      dup2\n      mstore\n        /* \"TRUSTFY v4.3 \\xe2\\x80\\x94 Contract.sol\":22003:22016  creditBalance */\n      0x05\n        /* \"TRUSTFY v4.3 \\xe2\\x80\\x94 Contract.sol\":22003:22026  creditBalance[e.seller] */\n      0x20\n      swap1\n      dup2\n      mstore\n      0x40\n      dup1\n      dup4\n      keccak256\n        /* \"TRUSTFY v4.3 \\xe2\\x80\\x94 Contract.sol\":22027:22034  e.token */\n      0x03\n      dup8\n      add\n      sload\n      swap1\n      swap5\n      and\n        /* \"TRUSTFY v4.3 \\xe2\\x80\\x94 Contract.sol\":22003:22035  creditBalance[e.seller][e.token] */\n      dup4\n      mstore\n      swap3\n      swap1\n      mstore\n      swap1\n      dup2\n      keccak256\n        /* \"TRUSTFY v4.3 \\xe2\\x80\\x94 Contract.sol\":22003:22058  creditBalance[e.seller][e.token] += e.sellerDisputeBond */\n      dup1\n      sload\n        /* \"TRUSTFY v4.3 \\xe2\\x80\\x94 Contract.sol\":22003:22035  creditBalance[e.seller][e.token] */\n      swap1\n      swap2\n        /* \"TRUSTFY v4.3 \\xe2\\x80\\x94 Contract.sol\":22003:22026  creditBalance[e.seller] */\n      swap1\n        /* \"TRUSTFY v4.3 \\xe2\\x80\\x94 Contract.sol\":22003:22058  creditBalance[e.seller][e.token] += e.sellerDisputeBond */\n      tag_490\n      swap1\n        /* \"TRUSTFY v4.3 \\xe2\\x80\\x94 Contract.sol\":22039:22058  e.sellerDisputeBond */\n      dup5\n      swap1\n        /* \"TRUSTFY v4.3 \\xe2\\x80\\x94 Contract.sol\":22003:22058  creditBalance[e.seller][e.token] += e.sellerDisputeBond */\n      tag_189\n      jump\t// in\n    tag_490:\n      swap1\n      swap2\n      sstore\n      pop\n      pop\n        /* \"TRUSTFY v4.3 \\xe2\\x80\\x94 Contract.sol\":22103:22110  e.token */\n      0x03\n      dup2\n      add\n      sload\n        /* \"TRUSTFY v4.3 \\xe2\\x80\\x94 Contract.sol\":22093:22101  e.seller */\n      0x02\n      dup3\n      add\n      sload\n        /* \"TRUSTFY v4.3 \\xe2\\x80\\x94 Contract.sol\":22112:22131  e.sellerDisputeBond */\n      0x07\n      dup4\n      add\n      sload\n        /* \"TRUSTFY v4.3 \\xe2\\x80\\x94 Contract.sol\":22143:22191  abi.encodePacked(\"SELLER_DISPUTE_WIN\", escrowId) */\n      mload(0x40)\n      shl(0x71, 0x29a2a62622a92fa224a9a82aaa22afaba4a7)\n      0x20\n      dup3\n      add\n        /* \"#utility.yul\":18452:18485   */\n      mstore\n        /* \"#utility.yul\":18501:18513   */\n      0x32\n      dup2\n      add\n        /* \"#utility.yul\":18494:18522   */\n      dup8\n      swap1\n      mstore\n      sub(shl(0xa0, 0x01), 0x01)\n        /* \"TRUSTFY v4.3 \\xe2\\x80\\x94 Contract.sol\":22103:22110  e.token */\n      swap4\n      dup5\n      and\n      swap4\n        /* \"TRUSTFY v4.3 \\xe2\\x80\\x94 Contract.sol\":22093:22101  e.seller */\n      swap1\n      swap3\n      and\n      swap2\n      0x00\n      dup1\n      mload\n      0x20\n      data_a1787636192da96984a031a805d7165b97afdc9cf24262e59bc86055df6ab426\n      dup4\n      codecopy\n      dup2\n      mload\n      swap2\n      mstore\n        /* \"TRUSTFY v4.3 \\xe2\\x80\\x94 Contract.sol\":22081:22193  CreditAdded(e.seller, e.token, e.sellerDisputeBond, keccak256(abi.encodePacked(\"SELLER_DISPUTE_WIN\", escrowId))) */\n      swap2\n        /* \"TRUSTFY v4.3 \\xe2\\x80\\x94 Contract.sol\":22112:22131  e.sellerDisputeBond */\n      swap1\n        /* \"#utility.yul\":18538:18550   */\n      0x52\n      add\n        /* \"TRUSTFY v4.3 \\xe2\\x80\\x94 Contract.sol\":22143:22191  abi.encodePacked(\"SELLER_DISPUTE_WIN\", escrowId) */\n      0x40\n      dup1\n      mload\n      not(0x1f)\n      dup2\n      dup5\n      sub\n      add\n      dup2\n      mstore\n      dup3\n      dup3\n      mstore\n        /* \"TRUSTFY v4.3 \\xe2\\x80\\x94 Contract.sol\":22133:22192  keccak256(abi.encodePacked(\"SELLER_DISPUTE_WIN\", escrowId)) */\n      dup1\n      mload\n        /* \"TRUSTFY v4.3 \\xe2\\x80\\x94 Contract.sol\":22143:22191  abi.encodePacked(\"SELLER_DISPUTE_WIN\", escrowId) */\n      0x20\n        /* \"TRUSTFY v4.3 \\xe2\\x80\\x94 Contract.sol\":22133:22192  keccak256(abi.encodePacked(\"SELLER_DISPUTE_WIN\", escrowId)) */\n      swap2\n      dup3\n      add\n      keccak256\n        /* \"#utility.yul\":16433:16458   */\n      swap4\n      dup4\n      mstore\n        /* \"#utility.yul\":16474:16492   */\n      dup3\n      add\n        /* \"#utility.yul\":16467:16501   */\n      swap3\n      swap1\n      swap3\n      mstore\n        /* \"#utility.yul\":16406:16424   */\n      add\n        /* \"TRUSTFY v4.3 \\xe2\\x80\\x94 Contract.sol\":22081:22193  CreditAdded(e.seller, e.token, e.sellerDisputeBond, keccak256(abi.encodePacked(\"SELLER_DISPUTE_WIN\", escrowId))) */\n      mload(0x40)\n      dup1\n      swap2\n      sub\n      swap1\n      log3\n        /* \"TRUSTFY v4.3 \\xe2\\x80\\x94 Contract.sol\":22233:22234  0 */\n      0x00\n        /* \"TRUSTFY v4.3 \\xe2\\x80\\x94 Contract.sol\":22211:22230  e.sellerDisputeBond */\n      0x07\n      dup3\n      add\n        /* \"TRUSTFY v4.3 \\xe2\\x80\\x94 Contract.sol\":22211:22234  e.sellerDisputeBond = 0 */\n      sstore\n        /* \"TRUSTFY v4.3 \\xe2\\x80\\x94 Contract.sol\":21956:22249  if (e.sellerDisputeBond > 0) {... */\n    tag_489:\n        /* \"TRUSTFY v4.3 \\xe2\\x80\\x94 Contract.sol\":22266:22284  e.buyerDisputeBond */\n      0x06\n      dup2\n      add\n      sload\n        /* \"TRUSTFY v4.3 \\xe2\\x80\\x94 Contract.sol\":22266:22288  e.buyerDisputeBond > 0 */\n      iszero\n        /* \"TRUSTFY v4.3 \\xe2\\x80\\x94 Contract.sol\":22262:22421  if (e.buyerDisputeBond > 0) {... */\n      tag_494\n      jumpi\n        /* \"TRUSTFY v4.3 \\xe2\\x80\\x94 Contract.sol\":22337:22345  treasury */\n      0x03\n      dup1\n      sload\n        /* \"TRUSTFY v4.3 \\xe2\\x80\\x94 Contract.sol\":22347:22365  e.buyerDisputeBond */\n      0x06\n      dup4\n      add\n      sload\n        /* \"TRUSTFY v4.3 \\xe2\\x80\\x94 Contract.sol\":22315:22322  e.token */\n      swap2\n      dup4\n      add\n      sload\n        /* \"TRUSTFY v4.3 \\xe2\\x80\\x94 Contract.sol\":22308:22366  IERC20(e.token).safeTransfer(treasury, e.buyerDisputeBond) */\n      tag_495\n      swap3\n      sub(shl(0xa0, 0x01), 0x01)\n        /* \"TRUSTFY v4.3 \\xe2\\x80\\x94 Contract.sol\":22315:22322  e.token */\n      swap2\n      dup3\n      and\n      swap3\n        /* \"TRUSTFY v4.3 \\xe2\\x80\\x94 Contract.sol\":22337:22345  treasury */\n      swap2\n      swap1\n      swap2\n      and\n      swap1\n        /* \"TRUSTFY v4.3 \\xe2\\x80\\x94 Contract.sol\":22308:22336  IERC20(e.token).safeTransfer */\n      tag_202\n        /* \"TRUSTFY v4.3 \\xe2\\x80\\x94 Contract.sol\":22308:22366  IERC20(e.token).safeTransfer(treasury, e.buyerDisputeBond) */\n      jump\t// in\n    tag_495:\n        /* \"TRUSTFY v4.3 \\xe2\\x80\\x94 Contract.sol\":22405:22406  0 */\n      0x00\n        /* \"TRUSTFY v4.3 \\xe2\\x80\\x94 Contract.sol\":22384:22402  e.buyerDisputeBond */\n      0x06\n      dup3\n      add\n        /* \"TRUSTFY v4.3 \\xe2\\x80\\x94 Contract.sol\":22384:22406  e.buyerDisputeBond = 0 */\n      sstore\n        /* \"TRUSTFY v4.3 \\xe2\\x80\\x94 Contract.sol\":22262:22421  if (e.buyerDisputeBond > 0) {... */\n    tag_494:\n        /* \"TRUSTFY v4.3 \\xe2\\x80\\x94 Contract.sol\":22509:22515  e.adId */\n      dup1\n      sload\n        /* \"TRUSTFY v4.3 \\xe2\\x80\\x94 Contract.sol\":22489:22502  Ad storage ad */\n      0x00\n        /* \"TRUSTFY v4.3 \\xe2\\x80\\x94 Contract.sol\":22505:22516  ads[e.adId] */\n      swap1\n      dup2\n      mstore\n        /* \"TRUSTFY v4.3 \\xe2\\x80\\x94 Contract.sol\":22505:22508  ads */\n      0x08\n        /* \"TRUSTFY v4.3 \\xe2\\x80\\x94 Contract.sol\":22505:22516  ads[e.adId] */\n      0x20\n      mstore\n      0x40\n      swap1\n      keccak256\n        /* \"TRUSTFY v4.3 \\xe2\\x80\\x94 Contract.sol\":22530:22539  ad.adBond */\n      0x03\n      dup2\n      add\n      sload\n        /* \"TRUSTFY v4.3 \\xe2\\x80\\x94 Contract.sol\":22530:22543  ad.adBond > 0 */\n      iszero\n        /* \"TRUSTFY v4.3 \\xe2\\x80\\x94 Contract.sol\":22526:22767  if (ad.adBond > 0) {... */\n      tag_496\n      jumpi\n        /* \"TRUSTFY v4.3 \\xe2\\x80\\x94 Contract.sol\":22596:22605  ad.adBond */\n      0x03\n      dup2\n      add\n      sload\n        /* \"TRUSTFY v4.3 \\xe2\\x80\\x94 Contract.sol\":22573:22581  ad.maker */\n      dup2\n      sload\n      sub(shl(0xa0, 0x01), 0x01)\n      swap1\n      dup2\n      and\n        /* \"TRUSTFY v4.3 \\xe2\\x80\\x94 Contract.sol\":22559:22582  creditBalance[ad.maker] */\n      0x00\n      swap1\n      dup2\n      mstore\n        /* \"TRUSTFY v4.3 \\xe2\\x80\\x94 Contract.sol\":22559:22572  creditBalance */\n      0x05\n        /* \"TRUSTFY v4.3 \\xe2\\x80\\x94 Contract.sol\":22559:22582  creditBalance[ad.maker] */\n      0x20\n      swap1\n      dup2\n      mstore\n      0x40\n      dup1\n      dup4\n      keccak256\n        /* \"TRUSTFY v4.3 \\xe2\\x80\\x94 Contract.sol\":22573:22581  ad.maker */\n      0x01\n        /* \"TRUSTFY v4.3 \\xe2\\x80\\x94 Contract.sol\":22583:22591  ad.token */\n      dup8\n      add\n      sload\n      swap1\n      swap5\n      and\n        /* \"TRUSTFY v4.3 \\xe2\\x80\\x94 Contract.sol\":22559:22592  creditBalance[ad.maker][ad.token] */\n      dup4\n      mstore\n      swap3\n      swap1\n      mstore\n      swap1\n      dup2\n      keccak256\n        /* \"TRUSTFY v4.3 \\xe2\\x80\\x94 Contract.sol\":22559:22605  creditBalance[ad.maker][ad.token] += ad.adBond */\n      dup1\n      sload\n        /* \"TRUSTFY v4.3 \\xe2\\x80\\x94 Contract.sol\":22559:22592  creditBalance[ad.maker][ad.token] */\n      swap1\n      swap2\n        /* \"TRUSTFY v4.3 \\xe2\\x80\\x94 Contract.sol\":22559:22582  creditBalance[ad.maker] */\n      swap1\n        /* \"TRUSTFY v4.3 \\xe2\\x80\\x94 Contract.sol\":22559:22605  creditBalance[ad.maker][ad.token] += ad.adBond */\n      tag_497\n      swap1\n        /* \"TRUSTFY v4.3 \\xe2\\x80\\x94 Contract.sol\":22596:22605  ad.adBond */\n      dup5\n      swap1\n        /* \"TRUSTFY v4.3 \\xe2\\x80\\x94 Contract.sol\":22559:22605  creditBalance[ad.maker][ad.token] += ad.adBond */\n      tag_189\n      jump\t// in\n    tag_497:\n      swap1\n      swap2\n      sstore\n      pop\n      pop\n        /* \"TRUSTFY v4.3 \\xe2\\x80\\x94 Contract.sol\":22646:22654  ad.token */\n      0x01\n      dup2\n      add\n      sload\n        /* \"TRUSTFY v4.3 \\xe2\\x80\\x94 Contract.sol\":22636:22644  ad.maker */\n      dup2\n      sload\n        /* \"TRUSTFY v4.3 \\xe2\\x80\\x94 Contract.sol\":22656:22665  ad.adBond */\n      0x03\n      dup4\n      add\n      sload\n        /* \"TRUSTFY v4.3 \\xe2\\x80\\x94 Contract.sol\":22720:22726  e.adId */\n      dup5\n      sload\n        /* \"TRUSTFY v4.3 \\xe2\\x80\\x94 Contract.sol\":22677:22727  abi.encodePacked(\"AD_BOND_REFUND_DISPUTE\", e.adId) */\n      mload(0x40)\n      shl(0x50, 0x41445f424f4e445f524546554e445f44495350555445)\n      0x20\n      dup3\n      add\n        /* \"#utility.yul\":18791:18828   */\n      mstore\n        /* \"#utility.yul\":18844:18856   */\n      0x36\n      dup2\n      add\n        /* \"#utility.yul\":18837:18865   */\n      swap2\n      swap1\n      swap2\n      mstore\n      sub(shl(0xa0, 0x01), 0x01)\n        /* \"TRUSTFY v4.3 \\xe2\\x80\\x94 Contract.sol\":22646:22654  ad.token */\n      swap4\n      dup5\n      and\n      swap4\n        /* \"TRUSTFY v4.3 \\xe2\\x80\\x94 Contract.sol\":22636:22644  ad.maker */\n      swap1\n      swap3\n      and\n      swap2\n      0x00\n      dup1\n      mload\n      0x20\n      data_a1787636192da96984a031a805d7165b97afdc9cf24262e59bc86055df6ab426\n      dup4\n      codecopy\n      dup2\n      mload\n      swap2\n      mstore\n        /* \"TRUSTFY v4.3 \\xe2\\x80\\x94 Contract.sol\":22624:22729  CreditAdded(ad.maker, ad.token, ad.adBond, keccak256(abi.encodePacked(\"AD_BOND_REFUND_DISPUTE\", e.adId))) */\n      swap2\n        /* \"TRUSTFY v4.3 \\xe2\\x80\\x94 Contract.sol\":22656:22665  ad.adBond */\n      swap1\n        /* \"#utility.yul\":18881:18893   */\n      0x56\n      add\n        /* \"TRUSTFY v4.3 \\xe2\\x80\\x94 Contract.sol\":22677:22727  abi.encodePacked(\"AD_BOND_REFUND_DISPUTE\", e.adId) */\n      0x40\n      dup1\n      mload\n      not(0x1f)\n      dup2\n      dup5\n      sub\n      add\n      dup2\n      mstore\n      dup3\n      dup3\n      mstore\n        /* \"TRUSTFY v4.3 \\xe2\\x80\\x94 Contract.sol\":22667:22728  keccak256(abi.encodePacked(\"AD_BOND_REFUND_DISPUTE\", e.adId)) */\n      dup1\n      mload\n        /* \"TRUSTFY v4.3 \\xe2\\x80\\x94 Contract.sol\":22677:22727  abi.encodePacked(\"AD_BOND_REFUND_DISPUTE\", e.adId) */\n      0x20\n        /* \"TRUSTFY v4.3 \\xe2\\x80\\x94 Contract.sol\":22667:22728  keccak256(abi.encodePacked(\"AD_BOND_REFUND_DISPUTE\", e.adId)) */\n      swap2\n      dup3\n      add\n      keccak256\n        /* \"#utility.yul\":16433:16458   */\n      swap4\n      dup4\n      mstore\n        /* \"#utility.yul\":16474:16492   */\n      dup3\n      add\n        /* \"#utility.yul\":16467:16501   */\n      swap3\n      swap1\n      swap3\n      mstore\n        /* \"#utility.yul\":16406:16424   */\n      add\n        /* \"TRUSTFY v4.3 \\xe2\\x80\\x94 Contract.sol\":22624:22729  CreditAdded(ad.maker, ad.token, ad.adBond, keccak256(abi.encodePacked(\"AD_BOND_REFUND_DISPUTE\", e.adId))) */\n      mload(0x40)\n      dup1\n      swap2\n      sub\n      swap1\n      log3\n        /* \"TRUSTFY v4.3 \\xe2\\x80\\x94 Contract.sol\":22755:22756  0 */\n      0x00\n        /* \"TRUSTFY v4.3 \\xe2\\x80\\x94 Contract.sol\":22743:22752  ad.adBond */\n      0x03\n      dup3\n      add\n        /* \"TRUSTFY v4.3 \\xe2\\x80\\x94 Contract.sol\":22743:22756  ad.adBond = 0 */\n      sstore\n        /* \"TRUSTFY v4.3 \\xe2\\x80\\x94 Contract.sol\":22526:22767  if (ad.adBond > 0) {... */\n    tag_496:\n        /* \"TRUSTFY v4.3 \\xe2\\x80\\x94 Contract.sol\":22797:22814  e.disputeResolved */\n      0x0c\n      dup3\n      add\n        /* \"TRUSTFY v4.3 \\xe2\\x80\\x94 Contract.sol\":22797:22821  e.disputeResolved = true */\n      dup1\n      sload\n      not(0xff00)\n      and\n      0x0100\n      or\n      swap1\n      sstore\n        /* \"TRUSTFY v4.3 \\xe2\\x80\\x94 Contract.sol\":22831:22839  e.status */\n      0x08\n      dup3\n      add\n        /* \"TRUSTFY v4.3 \\xe2\\x80\\x94 Contract.sol\":22831:22863  e.status = EscrowStatus.RESOLVED */\n      dup1\n      sload\n        /* \"TRUSTFY v4.3 \\xe2\\x80\\x94 Contract.sol\":22842:22863  EscrowStatus.RESOLVED */\n      0x05\n      not(0xff)\n        /* \"TRUSTFY v4.3 \\xe2\\x80\\x94 Contract.sol\":22831:22863  e.status = EscrowStatus.RESOLVED */\n      swap2\n      dup3\n      and\n      dup2\n      or\n      swap1\n      swap3\n      sstore\n      0x04\n        /* \"TRUSTFY v4.3 \\xe2\\x80\\x94 Contract.sol\":22874:22882  ad.state */\n      dup4\n      add\n        /* \"TRUSTFY v4.3 \\xe2\\x80\\x94 Contract.sol\":22874:22902  ad.state = AdState.COMPLETED */\n      dup1\n      sload\n        /* \"TRUSTFY v4.3 \\xe2\\x80\\x94 Contract.sol\":22885:22902  AdState.COMPLETED */\n      0x03\n        /* \"TRUSTFY v4.3 \\xe2\\x80\\x94 Contract.sol\":22874:22902  ad.state = AdState.COMPLETED */\n      swap3\n      and\n      swap2\n      swap1\n      swap2\n      or\n      swap1\n      sstore\n      0x00\n        /* \"TRUSTFY v4.3 \\xe2\\x80\\x94 Contract.sol\":22912:22929  ad.activeEscrowId */\n      swap1\n      dup3\n      add\n        /* \"TRUSTFY v4.3 \\xe2\\x80\\x94 Contract.sol\":22912:22933  ad.activeEscrowId = 0 */\n      sstore\n        /* \"TRUSTFY v4.3 \\xe2\\x80\\x94 Contract.sol\":22949:22983  DisputeResolved(escrowId, outcome) */\n      mload(0x40)\n        /* \"TRUSTFY v4.3 \\xe2\\x80\\x94 Contract.sol\":22965:22973  escrowId */\n      dup5\n      swap1\n        /* \"TRUSTFY v4.3 \\xe2\\x80\\x94 Contract.sol\":22949:22983  DisputeResolved(escrowId, outcome) */\n      0x2ffcfee146bc0d5ff304c6b65111a0d485af9456dc64eee7d66ebdcc90b223ea\n      swap1\n      tag_505\n      swap1\n        /* \"TRUSTFY v4.3 \\xe2\\x80\\x94 Contract.sol\":22975:22982  outcome */\n      dup7\n      swap1\n        /* \"TRUSTFY v4.3 \\xe2\\x80\\x94 Contract.sol\":22949:22983  DisputeResolved(escrowId, outcome) */\n      tag_506\n      jump\t// in\n    tag_505:\n      mload(0x40)\n      dup1\n      swap2\n      sub\n      swap1\n      log2\n        /* \"TRUSTFY v4.3 \\xe2\\x80\\x94 Contract.sol\":22998:23022  EscrowReleased(escrowId) */\n      mload(0x40)\n        /* \"TRUSTFY v4.3 \\xe2\\x80\\x94 Contract.sol\":23013:23021  escrowId */\n      dup5\n      swap1\n        /* \"TRUSTFY v4.3 \\xe2\\x80\\x94 Contract.sol\":22998:23022  EscrowReleased(escrowId) */\n      0x69833829d5691ae09424af7d16f73adf033451149ea9c2fc6fcb4c44108eef67\n      swap1\n      0x00\n      swap1\n      log2\n        /* \"TRUSTFY v4.3 \\xe2\\x80\\x94 Contract.sol\":23049:23055  e.adId */\n      dup2\n      sload\n        /* \"TRUSTFY v4.3 \\xe2\\x80\\x94 Contract.sol\":23037:23056  AdCompleted(e.adId) */\n      mload(0x40)\n      0x1b5620e4acda71640915df6184c97b2ef8b032a94bb3886bb01df0f3248a15c0\n      swap1\n        /* \"TRUSTFY v4.3 \\xe2\\x80\\x94 Contract.sol\":23049:23055  e.adId */\n      0x00\n      swap1\n        /* \"TRUSTFY v4.3 \\xe2\\x80\\x94 Contract.sol\":23037:23056  AdCompleted(e.adId) */\n      log2\n        /* \"TRUSTFY v4.3 \\xe2\\x80\\x94 Contract.sol\":20709:23063  {... */\n      pop\n      pop\n        /* \"TRUSTFY v4.3 \\xe2\\x80\\x94 Contract.sol\":20619:23063  function resolveDispute(uint256 escrowId, DisputeOutcome outcome) external onlyArbitrator {... */\n      pop\n      pop\n      jump\t// out\n        /* \"TRUSTFY v4.3 \\xe2\\x80\\x94 Contract.sol\":18225:19895  function releaseEscrow(uint256 escrowId) external {... */\n    tag_131:\n        /* \"TRUSTFY v4.3 \\xe2\\x80\\x94 Contract.sol\":18285:18301  Escrow storage e */\n      0x00\n        /* \"TRUSTFY v4.3 \\xe2\\x80\\x94 Contract.sol\":18304:18321  escrows[escrowId] */\n      dup2\n      dup2\n      mstore\n        /* \"TRUSTFY v4.3 \\xe2\\x80\\x94 Contract.sol\":18304:18311  escrows */\n      0x09\n        /* \"TRUSTFY v4.3 \\xe2\\x80\\x94 Contract.sol\":18304:18321  escrows[escrowId] */\n      0x20\n      mstore\n      0x40\n      dup2\n      keccak256\n        /* \"TRUSTFY v4.3 \\xe2\\x80\\x94 Contract.sol\":18339:18345  e.adId */\n      dup1\n      sload\n        /* \"TRUSTFY v4.3 \\xe2\\x80\\x94 Contract.sol\":18304:18321  escrows[escrowId] */\n      swap1\n      swap2\n        /* \"TRUSTFY v4.3 \\xe2\\x80\\x94 Contract.sol\":18339:18350  e.adId != 0 */\n      sub\n        /* \"TRUSTFY v4.3 \\xe2\\x80\\x94 Contract.sol\":18331:18371  require(e.adId != 0, \"ESCROW_NOT_FOUND\") */\n      tag_508\n      jumpi\n      mload(0x40)\n      shl(0xe5, 0x461bcd)\n      dup2\n      mstore\n      0x04\n      add\n      tag_153\n      swap1\n      tag_154\n      jump\t// in\n    tag_508:\n        /* \"TRUSTFY v4.3 \\xe2\\x80\\x94 Contract.sol\":18401:18431  EscrowStatus.PAYMENT_CONFIRMED */\n      0x03\n        /* \"TRUSTFY v4.3 \\xe2\\x80\\x94 Contract.sol\":18389:18397  e.status */\n      0x08\n      dup3\n      add\n      sload\n      0xff\n      and\n        /* \"TRUSTFY v4.3 \\xe2\\x80\\x94 Contract.sol\":18389:18431  e.status == EscrowStatus.PAYMENT_CONFIRMED */\n      0x06\n      dup2\n      gt\n      iszero\n      tag_513\n      jumpi\n      tag_513\n      tag_157\n      jump\t// in\n    tag_513:\n      eq\n        /* \"TRUSTFY v4.3 \\xe2\\x80\\x94 Contract.sol\":18433:18446  ERR_BAD_STATE */\n      mload(0x40)\n      dup1\n      0x40\n      add\n      0x40\n      mstore\n      dup1\n      0x09\n      dup2\n      mstore\n      0x20\n      add\n      shl(0xb8, 0x4241445f5354415445)\n      dup2\n      mstore\n      pop\n        /* \"TRUSTFY v4.3 \\xe2\\x80\\x94 Contract.sol\":18381:18447  require(e.status == EscrowStatus.PAYMENT_CONFIRMED, ERR_BAD_STATE) */\n      swap1\n      tag_514\n      jumpi\n      mload(0x40)\n      shl(0xe5, 0x461bcd)\n      dup2\n      mstore\n      0x04\n      add\n      tag_153\n      swap2\n      swap1\n      tag_162\n      jump\t// in\n    tag_514:\n      pop\n        /* \"TRUSTFY v4.3 \\xe2\\x80\\x94 Contract.sol\":18479:18487  e.seller */\n      0x02\n      dup2\n      add\n      sload\n        /* \"TRUSTFY v4.3 \\xe2\\x80\\x94 Contract.sol\":18489:18503  ERR_NOT_SELLER */\n      0x40\n      dup1\n      mload\n      dup1\n      dup3\n      add\n      swap1\n      swap2\n      mstore\n      0x0a\n      dup2\n      mstore\n      shl(0xb1, 0x2727aa2fa9a2a62622a9)\n      0x20\n      dup3\n      add\n      mstore\n      swap1\n      sub(shl(0xa0, 0x01), 0x01)\n        /* \"TRUSTFY v4.3 \\xe2\\x80\\x94 Contract.sol\":18479:18487  e.seller */\n      and\n        /* \"TRUSTFY v4.3 \\xe2\\x80\\x94 Contract.sol\":18465:18475  msg.sender */\n      caller\n        /* \"TRUSTFY v4.3 \\xe2\\x80\\x94 Contract.sol\":18465:18487  msg.sender == e.seller */\n      eq\n        /* \"TRUSTFY v4.3 \\xe2\\x80\\x94 Contract.sol\":18457:18504  require(msg.sender == e.seller, ERR_NOT_SELLER) */\n      tag_516\n      jumpi\n      mload(0x40)\n      shl(0xe5, 0x461bcd)\n      dup2\n      mstore\n      0x04\n      add\n      tag_153\n      swap2\n      swap1\n      tag_162\n      jump\t// in\n    tag_516:\n      pop\n        /* \"TRUSTFY v4.3 \\xe2\\x80\\x94 Contract.sol\":18581:18588  e.buyer */\n      0x01\n      dup2\n      add\n      sload\n        /* \"TRUSTFY v4.3 \\xe2\\x80\\x94 Contract.sol\":18590:18598  e.amount */\n      0x04\n      dup3\n      add\n      sload\n        /* \"TRUSTFY v4.3 \\xe2\\x80\\x94 Contract.sol\":18559:18566  e.token */\n      0x03\n      dup4\n      add\n      sload\n        /* \"TRUSTFY v4.3 \\xe2\\x80\\x94 Contract.sol\":18552:18599  IERC20(e.token).safeTransfer(e.buyer, e.amount) */\n      tag_518\n      swap3\n      sub(shl(0xa0, 0x01), 0x01)\n        /* \"TRUSTFY v4.3 \\xe2\\x80\\x94 Contract.sol\":18559:18566  e.token */\n      swap2\n      dup3\n      and\n      swap3\n        /* \"TRUSTFY v4.3 \\xe2\\x80\\x94 Contract.sol\":18581:18588  e.buyer */\n      swap2\n      and\n      swap1\n        /* \"TRUSTFY v4.3 \\xe2\\x80\\x94 Contract.sol\":18552:18580  IERC20(e.token).safeTransfer */\n      tag_202\n        /* \"TRUSTFY v4.3 \\xe2\\x80\\x94 Contract.sol\":18552:18599  IERC20(e.token).safeTransfer(e.buyer, e.amount) */\n      jump\t// in\n    tag_518:\n        /* \"TRUSTFY v4.3 \\xe2\\x80\\x94 Contract.sol\":18641:18652  e.feeAmount */\n      0x05\n      dup2\n      add\n      sload\n        /* \"TRUSTFY v4.3 \\xe2\\x80\\x94 Contract.sol\":18641:18656  e.feeAmount > 0 */\n      iszero\n        /* \"TRUSTFY v4.3 \\xe2\\x80\\x94 Contract.sol\":18637:18734  if (e.feeAmount > 0) {... */\n      tag_520\n      jumpi\n        /* \"TRUSTFY v4.3 \\xe2\\x80\\x94 Contract.sol\":18701:18709  treasury */\n      0x03\n      dup1\n      sload\n        /* \"TRUSTFY v4.3 \\xe2\\x80\\x94 Contract.sol\":18711:18722  e.feeAmount */\n      0x05\n      dup4\n      add\n      sload\n        /* \"TRUSTFY v4.3 \\xe2\\x80\\x94 Contract.sol\":18679:18686  e.token */\n      swap2\n      dup4\n      add\n      sload\n        /* \"TRUSTFY v4.3 \\xe2\\x80\\x94 Contract.sol\":18672:18723  IERC20(e.token).safeTransfer(treasury, e.feeAmount) */\n      tag_520\n      swap3\n      sub(shl(0xa0, 0x01), 0x01)\n        /* \"TRUSTFY v4.3 \\xe2\\x80\\x94 Contract.sol\":18679:18686  e.token */\n      swap2\n      dup3\n      and\n      swap3\n        /* \"TRUSTFY v4.3 \\xe2\\x80\\x94 Contract.sol\":18701:18709  treasury */\n      swap2\n      swap1\n      swap2\n      and\n      swap1\n        /* \"TRUSTFY v4.3 \\xe2\\x80\\x94 Contract.sol\":18672:18700  IERC20(e.token).safeTransfer */\n      tag_202\n        /* \"TRUSTFY v4.3 \\xe2\\x80\\x94 Contract.sol\":18672:18723  IERC20(e.token).safeTransfer(treasury, e.feeAmount) */\n      jump\t// in\n    tag_520:\n        /* \"TRUSTFY v4.3 \\xe2\\x80\\x94 Contract.sol\":18797:18815  e.buyerDisputeBond */\n      0x06\n      dup2\n      add\n      sload\n        /* \"TRUSTFY v4.3 \\xe2\\x80\\x94 Contract.sol\":18797:18819  e.buyerDisputeBond > 0 */\n      iszero\n        /* \"TRUSTFY v4.3 \\xe2\\x80\\x94 Contract.sol\":18793:19066  if (e.buyerDisputeBond > 0) {... */\n      tag_521\n      jumpi\n        /* \"TRUSTFY v4.3 \\xe2\\x80\\x94 Contract.sol\":18870:18888  e.buyerDisputeBond */\n      0x06\n      dup2\n      add\n      sload\n        /* \"TRUSTFY v4.3 \\xe2\\x80\\x94 Contract.sol\":18849:18856  e.buyer */\n      0x01\n      dup3\n      add\n      sload\n      sub(shl(0xa0, 0x01), 0x01)\n      swap1\n      dup2\n      and\n        /* \"TRUSTFY v4.3 \\xe2\\x80\\x94 Contract.sol\":18835:18857  creditBalance[e.buyer] */\n      0x00\n      swap1\n      dup2\n      mstore\n        /* \"TRUSTFY v4.3 \\xe2\\x80\\x94 Contract.sol\":18835:18848  creditBalance */\n      0x05\n        /* \"TRUSTFY v4.3 \\xe2\\x80\\x94 Contract.sol\":18835:18857  creditBalance[e.buyer] */\n      0x20\n      swap1\n      dup2\n      mstore\n      0x40\n      dup1\n      dup4\n      keccak256\n        /* \"TRUSTFY v4.3 \\xe2\\x80\\x94 Contract.sol\":18858:18865  e.token */\n      0x03\n      dup8\n      add\n      sload\n      swap1\n      swap5\n      and\n        /* \"TRUSTFY v4.3 \\xe2\\x80\\x94 Contract.sol\":18835:18866  creditBalance[e.buyer][e.token] */\n      dup4\n      mstore\n      swap3\n      swap1\n      mstore\n      swap1\n      dup2\n      keccak256\n        /* \"TRUSTFY v4.3 \\xe2\\x80\\x94 Contract.sol\":18835:18888  creditBalance[e.buyer][e.token] += e.buyerDisputeBond */\n      dup1\n      sload\n        /* \"TRUSTFY v4.3 \\xe2\\x80\\x94 Contract.sol\":18835:18866  creditBalance[e.buyer][e.token] */\n      swap1\n      swap2\n        /* \"TRUSTFY v4.3 \\xe2\\x80\\x94 Contract.sol\":18835:18857  creditBalance[e.buyer] */\n      swap1\n        /* \"TRUSTFY v4.3 \\xe2\\x80\\x94 Contract.sol\":18835:18888  creditBalance[e.buyer][e.token] += e.buyerDisputeBond */\n      tag_522\n      swap1\n        /* \"TRUSTFY v4.3 \\xe2\\x80\\x94 Contract.sol\":18870:18888  e.buyerDisputeBond */\n      dup5\n      swap1\n        /* \"TRUSTFY v4.3 \\xe2\\x80\\x94 Contract.sol\":18835:18888  creditBalance[e.buyer][e.token] += e.buyerDisputeBond */\n      tag_189\n      jump\t// in\n    tag_522:\n      swap1\n      swap2\n      sstore\n      pop\n      pop\n        /* \"TRUSTFY v4.3 \\xe2\\x80\\x94 Contract.sol\":18928:18935  e.token */\n      0x03\n      dup2\n      add\n      sload\n      0x01\n        /* \"TRUSTFY v4.3 \\xe2\\x80\\x94 Contract.sol\":18919:18926  e.buyer */\n      dup3\n      add\n      sload\n        /* \"TRUSTFY v4.3 \\xe2\\x80\\x94 Contract.sol\":18937:18955  e.buyerDisputeBond */\n      0x06\n      dup4\n      add\n      sload\n        /* \"TRUSTFY v4.3 \\xe2\\x80\\x94 Contract.sol\":18967:19017  abi.encodePacked(\"BUYER_DISPUTE_REFUND\", escrowId) */\n      mload(0x40)\n      shl(0x62, 0x109556515497d11254d415551157d49151955391)\n      0x20\n      dup3\n      add\n        /* \"#utility.yul\":19388:19423   */\n      mstore\n        /* \"#utility.yul\":19439:19451   */\n      0x34\n      dup2\n      add\n        /* \"#utility.yul\":19432:19460   */\n      dup7\n      swap1\n      mstore\n      sub(shl(0xa0, 0x01), 0x01)\n        /* \"TRUSTFY v4.3 \\xe2\\x80\\x94 Contract.sol\":18928:18935  e.token */\n      swap4\n      dup5\n      and\n      swap4\n        /* \"TRUSTFY v4.3 \\xe2\\x80\\x94 Contract.sol\":18919:18926  e.buyer */\n      swap1\n      swap3\n      and\n      swap2\n      0x00\n      dup1\n      mload\n      0x20\n      data_a1787636192da96984a031a805d7165b97afdc9cf24262e59bc86055df6ab426\n      dup4\n      codecopy\n      dup2\n      mload\n      swap2\n      mstore\n        /* \"TRUSTFY v4.3 \\xe2\\x80\\x94 Contract.sol\":18907:19019  CreditAdded(e.buyer, e.token, e.buyerDisputeBond, keccak256(abi.encodePacked(\"BUYER_DISPUTE_REFUND\", escrowId))) */\n      swap2\n        /* \"TRUSTFY v4.3 \\xe2\\x80\\x94 Contract.sol\":18937:18955  e.buyerDisputeBond */\n      swap1\n        /* \"#utility.yul\":19476:19488   */\n      0x54\n      add\n        /* \"TRUSTFY v4.3 \\xe2\\x80\\x94 Contract.sol\":18967:19017  abi.encodePacked(\"BUYER_DISPUTE_REFUND\", escrowId) */\n      0x40\n      dup1\n      mload\n      not(0x1f)\n      dup2\n      dup5\n      sub\n      add\n      dup2\n      mstore\n      dup3\n      dup3\n      mstore\n        /* \"TRUSTFY v4.3 \\xe2\\x80\\x94 Contract.sol\":18957:19018  keccak256(abi.encodePacked(\"BUYER_DISPUTE_REFUND\", escrowId)) */\n      dup1\n      mload\n        /* \"TRUSTFY v4.3 \\xe2\\x80\\x94 Contract.sol\":18967:19017  abi.encodePacked(\"BUYER_DISPUTE_REFUND\", escrowId) */\n      0x20\n        /* \"TRUSTFY v4.3 \\xe2\\x80\\x94 Contract.sol\":18957:19018  keccak256(abi.encodePacked(\"BUYER_DISPUTE_REFUND\", escrowId)) */\n      swap2\n      dup3\n      add\n      keccak256\n        /* \"#utility.yul\":16433:16458   */\n      swap4\n      dup4\n      mstore\n        /* \"#utility.yul\":16474:16492   */\n      dup3\n      add\n        /* \"#utility.yul\":16467:16501   */\n      swap3\n      swap1\n      swap3\n      mstore\n        /* \"#utility.yul\":16406:16424   */\n      add\n        /* \"TRUSTFY v4.3 \\xe2\\x80\\x94 Contract.sol\":18907:19019  CreditAdded(e.buyer, e.token, e.buyerDisputeBond, keccak256(abi.encodePacked(\"BUYER_DISPUTE_REFUND\", escrowId))) */\n      mload(0x40)\n      dup1\n      swap2\n      sub\n      swap1\n      log3\n        /* \"TRUSTFY v4.3 \\xe2\\x80\\x94 Contract.sol\":19054:19055  0 */\n      0x00\n        /* \"TRUSTFY v4.3 \\xe2\\x80\\x94 Contract.sol\":19033:19051  e.buyerDisputeBond */\n      0x06\n      dup3\n      add\n        /* \"TRUSTFY v4.3 \\xe2\\x80\\x94 Contract.sol\":19033:19055  e.buyerDisputeBond = 0 */\n      sstore\n        /* \"TRUSTFY v4.3 \\xe2\\x80\\x94 Contract.sol\":18793:19066  if (e.buyerDisputeBond > 0) {... */\n    tag_521:\n        /* \"TRUSTFY v4.3 \\xe2\\x80\\x94 Contract.sol\":19079:19098  e.sellerDisputeBond */\n      0x07\n      dup2\n      add\n      sload\n        /* \"TRUSTFY v4.3 \\xe2\\x80\\x94 Contract.sol\":19079:19102  e.sellerDisputeBond > 0 */\n      iszero\n        /* \"TRUSTFY v4.3 \\xe2\\x80\\x94 Contract.sol\":19075:19355  if (e.sellerDisputeBond > 0) {... */\n      tag_526\n      jumpi\n        /* \"TRUSTFY v4.3 \\xe2\\x80\\x94 Contract.sol\":19154:19173  e.sellerDisputeBond */\n      0x07\n      dup2\n      add\n      sload\n        /* \"TRUSTFY v4.3 \\xe2\\x80\\x94 Contract.sol\":19132:19140  e.seller */\n      0x02\n      dup3\n      add\n      sload\n      sub(shl(0xa0, 0x01), 0x01)\n      swap1\n      dup2\n      and\n        /* \"TRUSTFY v4.3 \\xe2\\x80\\x94 Contract.sol\":19118:19141  creditBalance[e.seller] */\n      0x00\n      swap1\n      dup2\n      mstore\n        /* \"TRUSTFY v4.3 \\xe2\\x80\\x94 Contract.sol\":19118:19131  creditBalance */\n      0x05\n        /* \"TRUSTFY v4.3 \\xe2\\x80\\x94 Contract.sol\":19118:19141  creditBalance[e.seller] */\n      0x20\n      swap1\n      dup2\n      mstore\n      0x40\n      dup1\n      dup4\n      keccak256\n        /* \"TRUSTFY v4.3 \\xe2\\x80\\x94 Contract.sol\":19142:19149  e.token */\n      0x03\n      dup8\n      add\n      sload\n      swap1\n      swap5\n      and\n        /* \"TRUSTFY v4.3 \\xe2\\x80\\x94 Contract.sol\":19118:19150  creditBalance[e.seller][e.token] */\n      dup4\n      mstore\n      swap3\n      swap1\n      mstore\n      swap1\n      dup2\n      keccak256\n        /* \"TRUSTFY v4.3 \\xe2\\x80\\x94 Contract.sol\":19118:19173  creditBalance[e.seller][e.token] += e.sellerDisputeBond */\n      dup1\n      sload\n        /* \"TRUSTFY v4.3 \\xe2\\x80\\x94 Contract.sol\":19118:19150  creditBalance[e.seller][e.token] */\n      swap1\n      swap2\n        /* \"TRUSTFY v4.3 \\xe2\\x80\\x94 Contract.sol\":19118:19141  creditBalance[e.seller] */\n      swap1\n        /* \"TRUSTFY v4.3 \\xe2\\x80\\x94 Contract.sol\":19118:19173  creditBalance[e.seller][e.token] += e.sellerDisputeBond */\n      tag_527\n      swap1\n        /* \"TRUSTFY v4.3 \\xe2\\x80\\x94 Contract.sol\":19154:19173  e.sellerDisputeBond */\n      dup5\n      swap1\n        /* \"TRUSTFY v4.3 \\xe2\\x80\\x94 Contract.sol\":19118:19173  creditBalance[e.seller][e.token] += e.sellerDisputeBond */\n      tag_189\n      jump\t// in\n    tag_527:\n      swap1\n      swap2\n      sstore\n      pop\n      pop\n        /* \"TRUSTFY v4.3 \\xe2\\x80\\x94 Contract.sol\":19214:19221  e.token */\n      0x03\n      dup2\n      add\n      sload\n        /* \"TRUSTFY v4.3 \\xe2\\x80\\x94 Contract.sol\":19204:19212  e.seller */\n      0x02\n      dup3\n      add\n      sload\n        /* \"TRUSTFY v4.3 \\xe2\\x80\\x94 Contract.sol\":19223:19242  e.sellerDisputeBond */\n      0x07\n      dup4\n      add\n      sload\n        /* \"TRUSTFY v4.3 \\xe2\\x80\\x94 Contract.sol\":19254:19305  abi.encodePacked(\"SELLER_DISPUTE_REFUND\", escrowId) */\n      mload(0x40)\n      shl(0x5a, 0x14d15313115497d11254d415551157d49151955391)\n      0x20\n      dup3\n      add\n        /* \"#utility.yul\":19729:19765   */\n      mstore\n        /* \"#utility.yul\":19781:19793   */\n      0x35\n      dup2\n      add\n        /* \"#utility.yul\":19774:19802   */\n      dup7\n      swap1\n      mstore\n      sub(shl(0xa0, 0x01), 0x01)\n        /* \"TRUSTFY v4.3 \\xe2\\x80\\x94 Contract.sol\":19214:19221  e.token */\n      swap4\n      dup5\n      and\n      swap4\n        /* \"TRUSTFY v4.3 \\xe2\\x80\\x94 Contract.sol\":19204:19212  e.seller */\n      swap1\n      swap3\n      and\n      swap2\n      0x00\n      dup1\n      mload\n      0x20\n      data_a1787636192da96984a031a805d7165b97afdc9cf24262e59bc86055df6ab426\n      dup4\n      codecopy\n      dup2\n      mload\n      swap2\n      mstore\n        /* \"TRUSTFY v4.3 \\xe2\\x80\\x94 Contract.sol\":19192:19307  CreditAdded(e.seller, e.token, e.sellerDisputeBond, keccak256(abi.encodePacked(\"SELLER_DISPUTE_REFUND\", escrowId))) */\n      swap2\n        /* \"TRUSTFY v4.3 \\xe2\\x80\\x94 Contract.sol\":19223:19242  e.sellerDisputeBond */\n      swap1\n        /* \"#utility.yul\":19818:19830   */\n      0x55\n      add\n        /* \"TRUSTFY v4.3 \\xe2\\x80\\x94 Contract.sol\":19254:19305  abi.encodePacked(\"SELLER_DISPUTE_REFUND\", escrowId) */\n      0x40\n      dup1\n      mload\n      not(0x1f)\n      dup2\n      dup5\n      sub\n      add\n      dup2\n      mstore\n      dup3\n      dup3\n      mstore\n        /* \"TRUSTFY v4.3 \\xe2\\x80\\x94 Contract.sol\":19244:19306  keccak256(abi.encodePacked(\"SELLER_DISPUTE_REFUND\", escrowId)) */\n      dup1\n      mload\n        /* \"TRUSTFY v4.3 \\xe2\\x80\\x94 Contract.sol\":19254:19305  abi.encodePacked(\"SELLER_DISPUTE_REFUND\", escrowId) */\n      0x20\n        /* \"TRUSTFY v4.3 \\xe2\\x80\\x94 Contract.sol\":19244:19306  keccak256(abi.encodePacked(\"SELLER_DISPUTE_REFUND\", escrowId)) */\n      swap2\n      dup3\n      add\n      keccak256\n        /* \"#utility.yul\":16433:16458   */\n      swap4\n      dup4\n      mstore\n        /* \"#utility.yul\":16474:16492   */\n      dup3\n      add\n        /* \"#utility.yul\":16467:16501   */\n      swap3\n      swap1\n      swap3\n      mstore\n        /* \"#utility.yul\":16406:16424   */\n      add\n        /* \"TRUSTFY v4.3 \\xe2\\x80\\x94 Contract.sol\":19192:19307  CreditAdded(e.seller, e.token, e.sellerDisputeBond, keccak256(abi.encodePacked(\"SELLER_DISPUTE_REFUND\", escrowId))) */\n      mload(0x40)\n      dup1\n      swap2\n      sub\n      swap1\n      log3\n        /* \"TRUSTFY v4.3 \\xe2\\x80\\x94 Contract.sol\":19343:19344  0 */\n      0x00\n        /* \"TRUSTFY v4.3 \\xe2\\x80\\x94 Contract.sol\":19321:19340  e.sellerDisputeBond */\n      0x07\n      dup3\n      add\n        /* \"TRUSTFY v4.3 \\xe2\\x80\\x94 Contract.sol\":19321:19344  e.sellerDisputeBond = 0 */\n      sstore\n        /* \"TRUSTFY v4.3 \\xe2\\x80\\x94 Contract.sol\":19075:19355  if (e.sellerDisputeBond > 0) {... */\n    tag_526:\n        /* \"TRUSTFY v4.3 \\xe2\\x80\\x94 Contract.sol\":19433:19439  e.adId */\n      dup1\n      sload\n        /* \"TRUSTFY v4.3 \\xe2\\x80\\x94 Contract.sol\":19413:19426  Ad storage ad */\n      0x00\n        /* \"TRUSTFY v4.3 \\xe2\\x80\\x94 Contract.sol\":19429:19440  ads[e.adId] */\n      swap1\n      dup2\n      mstore\n        /* \"TRUSTFY v4.3 \\xe2\\x80\\x94 Contract.sol\":19429:19432  ads */\n      0x08\n        /* \"TRUSTFY v4.3 \\xe2\\x80\\x94 Contract.sol\":19429:19440  ads[e.adId] */\n      0x20\n      mstore\n      0x40\n      swap1\n      keccak256\n        /* \"TRUSTFY v4.3 \\xe2\\x80\\x94 Contract.sol\":19454:19463  ad.adBond */\n      0x03\n      dup2\n      add\n      sload\n        /* \"TRUSTFY v4.3 \\xe2\\x80\\x94 Contract.sol\":19454:19467  ad.adBond > 0 */\n      iszero\n        /* \"TRUSTFY v4.3 \\xe2\\x80\\x94 Contract.sol\":19450:19683  if (ad.adBond > 0) {... */\n      tag_531\n      jumpi\n        /* \"TRUSTFY v4.3 \\xe2\\x80\\x94 Contract.sol\":19520:19529  ad.adBond */\n      0x03\n      dup2\n      add\n      sload\n        /* \"TRUSTFY v4.3 \\xe2\\x80\\x94 Contract.sol\":19497:19505  ad.maker */\n      dup2\n      sload\n      sub(shl(0xa0, 0x01), 0x01)\n      swap1\n      dup2\n      and\n        /* \"TRUSTFY v4.3 \\xe2\\x80\\x94 Contract.sol\":19483:19506  creditBalance[ad.maker] */\n      0x00\n      swap1\n      dup2\n      mstore\n        /* \"TRUSTFY v4.3 \\xe2\\x80\\x94 Contract.sol\":19483:19496  creditBalance */\n      0x05\n        /* \"TRUSTFY v4.3 \\xe2\\x80\\x94 Contract.sol\":19483:19506  creditBalance[ad.maker] */\n      0x20\n      swap1\n      dup2\n      mstore\n      0x40\n      dup1\n      dup4\n      keccak256\n        /* \"TRUSTFY v4.3 \\xe2\\x80\\x94 Contract.sol\":19497:19505  ad.maker */\n      0x01\n        /* \"TRUSTFY v4.3 \\xe2\\x80\\x94 Contract.sol\":19507:19515  ad.token */\n      dup8\n      add\n      sload\n      swap1\n      swap5\n      and\n        /* \"TRUSTFY v4.3 \\xe2\\x80\\x94 Contract.sol\":19483:19516  creditBalance[ad.maker][ad.token] */\n      dup4\n      mstore\n      swap3\n      swap1\n      mstore\n      swap1\n      dup2\n      keccak256\n        /* \"TRUSTFY v4.3 \\xe2\\x80\\x94 Contract.sol\":19483:19529  creditBalance[ad.maker][ad.token] += ad.adBond */\n      dup1\n      sload\n        /* \"TRUSTFY v4.3 \\xe2\\x80\\x94 Contract.sol\":19483:19516  creditBalance[ad.maker][ad.token] */\n      swap1\n      swap2\n        /* \"TRUSTFY v4.3 \\xe2\\x80\\x94 Contract.sol\":19483:19506  creditBalance[ad.maker] */\n      swap1\n        /* \"TRUSTFY v4.3 \\xe2\\x80\\x94 Contract.sol\":19483:19529  creditBalance[ad.maker][ad.token] += ad.adBond */\n      tag_532\n      swap1\n        /* \"TRUSTFY v4.3 \\xe2\\x80\\x94 Contract.sol\":19520:19529  ad.adBond */\n      dup5\n      swap1\n        /* \"TRUSTFY v4.3 \\xe2\\x80\\x94 Contract.sol\":19483:19529  creditBalance[ad.maker][ad.token] += ad.adBond */\n      tag_189\n      jump\t// in\n    tag_532:\n      swap1\n      swap2\n      sstore\n      pop\n      pop\n        /* \"TRUSTFY v4.3 \\xe2\\x80\\x94 Contract.sol\":19570:19578  ad.token */\n      0x01\n      dup2\n      add\n      sload\n        /* \"TRUSTFY v4.3 \\xe2\\x80\\x94 Contract.sol\":19560:19568  ad.maker */\n      dup2\n      sload\n        /* \"TRUSTFY v4.3 \\xe2\\x80\\x94 Contract.sol\":19580:19589  ad.adBond */\n      0x03\n      dup4\n      add\n      sload\n        /* \"TRUSTFY v4.3 \\xe2\\x80\\x94 Contract.sol\":19636:19642  e.adId */\n      dup5\n      sload\n        /* \"TRUSTFY v4.3 \\xe2\\x80\\x94 Contract.sol\":19601:19643  abi.encodePacked(\"AD_BOND_REFUND\", e.adId) */\n      mload(0x40)\n      shl(0x92, 0x105117d093d39117d49151955391)\n      0x20\n      dup3\n      add\n        /* \"#utility.yul\":20071:20100   */\n      mstore\n        /* \"#utility.yul\":20116:20128   */\n      0x2e\n      dup2\n      add\n        /* \"#utility.yul\":20109:20137   */\n      swap2\n      swap1\n      swap2\n      mstore\n      sub(shl(0xa0, 0x01), 0x01)\n        /* \"TRUSTFY v4.3 \\xe2\\x80\\x94 Contract.sol\":19570:19578  ad.token */\n      swap4\n      dup5\n      and\n      swap4\n        /* \"TRUSTFY v4.3 \\xe2\\x80\\x94 Contract.sol\":19560:19568  ad.maker */\n      swap1\n      swap3\n      and\n      swap2\n      0x00\n      dup1\n      mload\n      0x20\n      data_a1787636192da96984a031a805d7165b97afdc9cf24262e59bc86055df6ab426\n      dup4\n      codecopy\n      dup2\n      mload\n      swap2\n      mstore\n        /* \"TRUSTFY v4.3 \\xe2\\x80\\x94 Contract.sol\":19548:19645  CreditAdded(ad.maker, ad.token, ad.adBond, keccak256(abi.encodePacked(\"AD_BOND_REFUND\", e.adId))) */\n      swap2\n        /* \"TRUSTFY v4.3 \\xe2\\x80\\x94 Contract.sol\":19580:19589  ad.adBond */\n      swap1\n        /* \"#utility.yul\":20153:20165   */\n      0x4e\n      add\n        /* \"TRUSTFY v4.3 \\xe2\\x80\\x94 Contract.sol\":19601:19643  abi.encodePacked(\"AD_BOND_REFUND\", e.adId) */\n      0x40\n      dup1\n      mload\n      not(0x1f)\n      dup2\n      dup5\n      sub\n      add\n      dup2\n      mstore\n      dup3\n      dup3\n      mstore\n        /* \"TRUSTFY v4.3 \\xe2\\x80\\x94 Contract.sol\":19591:19644  keccak256(abi.encodePacked(\"AD_BOND_REFUND\", e.adId)) */\n      dup1\n      mload\n        /* \"TRUSTFY v4.3 \\xe2\\x80\\x94 Contract.sol\":19601:19643  abi.encodePacked(\"AD_BOND_REFUND\", e.adId) */\n      0x20\n        /* \"TRUSTFY v4.3 \\xe2\\x80\\x94 Contract.sol\":19591:19644  keccak256(abi.encodePacked(\"AD_BOND_REFUND\", e.adId)) */\n      swap2\n      dup3\n      add\n      keccak256\n        /* \"#utility.yul\":16433:16458   */\n      swap4\n      dup4\n      mstore\n        /* \"#utility.yul\":16474:16492   */\n      dup3\n      add\n        /* \"#utility.yul\":16467:16501   */\n      swap3\n      swap1\n      swap3\n      mstore\n        /* \"#utility.yul\":16406:16424   */\n      add\n        /* \"TRUSTFY v4.3 \\xe2\\x80\\x94 Contract.sol\":19548:19645  CreditAdded(ad.maker, ad.token, ad.adBond, keccak256(abi.encodePacked(\"AD_BOND_REFUND\", e.adId))) */\n      mload(0x40)\n      dup1\n      swap2\n      sub\n      swap1\n      log3\n        /* \"TRUSTFY v4.3 \\xe2\\x80\\x94 Contract.sol\":19671:19672  0 */\n      0x00\n        /* \"TRUSTFY v4.3 \\xe2\\x80\\x94 Contract.sol\":19659:19668  ad.adBond */\n      0x03\n      dup3\n      add\n        /* \"TRUSTFY v4.3 \\xe2\\x80\\x94 Contract.sol\":19659:19672  ad.adBond = 0 */\n      sstore\n        /* \"TRUSTFY v4.3 \\xe2\\x80\\x94 Contract.sol\":19450:19683  if (ad.adBond > 0) {... */\n    tag_531:\n        /* \"TRUSTFY v4.3 \\xe2\\x80\\x94 Contract.sol\":19713:19721  e.status */\n      0x08\n      dup3\n      add\n        /* \"TRUSTFY v4.3 \\xe2\\x80\\x94 Contract.sol\":19713:19745  e.status = EscrowStatus.RESOLVED */\n      dup1\n      sload\n      not(0xff)\n      swap1\n      dup2\n      and\n        /* \"TRUSTFY v4.3 \\xe2\\x80\\x94 Contract.sol\":19724:19745  EscrowStatus.RESOLVED */\n      0x05\n        /* \"TRUSTFY v4.3 \\xe2\\x80\\x94 Contract.sol\":19713:19745  e.status = EscrowStatus.RESOLVED */\n      swap1\n      dup2\n      or\n      swap1\n      swap3\n      sstore\n        /* \"TRUSTFY v4.3 \\xe2\\x80\\x94 Contract.sol\":19755:19763  ad.state */\n      0x04\n      dup4\n      add\n        /* \"TRUSTFY v4.3 \\xe2\\x80\\x94 Contract.sol\":19755:19783  ad.state = AdState.COMPLETED */\n      dup1\n      sload\n      swap1\n      swap2\n      and\n        /* \"TRUSTFY v4.3 \\xe2\\x80\\x94 Contract.sol\":19766:19783  AdState.COMPLETED */\n      0x03\n        /* \"TRUSTFY v4.3 \\xe2\\x80\\x94 Contract.sol\":19755:19783  ad.state = AdState.COMPLETED */\n      or\n      swap1\n      sstore\n      0x00\n        /* \"TRUSTFY v4.3 \\xe2\\x80\\x94 Contract.sol\":19793:19810  ad.activeEscrowId */\n      swap1\n      dup3\n      add\n        /* \"TRUSTFY v4.3 \\xe2\\x80\\x94 Contract.sol\":19793:19814  ad.activeEscrowId = 0 */\n      dup2\n      swap1\n      sstore\n        /* \"TRUSTFY v4.3 \\xe2\\x80\\x94 Contract.sol\":19830:19854  EscrowReleased(escrowId) */\n      mload(0x40)\n        /* \"TRUSTFY v4.3 \\xe2\\x80\\x94 Contract.sol\":19845:19853  escrowId */\n      dup5\n      swap2\n        /* \"TRUSTFY v4.3 \\xe2\\x80\\x94 Contract.sol\":19830:19854  EscrowReleased(escrowId) */\n      0x69833829d5691ae09424af7d16f73adf033451149ea9c2fc6fcb4c44108eef67\n      swap2\n      log2\n        /* \"TRUSTFY v4.3 \\xe2\\x80\\x94 Contract.sol\":19881:19887  e.adId */\n      dup2\n      sload\n        /* \"TRUSTFY v4.3 \\xe2\\x80\\x94 Contract.sol\":19869:19888  AdCompleted(e.adId) */\n      mload(0x40)\n      0x1b5620e4acda71640915df6184c97b2ef8b032a94bb3886bb01df0f3248a15c0\n      swap1\n        /* \"TRUSTFY v4.3 \\xe2\\x80\\x94 Contract.sol\":19881:19887  e.adId */\n      0x00\n      swap1\n        /* \"TRUSTFY v4.3 \\xe2\\x80\\x94 Contract.sol\":19869:19888  AdCompleted(e.adId) */\n      log2\n        /* \"TRUSTFY v4.3 \\xe2\\x80\\x94 Contract.sol\":18275:19895  {... */\n      pop\n      pop\n        /* \"TRUSTFY v4.3 \\xe2\\x80\\x94 Contract.sol\":18225:19895  function releaseEscrow(uint256 escrowId) external {... */\n      pop\n      jump\t// out\n        /* \"TRUSTFY v4.3 \\xe2\\x80\\x94 Contract.sol\":9228:9420  function setTreasury(address treasury_) external onlyOwner {... */\n    tag_134:\n        /* \"TRUSTFY v4.3 \\xe2\\x80\\x94 Contract.sol\":8108:8113  owner */\n      sload(0x00)\n        /* \"TRUSTFY v4.3 \\xe2\\x80\\x94 Contract.sol\":8115:8128  ERR_NOT_OWNER */\n      0x40\n      dup1\n      mload\n      dup1\n      dup3\n      add\n      swap1\n      swap2\n      mstore\n      0x09\n      dup2\n      mstore\n      shl(0xb9, 0x2727aa2fa7aba722a9)\n      0x20\n      dup3\n      add\n      mstore\n      swap1\n      sub(shl(0xa0, 0x01), 0x01)\n        /* \"TRUSTFY v4.3 \\xe2\\x80\\x94 Contract.sol\":8108:8113  owner */\n      and\n        /* \"TRUSTFY v4.3 \\xe2\\x80\\x94 Contract.sol\":8094:8104  msg.sender */\n      caller\n        /* \"TRUSTFY v4.3 \\xe2\\x80\\x94 Contract.sol\":8094:8113  msg.sender == owner */\n      eq\n        /* \"TRUSTFY v4.3 \\xe2\\x80\\x94 Contract.sol\":8086:8129  require(msg.sender == owner, ERR_NOT_OWNER) */\n      tag_541\n      jumpi\n      mload(0x40)\n      shl(0xe5, 0x461bcd)\n      dup2\n      mstore\n      0x04\n      add\n      tag_153\n      swap2\n      swap1\n      tag_162\n      jump\t// in\n    tag_541:\n      pop\n      sub(shl(0xa0, 0x01), 0x01)\n        /* \"TRUSTFY v4.3 \\xe2\\x80\\x94 Contract.sol\":9305:9328  treasury_ != address(0) */\n      dup2\n      and\n        /* \"TRUSTFY v4.3 \\xe2\\x80\\x94 Contract.sol\":9297:9346  require(treasury_ != address(0), \"ZERO_TREASURY\") */\n      tag_544\n      jumpi\n      mload(0x40)\n      shl(0xe5, 0x461bcd)\n      dup2\n      mstore\n        /* \"#utility.yul\":20378:20380   */\n      0x20\n        /* \"TRUSTFY v4.3 \\xe2\\x80\\x94 Contract.sol\":9297:9346  require(treasury_ != address(0), \"ZERO_TREASURY\") */\n      0x04\n      dup3\n      add\n        /* \"#utility.yul\":20360:20381   */\n      mstore\n        /* \"#utility.yul\":20417:20419   */\n      0x0d\n        /* \"#utility.yul\":20397:20415   */\n      0x24\n      dup3\n      add\n        /* \"#utility.yul\":20390:20420   */\n      mstore\n      shl(0x98, 0x5a45524f5f5452454153555259)\n        /* \"#utility.yul\":20436:20454   */\n      0x44\n      dup3\n      add\n        /* \"#utility.yul\":20429:20472   */\n      mstore\n        /* \"#utility.yul\":20489:20507   */\n      0x64\n      add\n        /* \"TRUSTFY v4.3 \\xe2\\x80\\x94 Contract.sol\":9297:9346  require(treasury_ != address(0), \"ZERO_TREASURY\") */\n      tag_153\n        /* \"#utility.yul\":20176:20513   */\n      jump\n        /* \"TRUSTFY v4.3 \\xe2\\x80\\x94 Contract.sol\":9297:9346  require(treasury_ != address(0), \"ZERO_TREASURY\") */\n    tag_544:\n        /* \"TRUSTFY v4.3 \\xe2\\x80\\x94 Contract.sol\":9356:9364  treasury */\n      0x03\n        /* \"TRUSTFY v4.3 \\xe2\\x80\\x94 Contract.sol\":9356:9376  treasury = treasury_ */\n      dup1\n      sload\n      not(sub(shl(0xa0, 0x01), 0x01))\n      and\n      sub(shl(0xa0, 0x01), 0x01)\n      dup4\n      and\n      swap1\n      dup2\n      or\n      swap1\n      swap2\n      sstore\n        /* \"TRUSTFY v4.3 \\xe2\\x80\\x94 Contract.sol\":9391:9413  TreasurySet(treasury_) */\n      mload(0x40)\n      0x3c864541ef71378c6229510ed90f376565ee42d9c5e0904a984a9e863e6db44f\n      swap1\n      0x00\n      swap1\n      log2\n        /* \"TRUSTFY v4.3 \\xe2\\x80\\x94 Contract.sol\":9228:9420  function setTreasury(address treasury_) external onlyOwner {... */\n      pop\n      jump\t// out\n        /* \"TRUSTFY v4.3 \\xe2\\x80\\x94 Contract.sol\":8680:8884  function transferOwnership(address newOwner) external onlyOwner {... */\n    tag_137:\n        /* \"TRUSTFY v4.3 \\xe2\\x80\\x94 Contract.sol\":8108:8113  owner */\n      sload(0x00)\n        /* \"TRUSTFY v4.3 \\xe2\\x80\\x94 Contract.sol\":8115:8128  ERR_NOT_OWNER */\n      0x40\n      dup1\n      mload\n      dup1\n      dup3\n      add\n      swap1\n      swap2\n      mstore\n      0x09\n      dup2\n      mstore\n      shl(0xb9, 0x2727aa2fa7aba722a9)\n      0x20\n      dup3\n      add\n      mstore\n      swap1\n      sub(shl(0xa0, 0x01), 0x01)\n        /* \"TRUSTFY v4.3 \\xe2\\x80\\x94 Contract.sol\":8108:8113  owner */\n      and\n        /* \"TRUSTFY v4.3 \\xe2\\x80\\x94 Contract.sol\":8094:8104  msg.sender */\n      caller\n        /* \"TRUSTFY v4.3 \\xe2\\x80\\x94 Contract.sol\":8094:8113  msg.sender == owner */\n      eq\n        /* \"TRUSTFY v4.3 \\xe2\\x80\\x94 Contract.sol\":8086:8129  require(msg.sender == owner, ERR_NOT_OWNER) */\n      tag_548\n      jumpi\n      mload(0x40)\n      shl(0xe5, 0x461bcd)\n      dup2\n      mstore\n      0x04\n      add\n      tag_153\n      swap2\n      swap1\n      tag_162\n      jump\t// in\n    tag_548:\n      pop\n      sub(shl(0xa0, 0x01), 0x01)\n        /* \"TRUSTFY v4.3 \\xe2\\x80\\x94 Contract.sol\":8762:8784  newOwner != address(0) */\n      dup2\n      and\n        /* \"TRUSTFY v4.3 \\xe2\\x80\\x94 Contract.sol\":8754:8799  require(newOwner != address(0), \"ZERO_OWNER\") */\n      tag_551\n      jumpi\n      mload(0x40)\n      shl(0xe5, 0x461bcd)\n      dup2\n      mstore\n        /* \"#utility.yul\":20720:20722   */\n      0x20\n        /* \"TRUSTFY v4.3 \\xe2\\x80\\x94 Contract.sol\":8754:8799  require(newOwner != address(0), \"ZERO_OWNER\") */\n      0x04\n      dup3\n      add\n        /* \"#utility.yul\":20702:20723   */\n      mstore\n        /* \"#utility.yul\":20759:20761   */\n      0x0a\n        /* \"#utility.yul\":20739:20757   */\n      0x24\n      dup3\n      add\n        /* \"#utility.yul\":20732:20762   */\n      mstore\n      shl(0xb1, 0x2d22a927afa7aba722a9)\n        /* \"#utility.yul\":20778:20796   */\n      0x44\n      dup3\n      add\n        /* \"#utility.yul\":20771:20811   */\n      mstore\n        /* \"#utility.yul\":20828:20846   */\n      0x64\n      add\n        /* \"TRUSTFY v4.3 \\xe2\\x80\\x94 Contract.sol\":8754:8799  require(newOwner != address(0), \"ZERO_OWNER\") */\n      tag_153\n        /* \"#utility.yul\":20518:20852   */\n      jump\n        /* \"TRUSTFY v4.3 \\xe2\\x80\\x94 Contract.sol\":8754:8799  require(newOwner != address(0), \"ZERO_OWNER\") */\n    tag_551:\n        /* \"TRUSTFY v4.3 \\xe2\\x80\\x94 Contract.sol\":8835:8840  owner */\n      0x00\n      dup1\n      sload\n        /* \"TRUSTFY v4.3 \\xe2\\x80\\x94 Contract.sol\":8814:8851  OwnershipTransferred(owner, newOwner) */\n      mload(0x40)\n      sub(shl(0xa0, 0x01), 0x01)\n      dup1\n      dup6\n      and\n      swap4\n        /* \"TRUSTFY v4.3 \\xe2\\x80\\x94 Contract.sol\":8835:8840  owner */\n      swap3\n      and\n      swap2\n        /* \"TRUSTFY v4.3 \\xe2\\x80\\x94 Contract.sol\":8814:8851  OwnershipTransferred(owner, newOwner) */\n      0x8be0079c531659141344cd1fd0a4f28419497f9722a3daafe3b4186f6b6457e0\n      swap2\n      log3\n        /* \"TRUSTFY v4.3 \\xe2\\x80\\x94 Contract.sol\":8861:8866  owner */\n      0x00\n        /* \"TRUSTFY v4.3 \\xe2\\x80\\x94 Contract.sol\":8861:8877  owner = newOwner */\n      dup1\n      sload\n      not(sub(shl(0xa0, 0x01), 0x01))\n      and\n      sub(shl(0xa0, 0x01), 0x01)\n      swap3\n      swap1\n      swap3\n      and\n      swap2\n      swap1\n      swap2\n      or\n      swap1\n      sstore\n        /* \"TRUSTFY v4.3 \\xe2\\x80\\x94 Contract.sol\":8680:8884  function transferOwnership(address newOwner) external onlyOwner {... */\n      jump\t// out\n        /* \"TRUSTFY v4.3 \\xe2\\x80\\x94 Contract.sol\":13635:14083  function editAd(uint256 adId, uint256 newAmount) external {... */\n    tag_141:\n        /* \"TRUSTFY v4.3 \\xe2\\x80\\x94 Contract.sol\":13703:13716  Ad storage ad */\n      0x00\n        /* \"TRUSTFY v4.3 \\xe2\\x80\\x94 Contract.sol\":13719:13728  ads[adId] */\n      dup3\n      dup2\n      mstore\n        /* \"TRUSTFY v4.3 \\xe2\\x80\\x94 Contract.sol\":13719:13722  ads */\n      0x08\n        /* \"TRUSTFY v4.3 \\xe2\\x80\\x94 Contract.sol\":13719:13728  ads[adId] */\n      0x20\n      mstore\n      0x40\n      swap1\n      keccak256\n        /* \"TRUSTFY v4.3 \\xe2\\x80\\x94 Contract.sol\":13746:13754  ad.maker */\n      dup1\n      sload\n      sub(shl(0xa0, 0x01), 0x01)\n      and\n        /* \"TRUSTFY v4.3 \\xe2\\x80\\x94 Contract.sol\":13738:13785  require(ad.maker != address(0), \"AD_NOT_FOUND\") */\n      tag_555\n      jumpi\n      mload(0x40)\n      shl(0xe5, 0x461bcd)\n      dup2\n      mstore\n      0x04\n      add\n      tag_153\n      swap1\n      tag_216\n      jump\t// in\n    tag_555:\n        /* \"TRUSTFY v4.3 \\xe2\\x80\\x94 Contract.sol\":13817:13825  ad.maker */\n      dup1\n      sload\n        /* \"TRUSTFY v4.3 \\xe2\\x80\\x94 Contract.sol\":13827:13840  ERR_NOT_MAKER */\n      0x40\n      dup1\n      mload\n      dup1\n      dup3\n      add\n      swap1\n      swap2\n      mstore\n      0x09\n      dup2\n      mstore\n      shl(0xb9, 0x2727aa2fa6a0a5a2a9)\n      0x20\n      dup3\n      add\n      mstore\n      swap1\n      sub(shl(0xa0, 0x01), 0x01)\n        /* \"TRUSTFY v4.3 \\xe2\\x80\\x94 Contract.sol\":13817:13825  ad.maker */\n      and\n        /* \"TRUSTFY v4.3 \\xe2\\x80\\x94 Contract.sol\":13803:13813  msg.sender */\n      caller\n        /* \"TRUSTFY v4.3 \\xe2\\x80\\x94 Contract.sol\":13803:13825  msg.sender == ad.maker */\n      eq\n        /* \"TRUSTFY v4.3 \\xe2\\x80\\x94 Contract.sol\":13795:13841  require(msg.sender == ad.maker, ERR_NOT_MAKER) */\n      tag_557\n      jumpi\n      mload(0x40)\n      shl(0xe5, 0x461bcd)\n      dup2\n      mstore\n      0x04\n      add\n      tag_153\n      swap2\n      swap1\n      tag_162\n      jump\t// in\n    tag_557:\n      pop\n        /* \"TRUSTFY v4.3 \\xe2\\x80\\x94 Contract.sol\":13871:13886  AdState.CREATED */\n      0x00\n        /* \"TRUSTFY v4.3 \\xe2\\x80\\x94 Contract.sol\":13859:13867  ad.state */\n      0x04\n      dup3\n      add\n      sload\n      0xff\n      and\n        /* \"TRUSTFY v4.3 \\xe2\\x80\\x94 Contract.sol\":13859:13886  ad.state == AdState.CREATED */\n      0x03\n      dup2\n      gt\n      iszero\n      tag_562\n      jumpi\n      tag_562\n      tag_157\n      jump\t// in\n    tag_562:\n      eq\n        /* \"TRUSTFY v4.3 \\xe2\\x80\\x94 Contract.sol\":13888:13901  ERR_BAD_STATE */\n      mload(0x40)\n      dup1\n      0x40\n      add\n      0x40\n      mstore\n      dup1\n      0x09\n      dup2\n      mstore\n      0x20\n      add\n      shl(0xb8, 0x4241445f5354415445)\n      dup2\n      mstore\n      pop\n        /* \"TRUSTFY v4.3 \\xe2\\x80\\x94 Contract.sol\":13851:13902  require(ad.state == AdState.CREATED, ERR_BAD_STATE) */\n      swap1\n      tag_563\n      jumpi\n      mload(0x40)\n      shl(0xe5, 0x461bcd)\n      dup2\n      mstore\n      0x04\n      add\n      tag_153\n      swap2\n      swap1\n      tag_162\n      jump\t// in\n    tag_563:\n      pop\n        /* \"TRUSTFY v4.3 \\xe2\\x80\\x94 Contract.sol\":13920:13937  ad.activeEscrowId */\n      0x05\n      dup2\n      add\n      sload\n        /* \"TRUSTFY v4.3 \\xe2\\x80\\x94 Contract.sol\":13944:13957  ERR_BAD_STATE */\n      0x40\n      dup1\n      mload\n      dup1\n      dup3\n      add\n      swap1\n      swap2\n      mstore\n      0x09\n      dup2\n      mstore\n      shl(0xb8, 0x4241445f5354415445)\n      0x20\n      dup3\n      add\n      mstore\n      swap1\n        /* \"TRUSTFY v4.3 \\xe2\\x80\\x94 Contract.sol\":13920:13942  ad.activeEscrowId == 0 */\n      iszero\n        /* \"TRUSTFY v4.3 \\xe2\\x80\\x94 Contract.sol\":13912:13958  require(ad.activeEscrowId == 0, ERR_BAD_STATE) */\n      tag_565\n      jumpi\n      mload(0x40)\n      shl(0xe5, 0x461bcd)\n      dup2\n      mstore\n      0x04\n      add\n      tag_153\n      swap2\n      swap1\n      tag_162\n      jump\t// in\n    tag_565:\n      pop\n        /* \"TRUSTFY v4.3 \\xe2\\x80\\x94 Contract.sol\":13988:13989  0 */\n      0x00\n        /* \"TRUSTFY v4.3 \\xe2\\x80\\x94 Contract.sol\":13976:13985  newAmount */\n      dup3\n        /* \"TRUSTFY v4.3 \\xe2\\x80\\x94 Contract.sol\":13976:13989  newAmount > 0 */\n      gt\n        /* \"TRUSTFY v4.3 \\xe2\\x80\\x94 Contract.sol\":13968:14005  require(newAmount > 0, \"ZERO_AMOUNT\") */\n      tag_567\n      jumpi\n      mload(0x40)\n      shl(0xe5, 0x461bcd)\n      dup2\n      mstore\n      0x04\n      add\n      tag_153\n      swap1\n      tag_273\n      jump\t// in\n    tag_567:\n        /* \"TRUSTFY v4.3 \\xe2\\x80\\x94 Contract.sol\":14015:14024  ad.amount */\n      0x02\n      dup2\n      add\n        /* \"TRUSTFY v4.3 \\xe2\\x80\\x94 Contract.sol\":14015:14036  ad.amount = newAmount */\n      dup3\n      swap1\n      sstore\n        /* \"TRUSTFY v4.3 \\xe2\\x80\\x94 Contract.sol\":14051:14076  AdEdited(adId, newAmount) */\n      mload(0x40)\n        /* \"#utility.yul\":2708:2733   */\n      dup3\n      dup2\n      mstore\n        /* \"TRUSTFY v4.3 \\xe2\\x80\\x94 Contract.sol\":14060:14064  adId */\n      dup4\n      swap1\n        /* \"TRUSTFY v4.3 \\xe2\\x80\\x94 Contract.sol\":14051:14076  AdEdited(adId, newAmount) */\n      0x703d5ab1f448a472c939c18589eafa88ac50049582a4bba8f0103382fb470444\n      swap1\n        /* \"#utility.yul\":2696:2698   */\n      0x20\n        /* \"#utility.yul\":2681:2699   */\n      add\n        /* \"TRUSTFY v4.3 \\xe2\\x80\\x94 Contract.sol\":14051:14076  AdEdited(adId, newAmount) */\n      mload(0x40)\n      dup1\n      swap2\n      sub\n      swap1\n      log2\n        /* \"TRUSTFY v4.3 \\xe2\\x80\\x94 Contract.sol\":13693:14083  {... */\n      pop\n        /* \"TRUSTFY v4.3 \\xe2\\x80\\x94 Contract.sol\":13635:14083  function editAd(uint256 adId, uint256 newAmount) external {... */\n      pop\n      pop\n      jump\t// out\n        /* \"TRUSTFY v4.3 \\xe2\\x80\\x94 Contract.sol\":10722:11081  function adminAddCredit(address user, address token, uint256 amount, bytes32 ref) external onlyAdminOrOwner {... */\n    tag_145:\n        /* \"TRUSTFY v4.3 \\xe2\\x80\\x94 Contract.sol\":8213:8218  owner */\n      and(sub(shl(0xa0, 0x01), 0x01), sload(0x00))\n        /* \"TRUSTFY v4.3 \\xe2\\x80\\x94 Contract.sol\":8199:8209  msg.sender */\n      caller\n        /* \"TRUSTFY v4.3 \\xe2\\x80\\x94 Contract.sol\":8199:8218  msg.sender == owner */\n      eq\n      dup1\n        /* \"TRUSTFY v4.3 \\xe2\\x80\\x94 Contract.sol\":8199:8241  msg.sender == owner || isAdmin[msg.sender] */\n      tag_571\n      jumpi\n      pop\n        /* \"TRUSTFY v4.3 \\xe2\\x80\\x94 Contract.sol\":8230:8240  msg.sender */\n      caller\n        /* \"TRUSTFY v4.3 \\xe2\\x80\\x94 Contract.sol\":8222:8241  isAdmin[msg.sender] */\n      0x00\n      swap1\n      dup2\n      mstore\n        /* \"TRUSTFY v4.3 \\xe2\\x80\\x94 Contract.sol\":8222:8229  isAdmin */\n      0x01\n        /* \"TRUSTFY v4.3 \\xe2\\x80\\x94 Contract.sol\":8222:8241  isAdmin[msg.sender] */\n      0x20\n      mstore\n      0x40\n      swap1\n      keccak256\n      sload\n      0xff\n      and\n        /* \"TRUSTFY v4.3 \\xe2\\x80\\x94 Contract.sol\":8199:8241  msg.sender == owner || isAdmin[msg.sender] */\n    tag_571:\n        /* \"TRUSTFY v4.3 \\xe2\\x80\\x94 Contract.sol\":8243:8256  ERR_NOT_ADMIN */\n      mload(0x40)\n      dup1\n      0x40\n      add\n      0x40\n      mstore\n      dup1\n      0x09\n      dup2\n      mstore\n      0x20\n      add\n      shl(0xb9, 0x2727aa2fa0a226a4a7)\n      dup2\n      mstore\n      pop\n        /* \"TRUSTFY v4.3 \\xe2\\x80\\x94 Contract.sol\":8191:8257  require(msg.sender == owner || isAdmin[msg.sender], ERR_NOT_ADMIN) */\n      swap1\n      tag_572\n      jumpi\n      mload(0x40)\n      shl(0xe5, 0x461bcd)\n      dup2\n      mstore\n      0x04\n      add\n      tag_153\n      swap2\n      swap1\n      tag_162\n      jump\t// in\n    tag_572:\n      pop\n      sub(shl(0xa0, 0x01), 0x01)\n        /* \"TRUSTFY v4.3 \\xe2\\x80\\x94 Contract.sol\":10848:10866  user != address(0) */\n      dup5\n      and\n        /* \"TRUSTFY v4.3 \\xe2\\x80\\x94 Contract.sol\":10840:10880  require(user != address(0), \"ZERO_USER\") */\n      tag_575\n      jumpi\n      mload(0x40)\n      shl(0xe5, 0x461bcd)\n      dup2\n      mstore\n        /* \"#utility.yul\":21059:21061   */\n      0x20\n        /* \"TRUSTFY v4.3 \\xe2\\x80\\x94 Contract.sol\":10840:10880  require(user != address(0), \"ZERO_USER\") */\n      0x04\n      dup3\n      add\n        /* \"#utility.yul\":21041:21062   */\n      mstore\n        /* \"#utility.yul\":21098:21099   */\n      0x09\n        /* \"#utility.yul\":21078:21096   */\n      0x24\n      dup3\n      add\n        /* \"#utility.yul\":21071:21100   */\n      mstore\n      shl(0xb9, 0x2d22a927afaaa9a2a9)\n        /* \"#utility.yul\":21116:21134   */\n      0x44\n      dup3\n      add\n        /* \"#utility.yul\":21109:21148   */\n      mstore\n        /* \"#utility.yul\":21165:21183   */\n      0x64\n      add\n        /* \"TRUSTFY v4.3 \\xe2\\x80\\x94 Contract.sol\":10840:10880  require(user != address(0), \"ZERO_USER\") */\n      tag_153\n        /* \"#utility.yul\":20857:21189   */\n      jump\n        /* \"TRUSTFY v4.3 \\xe2\\x80\\x94 Contract.sol\":10840:10880  require(user != address(0), \"ZERO_USER\") */\n    tag_575:\n      sub(shl(0xa0, 0x01), 0x01)\n        /* \"TRUSTFY v4.3 \\xe2\\x80\\x94 Contract.sol\":10898:10917  token != address(0) */\n      dup4\n      and\n        /* \"TRUSTFY v4.3 \\xe2\\x80\\x94 Contract.sol\":10890:10932  require(token != address(0), \"ZERO_TOKEN\") */\n      tag_578\n      jumpi\n      mload(0x40)\n      shl(0xe5, 0x461bcd)\n      dup2\n      mstore\n      0x04\n      add\n      tag_153\n      swap1\n      tag_243\n      jump\t// in\n    tag_578:\n        /* \"TRUSTFY v4.3 \\xe2\\x80\\x94 Contract.sol\":10959:10960  0 */\n      0x00\n        /* \"TRUSTFY v4.3 \\xe2\\x80\\x94 Contract.sol\":10950:10956  amount */\n      dup3\n        /* \"TRUSTFY v4.3 \\xe2\\x80\\x94 Contract.sol\":10950:10960  amount > 0 */\n      gt\n        /* \"TRUSTFY v4.3 \\xe2\\x80\\x94 Contract.sol\":10942:10976  require(amount > 0, \"ZERO_AMOUNT\") */\n      tag_580\n      jumpi\n      mload(0x40)\n      shl(0xe5, 0x461bcd)\n      dup2\n      mstore\n      0x04\n      add\n      tag_153\n      swap1\n      tag_273\n      jump\t// in\n    tag_580:\n      sub(shl(0xa0, 0x01), 0x01)\n        /* \"TRUSTFY v4.3 \\xe2\\x80\\x94 Contract.sol\":10986:11005  creditBalance[user] */\n      dup1\n      dup6\n      and\n      0x00\n      swap1\n      dup2\n      mstore\n        /* \"TRUSTFY v4.3 \\xe2\\x80\\x94 Contract.sol\":10986:10999  creditBalance */\n      0x05\n        /* \"TRUSTFY v4.3 \\xe2\\x80\\x94 Contract.sol\":10986:11005  creditBalance[user] */\n      0x20\n      swap1\n      dup2\n      mstore\n      0x40\n      dup1\n      dup4\n      keccak256\n        /* \"TRUSTFY v4.3 \\xe2\\x80\\x94 Contract.sol\":10986:11012  creditBalance[user][token] */\n      swap4\n      dup8\n      and\n      dup4\n      mstore\n      swap3\n      swap1\n      mstore\n      swap1\n      dup2\n      keccak256\n        /* \"TRUSTFY v4.3 \\xe2\\x80\\x94 Contract.sol\":10986:11022  creditBalance[user][token] += amount */\n      dup1\n      sload\n        /* \"TRUSTFY v4.3 \\xe2\\x80\\x94 Contract.sol\":11016:11022  amount */\n      dup5\n      swap3\n        /* \"TRUSTFY v4.3 \\xe2\\x80\\x94 Contract.sol\":10986:11005  creditBalance[user] */\n      swap1\n        /* \"TRUSTFY v4.3 \\xe2\\x80\\x94 Contract.sol\":10986:11022  creditBalance[user][token] += amount */\n      tag_582\n      swap1\n        /* \"TRUSTFY v4.3 \\xe2\\x80\\x94 Contract.sol\":11016:11022  amount */\n      dup5\n      swap1\n        /* \"TRUSTFY v4.3 \\xe2\\x80\\x94 Contract.sol\":10986:11022  creditBalance[user][token] += amount */\n      tag_189\n      jump\t// in\n    tag_582:\n      swap1\n      swap2\n      sstore\n      pop\n      pop\n        /* \"TRUSTFY v4.3 \\xe2\\x80\\x94 Contract.sol\":11037:11074  CreditAdded(user, token, amount, ref) */\n      0x40\n      dup1\n      mload\n        /* \"#utility.yul\":16433:16458   */\n      dup4\n      dup2\n      mstore\n        /* \"#utility.yul\":16489:16491   */\n      0x20\n        /* \"#utility.yul\":16474:16492   */\n      dup2\n      add\n        /* \"#utility.yul\":16467:16501   */\n      dup4\n      swap1\n      mstore\n      sub(shl(0xa0, 0x01), 0x01)\n        /* \"TRUSTFY v4.3 \\xe2\\x80\\x94 Contract.sol\":11037:11074  CreditAdded(user, token, amount, ref) */\n      dup1\n      dup7\n      and\n      swap3\n      swap1\n      dup8\n      and\n      swap2\n      0x00\n      dup1\n      mload\n      0x20\n      data_a1787636192da96984a031a805d7165b97afdc9cf24262e59bc86055df6ab426\n      dup4\n      codecopy\n      dup2\n      mload\n      swap2\n      mstore\n      swap2\n        /* \"#utility.yul\":16406:16424   */\n      add\n        /* \"TRUSTFY v4.3 \\xe2\\x80\\x94 Contract.sol\":11037:11074  CreditAdded(user, token, amount, ref) */\n      mload(0x40)\n      dup1\n      swap2\n      sub\n      swap1\n      log3\n        /* \"TRUSTFY v4.3 \\xe2\\x80\\x94 Contract.sol\":10722:11081  function adminAddCredit(address user, address token, uint256 amount, bytes32 ref) external onlyAdminOrOwner {... */\n      pop\n      pop\n      pop\n      pop\n      jump\t// out\n        /* \"TRUSTFY v4.3 \\xe2\\x80\\x94 Contract.sol\":11168:11335  function _cfg(address token) internal view returns (TokenConfig memory cfg) {... */\n    tag_187:\n      0x40\n      dup1\n      mload\n      0x0120\n      dup2\n      add\n      dup3\n      mstore\n      0x00\n      dup1\n      dup3\n      mstore\n      0x20\n      dup3\n      add\n      dup2\n      swap1\n      mstore\n      swap2\n      dup2\n      add\n      dup3\n      swap1\n      mstore\n      0x60\n      dup2\n      add\n      dup3\n      swap1\n      mstore\n      0x80\n      dup2\n      add\n      dup3\n      swap1\n      mstore\n      0xa0\n      dup2\n      add\n      dup3\n      swap1\n      mstore\n      0xc0\n      dup2\n      add\n      dup3\n      swap1\n      mstore\n      0xe0\n      dup2\n      add\n      dup3\n      swap1\n      mstore\n      0x0100\n      dup2\n      add\n      swap2\n      swap1\n      swap2\n      mstore\n      pop\n      sub(shl(0xa0, 0x01), 0x01)\n        /* \"TRUSTFY v4.3 \\xe2\\x80\\x94 Contract.sol\":11260:11278  tokenConfig[token] */\n      dup2\n      and\n      0x00\n      swap1\n      dup2\n      mstore\n        /* \"TRUSTFY v4.3 \\xe2\\x80\\x94 Contract.sol\":11260:11271  tokenConfig */\n      0x04\n        /* \"TRUSTFY v4.3 \\xe2\\x80\\x94 Contract.sol\":11260:11278  tokenConfig[token] */\n      0x20\n      swap1\n      dup2\n      mstore\n      0x40\n      swap2\n      dup3\n      swap1\n      keccak256\n        /* \"TRUSTFY v4.3 \\xe2\\x80\\x94 Contract.sol\":11254:11278  cfg = tokenConfig[token] */\n      dup3\n      mload\n      0x0120\n      dup2\n      add\n      dup5\n      mstore\n      dup2\n      sload\n      0xff\n      dup2\n      and\n      iszero\n      iszero\n      dup1\n      dup4\n      mstore\n      0xffff\n      0x0100\n      dup1\n      dup5\n      div\n      dup3\n      and\n      dup6\n      dup9\n      add\n      mstore\n      0x01000000\n      dup5\n      div\n      dup3\n      and\n      dup6\n      dup10\n      add\n      mstore\n      0x010000000000\n      swap1\n      swap4\n      div\n      dup2\n      and\n      0x60\n      dup6\n      add\n      mstore\n      0x01\n      dup6\n      add\n      sload\n      0x80\n      dup6\n      add\n      mstore\n      0x02\n      swap1\n      swap5\n      add\n      sload\n      swap4\n      dup5\n      and\n      0xa0\n      dup5\n      add\n      mstore\n      0xffffffff\n      0x010000\n      dup6\n      div\n      dup2\n      and\n      0xc0\n      dup6\n      add\n      mstore\n      shl(0x30, 0x01)\n      dup6\n      div\n      dup2\n      and\n      0xe0\n      dup6\n      add\n      mstore\n      shl(0x50, 0x01)\n      swap1\n      swap5\n      div\n      swap1\n      swap4\n      and\n      swap1\n      dup3\n      add\n      mstore\n        /* \"TRUSTFY v4.3 \\xe2\\x80\\x94 Contract.sol\":11309:11327  ERR_TOKEN_DISABLED */\n      dup4\n      mload\n      dup1\n      dup6\n      add\n      swap1\n      swap5\n      mstore\n      0x0e\n      dup5\n      mstore\n      shl(0x92, 0x1513d2d15397d11254d050931151)\n      swap3\n      dup5\n      add\n      swap3\n      swap1\n      swap3\n      mstore\n        /* \"TRUSTFY v4.3 \\xe2\\x80\\x94 Contract.sol\":11254:11278  cfg = tokenConfig[token] */\n      swap1\n      swap2\n        /* \"TRUSTFY v4.3 \\xe2\\x80\\x94 Contract.sol\":11309:11327  ERR_TOKEN_DISABLED */\n      swap1\n        /* \"TRUSTFY v4.3 \\xe2\\x80\\x94 Contract.sol\":11288:11328  require(cfg.enabled, ERR_TOKEN_DISABLED) */\n      tag_587\n      jumpi\n      mload(0x40)\n      shl(0xe5, 0x461bcd)\n      dup2\n      mstore\n      0x04\n      add\n      tag_153\n      swap2\n      swap1\n      tag_162\n      jump\t// in\n    tag_587:\n      pop\n        /* \"TRUSTFY v4.3 \\xe2\\x80\\x94 Contract.sol\":11168:11335  function _cfg(address token) internal view returns (TokenConfig memory cfg) {... */\n      swap2\n      swap1\n      pop\n      jump\t// out\n        /* \"TRUSTFY v4.3 \\xe2\\x80\\x94 Contract.sol\":1905:2074  function safeTransfer(IERC20 token, address to, uint256 value) internal {... */\n    tag_202:\n        /* \"TRUSTFY v4.3 \\xe2\\x80\\x94 Contract.sol\":1997:2022  token.transfer(to, value) */\n      mload(0x40)\n      shl(0xe0, 0xa9059cbb)\n      dup2\n      mstore\n      sub(shl(0xa0, 0x01), 0x01)\n        /* \"#utility.yul\":15783:15815   */\n      dup4\n      dup2\n      and\n        /* \"TRUSTFY v4.3 \\xe2\\x80\\x94 Contract.sol\":1997:2022  token.transfer(to, value) */\n      0x04\n      dup4\n      add\n        /* \"#utility.yul\":15765:15816   */\n      mstore\n        /* \"#utility.yul\":15832:15850   */\n      0x24\n      dup3\n      add\n        /* \"#utility.yul\":15825:15859   */\n      dup4\n      swap1\n      mstore\n        /* \"TRUSTFY v4.3 \\xe2\\x80\\x94 Contract.sol\":1987:1994  bool ok */\n      0x00\n      swap2\n        /* \"TRUSTFY v4.3 \\xe2\\x80\\x94 Contract.sol\":1997:2011  token.transfer */\n      swap1\n      dup6\n      and\n      swap1\n      0xa9059cbb\n      swap1\n        /* \"#utility.yul\":15738:15756   */\n      0x44\n      add\n        /* \"TRUSTFY v4.3 \\xe2\\x80\\x94 Contract.sol\":1997:2022  token.transfer(to, value) */\n      0x20\n      mload(0x40)\n      dup1\n      dup4\n      sub\n      dup2\n      0x00\n      dup8\n      gas\n      call\n      iszero\n      dup1\n      iszero\n      tag_592\n      jumpi\n      returndatasize\n      0x00\n      dup1\n      returndatacopy\n      revert(0x00, returndatasize)\n    tag_592:\n      pop\n      pop\n      pop\n      pop\n      mload(0x40)\n      returndatasize\n      not(0x1f)\n      0x1f\n      dup3\n      add\n      and\n      dup3\n      add\n      dup1\n      0x40\n      mstore\n      pop\n      dup2\n      add\n      swap1\n      tag_593\n      swap2\n      swap1\n      tag_594\n      jump\t// in\n    tag_593:\n        /* \"TRUSTFY v4.3 \\xe2\\x80\\x94 Contract.sol\":1987:2022  bool ok = token.transfer(to, value) */\n      swap1\n      pop\n        /* \"TRUSTFY v4.3 \\xe2\\x80\\x94 Contract.sol\":2040:2042  ok */\n      dup1\n        /* \"TRUSTFY v4.3 \\xe2\\x80\\x94 Contract.sol\":2032:2067  require(ok, \"SAFE_TRANSFER_FAILED\") */\n      tag_400\n      jumpi\n      mload(0x40)\n      shl(0xe5, 0x461bcd)\n      dup2\n      mstore\n        /* \"#utility.yul\":21646:21648   */\n      0x20\n        /* \"TRUSTFY v4.3 \\xe2\\x80\\x94 Contract.sol\":2032:2067  require(ok, \"SAFE_TRANSFER_FAILED\") */\n      0x04\n      dup3\n      add\n        /* \"#utility.yul\":21628:21649   */\n      mstore\n        /* \"#utility.yul\":21685:21687   */\n      0x14\n        /* \"#utility.yul\":21665:21683   */\n      0x24\n      dup3\n      add\n        /* \"#utility.yul\":21658:21688   */\n      mstore\n      shl(0x62, 0x14d0519157d514905394d1915497d19052531151)\n        /* \"#utility.yul\":21704:21722   */\n      0x44\n      dup3\n      add\n        /* \"#utility.yul\":21697:21747   */\n      mstore\n        /* \"#utility.yul\":21764:21782   */\n      0x64\n      add\n        /* \"TRUSTFY v4.3 \\xe2\\x80\\x94 Contract.sol\":2032:2067  require(ok, \"SAFE_TRANSFER_FAILED\") */\n      tag_153\n        /* \"#utility.yul\":21444:21788   */\n      jump\n        /* \"TRUSTFY v4.3 \\xe2\\x80\\x94 Contract.sol\":11806:12187  function _adBond(address token, uint256 amount) internal view returns (uint256) {... */\n    tag_276:\n        /* \"TRUSTFY v4.3 \\xe2\\x80\\x94 Contract.sol\":11877:11884  uint256 */\n      0x00\n        /* \"TRUSTFY v4.3 \\xe2\\x80\\x94 Contract.sol\":11896:11918  TokenConfig memory cfg */\n      dup1\n        /* \"TRUSTFY v4.3 \\xe2\\x80\\x94 Contract.sol\":11921:11932  _cfg(token) */\n      tag_599\n        /* \"TRUSTFY v4.3 \\xe2\\x80\\x94 Contract.sol\":11926:11931  token */\n      dup5\n        /* \"TRUSTFY v4.3 \\xe2\\x80\\x94 Contract.sol\":11921:11925  _cfg */\n      tag_187\n        /* \"TRUSTFY v4.3 \\xe2\\x80\\x94 Contract.sol\":11921:11932  _cfg(token) */\n      jump\t// in\n    tag_599:\n        /* \"TRUSTFY v4.3 \\xe2\\x80\\x94 Contract.sol\":11997:12010  cfg.adBondBps */\n      0xa0\n      dup2\n      add\n      mload\n        /* \"TRUSTFY v4.3 \\xe2\\x80\\x94 Contract.sol\":11896:11932  TokenConfig memory cfg = _cfg(token) */\n      swap1\n      swap2\n      pop\n        /* \"TRUSTFY v4.3 \\xe2\\x80\\x94 Contract.sol\":11997:12014  cfg.adBondBps > 0 */\n      0xffff\n      and\n      iszero\n        /* \"TRUSTFY v4.3 \\xe2\\x80\\x94 Contract.sol\":11993:12090  if (cfg.adBondBps > 0) {... */\n      tag_600\n      jumpi\n        /* \"TRUSTFY v4.3 \\xe2\\x80\\x94 Contract.sol\":12073:12079  10_000 */\n      0x2710\n        /* \"TRUSTFY v4.3 \\xe2\\x80\\x94 Contract.sol\":12055:12058  cfg */\n      dup2\n        /* \"TRUSTFY v4.3 \\xe2\\x80\\x94 Contract.sol\":12055:12068  cfg.adBondBps */\n      0xa0\n      add\n      mload\n        /* \"TRUSTFY v4.3 \\xe2\\x80\\x94 Contract.sol\":12047:12069  uint256(cfg.adBondBps) */\n      0xffff\n      and\n        /* \"TRUSTFY v4.3 \\xe2\\x80\\x94 Contract.sol\":12038:12044  amount */\n      dup5\n        /* \"TRUSTFY v4.3 \\xe2\\x80\\x94 Contract.sol\":12038:12069  amount * uint256(cfg.adBondBps) */\n      tag_601\n      swap2\n      swap1\n      tag_602\n      jump\t// in\n    tag_601:\n        /* \"TRUSTFY v4.3 \\xe2\\x80\\x94 Contract.sol\":12037:12079  (amount * uint256(cfg.adBondBps)) / 10_000 */\n      tag_603\n      swap2\n      swap1\n      tag_604\n      jump\t// in\n    tag_603:\n        /* \"TRUSTFY v4.3 \\xe2\\x80\\x94 Contract.sol\":12030:12079  return (amount * uint256(cfg.adBondBps)) / 10_000 */\n      swap2\n      pop\n      pop\n      jump(tag_598)\n        /* \"TRUSTFY v4.3 \\xe2\\x80\\x94 Contract.sol\":11993:12090  if (cfg.adBondBps > 0) {... */\n    tag_600:\n        /* \"TRUSTFY v4.3 \\xe2\\x80\\x94 Contract.sol\":12165:12180  cfg.adBondFixed */\n      0x80\n      add\n      mload\n      swap1\n      pop\n        /* \"TRUSTFY v4.3 \\xe2\\x80\\x94 Contract.sol\":11806:12187  function _adBond(address token, uint256 amount) internal view returns (uint256) {... */\n    tag_598:\n      swap3\n      swap2\n      pop\n      pop\n      jump\t// out\n        /* \"TRUSTFY v4.3 \\xe2\\x80\\x94 Contract.sol\":2080:2282  function safeTransferFrom(IERC20 token, address from, address to, uint256 value) internal {... */\n    tag_279:\n        /* \"TRUSTFY v4.3 \\xe2\\x80\\x94 Contract.sol\":2190:2225  token.transferFrom(from, to, value) */\n      mload(0x40)\n      shl(0xe0, 0x23b872dd)\n      dup2\n      mstore\n      sub(shl(0xa0, 0x01), 0x01)\n        /* \"#utility.yul\":22446:22461   */\n      dup5\n      dup2\n      and\n        /* \"TRUSTFY v4.3 \\xe2\\x80\\x94 Contract.sol\":2190:2225  token.transferFrom(from, to, value) */\n      0x04\n      dup4\n      add\n        /* \"#utility.yul\":22428:22462   */\n      mstore\n        /* \"#utility.yul\":22498:22513   */\n      dup4\n      dup2\n      and\n        /* \"#utility.yul\":22478:22496   */\n      0x24\n      dup4\n      add\n        /* \"#utility.yul\":22471:22514   */\n      mstore\n        /* \"#utility.yul\":22530:22548   */\n      0x44\n      dup3\n      add\n        /* \"#utility.yul\":22523:22557   */\n      dup4\n      swap1\n      mstore\n        /* \"TRUSTFY v4.3 \\xe2\\x80\\x94 Contract.sol\":2180:2187  bool ok */\n      0x00\n      swap2\n        /* \"TRUSTFY v4.3 \\xe2\\x80\\x94 Contract.sol\":2190:2208  token.transferFrom */\n      swap1\n      dup7\n      and\n      swap1\n      0x23b872dd\n      swap1\n        /* \"#utility.yul\":22363:22381   */\n      0x64\n      add\n        /* \"TRUSTFY v4.3 \\xe2\\x80\\x94 Contract.sol\":2190:2225  token.transferFrom(from, to, value) */\n      0x20\n      mload(0x40)\n      dup1\n      dup4\n      sub\n      dup2\n      0x00\n      dup8\n      gas\n      call\n      iszero\n      dup1\n      iszero\n      tag_609\n      jumpi\n      returndatasize\n      0x00\n      dup1\n      returndatacopy\n      revert(0x00, returndatasize)\n    tag_609:\n      pop\n      pop\n      pop\n      pop\n      mload(0x40)\n      returndatasize\n      not(0x1f)\n      0x1f\n      dup3\n      add\n      and\n      dup3\n      add\n      dup1\n      0x40\n      mstore\n      pop\n      dup2\n      add\n      swap1\n      tag_610\n      swap2\n      swap1\n      tag_594\n      jump\t// in\n    tag_610:\n        /* \"TRUSTFY v4.3 \\xe2\\x80\\x94 Contract.sol\":2180:2225  bool ok = token.transferFrom(from, to, value) */\n      swap1\n      pop\n        /* \"TRUSTFY v4.3 \\xe2\\x80\\x94 Contract.sol\":2243:2245  ok */\n      dup1\n        /* \"TRUSTFY v4.3 \\xe2\\x80\\x94 Contract.sol\":2235:2275  require(ok, \"SAFE_TRANSFER_FROM_FAILED\") */\n      tag_611\n      jumpi\n      mload(0x40)\n      shl(0xe5, 0x461bcd)\n      dup2\n      mstore\n        /* \"#utility.yul\":22770:22772   */\n      0x20\n        /* \"TRUSTFY v4.3 \\xe2\\x80\\x94 Contract.sol\":2235:2275  require(ok, \"SAFE_TRANSFER_FROM_FAILED\") */\n      0x04\n      dup3\n      add\n        /* \"#utility.yul\":22752:22773   */\n      mstore\n        /* \"#utility.yul\":22809:22811   */\n      0x19\n        /* \"#utility.yul\":22789:22807   */\n      0x24\n      dup3\n      add\n        /* \"#utility.yul\":22782:22812   */\n      mstore\n        /* \"#utility.yul\":22848:22875   */\n      0x534146455f5452414e534645525f46524f4d5f4641494c454400000000000000\n        /* \"#utility.yul\":22828:22846   */\n      0x44\n      dup3\n      add\n        /* \"#utility.yul\":22821:22876   */\n      mstore\n        /* \"#utility.yul\":22893:22911   */\n      0x64\n      add\n        /* \"TRUSTFY v4.3 \\xe2\\x80\\x94 Contract.sol\":2235:2275  require(ok, \"SAFE_TRANSFER_FROM_FAILED\") */\n      tag_153\n        /* \"#utility.yul\":22568:22917   */\n      jump\n        /* \"TRUSTFY v4.3 \\xe2\\x80\\x94 Contract.sol\":2235:2275  require(ok, \"SAFE_TRANSFER_FROM_FAILED\") */\n    tag_611:\n        /* \"TRUSTFY v4.3 \\xe2\\x80\\x94 Contract.sol\":2170:2282  {... */\n      pop\n        /* \"TRUSTFY v4.3 \\xe2\\x80\\x94 Contract.sol\":2080:2282  function safeTransferFrom(IERC20 token, address from, address to, uint256 value) internal {... */\n      pop\n      pop\n      pop\n      pop\n      jump\t// out\n        /* \"TRUSTFY v4.3 \\xe2\\x80\\x94 Contract.sol\":12193:12415  function _buyerOfAd(Ad memory ad, address taker) internal pure returns (address) {... */\n    tag_333:\n        /* \"TRUSTFY v4.3 \\xe2\\x80\\x94 Contract.sol\":12265:12272  address */\n      0x00\n        /* \"TRUSTFY v4.3 \\xe2\\x80\\x94 Contract.sol\":12378:12380  ad */\n      dup3\n        /* \"TRUSTFY v4.3 \\xe2\\x80\\x94 Contract.sol\":12378:12389  ad.isSellAd */\n      0x20\n      add\n      mload\n        /* \"TRUSTFY v4.3 \\xe2\\x80\\x94 Contract.sol\":12378:12408  ad.isSellAd ? taker : ad.maker */\n      tag_615\n      jumpi\n        /* \"TRUSTFY v4.3 \\xe2\\x80\\x94 Contract.sol\":12400:12408  ad.maker */\n      dup3\n      mload\n        /* \"TRUSTFY v4.3 \\xe2\\x80\\x94 Contract.sol\":12378:12408  ad.isSellAd ? taker : ad.maker */\n      jump(tag_616)\n    tag_615:\n        /* \"TRUSTFY v4.3 \\xe2\\x80\\x94 Contract.sol\":12392:12397  taker */\n      dup2\n        /* \"TRUSTFY v4.3 \\xe2\\x80\\x94 Contract.sol\":12378:12408  ad.isSellAd ? taker : ad.maker */\n    tag_616:\n        /* \"TRUSTFY v4.3 \\xe2\\x80\\x94 Contract.sol\":12371:12408  return ad.isSellAd ? taker : ad.maker */\n      swap4\n        /* \"TRUSTFY v4.3 \\xe2\\x80\\x94 Contract.sol\":12193:12415  function _buyerOfAd(Ad memory ad, address taker) internal pure returns (address) {... */\n      swap3\n      pop\n      pop\n      pop\n      jump\t// out\n        /* \"TRUSTFY v4.3 \\xe2\\x80\\x94 Contract.sol\":12421:12557  function _sellerOfAd(Ad memory ad, address taker) internal pure returns (address) {... */\n    tag_339:\n        /* \"TRUSTFY v4.3 \\xe2\\x80\\x94 Contract.sol\":12494:12501  address */\n      0x00\n        /* \"TRUSTFY v4.3 \\xe2\\x80\\x94 Contract.sol\":12520:12522  ad */\n      dup3\n        /* \"TRUSTFY v4.3 \\xe2\\x80\\x94 Contract.sol\":12520:12531  ad.isSellAd */\n      0x20\n      add\n      mload\n        /* \"TRUSTFY v4.3 \\xe2\\x80\\x94 Contract.sol\":12520:12550  ad.isSellAd ? ad.maker : taker */\n      tag_618\n      jumpi\n        /* \"TRUSTFY v4.3 \\xe2\\x80\\x94 Contract.sol\":12545:12550  taker */\n      dup2\n        /* \"TRUSTFY v4.3 \\xe2\\x80\\x94 Contract.sol\":12520:12550  ad.isSellAd ? ad.maker : taker */\n      jump(tag_616)\n    tag_618:\n      pop\n      pop\n        /* \"TRUSTFY v4.3 \\xe2\\x80\\x94 Contract.sol\":12534:12542  ad.maker */\n      mload\n      swap1\n        /* \"TRUSTFY v4.3 \\xe2\\x80\\x94 Contract.sol\":12421:12557  function _sellerOfAd(Ad memory ad, address taker) internal pure returns (address) {... */\n      jump\t// out\n        /* \"TRUSTFY v4.3 \\xe2\\x80\\x94 Contract.sol\":11598:11800  function _disputeBond(address token, uint256 amount) internal view returns (uint256) {... */\n    tag_344:\n        /* \"TRUSTFY v4.3 \\xe2\\x80\\x94 Contract.sol\":11674:11681  uint256 */\n      0x00\n        /* \"TRUSTFY v4.3 \\xe2\\x80\\x94 Contract.sol\":11693:11715  TokenConfig memory cfg */\n      dup1\n        /* \"TRUSTFY v4.3 \\xe2\\x80\\x94 Contract.sol\":11718:11729  _cfg(token) */\n      tag_621\n        /* \"TRUSTFY v4.3 \\xe2\\x80\\x94 Contract.sol\":11723:11728  token */\n      dup5\n        /* \"TRUSTFY v4.3 \\xe2\\x80\\x94 Contract.sol\":11718:11722  _cfg */\n      tag_187\n        /* \"TRUSTFY v4.3 \\xe2\\x80\\x94 Contract.sol\":11718:11729  _cfg(token) */\n      jump\t// in\n    tag_621:\n        /* \"TRUSTFY v4.3 \\xe2\\x80\\x94 Contract.sol\":11693:11729  TokenConfig memory cfg = _cfg(token) */\n      swap1\n      pop\n        /* \"TRUSTFY v4.3 \\xe2\\x80\\x94 Contract.sol\":11787:11793  10_000 */\n      0x2710\n        /* \"TRUSTFY v4.3 \\xe2\\x80\\x94 Contract.sol\":11764:11767  cfg */\n      dup2\n        /* \"TRUSTFY v4.3 \\xe2\\x80\\x94 Contract.sol\":11764:11782  cfg.disputeBondBps */\n      0x60\n      add\n      mload\n        /* \"TRUSTFY v4.3 \\xe2\\x80\\x94 Contract.sol\":11756:11783  uint256(cfg.disputeBondBps) */\n      0xffff\n      and\n        /* \"TRUSTFY v4.3 \\xe2\\x80\\x94 Contract.sol\":11747:11753  amount */\n      dup5\n        /* \"TRUSTFY v4.3 \\xe2\\x80\\x94 Contract.sol\":11747:11783  amount * uint256(cfg.disputeBondBps) */\n      tag_622\n      swap2\n      swap1\n      tag_602\n      jump\t// in\n    tag_622:\n        /* \"TRUSTFY v4.3 \\xe2\\x80\\x94 Contract.sol\":11746:11793  (amount * uint256(cfg.disputeBondBps)) / 10_000 */\n      tag_623\n      swap2\n      swap1\n      tag_604\n      jump\t// in\n    tag_623:\n        /* \"TRUSTFY v4.3 \\xe2\\x80\\x94 Contract.sol\":11739:11793  return (amount * uint256(cfg.disputeBondBps)) / 10_000 */\n      swap5\n        /* \"TRUSTFY v4.3 \\xe2\\x80\\x94 Contract.sol\":11598:11800  function _disputeBond(address token, uint256 amount) internal view returns (uint256) {... */\n      swap4\n      pop\n      pop\n      pop\n      pop\n      jump\t// out\n        /* \"TRUSTFY v4.3 \\xe2\\x80\\x94 Contract.sol\":11341:11592  function _feeAmount(address token, uint256 amount) internal view returns (uint256) {... */\n    tag_439:\n        /* \"TRUSTFY v4.3 \\xe2\\x80\\x94 Contract.sol\":11415:11422  uint256 */\n      0x00\n        /* \"TRUSTFY v4.3 \\xe2\\x80\\x94 Contract.sol\":11434:11456  TokenConfig memory cfg */\n      dup1\n        /* \"TRUSTFY v4.3 \\xe2\\x80\\x94 Contract.sol\":11459:11470  _cfg(token) */\n      tag_626\n        /* \"TRUSTFY v4.3 \\xe2\\x80\\x94 Contract.sol\":11464:11469  token */\n      dup5\n        /* \"TRUSTFY v4.3 \\xe2\\x80\\x94 Contract.sol\":11459:11463  _cfg */\n      tag_187\n        /* \"TRUSTFY v4.3 \\xe2\\x80\\x94 Contract.sol\":11459:11470  _cfg(token) */\n      jump\t// in\n    tag_626:\n        /* \"TRUSTFY v4.3 \\xe2\\x80\\x94 Contract.sol\":11434:11470  TokenConfig memory cfg = _cfg(token) */\n      swap1\n      pop\n        /* \"TRUSTFY v4.3 \\xe2\\x80\\x94 Contract.sol\":11480:11491  uint256 bps */\n      0x00\n        /* \"TRUSTFY v4.3 \\xe2\\x80\\x94 Contract.sol\":11529:11532  cfg */\n      dup2\n        /* \"TRUSTFY v4.3 \\xe2\\x80\\x94 Contract.sol\":11529:11544  cfg.takerFeeBps */\n      0x40\n      add\n      mload\n        /* \"TRUSTFY v4.3 \\xe2\\x80\\x94 Contract.sol\":11521:11545  uint256(cfg.takerFeeBps) */\n      0xffff\n      and\n        /* \"TRUSTFY v4.3 \\xe2\\x80\\x94 Contract.sol\":11502:11505  cfg */\n      dup3\n        /* \"TRUSTFY v4.3 \\xe2\\x80\\x94 Contract.sol\":11502:11517  cfg.makerFeeBps */\n      0x20\n      add\n      mload\n        /* \"TRUSTFY v4.3 \\xe2\\x80\\x94 Contract.sol\":11494:11518  uint256(cfg.makerFeeBps) */\n      0xffff\n      and\n        /* \"TRUSTFY v4.3 \\xe2\\x80\\x94 Contract.sol\":11494:11545  uint256(cfg.makerFeeBps) + uint256(cfg.takerFeeBps) */\n      tag_627\n      swap2\n      swap1\n      tag_189\n      jump\t// in\n    tag_627:\n        /* \"TRUSTFY v4.3 \\xe2\\x80\\x94 Contract.sol\":11480:11545  uint256 bps = uint256(cfg.makerFeeBps) + uint256(cfg.takerFeeBps) */\n      swap1\n      pop\n        /* \"TRUSTFY v4.3 \\xe2\\x80\\x94 Contract.sol\":11579:11585  10_000 */\n      0x2710\n        /* \"TRUSTFY v4.3 \\xe2\\x80\\x94 Contract.sol\":11563:11575  amount * bps */\n      tag_628\n        /* \"TRUSTFY v4.3 \\xe2\\x80\\x94 Contract.sol\":11480:11545  uint256 bps = uint256(cfg.makerFeeBps) + uint256(cfg.takerFeeBps) */\n      dup3\n        /* \"TRUSTFY v4.3 \\xe2\\x80\\x94 Contract.sol\":11563:11569  amount */\n      dup7\n        /* \"TRUSTFY v4.3 \\xe2\\x80\\x94 Contract.sol\":11563:11575  amount * bps */\n      tag_602\n      jump\t// in\n    tag_628:\n        /* \"TRUSTFY v4.3 \\xe2\\x80\\x94 Contract.sol\":11562:11585  (amount * bps) / 10_000 */\n      tag_629\n      swap2\n      swap1\n      tag_604\n      jump\t// in\n    tag_629:\n        /* \"TRUSTFY v4.3 \\xe2\\x80\\x94 Contract.sol\":11555:11585  return (amount * bps) / 10_000 */\n      swap6\n        /* \"TRUSTFY v4.3 \\xe2\\x80\\x94 Contract.sol\":11341:11592  function _feeAmount(address token, uint256 amount) internal view returns (uint256) {... */\n      swap5\n      pop\n      pop\n      pop\n      pop\n      pop\n      jump\t// out\n        /* \"#utility.yul\":14:194   */\n    tag_41:\n        /* \"#utility.yul\":73:79   */\n      0x00\n        /* \"#utility.yul\":126:128   */\n      0x20\n        /* \"#utility.yul\":114:123   */\n      dup3\n        /* \"#utility.yul\":105:112   */\n      dup5\n        /* \"#utility.yul\":101:124   */\n      sub\n        /* \"#utility.yul\":97:129   */\n      slt\n        /* \"#utility.yul\":94:146   */\n      iszero\n      tag_648\n      jumpi\n        /* \"#utility.yul\":142:143   */\n      0x00\n        /* \"#utility.yul\":139:140   */\n      dup1\n        /* \"#utility.yul\":132:144   */\n      revert\n        /* \"#utility.yul\":94:146   */\n    tag_648:\n      pop\n        /* \"#utility.yul\":165:188   */\n      calldataload\n      swap2\n        /* \"#utility.yul\":14:194   */\n      swap1\n      pop\n      jump\t// out\n        /* \"#utility.yul\":199:326   */\n    tag_157:\n        /* \"#utility.yul\":260:270   */\n      0x4e487b71\n        /* \"#utility.yul\":255:258   */\n      0xe0\n        /* \"#utility.yul\":251:271   */\n      shl\n        /* \"#utility.yul\":248:249   */\n      0x00\n        /* \"#utility.yul\":241:272   */\n      mstore\n        /* \"#utility.yul\":291:295   */\n      0x21\n        /* \"#utility.yul\":288:289   */\n      0x04\n        /* \"#utility.yul\":281:296   */\n      mstore\n        /* \"#utility.yul\":315:319   */\n      0x24\n        /* \"#utility.yul\":312:313   */\n      0x00\n        /* \"#utility.yul\":305:320   */\n      revert\n        /* \"#utility.yul\":331:474   */\n    tag_630:\n        /* \"#utility.yul\":415:416   */\n      0x07\n        /* \"#utility.yul\":408:413   */\n      dup2\n        /* \"#utility.yul\":405:417   */\n      lt\n        /* \"#utility.yul\":395:441   */\n      tag_652\n      jumpi\n        /* \"#utility.yul\":421:439   */\n      tag_652\n      tag_157\n      jump\t// in\n    tag_652:\n        /* \"#utility.yul\":450:468   */\n      swap1\n      mstore\n        /* \"#utility.yul\":331:474   */\n      jump\t// out\n        /* \"#utility.yul\":575:1814   */\n    tag_44:\n        /* \"#utility.yul\":1092:1117   */\n      dup15\n      dup2\n      mstore\n      sub(shl(0xa0, 0x01), 0x01)\n        /* \"#utility.yul\":1153:1185   */\n      dup15\n      dup2\n      and\n        /* \"#utility.yul\":1148:1150   */\n      0x20\n        /* \"#utility.yul\":1133:1151   */\n      dup4\n      add\n        /* \"#utility.yul\":1126:1186   */\n      mstore\n        /* \"#utility.yul\":1222:1254   */\n      dup14\n      dup2\n      and\n        /* \"#utility.yul\":1217:1219   */\n      0x40\n        /* \"#utility.yul\":1202:1220   */\n      dup4\n      add\n        /* \"#utility.yul\":1195:1255   */\n      mstore\n        /* \"#utility.yul\":1291:1323   */\n      dup13\n      and\n        /* \"#utility.yul\":1286:1288   */\n      0x60\n        /* \"#utility.yul\":1271:1289   */\n      dup3\n      add\n        /* \"#utility.yul\":1264:1324   */\n      mstore\n        /* \"#utility.yul\":1355:1358   */\n      0x80\n        /* \"#utility.yul\":1340:1359   */\n      dup2\n      add\n        /* \"#utility.yul\":1333:1368   */\n      dup12\n      swap1\n      mstore\n        /* \"#utility.yul\":1173:1176   */\n      0xa0\n        /* \"#utility.yul\":1384:1403   */\n      dup2\n      add\n        /* \"#utility.yul\":1377:1412   */\n      dup11\n      swap1\n      mstore\n        /* \"#utility.yul\":1443:1446   */\n      0xc0\n        /* \"#utility.yul\":1428:1447   */\n      dup2\n      add\n        /* \"#utility.yul\":1421:1456   */\n      dup10\n      swap1\n      mstore\n        /* \"#utility.yul\":1487:1490   */\n      0xe0\n        /* \"#utility.yul\":1472:1491   */\n      dup2\n      add\n        /* \"#utility.yul\":1465:1500   */\n      dup9\n      swap1\n      mstore\n        /* \"#utility.yul\":1079:1082   */\n      0x01c0\n        /* \"#utility.yul\":1064:1083   */\n      dup2\n      add\n        /* \"#utility.yul\":1509:1566   */\n      tag_655\n        /* \"#utility.yul\":1561:1564   */\n      0x0100\n        /* \"#utility.yul\":1546:1565   */\n      dup4\n      add\n        /* \"#utility.yul\":1538:1544   */\n      dup10\n        /* \"#utility.yul\":1509:1566   */\n      tag_630\n      jump\t// in\n    tag_655:\n        /* \"#utility.yul\":1603:1609   */\n      dup7\n        /* \"#utility.yul\":1597:1600   */\n      0x0120\n        /* \"#utility.yul\":1586:1595   */\n      dup4\n        /* \"#utility.yul\":1582:1601   */\n      add\n        /* \"#utility.yul\":1575:1610   */\n      mstore\n        /* \"#utility.yul\":1647:1654   */\n      dup6\n        /* \"#utility.yul\":1641:1644   */\n      0x0140\n        /* \"#utility.yul\":1630:1639   */\n      dup4\n        /* \"#utility.yul\":1626:1645   */\n      add\n        /* \"#utility.yul\":1619:1655   */\n      mstore\n        /* \"#utility.yul\":1692:1699   */\n      dup5\n        /* \"#utility.yul\":1686:1689   */\n      0x0160\n        /* \"#utility.yul\":1675:1684   */\n      dup4\n        /* \"#utility.yul\":1671:1690   */\n      add\n        /* \"#utility.yul\":1664:1700   */\n      mstore\n        /* \"#utility.yul\":1709:1754   */\n      tag_656\n        /* \"#utility.yul\":1749:1752   */\n      0x0180\n        /* \"#utility.yul\":1738:1747   */\n      dup4\n        /* \"#utility.yul\":1734:1753   */\n      add\n        /* \"#utility.yul\":1725:1732   */\n      dup6\n        /* \"#utility.yul\":549:562   */\n      iszero\n        /* \"#utility.yul\":542:563   */\n      iszero\n        /* \"#utility.yul\":530:564   */\n      swap1\n      mstore\n        /* \"#utility.yul\":479:570   */\n      jump\n        /* \"#utility.yul\":1709:1754   */\n    tag_656:\n        /* \"#utility.yul\":549:562   */\n      dup3\n      iszero\n        /* \"#utility.yul\":542:563   */\n      iszero\n        /* \"#utility.yul\":1803:1806   */\n      0x01a0\n        /* \"#utility.yul\":1788:1807   */\n      dup4\n      add\n        /* \"#utility.yul\":530:564   */\n      mstore\n        /* \"#utility.yul\":575:1814   */\n      swap16\n      swap15\n      pop\n      pop\n      pop\n      pop\n      pop\n      pop\n      pop\n      pop\n      pop\n      pop\n      pop\n      pop\n      pop\n      pop\n      pop\n      jump\t// out\n        /* \"#utility.yul\":1819:2557   */\n    tag_49:\n      sub(shl(0xa0, 0x01), 0x01)\n        /* \"#utility.yul\":2193:2208   */\n      dup9\n      dup2\n      and\n        /* \"#utility.yul\":2175:2209   */\n      dup3\n      mstore\n        /* \"#utility.yul\":2252:2266   */\n      dup8\n      iszero\n        /* \"#utility.yul\":2245:2267   */\n      iszero\n        /* \"#utility.yul\":2240:2242   */\n      0x20\n        /* \"#utility.yul\":2225:2243   */\n      dup4\n      add\n        /* \"#utility.yul\":2218:2268   */\n      mstore\n        /* \"#utility.yul\":2304:2319   */\n      dup7\n      and\n        /* \"#utility.yul\":2299:2301   */\n      0x40\n        /* \"#utility.yul\":2284:2302   */\n      dup3\n      add\n        /* \"#utility.yul\":2277:2320   */\n      mstore\n        /* \"#utility.yul\":2351:2353   */\n      0x60\n        /* \"#utility.yul\":2336:2354   */\n      dup2\n      add\n        /* \"#utility.yul\":2329:2363   */\n      dup6\n      swap1\n      mstore\n        /* \"#utility.yul\":2394:2397   */\n      0x80\n        /* \"#utility.yul\":2379:2398   */\n      dup2\n      add\n        /* \"#utility.yul\":2372:2407   */\n      dup5\n      swap1\n      mstore\n        /* \"#utility.yul\":2124:2127   */\n      0xe0\n        /* \"#utility.yul\":2109:2128   */\n      dup2\n      add\n        /* \"#utility.yul\":2437:2438   */\n      0x04\n        /* \"#utility.yul\":2426:2439   */\n      dup5\n      lt\n        /* \"#utility.yul\":2416:2463   */\n      tag_660\n      jumpi\n        /* \"#utility.yul\":2443:2461   */\n      tag_660\n      tag_157\n      jump\t// in\n    tag_660:\n        /* \"#utility.yul\":2494:2497   */\n      0xa0\n        /* \"#utility.yul\":2479:2498   */\n      dup3\n      add\n        /* \"#utility.yul\":2472:2507   */\n      swap4\n      swap1\n      swap4\n      mstore\n        /* \"#utility.yul\":2538:2541   */\n      0xc0\n        /* \"#utility.yul\":2523:2542   */\n      add\n        /* \"#utility.yul\":2516:2551   */\n      mstore\n        /* \"#utility.yul\":1819:2557   */\n      swap6\n      swap5\n      pop\n      pop\n      pop\n      pop\n      pop\n      jump\t// out\n        /* \"#utility.yul\":2744:2917   */\n    tag_632:\n        /* \"#utility.yul\":2812:2832   */\n      dup1\n      calldataload\n      sub(shl(0xa0, 0x01), 0x01)\n        /* \"#utility.yul\":2861:2892   */\n      dup2\n      and\n        /* \"#utility.yul\":2851:2893   */\n      dup2\n      eq\n        /* \"#utility.yul\":2841:2911   */\n      tag_663\n      jumpi\n        /* \"#utility.yul\":2907:2908   */\n      0x00\n        /* \"#utility.yul\":2904:2905   */\n      dup1\n        /* \"#utility.yul\":2897:2909   */\n      revert\n        /* \"#utility.yul\":2841:2911   */\n    tag_663:\n        /* \"#utility.yul\":2744:2917   */\n      swap2\n      swap1\n      pop\n      jump\t// out\n        /* \"#utility.yul\":2922:3108   */\n    tag_56:\n        /* \"#utility.yul\":2981:2987   */\n      0x00\n        /* \"#utility.yul\":3034:3036   */\n      0x20\n        /* \"#utility.yul\":3022:3031   */\n      dup3\n        /* \"#utility.yul\":3013:3020   */\n      dup5\n        /* \"#utility.yul\":3009:3032   */\n      sub\n        /* \"#utility.yul\":3005:3037   */\n      slt\n        /* \"#utility.yul\":3002:3054   */\n      iszero\n      tag_665\n      jumpi\n        /* \"#utility.yul\":3050:3051   */\n      0x00\n        /* \"#utility.yul\":3047:3048   */\n      dup1\n        /* \"#utility.yul\":3040:3052   */\n      revert\n        /* \"#utility.yul\":3002:3054   */\n    tag_665:\n        /* \"#utility.yul\":3073:3102   */\n      tag_616\n        /* \"#utility.yul\":3092:3101   */\n      dup3\n        /* \"#utility.yul\":3073:3102   */\n      tag_632\n      jump\t// in\n        /* \"#utility.yul\":3305:3423   */\n    tag_633:\n        /* \"#utility.yul\":3391:3396   */\n      dup1\n        /* \"#utility.yul\":3384:3397   */\n      iszero\n        /* \"#utility.yul\":3377:3398   */\n      iszero\n        /* \"#utility.yul\":3370:3375   */\n      dup2\n        /* \"#utility.yul\":3367:3399   */\n      eq\n        /* \"#utility.yul\":3357:3417   */\n      tag_669\n      jumpi\n        /* \"#utility.yul\":3413:3414   */\n      0x00\n        /* \"#utility.yul\":3410:3411   */\n      dup1\n        /* \"#utility.yul\":3403:3415   */\n      revert\n        /* \"#utility.yul\":3357:3417   */\n    tag_669:\n        /* \"#utility.yul\":3305:3423   */\n      pop\n      jump\t// out\n        /* \"#utility.yul\":3428:3743   */\n    tag_65:\n        /* \"#utility.yul\":3493:3499   */\n      0x00\n        /* \"#utility.yul\":3501:3507   */\n      dup1\n        /* \"#utility.yul\":3554:3556   */\n      0x40\n        /* \"#utility.yul\":3542:3551   */\n      dup4\n        /* \"#utility.yul\":3533:3540   */\n      dup6\n        /* \"#utility.yul\":3529:3552   */\n      sub\n        /* \"#utility.yul\":3525:3557   */\n      slt\n        /* \"#utility.yul\":3522:3574   */\n      iszero\n      tag_671\n      jumpi\n        /* \"#utility.yul\":3570:3571   */\n      0x00\n        /* \"#utility.yul\":3567:3568   */\n      dup1\n        /* \"#utility.yul\":3560:3572   */\n      revert\n        /* \"#utility.yul\":3522:3574   */\n    tag_671:\n        /* \"#utility.yul\":3593:3622   */\n      tag_672\n        /* \"#utility.yul\":3612:3621   */\n      dup4\n        /* \"#utility.yul\":3593:3622   */\n      tag_632\n      jump\t// in\n    tag_672:\n        /* \"#utility.yul\":3583:3622   */\n      swap2\n      pop\n        /* \"#utility.yul\":3672:3674   */\n      0x20\n        /* \"#utility.yul\":3661:3670   */\n      dup4\n        /* \"#utility.yul\":3657:3675   */\n      add\n        /* \"#utility.yul\":3644:3676   */\n      calldataload\n        /* \"#utility.yul\":3685:3713   */\n      tag_673\n        /* \"#utility.yul\":3707:3712   */\n      dup2\n        /* \"#utility.yul\":3685:3713   */\n      tag_633\n      jump\t// in\n    tag_673:\n        /* \"#utility.yul\":3732:3737   */\n      dup1\n        /* \"#utility.yul\":3722:3737   */\n      swap2\n      pop\n      pop\n        /* \"#utility.yul\":3428:3743   */\n      swap3\n      pop\n      swap3\n      swap1\n      pop\n      jump\t// out\n        /* \"#utility.yul\":3748:4008   */\n    tag_69:\n        /* \"#utility.yul\":3816:3822   */\n      0x00\n        /* \"#utility.yul\":3824:3830   */\n      dup1\n        /* \"#utility.yul\":3877:3879   */\n      0x40\n        /* \"#utility.yul\":3865:3874   */\n      dup4\n        /* \"#utility.yul\":3856:3863   */\n      dup6\n        /* \"#utility.yul\":3852:3875   */\n      sub\n        /* \"#utility.yul\":3848:3880   */\n      slt\n        /* \"#utility.yul\":3845:3897   */\n      iszero\n      tag_675\n      jumpi\n        /* \"#utility.yul\":3893:3894   */\n      0x00\n        /* \"#utility.yul\":3890:3891   */\n      dup1\n        /* \"#utility.yul\":3883:3895   */\n      revert\n        /* \"#utility.yul\":3845:3897   */\n    tag_675:\n        /* \"#utility.yul\":3916:3945   */\n      tag_676\n        /* \"#utility.yul\":3935:3944   */\n      dup4\n        /* \"#utility.yul\":3916:3945   */\n      tag_632\n      jump\t// in\n    tag_676:\n        /* \"#utility.yul\":3906:3945   */\n      swap2\n      pop\n        /* \"#utility.yul\":3964:4002   */\n      tag_677\n        /* \"#utility.yul\":3998:4000   */\n      0x20\n        /* \"#utility.yul\":3987:3996   */\n      dup5\n        /* \"#utility.yul\":3983:4001   */\n      add\n        /* \"#utility.yul\":3964:4002   */\n      tag_632\n      jump\t// in\n    tag_677:\n        /* \"#utility.yul\":3954:4002   */\n      swap1\n      pop\n        /* \"#utility.yul\":3748:4008   */\n      swap3\n      pop\n      swap3\n      swap1\n      pop\n      jump\t// out\n        /* \"#utility.yul\":4013:4360   */\n    tag_83:\n        /* \"#utility.yul\":4111:4117   */\n      0x00\n        /* \"#utility.yul\":4119:4125   */\n      dup1\n        /* \"#utility.yul\":4163:4172   */\n      dup3\n        /* \"#utility.yul\":4154:4161   */\n      dup5\n        /* \"#utility.yul\":4150:4173   */\n      sub\n        /* \"#utility.yul\":4193:4196   */\n      0x0140\n        /* \"#utility.yul\":4189:4191   */\n      dup2\n        /* \"#utility.yul\":4185:4197   */\n      slt\n        /* \"#utility.yul\":4182:4214   */\n      iszero\n      tag_679\n      jumpi\n        /* \"#utility.yul\":4210:4211   */\n      0x00\n        /* \"#utility.yul\":4207:4208   */\n      dup1\n        /* \"#utility.yul\":4200:4212   */\n      revert\n        /* \"#utility.yul\":4182:4214   */\n    tag_679:\n        /* \"#utility.yul\":4233:4262   */\n      tag_680\n        /* \"#utility.yul\":4252:4261   */\n      dup5\n        /* \"#utility.yul\":4233:4262   */\n      tag_632\n      jump\t// in\n    tag_680:\n        /* \"#utility.yul\":4223:4262   */\n      swap3\n      pop\n        /* \"#utility.yul\":4296:4299   */\n      0x0120\n      not(0x1f)\n        /* \"#utility.yul\":4278:4294   */\n      dup3\n      add\n        /* \"#utility.yul\":4274:4300   */\n      slt\n        /* \"#utility.yul\":4271:4317   */\n      iszero\n      tag_681\n      jumpi\n        /* \"#utility.yul\":4313:4314   */\n      0x00\n        /* \"#utility.yul\":4310:4311   */\n      dup1\n        /* \"#utility.yul\":4303:4315   */\n      revert\n        /* \"#utility.yul\":4271:4317   */\n    tag_681:\n      pop\n        /* \"#utility.yul\":4351:4353   */\n      0x20\n        /* \"#utility.yul\":4340:4349   */\n      dup4\n        /* \"#utility.yul\":4336:4354   */\n      add\n        /* \"#utility.yul\":4326:4354   */\n      swap1\n      pop\n        /* \"#utility.yul\":4013:4360   */\n      swap3\n      pop\n      swap3\n      swap1\n      pop\n      jump\t// out\n        /* \"#utility.yul\":4365:4748   */\n    tag_87:\n        /* \"#utility.yul\":4439:4445   */\n      0x00\n        /* \"#utility.yul\":4447:4453   */\n      dup1\n        /* \"#utility.yul\":4455:4461   */\n      0x00\n        /* \"#utility.yul\":4508:4510   */\n      0x60\n        /* \"#utility.yul\":4496:4505   */\n      dup5\n        /* \"#utility.yul\":4487:4494   */\n      dup7\n        /* \"#utility.yul\":4483:4506   */\n      sub\n        /* \"#utility.yul\":4479:4511   */\n      slt\n        /* \"#utility.yul\":4476:4528   */\n      iszero\n      tag_683\n      jumpi\n        /* \"#utility.yul\":4524:4525   */\n      0x00\n        /* \"#utility.yul\":4521:4522   */\n      dup1\n        /* \"#utility.yul\":4514:4526   */\n      revert\n        /* \"#utility.yul\":4476:4528   */\n    tag_683:\n        /* \"#utility.yul\":4563:4572   */\n      dup4\n        /* \"#utility.yul\":4550:4573   */\n      calldataload\n        /* \"#utility.yul\":4582:4610   */\n      tag_684\n        /* \"#utility.yul\":4604:4609   */\n      dup2\n        /* \"#utility.yul\":4582:4610   */\n      tag_633\n      jump\t// in\n    tag_684:\n        /* \"#utility.yul\":4629:4634   */\n      swap3\n      pop\n        /* \"#utility.yul\":4653:4691   */\n      tag_685\n        /* \"#utility.yul\":4687:4689   */\n      0x20\n        /* \"#utility.yul\":4672:4690   */\n      dup6\n      add\n        /* \"#utility.yul\":4653:4691   */\n      tag_632\n      jump\t// in\n    tag_685:\n        /* \"#utility.yul\":4643:4691   */\n      swap2\n      pop\n        /* \"#utility.yul\":4738:4740   */\n      0x40\n        /* \"#utility.yul\":4727:4736   */\n      dup5\n        /* \"#utility.yul\":4723:4741   */\n      add\n        /* \"#utility.yul\":4710:4742   */\n      calldataload\n        /* \"#utility.yul\":4700:4742   */\n      swap1\n      pop\n        /* \"#utility.yul\":4365:4748   */\n      swap3\n      pop\n      swap3\n      pop\n      swap3\n      jump\t// out\n        /* \"#utility.yul\":4753:5007   */\n    tag_92:\n        /* \"#utility.yul\":4821:4827   */\n      0x00\n        /* \"#utility.yul\":4829:4835   */\n      dup1\n        /* \"#utility.yul\":4882:4884   */\n      0x40\n        /* \"#utility.yul\":4870:4879   */\n      dup4\n        /* \"#utility.yul\":4861:4868   */\n      dup6\n        /* \"#utility.yul\":4857:4880   */\n      sub\n        /* \"#utility.yul\":4853:4885   */\n      slt\n        /* \"#utility.yul\":4850:4902   */\n      iszero\n      tag_687\n      jumpi\n        /* \"#utility.yul\":4898:4899   */\n      0x00\n        /* \"#utility.yul\":4895:4896   */\n      dup1\n        /* \"#utility.yul\":4888:4900   */\n      revert\n        /* \"#utility.yul\":4850:4902   */\n    tag_687:\n        /* \"#utility.yul\":4921:4950   */\n      tag_688\n        /* \"#utility.yul\":4940:4949   */\n      dup4\n        /* \"#utility.yul\":4921:4950   */\n      tag_632\n      jump\t// in\n    tag_688:\n        /* \"#utility.yul\":4911:4950   */\n      swap5\n        /* \"#utility.yul\":4997:4999   */\n      0x20\n        /* \"#utility.yul\":4982:5000   */\n      swap4\n      swap1\n      swap4\n      add\n        /* \"#utility.yul\":4969:5001   */\n      calldataload\n      swap4\n      pop\n      pop\n      pop\n        /* \"#utility.yul\":4753:5007   */\n      jump\t// out\n        /* \"#utility.yul\":5220:5562   */\n    tag_127:\n        /* \"#utility.yul\":5306:5312   */\n      0x00\n        /* \"#utility.yul\":5314:5320   */\n      dup1\n        /* \"#utility.yul\":5367:5369   */\n      0x40\n        /* \"#utility.yul\":5355:5364   */\n      dup4\n        /* \"#utility.yul\":5346:5353   */\n      dup6\n        /* \"#utility.yul\":5342:5365   */\n      sub\n        /* \"#utility.yul\":5338:5370   */\n      slt\n        /* \"#utility.yul\":5335:5387   */\n      iszero\n      tag_691\n      jumpi\n        /* \"#utility.yul\":5383:5384   */\n      0x00\n        /* \"#utility.yul\":5380:5381   */\n      dup1\n        /* \"#utility.yul\":5373:5385   */\n      revert\n        /* \"#utility.yul\":5335:5387   */\n    tag_691:\n        /* \"#utility.yul\":5419:5428   */\n      dup3\n        /* \"#utility.yul\":5406:5429   */\n      calldataload\n        /* \"#utility.yul\":5396:5429   */\n      swap2\n      pop\n        /* \"#utility.yul\":5479:5481   */\n      0x20\n        /* \"#utility.yul\":5468:5477   */\n      dup4\n        /* \"#utility.yul\":5464:5482   */\n      add\n        /* \"#utility.yul\":5451:5483   */\n      calldataload\n        /* \"#utility.yul\":5512:5513   */\n      0x02\n        /* \"#utility.yul\":5505:5510   */\n      dup2\n        /* \"#utility.yul\":5502:5514   */\n      lt\n        /* \"#utility.yul\":5492:5532   */\n      tag_673\n      jumpi\n        /* \"#utility.yul\":5528:5529   */\n      0x00\n        /* \"#utility.yul\":5525:5526   */\n      dup1\n        /* \"#utility.yul\":5518:5530   */\n      revert\n        /* \"#utility.yul\":5567:5815   */\n    tag_140:\n        /* \"#utility.yul\":5635:5641   */\n      0x00\n        /* \"#utility.yul\":5643:5649   */\n      dup1\n        /* \"#utility.yul\":5696:5698   */\n      0x40\n        /* \"#utility.yul\":5684:5693   */\n      dup4\n        /* \"#utility.yul\":5675:5682   */\n      dup6\n        /* \"#utility.yul\":5671:5694   */\n      sub\n        /* \"#utility.yul\":5667:5699   */\n      slt\n        /* \"#utility.yul\":5664:5716   */\n      iszero\n      tag_694\n      jumpi\n        /* \"#utility.yul\":5712:5713   */\n      0x00\n        /* \"#utility.yul\":5709:5710   */\n      dup1\n        /* \"#utility.yul\":5702:5714   */\n      revert\n        /* \"#utility.yul\":5664:5716   */\n    tag_694:\n      pop\n      pop\n        /* \"#utility.yul\":5735:5758   */\n      dup1\n      calldataload\n      swap3\n        /* \"#utility.yul\":5805:5807   */\n      0x20\n        /* \"#utility.yul\":5790:5808   */\n      swap1\n      swap2\n      add\n        /* \"#utility.yul\":5777:5809   */\n      calldataload\n      swap2\n      pop\n        /* \"#utility.yul\":5567:5815   */\n      jump\t// out\n        /* \"#utility.yul\":5820:6217   */\n    tag_144:\n        /* \"#utility.yul\":5906:5912   */\n      0x00\n        /* \"#utility.yul\":5914:5920   */\n      dup1\n        /* \"#utility.yul\":5922:5928   */\n      0x00\n        /* \"#utility.yul\":5930:5936   */\n      dup1\n        /* \"#utility.yul\":5983:5986   */\n      0x80\n        /* \"#utility.yul\":5971:5980   */\n      dup6\n        /* \"#utility.yul\":5962:5969   */\n      dup8\n        /* \"#utility.yul\":5958:5981   */\n      sub\n        /* \"#utility.yul\":5954:5987   */\n      slt\n        /* \"#utility.yul\":5951:6004   */\n      iszero\n      tag_696\n      jumpi\n        /* \"#utility.yul\":6000:6001   */\n      0x00\n        /* \"#utility.yul\":5997:5998   */\n      dup1\n        /* \"#utility.yul\":5990:6002   */\n      revert\n        /* \"#utility.yul\":5951:6004   */\n    tag_696:\n        /* \"#utility.yul\":6023:6052   */\n      tag_697\n        /* \"#utility.yul\":6042:6051   */\n      dup6\n        /* \"#utility.yul\":6023:6052   */\n      tag_632\n      jump\t// in\n    tag_697:\n        /* \"#utility.yul\":6013:6052   */\n      swap4\n      pop\n        /* \"#utility.yul\":6071:6109   */\n      tag_698\n        /* \"#utility.yul\":6105:6107   */\n      0x20\n        /* \"#utility.yul\":6094:6103   */\n      dup7\n        /* \"#utility.yul\":6090:6108   */\n      add\n        /* \"#utility.yul\":6071:6109   */\n      tag_632\n      jump\t// in\n    tag_698:\n        /* \"#utility.yul\":5820:6217   */\n      swap4\n      swap7\n        /* \"#utility.yul\":6061:6109   */\n      swap4\n      swap6\n      pop\n      pop\n      pop\n      pop\n        /* \"#utility.yul\":6156:6158   */\n      0x40\n        /* \"#utility.yul\":6141:6159   */\n      dup3\n      add\n        /* \"#utility.yul\":6128:6160   */\n      calldataload\n      swap2\n        /* \"#utility.yul\":6207:6209   */\n      0x60\n        /* \"#utility.yul\":6192:6210   */\n      add\n        /* \"#utility.yul\":6179:6211   */\n      calldataload\n      swap1\n        /* \"#utility.yul\":5820:6217   */\n      jump\t// out\n        /* \"#utility.yul\":6222:7086   */\n    tag_150:\n        /* \"#utility.yul\":6598:6612   */\n      swap9\n      iszero\n        /* \"#utility.yul\":6591:6613   */\n      iszero\n        /* \"#utility.yul\":6573:6614   */\n      dup10\n      mstore\n        /* \"#utility.yul\":6633:6639   */\n      0xffff\n        /* \"#utility.yul\":6675:6690   */\n      swap8\n      dup9\n      and\n        /* \"#utility.yul\":6670:6672   */\n      0x20\n        /* \"#utility.yul\":6655:6673   */\n      dup11\n      add\n        /* \"#utility.yul\":6648:6691   */\n      mstore\n        /* \"#utility.yul\":6727:6742   */\n      swap6\n      dup8\n      and\n        /* \"#utility.yul\":6722:6724   */\n      0x40\n        /* \"#utility.yul\":6707:6725   */\n      dup10\n      add\n        /* \"#utility.yul\":6700:6743   */\n      mstore\n        /* \"#utility.yul\":6779:6794   */\n      swap4\n      dup7\n      and\n        /* \"#utility.yul\":6774:6776   */\n      0x60\n        /* \"#utility.yul\":6759:6777   */\n      dup9\n      add\n        /* \"#utility.yul\":6752:6795   */\n      mstore\n        /* \"#utility.yul\":6826:6829   */\n      0x80\n        /* \"#utility.yul\":6811:6830   */\n      dup8\n      add\n        /* \"#utility.yul\":6804:6839   */\n      swap3\n      swap1\n      swap3\n      mstore\n        /* \"#utility.yul\":6876:6891   */\n      swap1\n      swap4\n      and\n        /* \"#utility.yul\":6870:6873   */\n      0xa0\n        /* \"#utility.yul\":6855:6874   */\n      dup6\n      add\n        /* \"#utility.yul\":6848:6892   */\n      mstore\n        /* \"#utility.yul\":6911:6921   */\n      0xffffffff\n        /* \"#utility.yul\":6958:6973   */\n      swap3\n      dup4\n      and\n        /* \"#utility.yul\":6952:6955   */\n      0xc0\n        /* \"#utility.yul\":6937:6956   */\n      dup6\n      add\n        /* \"#utility.yul\":6930:6974   */\n      mstore\n        /* \"#utility.yul\":7011:7026   */\n      dup3\n      and\n        /* \"#utility.yul\":7005:7008   */\n      0xe0\n        /* \"#utility.yul\":6990:7009   */\n      dup5\n      add\n        /* \"#utility.yul\":6983:7027   */\n      mstore\n        /* \"#utility.yul\":7064:7079   */\n      and\n        /* \"#utility.yul\":7058:7061   */\n      0x0100\n        /* \"#utility.yul\":7043:7062   */\n      dup3\n      add\n        /* \"#utility.yul\":7036:7080   */\n      mstore\n        /* \"#utility.yul\":6560:6563   */\n      0x0120\n        /* \"#utility.yul\":6545:6564   */\n      add\n      swap1\n        /* \"#utility.yul\":6222:7086   */\n      jump\t// out\n        /* \"#utility.yul\":7091:7431   */\n    tag_154:\n        /* \"#utility.yul\":7293:7295   */\n      0x20\n        /* \"#utility.yul\":7275:7296   */\n      dup1\n      dup3\n      mstore\n        /* \"#utility.yul\":7332:7334   */\n      0x10\n        /* \"#utility.yul\":7312:7330   */\n      swap1\n      dup3\n      add\n        /* \"#utility.yul\":7305:7335   */\n      mstore\n      shl(0x82, 0x1154d0d493d5d7d393d517d193d55391)\n        /* \"#utility.yul\":7366:7368   */\n      0x40\n        /* \"#utility.yul\":7351:7369   */\n      dup3\n      add\n        /* \"#utility.yul\":7344:7390   */\n      mstore\n        /* \"#utility.yul\":7422:7424   */\n      0x60\n        /* \"#utility.yul\":7407:7425   */\n      add\n      swap1\n        /* \"#utility.yul\":7091:7431   */\n      jump\t// out\n        /* \"#utility.yul\":7436:7984   */\n    tag_162:\n        /* \"#utility.yul\":7548:7552   */\n      0x00\n        /* \"#utility.yul\":7577:7579   */\n      0x20\n        /* \"#utility.yul\":7606:7608   */\n      dup1\n        /* \"#utility.yul\":7595:7604   */\n      dup4\n        /* \"#utility.yul\":7588:7609   */\n      mstore\n        /* \"#utility.yul\":7638:7644   */\n      dup4\n        /* \"#utility.yul\":7632:7645   */\n      mload\n        /* \"#utility.yul\":7681:7687   */\n      dup1\n        /* \"#utility.yul\":7676:7678   */\n      dup3\n        /* \"#utility.yul\":7665:7674   */\n      dup6\n        /* \"#utility.yul\":7661:7679   */\n      add\n        /* \"#utility.yul\":7654:7688   */\n      mstore\n        /* \"#utility.yul\":7706:7707   */\n      0x00\n        /* \"#utility.yul\":7716:7856   */\n    tag_702:\n        /* \"#utility.yul\":7730:7736   */\n      dup2\n        /* \"#utility.yul\":7727:7728   */\n      dup2\n        /* \"#utility.yul\":7724:7737   */\n      lt\n        /* \"#utility.yul\":7716:7856   */\n      iszero\n      tag_704\n      jumpi\n        /* \"#utility.yul\":7825:7839   */\n      dup6\n      dup2\n      add\n        /* \"#utility.yul\":7821:7844   */\n      dup4\n      add\n        /* \"#utility.yul\":7815:7845   */\n      mload\n        /* \"#utility.yul\":7791:7808   */\n      dup6\n      dup3\n      add\n        /* \"#utility.yul\":7810:7812   */\n      0x40\n        /* \"#utility.yul\":7787:7813   */\n      add\n        /* \"#utility.yul\":7780:7846   */\n      mstore\n        /* \"#utility.yul\":7745:7755   */\n      dup3\n      add\n        /* \"#utility.yul\":7716:7856   */\n      jump(tag_702)\n    tag_704:\n        /* \"#utility.yul\":7720:7723   */\n      pop\n        /* \"#utility.yul\":7905:7906   */\n      0x00\n        /* \"#utility.yul\":7900:7902   */\n      0x40\n        /* \"#utility.yul\":7891:7897   */\n      dup3\n        /* \"#utility.yul\":7880:7889   */\n      dup7\n        /* \"#utility.yul\":7876:7898   */\n      add\n        /* \"#utility.yul\":7872:7903   */\n      add\n        /* \"#utility.yul\":7865:7907   */\n      mstore\n        /* \"#utility.yul\":7975:7977   */\n      0x40\n        /* \"#utility.yul\":7968:7970   */\n      0x1f\n        /* \"#utility.yul\":7964:7971   */\n      not\n        /* \"#utility.yul\":7959:7961   */\n      0x1f\n        /* \"#utility.yul\":7951:7957   */\n      dup4\n        /* \"#utility.yul\":7947:7962   */\n      add\n        /* \"#utility.yul\":7943:7972   */\n      and\n        /* \"#utility.yul\":7932:7941   */\n      dup6\n        /* \"#utility.yul\":7928:7973   */\n      add\n        /* \"#utility.yul\":7924:7978   */\n      add\n        /* \"#utility.yul\":7916:7978   */\n      swap3\n      pop\n      pop\n      pop\n        /* \"#utility.yul\":7436:7984   */\n      swap3\n      swap2\n      pop\n      pop\n      jump\t// out\n        /* \"#utility.yul\":8333:8460   */\n    tag_634:\n        /* \"#utility.yul\":8394:8404   */\n      0x4e487b71\n        /* \"#utility.yul\":8389:8392   */\n      0xe0\n        /* \"#utility.yul\":8385:8405   */\n      shl\n        /* \"#utility.yul\":8382:8383   */\n      0x00\n        /* \"#utility.yul\":8375:8406   */\n      mstore\n        /* \"#utility.yul\":8425:8429   */\n      0x11\n        /* \"#utility.yul\":8422:8423   */\n      0x04\n        /* \"#utility.yul\":8415:8430   */\n      mstore\n        /* \"#utility.yul\":8449:8453   */\n      0x24\n        /* \"#utility.yul\":8446:8447   */\n      0x00\n        /* \"#utility.yul\":8439:8454   */\n      revert\n        /* \"#utility.yul\":8465:8590   */\n    tag_189:\n        /* \"#utility.yul\":8530:8539   */\n      dup1\n      dup3\n      add\n        /* \"#utility.yul\":8551:8561   */\n      dup1\n      dup3\n      gt\n        /* \"#utility.yul\":8548:8584   */\n      iszero\n      tag_598\n      jumpi\n        /* \"#utility.yul\":8564:8582   */\n      tag_598\n      tag_634\n      jump\t// in\n        /* \"#utility.yul\":8948:9284   */\n    tag_216:\n        /* \"#utility.yul\":9150:9152   */\n      0x20\n        /* \"#utility.yul\":9132:9153   */\n      dup1\n      dup3\n      mstore\n        /* \"#utility.yul\":9189:9191   */\n      0x0c\n        /* \"#utility.yul\":9169:9187   */\n      swap1\n      dup3\n      add\n        /* \"#utility.yul\":9162:9192   */\n      mstore\n      shl(0xa2, 0x105117d393d517d193d55391)\n        /* \"#utility.yul\":9223:9225   */\n      0x40\n        /* \"#utility.yul\":9208:9226   */\n      dup3\n      add\n        /* \"#utility.yul\":9201:9243   */\n      mstore\n        /* \"#utility.yul\":9275:9277   */\n      0x60\n        /* \"#utility.yul\":9260:9278   */\n      add\n      swap1\n        /* \"#utility.yul\":8948:9284   */\n      jump\t// out\n        /* \"#utility.yul\":9289:9623   */\n    tag_243:\n        /* \"#utility.yul\":9491:9493   */\n      0x20\n        /* \"#utility.yul\":9473:9494   */\n      dup1\n      dup3\n      mstore\n        /* \"#utility.yul\":9530:9532   */\n      0x0a\n        /* \"#utility.yul\":9510:9528   */\n      swap1\n      dup3\n      add\n        /* \"#utility.yul\":9503:9533   */\n      mstore\n      shl(0xb1, 0x2d22a927afaa27a5a2a7)\n        /* \"#utility.yul\":9564:9566   */\n      0x40\n        /* \"#utility.yul\":9549:9567   */\n      dup3\n      add\n        /* \"#utility.yul\":9542:9582   */\n      mstore\n        /* \"#utility.yul\":9614:9616   */\n      0x60\n        /* \"#utility.yul\":9599:9617   */\n      add\n      swap1\n        /* \"#utility.yul\":9289:9623   */\n      jump\t// out\n        /* \"#utility.yul\":9628:9745   */\n    tag_635:\n        /* \"#utility.yul\":9713:9719   */\n      0xffff\n        /* \"#utility.yul\":9706:9711   */\n      dup2\n        /* \"#utility.yul\":9702:9720   */\n      and\n        /* \"#utility.yul\":9695:9700   */\n      dup2\n        /* \"#utility.yul\":9692:9721   */\n      eq\n        /* \"#utility.yul\":9682:9739   */\n      tag_669\n      jumpi\n        /* \"#utility.yul\":9735:9736   */\n      0x00\n        /* \"#utility.yul\":9732:9733   */\n      dup1\n        /* \"#utility.yul\":9725:9737   */\n      revert\n        /* \"#utility.yul\":9750:9995   */\n    tag_245:\n        /* \"#utility.yul\":9808:9814   */\n      0x00\n        /* \"#utility.yul\":9861:9863   */\n      0x20\n        /* \"#utility.yul\":9849:9858   */\n      dup3\n        /* \"#utility.yul\":9840:9847   */\n      dup5\n        /* \"#utility.yul\":9836:9859   */\n      sub\n        /* \"#utility.yul\":9832:9864   */\n      slt\n        /* \"#utility.yul\":9829:9881   */\n      iszero\n      tag_716\n      jumpi\n        /* \"#utility.yul\":9877:9878   */\n      0x00\n        /* \"#utility.yul\":9874:9875   */\n      dup1\n        /* \"#utility.yul\":9867:9879   */\n      revert\n        /* \"#utility.yul\":9829:9881   */\n    tag_716:\n        /* \"#utility.yul\":9916:9925   */\n      dup2\n        /* \"#utility.yul\":9903:9926   */\n      calldataload\n        /* \"#utility.yul\":9935:9965   */\n      tag_616\n        /* \"#utility.yul\":9959:9964   */\n      dup2\n        /* \"#utility.yul\":9935:9965   */\n      tag_635\n      jump\t// in\n        /* \"#utility.yul\":10000:10174   */\n    tag_636:\n        /* \"#utility.yul\":10044:10055   */\n      0x00\n        /* \"#utility.yul\":10096:10099   */\n      dup2\n        /* \"#utility.yul\":10083:10100   */\n      calldataload\n        /* \"#utility.yul\":10109:10139   */\n      tag_598\n        /* \"#utility.yul\":10133:10138   */\n      dup2\n        /* \"#utility.yul\":10109:10139   */\n      tag_635\n      jump\t// in\n        /* \"#utility.yul\":10949:11070   */\n    tag_641:\n        /* \"#utility.yul\":11034:11044   */\n      0xffffffff\n        /* \"#utility.yul\":11027:11032   */\n      dup2\n        /* \"#utility.yul\":11023:11045   */\n      and\n        /* \"#utility.yul\":11016:11021   */\n      dup2\n        /* \"#utility.yul\":11013:11046   */\n      eq\n        /* \"#utility.yul\":11003:11064   */\n      tag_669\n      jumpi\n        /* \"#utility.yul\":11060:11061   */\n      0x00\n        /* \"#utility.yul\":11057:11058   */\n      dup1\n        /* \"#utility.yul\":11050:11062   */\n      revert\n        /* \"#utility.yul\":11075:11249   */\n    tag_642:\n        /* \"#utility.yul\":11119:11130   */\n      0x00\n        /* \"#utility.yul\":11171:11174   */\n      dup2\n        /* \"#utility.yul\":11158:11175   */\n      calldataload\n        /* \"#utility.yul\":11184:11214   */\n      tag_598\n        /* \"#utility.yul\":11208:11213   */\n      dup2\n        /* \"#utility.yul\":11184:11214   */\n      tag_641\n      jump\t// in\n        /* \"#utility.yul\":11903:13110   */\n    tag_256:\n        /* \"#utility.yul\":12074:12079   */\n      dup2\n        /* \"#utility.yul\":12061:12080   */\n      calldataload\n        /* \"#utility.yul\":12089:12119   */\n      tag_732\n        /* \"#utility.yul\":12111:12118   */\n      dup2\n        /* \"#utility.yul\":12089:12119   */\n      tag_633\n      jump\t// in\n    tag_732:\n        /* \"#utility.yul\":12147:12158   */\n      dup2\n      sload\n        /* \"#utility.yul\":12214:12229   */\n      swap1\n      iszero\n        /* \"#utility.yul\":12207:12230   */\n      iszero\n        /* \"#utility.yul\":12164:12167   */\n      0xff\n        /* \"#utility.yul\":12203:12236   */\n      and\n      not(0xff)\n        /* \"#utility.yul\":12143:12169   */\n      swap2\n      swap1\n      swap2\n      and\n        /* \"#utility.yul\":12191:12237   */\n      or\n        /* \"#utility.yul\":12178:12238   */\n      dup2\n      sstore\n        /* \"#utility.yul\":12247:12344   */\n      tag_733\n        /* \"#utility.yul\":12301:12343   */\n      tag_734\n        /* \"#utility.yul\":12339:12341   */\n      0x20\n        /* \"#utility.yul\":12328:12342   */\n      dup5\n      add\n        /* \"#utility.yul\":12301:12343   */\n      tag_636\n      jump\t// in\n    tag_734:\n        /* \"#utility.yul\":10273:10284   */\n      dup3\n      sload\n      not(0xffff00)\n        /* \"#utility.yul\":10309:10331   */\n      and\n        /* \"#utility.yul\":10341:10342   */\n      0x08\n        /* \"#utility.yul\":10337:10350   */\n      swap2\n      swap1\n      swap2\n      shl\n        /* \"#utility.yul\":10352:10360   */\n      0xffff00\n        /* \"#utility.yul\":10333:10361   */\n      and\n        /* \"#utility.yul\":10306:10362   */\n      or\n        /* \"#utility.yul\":10293:10363   */\n      dup3\n      sstore\n        /* \"#utility.yul\":10179:10369   */\n      jump\n        /* \"#utility.yul\":12247:12344   */\n    tag_733:\n        /* \"#utility.yul\":12353:12448   */\n      tag_735\n        /* \"#utility.yul\":12405:12447   */\n      tag_736\n        /* \"#utility.yul\":12443:12445   */\n      0x40\n        /* \"#utility.yul\":12436:12441   */\n      dup5\n        /* \"#utility.yul\":12432:12446   */\n      add\n        /* \"#utility.yul\":12405:12447   */\n      tag_636\n      jump\t// in\n    tag_736:\n        /* \"#utility.yul\":10466:10477   */\n      dup3\n      sload\n      not(0xffff000000)\n        /* \"#utility.yul\":10502:10528   */\n      and\n        /* \"#utility.yul\":10538:10540   */\n      0x18\n        /* \"#utility.yul\":10534:10548   */\n      swap2\n      swap1\n      swap2\n      shl\n        /* \"#utility.yul\":10550:10562   */\n      0xffff000000\n        /* \"#utility.yul\":10530:10563   */\n      and\n        /* \"#utility.yul\":10499:10564   */\n      or\n        /* \"#utility.yul\":10486:10565   */\n      dup3\n      sstore\n        /* \"#utility.yul\":10374:10571   */\n      jump\n        /* \"#utility.yul\":12353:12448   */\n    tag_735:\n        /* \"#utility.yul\":12457:12554   */\n      tag_737\n        /* \"#utility.yul\":12511:12553   */\n      tag_738\n        /* \"#utility.yul\":12549:12551   */\n      0x60\n        /* \"#utility.yul\":12542:12547   */\n      dup5\n        /* \"#utility.yul\":12538:12552   */\n      add\n        /* \"#utility.yul\":12511:12553   */\n      tag_636\n      jump\t// in\n    tag_738:\n        /* \"#utility.yul\":10670:10681   */\n      dup3\n      sload\n      not(0xffff0000000000)\n        /* \"#utility.yul\":10706:10736   */\n      and\n        /* \"#utility.yul\":10746:10748   */\n      0x28\n        /* \"#utility.yul\":10742:10756   */\n      swap2\n      swap1\n      swap2\n      shl\n        /* \"#utility.yul\":10758:10774   */\n      0xffff0000000000\n        /* \"#utility.yul\":10738:10775   */\n      and\n        /* \"#utility.yul\":10703:10776   */\n      or\n        /* \"#utility.yul\":10690:10777   */\n      dup3\n      sstore\n        /* \"#utility.yul\":10576:10783   */\n      jump\n        /* \"#utility.yul\":12457:12554   */\n    tag_737:\n        /* \"#utility.yul\":12608:12611   */\n      0x80\n        /* \"#utility.yul\":12601:12606   */\n      dup3\n        /* \"#utility.yul\":12597:12612   */\n      add\n        /* \"#utility.yul\":12584:12613   */\n      calldataload\n        /* \"#utility.yul\":12580:12581   */\n      0x01\n        /* \"#utility.yul\":12574:12578   */\n      dup3\n        /* \"#utility.yul\":12570:12582   */\n      add\n        /* \"#utility.yul\":12563:12614   */\n      sstore\n        /* \"#utility.yul\":12651:12652   */\n      0x02\n        /* \"#utility.yul\":12645:12649   */\n      dup2\n        /* \"#utility.yul\":12641:12653   */\n      add\n        /* \"#utility.yul\":12662:12766   */\n      tag_739\n        /* \"#utility.yul\":12722:12765   */\n      tag_740\n        /* \"#utility.yul\":12760:12763   */\n      0xa0\n        /* \"#utility.yul\":12753:12758   */\n      dup6\n        /* \"#utility.yul\":12749:12764   */\n      add\n        /* \"#utility.yul\":12722:12765   */\n      tag_636\n      jump\t// in\n    tag_740:\n        /* \"#utility.yul\":10892:10903   */\n      dup3\n      sload\n      not(0xffff)\n        /* \"#utility.yul\":10888:10916   */\n      and\n        /* \"#utility.yul\":10929:10935   */\n      0xffff\n        /* \"#utility.yul\":10918:10936   */\n      swap2\n      swap1\n      swap2\n      and\n        /* \"#utility.yul\":10885:10937   */\n      or\n        /* \"#utility.yul\":10872:10938   */\n      dup3\n      sstore\n        /* \"#utility.yul\":10788:10944   */\n      jump\n        /* \"#utility.yul\":12662:12766   */\n    tag_739:\n        /* \"#utility.yul\":12775:12879   */\n      tag_741\n        /* \"#utility.yul\":12835:12878   */\n      tag_742\n        /* \"#utility.yul\":12873:12876   */\n      0xc0\n        /* \"#utility.yul\":12866:12871   */\n      dup6\n        /* \"#utility.yul\":12862:12877   */\n      add\n        /* \"#utility.yul\":12835:12878   */\n      tag_642\n      jump\t// in\n    tag_742:\n        /* \"#utility.yul\":11348:11359   */\n      dup3\n      sload\n      not(0xffffffff0000)\n        /* \"#utility.yul\":11384:11412   */\n      and\n        /* \"#utility.yul\":11422:11424   */\n      0x10\n        /* \"#utility.yul\":11418:11432   */\n      swap2\n      swap1\n      swap2\n      shl\n        /* \"#utility.yul\":11434:11448   */\n      0xffffffff0000\n        /* \"#utility.yul\":11414:11449   */\n      and\n        /* \"#utility.yul\":11381:11450   */\n      or\n        /* \"#utility.yul\":11368:11451   */\n      dup3\n      sstore\n        /* \"#utility.yul\":11254:11457   */\n      jump\n        /* \"#utility.yul\":12775:12879   */\n    tag_741:\n        /* \"#utility.yul\":12888:12990   */\n      tag_743\n        /* \"#utility.yul\":12946:12989   */\n      tag_744\n        /* \"#utility.yul\":12984:12987   */\n      0xe0\n        /* \"#utility.yul\":12977:12982   */\n      dup6\n        /* \"#utility.yul\":12973:12988   */\n      add\n        /* \"#utility.yul\":12946:12989   */\n      tag_642\n      jump\t// in\n    tag_744:\n        /* \"#utility.yul\":11554:11565   */\n      dup3\n      sload\n      not(0xffffffff000000000000)\n        /* \"#utility.yul\":11590:11626   */\n      and\n        /* \"#utility.yul\":11636:11638   */\n      0x30\n        /* \"#utility.yul\":11632:11646   */\n      swap2\n      swap1\n      swap2\n      shl\n        /* \"#utility.yul\":11648:11670   */\n      0xffffffff000000000000\n        /* \"#utility.yul\":11628:11671   */\n      and\n        /* \"#utility.yul\":11587:11672   */\n      or\n        /* \"#utility.yul\":11574:11673   */\n      dup3\n      sstore\n        /* \"#utility.yul\":11462:11679   */\n      jump\n        /* \"#utility.yul\":12888:12990   */\n    tag_743:\n        /* \"#utility.yul\":12999:13104   */\n      tag_745\n        /* \"#utility.yul\":13060:13103   */\n      tag_746\n        /* \"#utility.yul\":13098:13101   */\n      0x0100\n        /* \"#utility.yul\":13091:13096   */\n      dup6\n        /* \"#utility.yul\":13087:13102   */\n      add\n        /* \"#utility.yul\":13060:13103   */\n      tag_642\n      jump\t// in\n    tag_746:\n        /* \"#utility.yul\":13048:13058   */\n      dup3\n        /* \"#utility.yul\":11779:11790   */\n      dup1\n      sload\n      not(shl(0x50, 0xffffffff))\n        /* \"#utility.yul\":11815:11848   */\n      and\n        /* \"#utility.yul\":11874:11876   */\n      0x50\n        /* \"#utility.yul\":11854:11868   */\n      swap3\n      swap1\n      swap3\n      shl\n      shl(0x50, 0xffffffff)\n        /* \"#utility.yul\":11850:11890   */\n      and\n        /* \"#utility.yul\":11812:11891   */\n      swap2\n      swap1\n      swap2\n      or\n        /* \"#utility.yul\":11799:11892   */\n      swap1\n      sstore\n        /* \"#utility.yul\":11684:11898   */\n      jump\n        /* \"#utility.yul\":12999:13104   */\n    tag_745:\n      pop\n        /* \"#utility.yul\":11903:13110   */\n      pop\n      pop\n      jump\t// out\n        /* \"#utility.yul\":13115:13356   */\n    tag_258:\n        /* \"#utility.yul\":13171:13177   */\n      0x00\n        /* \"#utility.yul\":13224:13226   */\n      0x20\n        /* \"#utility.yul\":13212:13221   */\n      dup3\n        /* \"#utility.yul\":13203:13210   */\n      dup5\n        /* \"#utility.yul\":13199:13222   */\n      sub\n        /* \"#utility.yul\":13195:13227   */\n      slt\n        /* \"#utility.yul\":13192:13244   */\n      iszero\n      tag_748\n      jumpi\n        /* \"#utility.yul\":13240:13241   */\n      0x00\n        /* \"#utility.yul\":13237:13238   */\n      dup1\n        /* \"#utility.yul\":13230:13242   */\n      revert\n        /* \"#utility.yul\":13192:13244   */\n    tag_748:\n        /* \"#utility.yul\":13279:13288   */\n      dup2\n        /* \"#utility.yul\":13266:13289   */\n      calldataload\n        /* \"#utility.yul\":13298:13326   */\n      tag_616\n        /* \"#utility.yul\":13320:13325   */\n      dup2\n        /* \"#utility.yul\":13298:13326   */\n      tag_633\n      jump\t// in\n        /* \"#utility.yul\":13361:13606   */\n    tag_264:\n        /* \"#utility.yul\":13419:13425   */\n      0x00\n        /* \"#utility.yul\":13472:13474   */\n      0x20\n        /* \"#utility.yul\":13460:13469   */\n      dup3\n        /* \"#utility.yul\":13451:13458   */\n      dup5\n        /* \"#utility.yul\":13447:13470   */\n      sub\n        /* \"#utility.yul\":13443:13475   */\n      slt\n        /* \"#utility.yul\":13440:13492   */\n      iszero\n      tag_751\n      jumpi\n        /* \"#utility.yul\":13488:13489   */\n      0x00\n        /* \"#utility.yul\":13485:13486   */\n      dup1\n        /* \"#utility.yul\":13478:13490   */\n      revert\n        /* \"#utility.yul\":13440:13492   */\n    tag_751:\n        /* \"#utility.yul\":13527:13536   */\n      dup2\n        /* \"#utility.yul\":13514:13537   */\n      calldataload\n        /* \"#utility.yul\":13546:13576   */\n      tag_616\n        /* \"#utility.yul\":13570:13575   */\n      dup2\n        /* \"#utility.yul\":13546:13576   */\n      tag_641\n      jump\t// in\n        /* \"#utility.yul\":13611:13946   */\n    tag_273:\n        /* \"#utility.yul\":13813:13815   */\n      0x20\n        /* \"#utility.yul\":13795:13816   */\n      dup1\n      dup3\n      mstore\n        /* \"#utility.yul\":13852:13854   */\n      0x0b\n        /* \"#utility.yul\":13832:13850   */\n      swap1\n      dup3\n      add\n        /* \"#utility.yul\":13825:13855   */\n      mstore\n      shl(0xaa, 0x16915493d7d05353d55395)\n        /* \"#utility.yul\":13886:13888   */\n      0x40\n        /* \"#utility.yul\":13871:13889   */\n      dup3\n      add\n        /* \"#utility.yul\":13864:13905   */\n      mstore\n        /* \"#utility.yul\":13937:13939   */\n      0x60\n        /* \"#utility.yul\":13922:13940   */\n      add\n      swap1\n        /* \"#utility.yul\":13611:13946   */\n      jump\t// out\n        /* \"#utility.yul\":13951:14086   */\n    tag_281:\n        /* \"#utility.yul\":13990:13993   */\n      0x00\n        /* \"#utility.yul\":14011:14028   */\n      0x01\n      dup3\n      add\n        /* \"#utility.yul\":14008:14051   */\n      tag_756\n      jumpi\n        /* \"#utility.yul\":14031:14049   */\n      tag_756\n      tag_634\n      jump\t// in\n    tag_756:\n      pop\n        /* \"#utility.yul\":14078:14079   */\n      0x01\n        /* \"#utility.yul\":14067:14080   */\n      add\n      swap1\n        /* \"#utility.yul\":13951:14086   */\n      jump\t// out\n        /* \"#utility.yul\":14773:14901   */\n    tag_297:\n        /* \"#utility.yul\":14840:14849   */\n      dup2\n      dup2\n      sub\n        /* \"#utility.yul\":14861:14872   */\n      dup2\n      dup2\n      gt\n        /* \"#utility.yul\":14858:14895   */\n      iszero\n      tag_598\n      jumpi\n        /* \"#utility.yul\":14875:14893   */\n      tag_598\n      tag_634\n      jump\t// in\n        /* \"#utility.yul\":18904:19153   */\n    tag_506:\n        /* \"#utility.yul\":19054:19056   */\n      0x20\n        /* \"#utility.yul\":19039:19057   */\n      dup2\n      add\n        /* \"#utility.yul\":19087:19088   */\n      0x02\n        /* \"#utility.yul\":19076:19089   */\n      dup4\n      lt\n        /* \"#utility.yul\":19066:19113   */\n      tag_776\n      jumpi\n        /* \"#utility.yul\":19093:19111   */\n      tag_776\n      tag_157\n      jump\t// in\n    tag_776:\n        /* \"#utility.yul\":19122:19147   */\n      swap2\n      swap1\n      mstore\n        /* \"#utility.yul\":18904:19153   */\n      swap1\n      jump\t// out\n        /* \"#utility.yul\":21194:21439   */\n    tag_594:\n        /* \"#utility.yul\":21261:21267   */\n      0x00\n        /* \"#utility.yul\":21314:21316   */\n      0x20\n        /* \"#utility.yul\":21302:21311   */\n      dup3\n        /* \"#utility.yul\":21293:21300   */\n      dup5\n        /* \"#utility.yul\":21289:21312   */\n      sub\n        /* \"#utility.yul\":21285:21317   */\n      slt\n        /* \"#utility.yul\":21282:21334   */\n      iszero\n      tag_784\n      jumpi\n        /* \"#utility.yul\":21330:21331   */\n      0x00\n        /* \"#utility.yul\":21327:21328   */\n      dup1\n        /* \"#utility.yul\":21320:21332   */\n      revert\n        /* \"#utility.yul\":21282:21334   */\n    tag_784:\n        /* \"#utility.yul\":21362:21371   */\n      dup2\n        /* \"#utility.yul\":21356:21372   */\n      mload\n        /* \"#utility.yul\":21381:21409   */\n      tag_616\n        /* \"#utility.yul\":21403:21408   */\n      dup2\n        /* \"#utility.yul\":21381:21409   */\n      tag_633\n      jump\t// in\n        /* \"#utility.yul\":21793:21961   */\n    tag_602:\n        /* \"#utility.yul\":21866:21875   */\n      dup1\n      dup3\n      mul\n        /* \"#utility.yul\":21897:21906   */\n      dup2\n      iszero\n        /* \"#utility.yul\":21914:21929   */\n      dup3\n      dup3\n      div\n        /* \"#utility.yul\":21908:21930   */\n      dup5\n      eq\n        /* \"#utility.yul\":21894:21931   */\n      or\n        /* \"#utility.yul\":21884:21955   */\n      tag_598\n      jumpi\n        /* \"#utility.yul\":21935:21953   */\n      tag_598\n      tag_634\n      jump\t// in\n        /* \"#utility.yul\":21966:22183   */\n    tag_604:\n        /* \"#utility.yul\":22006:22007   */\n      0x00\n        /* \"#utility.yul\":22032:22033   */\n      dup3\n        /* \"#utility.yul\":22022:22154   */\n      tag_791\n      jumpi\n        /* \"#utility.yul\":22076:22086   */\n      0x4e487b71\n        /* \"#utility.yul\":22071:22074   */\n      0xe0\n        /* \"#utility.yul\":22067:22087   */\n      shl\n        /* \"#utility.yul\":22064:22065   */\n      0x00\n        /* \"#utility.yul\":22057:22088   */\n      mstore\n        /* \"#utility.yul\":22111:22115   */\n      0x12\n        /* \"#utility.yul\":22108:22109   */\n      0x04\n        /* \"#utility.yul\":22101:22116   */\n      mstore\n        /* \"#utility.yul\":22139:22143   */\n      0x24\n        /* \"#utility.yul\":22136:22137   */\n      0x00\n        /* \"#utility.yul\":22129:22144   */\n      revert\n        /* \"#utility.yul\":22022:22154   */\n    tag_791:\n      pop\n        /* \"#utility.yul\":22168:22177   */\n      div\n      swap1\n        /* \"#utility.yul\":21966:22183   */\n      jump\t// out\n    stop\n    data_a1787636192da96984a031a805d7165b97afdc9cf24262e59bc86055df6ab426 1273b3bc238763d2765accfd266760c5513354f6778b08e51cff017e0354434f\n\n    auxdata: 0xa26469706673582212203ee48c2a18bc054827ff2fd7304281b4d2fa34ee01141bec932f3da7988723b264736f6c63430008140033\n}\n",
				"bytecode": {
					"linkReferences": {},
					"object": "6080604052600160065560016007553480156200001a575f80fd5b5060405162003d8138038062003d818339810160408190526200003d91620000de565b6001600160a01b038116620000885760405162461bcd60e51b815260206004820152600d60248201526c5a45524f5f545245415355525960981b604482015260640160405180910390fd5b5f80546001600160a01b031990811633178255600380546001600160a01b03851692168217905560405190917f3c864541ef71378c6229510ed90f376565ee42d9c5e0904a984a9e863e6db44f91a2506200010d565b5f60208284031215620000ef575f80fd5b81516001600160a01b038116811462000106575f80fd5b9392505050565b613c66806200011b5f395ff3fe608060405234801561000f575f80fd5b50600436106101c6575f3560e01c8063876ca09f116100fe578063c9c31af51161009e578063f2fde38b1161006e578063f2fde38b146104fb578063f4f8b2661461050e578063fb90fb4a14610521578063fe136c4e14610534575f80fd5b8063c9c31af5146104af578063e55e4211146104c2578063ed653164146104d5578063f0f44260146104e8575f80fd5b80639f6bd2a9116100d95780639f6bd2a914610454578063af4d7c6f14610476578063c15e23e114610489578063c3a7a61a1461049c575f80fd5b8063876ca09f1461042657806389cb29dd146104395780638da5cb5b14610442575f80fd5b8063354c5e01116101695780634c3fc8ad116101445780634c3fc8ad146103c25780634d4d4265146103d5578063502b7469146103e857806361d027b3146103fb575f80fd5b8063354c5e01146103895780633f11710b1461039c5780634b0bddd2146103af575f80fd5b806324d7806c116101a457806324d7806c1461030557806327d00fb0146103375780632bc0b0761461034c5780633219abe41461035f575f80fd5b8063012f52ee146101ca57806311a7a4c0146102815780631a8bb68d146102ee575b5f80fd5b61025e6101d8366004613538565b600960208190525f918252604090912080546001820154600283015460038401546004850154600586015460068701546007880154600889015499890154600a8a0154600b8b0154600c909b0154999b6001600160a01b03998a169b988a169a9790991698959794969395929460ff93841694929391929091818116916101009004168e565b6040516102789e9d9c9b9a99989796959493929190613577565b60405180910390f35b6102db61028f366004613538565b60086020525f90815260409020805460018201546002830154600384015460048501546005909501546001600160a01b038086169660ff600160a01b9097048716969590911694169087565b6040516102789796959493929190613608565b6102f760065481565b604051908152602001610278565b610327610313366004613676565b60016020525f908152604090205460ff1681565b6040519015158152602001610278565b61034a610345366004613538565b6105c0565b005b61034a61035a36600461369f565b610756565b6102f761036d3660046136d4565b600560209081525f928352604080842090915290825290205481565b61034a610397366004613538565b61081c565b61034a6103aa366004613538565b610b0c565b61034a6103bd36600461369f565b610ca0565b61034a6103d0366004613705565b610d43565b6102f76103e3366004613743565b610fac565b61034a6103f636600461377e565b61119f565b60035461040e906001600160a01b031681565b6040516001600160a01b039091168152602001610278565b61034a610434366004613538565b6112ce565b6102f760075481565b5f5461040e906001600160a01b031681565b610327610462366004613676565b60026020525f908152604090205460ff1681565b6102f7610484366004613538565b61146c565b61034a610497366004613538565b611947565b6103276104aa366004613538565b611e0b565b61034a6104bd366004613538565b611f48565b61034a6104d03660046137a6565b612292565b61034a6104e3366004613538565b612876565b61034a6104f6366004613676565b612cca565b61034a610509366004613676565b612da5565b61034a61051c3660046137cc565b612e8d565b61034a61052f3660046137ec565b61300e565b6105ab610542366004613676565b60046020525f908152604090208054600182015460029092015460ff82169261ffff610100840481169363010000008104821693650100000000009091048216929181169063ffffffff620100008204811691600160301b8104821691600160501b9091041689565b6040516102789998979695949392919061382b565b5f81815260096020526040812080549091036105f75760405162461bcd60e51b81526004016105ee9061387d565b60405180910390fd5b6003600882015460ff1660068111156106125761061261354f565b14604051806040016040528060098152602001684241445f535441544560b81b815250906106535760405162461bcd60e51b81526004016105ee91906138a7565b5060018101546001600160a01b031633148061067b575060028101546001600160a01b031633145b6106b95760405162461bcd60e51b815260206004820152600f60248201526e1393d517d41054951250d254105395608a1b60448201526064016105ee565b600c81015460408051808201909152600e81526d444953505554455f45584953545360901b60208201529060ff16156107055760405162461bcd60e51b81526004016105ee91906138a7565b5060088101805460ff19908116600417909155600c820180549091166001179055604051339083907f44f3c3ed15c708331582bc379d28659a58f183a563abe41aa4c8889db469f71c905f90a35050565b5f546001600160a01b031633148061077c5750335f9081526001602052604090205460ff165b604051806040016040528060098152602001682727aa2fa0a226a4a760b91b815250906107bc5760405162461bcd60e51b81526004016105ee91906138a7565b506001600160a01b0382165f81815260026020908152604091829020805460ff191685151590811790915591519182527f07e703270dd349aa2afca0f59467c19b0c4f7029c7057d0fad2fc0223e6cae5e91015b60405180910390a25050565b5f818152600960205260408120805490910361084a5760405162461bcd60e51b81526004016105ee9061387d565b6002600882015460ff1660068111156108655761086561354f565b14604051806040016040528060098152602001684241445f535441544560b81b815250906108a65760405162461bcd60e51b81526004016105ee91906138a7565b5060038101545f906108c0906001600160a01b0316613173565b90508060e0015163ffffffff1682600a01546108dc9190613906565b42116040518060400160405280601281526020017115d2539113d5d7d393d517d156141254915160721b815250906109275760405162461bcd60e51b81526004016105ee91906138a7565b5081545f9081526008602090815260409182902060058101548351808501909452600f84526e08aa686a49eaebe9a92a69a82a8869608b1b92840192909252919085146109875760405162461bcd60e51b81526004016105ee91906138a7565b506001600482015460ff1660038111156109a3576109a361354f565b14604051806040016040528060098152602001684241445f535441544560b81b815250906109e45760405162461bcd60e51b81526004016105ee91906138a7565b50600683015415610a1d5760038054600685015491850154610a16926001600160a01b039182169291909116906132aa565b5f60068401555b5f836007015484600501548560040154610a379190613906565b610a419190613906565b90508015610a6a5760028401546003850154610a6a916001600160a01b039182169116836132aa565b5f6004858101829055600580870183905560078701839055600887018054600660ff199182161790915591850180549092169091558301556040805160208082526018908201527f42555945525f4e4f5f434f4e4649524d5f464f5246454954000000000000000081830152905186917fdf5af23a8bfbd700e381c19607d03504d7a5ba1876c669cccd37feace1f5adaa919081900360600190a25050505050565b5f81815260086020526040902080546001600160a01b0316610b405760405162461bcd60e51b81526004016105ee90613919565b80546040805180820190915260098152682727aa2fa6a0a5a2a960b91b6020820152906001600160a01b03163314610b8b5760405162461bcd60e51b81526004016105ee91906138a7565b505f600482015460ff166003811115610ba657610ba661354f565b14604051806040016040528060098152602001684241445f535441544560b81b81525090610be75760405162461bcd60e51b81526004016105ee91906138a7565b5060058101546040805180820190915260098152684241445f535441544560b81b60208201529015610c2c5760405162461bcd60e51b81526004016105ee91906138a7565b5060048101805460ff19166002179055600381015415610c725760038054908201546001830154610c6b926001600160a01b03918216929116906132aa565b5f60038201555b60405182907f20e953810446bfec422c45a49b30c7b446bc121960d6568e36a20016140f86b7905f90a25050565b5f546040805180820190915260098152682727aa2fa7aba722a960b91b6020820152906001600160a01b03163314610ceb5760405162461bcd60e51b81526004016105ee91906138a7565b506001600160a01b0382165f81815260016020908152604091829020805460ff191685151590811790915591519182527fe68d2c359a771606c400cf8b87000cf5864010363d6a736e98f5047b7bbe18e99101610810565b5f546001600160a01b0316331480610d695750335f9081526001602052604090205460ff165b604051806040016040528060098152602001682727aa2fa0a226a4a760b91b81525090610da95760405162461bcd60e51b81526004016105ee91906138a7565b506001600160a01b038216610dd05760405162461bcd60e51b81526004016105ee9061393f565b612710610de36040830160208401613972565b61ffff1611158015610e0a5750612710610e036060830160408401613972565b61ffff1611155b604051806040016040528060078152602001664241445f42505360c81b81525090610e485760405162461bcd60e51b81526004016105ee91906138a7565b50612710610e5c6080830160608401613972565b61ffff1611158015610e835750612710610e7c60c0830160a08401613972565b61ffff1611155b604051806040016040528060078152602001664241445f42505360c81b81525090610ec15760405162461bcd60e51b81526004016105ee91906138a7565b506001600160a01b0382165f9081526004602052604090208190610ee582826139b6565b50506001600160a01b0382167f70df9bd9c5e9a1b5a52a86b9de9d2a79b37dbdbbaab91477d59f86d2502bbad1610f1f6020840184613b1f565b610f2f6040850160208601613972565b610f3f6060860160408701613972565b610f4f6080870160608801613972565b6080870135610f6460c0890160a08a01613972565b610f7460e08a0160c08b01613b3a565b610f856101008b0160e08c01613b3a565b610f976101208c016101008d01613b3a565b6040516108109998979695949392919061382b565b5f6001600160a01b038316610fd35760405162461bcd60e51b81526004016105ee9061393f565b5f8211610ff25760405162461bcd60e51b81526004016105ee90613b55565b610ffb83613173565b505f6110078484613363565b90508015611024576110246001600160a01b0385163330846133b5565b60068054905f61103383613b7a565b9190505591506040518060e00160405280336001600160a01b031681526020018615158152602001856001600160a01b031681526020018481526020018281526020015f60038111156110885761108861354f565b81525f60209182018190528481526008825260409081902083518154938501511515600160a01b026001600160a81b03199094166001600160a01b03918216179390931781559083015160018083018054929094166001600160a01b0319929092169190911790925560608301516002820155608083015160038083019190915560a084015160048301805493949193909260ff19909116919084908111156111335761113361354f565b021790555060c09190910151600590910155604080518615158152602081018590529081018290526001600160a01b03851690339084907f636b1ad28db834fa17206311cfa78045878f0a5be34081a2213975144e70b55b9060600160405180910390a4509392505050565b6001600160a01b0382166111c55760405162461bcd60e51b81526004016105ee9061393f565b5f81116111e45760405162461bcd60e51b81526004016105ee90613b55565b335f9081526005602090815260408083206001600160a01b03861684529091529020548181101561124d5760405162461bcd60e51b8152602060048201526013602482015272125394d551919250d251539517d0d491511255606a1b60448201526064016105ee565b6112578282613b92565b335f8181526005602090815260408083206001600160a01b0389168085529252909120929092556112899190846132aa565b6040518281526001600160a01b0384169033907f52fc0f9d902f33823a83590d3549f63f5492a0df5c6b6db8dee20deb94456b269060200160405180910390a3505050565b5f81815260096020526040812080549091036112fc5760405162461bcd60e51b81526004016105ee9061387d565b6002600882015460ff1660068111156113175761131761354f565b14604051806040016040528060098152602001684241445f535441544560b81b815250906113585760405162461bcd60e51b81526004016105ee91906138a7565b5060018101546040805180820190915260098152682727aa2fa12aaca2a960b91b6020820152906001600160a01b031633146113a75760405162461bcd60e51b81526004016105ee91906138a7565b5060038101545f906113c1906001600160a01b0316613173565b90508060e0015163ffffffff1682600a01546113dd9190613906565b4211156040518060400160405280600e81526020016d15d2539113d5d7d156141254915160921b815250906114255760405162461bcd60e51b81526004016105ee91906138a7565b5060088201805460ff1916600317905542600b830155604051339084907f2bce41b08631cf63c2dfd0b519d88a1e3db7e906ba6f0234f853996915e09028905f90a3505050565b5f81815260086020526040812080546001600160a01b03166114a05760405162461bcd60e51b81526004016105ee90613919565b5f600482015460ff1660038111156114ba576114ba61354f565b14604051806040016040528060098152602001684241445f535441544560b81b815250906114fb5760405162461bcd60e51b81526004016105ee91906138a7565b50600581015460408051808201909152600d81526c20a62922a0a22cafaa20a5a2a760991b602082015290156115445760405162461bcd60e51b81526004016105ee91906138a7565b506040805160e08101825282546001600160a01b03808216835260ff600160a01b9092048216151560208401526001850154169282019290925260028301546060820152600380840154608083015260048401545f936115dc9392869260a085019216908111156115b7576115b761354f565b60038111156115c8576115c861354f565b815260200160058201548152505033613486565b6040805160e08101825284546001600160a01b03808216835260ff600160a01b9092048216151560208401526001870154169282019290925260028501546060820152600380860154608083015260048601549394505f9361167793879260a0850192909116908111156116525761165261354f565b60038111156116635761166361354f565b8152602001600582015481525050336134a0565b9050806001600160a01b0316826001600160a01b0316036116c75760405162461bcd60e51b815260206004820152600a60248201526953454c465f545241444560b01b60448201526064016105ee565b600183015460028401545f916116e8916001600160a01b03909116906134b6565b90505f811161172d5760405162461bcd60e51b8152602060048201526011602482015270444953505554455f424f4e445f5a45524f60781b60448201526064016105ee565b6001840154611747906001600160a01b03168430846133b5565b60078054905f61175683613b7a565b90915550604080516101c0810182528881526001600160a01b03868116602080840191825287831684860190815260018b8101548516606087019081526002808e0154608089019081525f60a08a0181815260c08b018e815260e08c018381526101008d01888152426101208f01526101408e018590526101608e018590526101808e018590526101a08e018590528f85526009909a529c9092208b51815598518987018054918c166001600160a01b031992831617905596519389018054948b16948816949094179093559251600388018054919099169516949094179096559151600485015593516005840155516006808401919091559451600783015551600882018054969b509395919490939260ff1992909216919084908111156118815761188161354f565b02179055506101208201516009820155610140820151600a820155610160820151600b820155610180820151600c90910180546101a09093015161ffff1990931691151561ff001916919091176101009215159290920291909117905560048401805460ff1916600117905560058401859055604080516001600160a01b03848116825260208201849052851691889188917f0b0ee7fc34cffd8fddd757fa75752da0281ea49136350e672a73edb07cf327d8910160405180910390a450505050919050565b5f81815260096020526040812080549091036119755760405162461bcd60e51b81526004016105ee9061387d565b6001600882015460ff1660068111156119905761199061354f565b14604051806040016040528060098152602001684241445f535441544560b81b815250906119d15760405162461bcd60e51b81526004016105ee91906138a7565b5060038101545f906119eb906001600160a01b0316613173565b90508060c0015163ffffffff168260090154611a079190613906565b42116040518060400160405280601281526020017115d2539113d5d7d393d517d156141254915160721b81525090611a525760405162461bcd60e51b81526004016105ee91906138a7565b5081545f9081526008602090815260409182902060058101548351808501909452600f84526e08aa686a49eaebe9a92a69a82a8869608b1b9284019290925291908514611ab25760405162461bcd60e51b81526004016105ee91906138a7565b506001600482015460ff166003811115611ace57611ace61354f565b14604051806040016040528060098152602001684241445f535441544560b81b81525090611b0f5760405162461bcd60e51b81526004016105ee91906138a7565b50600683015415611c0657600683015460018401546001600160a01b039081165f908152600560209081526040808320600389015490941683529290529081208054909190611b5f908490613906565b9091555050600383015460018401546006850154604080517f42555945525f444953505554455f524546554e445f53454c4c45525f4e4f5f4660208201526215539160ea1b91810191909152604381018890526001600160a01b0393841693909216915f80516020613c11833981519152919060630160408051601f1981840301815282825280516020918201209383528201929092520160405180910390a35f60068401555b600883018054600660ff199091161790556040805160e08101825282546001600160a01b03808216835260ff600160a01b909204821615156020840152600185015416928201929092526002830154606082015260038084015460808301526004840154611cae93859260a085019290911690811115611c8857611c8861354f565b6003811115611c9957611c9961354f565b81526020016005820154815250506020015190565b15611d975760048101805460ff19166002179055600381015415611cf85760038054908201546001830154611cf1926001600160a01b03918216929116906132aa565b5f60038201555b5f60058201819055835460405190917f20e953810446bfec422c45a49b30c7b446bc121960d6568e36a20016140f86b791a2837fdf5af23a8bfbd700e381c19607d03504d7a5ba1876c669cccd37feace1f5adaa604051611d8a906020808252601c908201527f53454c4c45525f4e4f5f46554e445f4d414b45525f50454e414c545900000000604082015260600190565b60405180910390a2611e05565b60048101805460ff191690555f60058201556040805160208082526015908201527429a2a62622a92fa727afa32aa7222fa922a7a822a760591b81830152905185917fdf5af23a8bfbd700e381c19607d03504d7a5ba1876c669cccd37feace1f5adaa919081900360600190a25b50505050565b5f81815260096020526040812080548203611e2857505f92915050565b6003600882015460ff166006811115611e4357611e4361354f565b14611e5057505f92915050565b60038101546001600160a01b03165f90815260046020908152604091829020825161012081018452815460ff8116151580835261ffff6101008084048216968501969096526301000000830481169684019690965265010000000000909104851660608301526001830154608083015260029092015493841660a082015263ffffffff620100008504811660c0830152600160301b8504811660e0830152600160501b90940490931691830191909152611f0d57505f9392505050565b600c82015460ff1615611f2357505f9392505050565b80610100015163ffffffff1682600b0154611f3e9190613906565b4211949350505050565b5f8181526009602052604081208054909103611f765760405162461bcd60e51b81526004016105ee9061387d565b6001600882015460ff166006811115611f9157611f9161354f565b14604051806040016040528060098152602001684241445f535441544560b81b81525090611fd25760405162461bcd60e51b81526004016105ee91906138a7565b50600281015460408051808201909152600a8152692727aa2fa9a2a62622a960b11b6020820152906001600160a01b031633146120225760405162461bcd60e51b81526004016105ee91906138a7565b5080545f9081526008602090815260409182902060058101548351808501909452600f84526e08aa686a49eaebe9a92a69a82a8869608b1b92840192909252919084146120825760405162461bcd60e51b81526004016105ee91906138a7565b506001600482015460ff16600381111561209e5761209e61354f565b14604051806040016040528060098152602001684241445f535441544560b81b815250906120df5760405162461bcd60e51b81526004016105ee91906138a7565b5060038201545f906120f9906001600160a01b0316613173565b90508060c0015163ffffffff1683600901546121159190613906565b4211156040518060400160405280600e81526020016d15d2539113d5d7d156141254915160921b8152509061215d5760405162461bcd60e51b81526004016105ee91906138a7565b50600383015460048401545f9161217f916001600160a01b03909116906134ec565b600385015460048601549192505f916121a1916001600160a01b0316906134b6565b90505f81116121e65760405162461bcd60e51b8152602060048201526011602482015270444953505554455f424f4e445f5a45524f60781b60448201526064016105ee565b5f818387600401546121f89190613906565b6122029190613906565b600387015490915061221f906001600160a01b03163330846133b5565b600586018390556007860182905560088601805460ff1916600217905542600a87015560048601546040805191825260208201859052810183905287907f95b75f24b53add0217458d088aa8db8eefce3337dcb4bb8e7571a0604aeb0a649060600160405180910390a250505050505050565b335f90815260026020908152604091829020548251808401909352600e83526d2727aa2fa0a92124aa2920aa27a960911b9183019190915260ff166122ea5760405162461bcd60e51b81526004016105ee91906138a7565b505f82815260096020526040812080549091036123195760405162461bcd60e51b81526004016105ee9061387d565b6004600882015460ff1660068111156123345761233461354f565b14604051806040016040528060098152602001684241445f535441544560b81b815250906123755760405162461bcd60e51b81526004016105ee91906138a7565b50600c81015460ff1680156123945750600c810154610100900460ff16155b6123cf5760405162461bcd60e51b815260206004820152600c60248201526b444953505554455f444f4e4560a01b60448201526064016105ee565b6005810154156124075760038054600583015491830154612400926001600160a01b039182169291909116906132aa565b5f60058201555b5f82600181111561241a5761241a61354f565b0361244b57600181015460048201546003830154612446926001600160a01b03918216929116906132aa565b612472565b600281015460048201546003830154612472926001600160a01b03918216929116906132aa565b5f6004820181905582600181111561248c5761248c61354f565b036125a95760068101541561256c57600681015460018201546001600160a01b039081165f9081526005602090815260408083206003870154909416835292905290812080549091906124e0908490613906565b909155505060038101546001820154600683015460405170212aaca2a92fa224a9a82aaa22afaba4a760791b6020820152603181018790526001600160a01b0393841693909216915f80516020613c11833981519152919060510160408051601f1981840301815282825280516020918201209383528201929092520160405180910390a35f60068201555b6007810154156125a4576003805460078301549183015461259d926001600160a01b039182169291909116906132aa565b5f60078201555b6126bd565b60078101541561268557600781015460028201546001600160a01b039081165f9081526005602090815260408083206003870154909416835292905290812080549091906125f8908490613906565b90915550506003810154600282015460078301546040517129a2a62622a92fa224a9a82aaa22afaba4a760711b6020820152603281018790526001600160a01b0393841693909216915f80516020613c11833981519152919060520160408051601f1981840301815282825280516020918201209383528201929092520160405180910390a35f60078201555b6006810154156126bd57600380546006830154918301546126b6926001600160a01b039182169291909116906132aa565b5f60068201555b80545f9081526008602052604090206003810154156127a957600381015481546001600160a01b039081165f908152600560209081526040808320600187015490941683529290529081208054909190612718908490613906565b909155505060018101548154600383015484546040517541445f424f4e445f524546554e445f4449535055544560501b602082015260368101919091526001600160a01b0393841693909216915f80516020613c11833981519152919060560160408051601f1981840301815282825280516020918201209383528201929092520160405180910390a35f60038201555b600c8201805461ff001916610100179055600882018054600560ff199182168117909255600483018054600392169190911790555f9082015560405184907f2ffcfee146bc0d5ff304c6b65111a0d485af9456dc64eee7d66ebdcc90b223ea90612814908690613ba5565b60405180910390a260405184907f69833829d5691ae09424af7d16f73adf033451149ea9c2fc6fcb4c44108eef67905f90a281546040517f1b5620e4acda71640915df6184c97b2ef8b032a94bb3886bb01df0f3248a15c0905f90a250505050565b5f81815260096020526040812080549091036128a45760405162461bcd60e51b81526004016105ee9061387d565b6003600882015460ff1660068111156128bf576128bf61354f565b14604051806040016040528060098152602001684241445f535441544560b81b815250906129005760405162461bcd60e51b81526004016105ee91906138a7565b50600281015460408051808201909152600a8152692727aa2fa9a2a62622a960b11b6020820152906001600160a01b031633146129505760405162461bcd60e51b81526004016105ee91906138a7565b50600181015460048201546003830154612978926001600160a01b03918216929116906132aa565b6005810154156129a957600380546005830154918301546129a9926001600160a01b039182169291909116906132aa565b600681015415612a8757600681015460018201546001600160a01b039081165f9081526005602090815260408083206003870154909416835292905290812080549091906129f8908490613906565b909155505060038101546001820154600683015460405173109556515497d11254d415551157d4915195539160621b6020820152603481018690526001600160a01b0393841693909216915f80516020613c11833981519152919060540160408051601f1981840301815282825280516020918201209383528201929092520160405180910390a35f60068201555b600781015415612b6657600781015460028201546001600160a01b039081165f908152600560209081526040808320600387015490941683529290529081208054909190612ad6908490613906565b90915550506003810154600282015460078301546040517414d15313115497d11254d415551157d49151955391605a1b6020820152603581018690526001600160a01b0393841693909216915f80516020613c11833981519152919060550160408051601f1981840301815282825280516020918201209383528201929092520160405180910390a35f60078201555b80545f908152600860205260409020600381015415612c4a57600381015481546001600160a01b039081165f908152600560209081526040808320600187015490941683529290529081208054909190612bc1908490613906565b909155505060018101548154600383015484546040516d105117d093d39117d4915195539160921b6020820152602e8101919091526001600160a01b0393841693909216915f80516020613c118339815191529190604e0160408051601f1981840301815282825280516020918201209383528201929092520160405180910390a35f60038201555b60088201805460ff19908116600590811790925560048301805490911660031790555f90820181905560405184917f69833829d5691ae09424af7d16f73adf033451149ea9c2fc6fcb4c44108eef6791a281546040517f1b5620e4acda71640915df6184c97b2ef8b032a94bb3886bb01df0f3248a15c0905f90a2505050565b5f546040805180820190915260098152682727aa2fa7aba722a960b91b6020820152906001600160a01b03163314612d155760405162461bcd60e51b81526004016105ee91906138a7565b506001600160a01b038116612d5c5760405162461bcd60e51b815260206004820152600d60248201526c5a45524f5f545245415355525960981b60448201526064016105ee565b600380546001600160a01b0319166001600160a01b0383169081179091556040517f3c864541ef71378c6229510ed90f376565ee42d9c5e0904a984a9e863e6db44f905f90a250565b5f546040805180820190915260098152682727aa2fa7aba722a960b91b6020820152906001600160a01b03163314612df05760405162461bcd60e51b81526004016105ee91906138a7565b506001600160a01b038116612e345760405162461bcd60e51b815260206004820152600a6024820152692d22a927afa7aba722a960b11b60448201526064016105ee565b5f80546040516001600160a01b03808516939216917f8be0079c531659141344cd1fd0a4f28419497f9722a3daafe3b4186f6b6457e091a35f80546001600160a01b0319166001600160a01b0392909216919091179055565b5f82815260086020526040902080546001600160a01b0316612ec15760405162461bcd60e51b81526004016105ee90613919565b80546040805180820190915260098152682727aa2fa6a0a5a2a960b91b6020820152906001600160a01b03163314612f0c5760405162461bcd60e51b81526004016105ee91906138a7565b505f600482015460ff166003811115612f2757612f2761354f565b14604051806040016040528060098152602001684241445f535441544560b81b81525090612f685760405162461bcd60e51b81526004016105ee91906138a7565b5060058101546040805180820190915260098152684241445f535441544560b81b60208201529015612fad5760405162461bcd60e51b81526004016105ee91906138a7565b505f8211612fcd5760405162461bcd60e51b81526004016105ee90613b55565b6002810182905560405182815283907f703d5ab1f448a472c939c18589eafa88ac50049582a4bba8f0103382fb4704449060200160405180910390a2505050565b5f546001600160a01b03163314806130345750335f9081526001602052604090205460ff165b604051806040016040528060098152602001682727aa2fa0a226a4a760b91b815250906130745760405162461bcd60e51b81526004016105ee91906138a7565b506001600160a01b0384166130b75760405162461bcd60e51b81526020600482015260096024820152682d22a927afaaa9a2a960b91b60448201526064016105ee565b6001600160a01b0383166130dd5760405162461bcd60e51b81526004016105ee9061393f565b5f82116130fc5760405162461bcd60e51b81526004016105ee90613b55565b6001600160a01b038085165f90815260056020908152604080832093871683529290529081208054849290613132908490613906565b909155505060408051838152602081018390526001600160a01b0380861692908716915f80516020613c11833981519152910160405180910390a350505050565b60408051610120810182525f80825260208201819052918101829052606081018290526080810182905260a0810182905260c0810182905260e08101829052610100810191909152506001600160a01b0381165f90815260046020908152604091829020825161012081018452815460ff8116151580835261ffff6101008084048216858801526301000000840482168589015265010000000000909304811660608501526001850154608085015260029094015493841660a084015263ffffffff620100008504811660c0850152600160301b8504811660e0850152600160501b909404909316908201528351808501909452600e84526d1513d2d15397d11254d05093115160921b928401929092529091906132a45760405162461bcd60e51b81526004016105ee91906138a7565b50919050565b60405163a9059cbb60e01b81526001600160a01b038381166004830152602482018390525f919085169063a9059cbb906044016020604051808303815f875af11580156132f9573d5f803e3d5ffd5b505050506040513d601f19601f8201168201806040525081019061331d9190613bbf565b905080611e055760405162461bcd60e51b815260206004820152601460248201527314d0519157d514905394d1915497d1905253115160621b60448201526064016105ee565b5f8061336e84613173565b60a081015190915061ffff16156133a8576127108160a0015161ffff16846133969190613bda565b6133a09190613bf1565b9150506133af565b6080015190505b92915050565b6040516323b872dd60e01b81526001600160a01b0384811660048301528381166024830152604482018390525f91908616906323b872dd906064016020604051808303815f875af115801561340c573d5f803e3d5ffd5b505050506040513d601f19601f820116820180604052508101906134309190613bbf565b90508061347f5760405162461bcd60e51b815260206004820152601960248201527f534146455f5452414e534645525f46524f4d5f4641494c45440000000000000060448201526064016105ee565b5050505050565b5f8260200151613497578251613499565b815b9392505050565b5f82602001516134b05781613499565b50505190565b5f806134c184613173565b9050612710816060015161ffff16846134da9190613bda565b6134e49190613bf1565b949350505050565b5f806134f784613173565b90505f816040015161ffff16826020015161ffff166135169190613906565b90506127106135258286613bda565b61352f9190613bf1565b95945050505050565b5f60208284031215613548575f80fd5b5035919050565b634e487b7160e01b5f52602160045260245ffd5b600781106135735761357361354f565b9052565b8e81526001600160a01b038e811660208301528d811660408301528c166060820152608081018b905260a081018a905260c0810189905260e081018890526101c081016135c8610100830189613563565b8661012083015285610140830152846101608301526135ec61018083018515159052565b8215156101a08301529f9e505050505050505050505050505050565b6001600160a01b038881168252871515602083015286166040820152606081018590526080810184905260e08101600484106136465761364661354f565b60a082019390935260c0015295945050505050565b80356001600160a01b0381168114613671575f80fd5b919050565b5f60208284031215613686575f80fd5b6134998261365b565b801515811461369c575f80fd5b50565b5f80604083850312156136b0575f80fd5b6136b98361365b565b915060208301356136c98161368f565b809150509250929050565b5f80604083850312156136e5575f80fd5b6136ee8361365b565b91506136fc6020840161365b565b90509250929050565b5f80828403610140811215613718575f80fd5b6137218461365b565b9250610120601f1982011215613735575f80fd5b506020830190509250929050565b5f805f60608486031215613755575f80fd5b83356137608161368f565b925061376e6020850161365b565b9150604084013590509250925092565b5f806040838503121561378f575f80fd5b6137988361365b565b946020939093013593505050565b5f80604083850312156137b7575f80fd5b823591506020830135600281106136c9575f80fd5b5f80604083850312156137dd575f80fd5b50508035926020909101359150565b5f805f80608085870312156137ff575f80fd5b6138088561365b565b93506138166020860161365b565b93969395505050506040820135916060013590565b981515895261ffff97881660208a015295871660408901529386166060880152608087019290925290931660a085015263ffffffff92831660c0850152821660e0840152166101008201526101200190565b60208082526010908201526f1154d0d493d5d7d393d517d193d5539160821b604082015260600190565b5f6020808352835180828501525f5b818110156138d2578581018301518582016040015282016138b6565b505f604082860101526040601f19601f8301168501019250505092915050565b634e487b7160e01b5f52601160045260245ffd5b808201808211156133af576133af6138f2565b6020808252600c908201526b105117d393d517d193d5539160a21b604082015260600190565b6020808252600a90820152692d22a927afaa27a5a2a760b11b604082015260600190565b61ffff8116811461369c575f80fd5b5f60208284031215613982575f80fd5b813561349981613963565b5f81356133af81613963565b63ffffffff8116811461369c575f80fd5b5f81356133af81613999565b81356139c18161368f565b815490151560ff1660ff19919091161781556139fa6139e26020840161398d565b825462ffff00191660089190911b62ffff0016178255565b613a25613a096040840161398d565b825464ffff000000191660189190911b64ffff00000016178255565b613a54613a346060840161398d565b825466ffff0000000000191660289190911b66ffff000000000016178255565b6080820135600182015560028101613a84613a7160a0850161398d565b825461ffff191661ffff91909116178255565b613ab1613a9360c085016139aa565b825465ffffffff0000191660109190911b65ffffffff000016178255565b613ae6613ac060e085016139aa565b825469ffffffff000000000000191660309190911b69ffffffff00000000000016178255565b613b1a613af661010085016139aa565b82805463ffffffff60501b191660509290921b63ffffffff60501b16919091179055565b505050565b5f60208284031215613b2f575f80fd5b81356134998161368f565b5f60208284031215613b4a575f80fd5b813561349981613999565b6020808252600b908201526a16915493d7d05353d5539560aa1b604082015260600190565b5f60018201613b8b57613b8b6138f2565b5060010190565b818103818111156133af576133af6138f2565b6020810160028310613bb957613bb961354f565b91905290565b5f60208284031215613bcf575f80fd5b81516134998161368f565b80820281158282048414176133af576133af6138f2565b5f82613c0b57634e487b7160e01b5f52601260045260245ffd5b50049056fe1273b3bc238763d2765accfd266760c5513354f6778b08e51cff017e0354434fa26469706673582212203ee48c2a18bc054827ff2fd7304281b4d2fa34ee01141bec932f3da7988723b264736f6c63430008140033",
					"opcodes": "PUSH1 0x80 PUSH1 0x40 MSTORE PUSH1 0x1 PUSH1 0x6 SSTORE PUSH1 0x1 PUSH1 0x7 SSTORE CALLVALUE DUP1 ISZERO PUSH3 0x1A JUMPI PUSH0 DUP1 REVERT JUMPDEST POP PUSH1 0x40 MLOAD PUSH3 0x3D81 CODESIZE SUB DUP1 PUSH3 0x3D81 DUP4 CODECOPY DUP2 ADD PUSH1 0x40 DUP2 SWAP1 MSTORE PUSH3 0x3D SWAP2 PUSH3 0xDE JUMP JUMPDEST PUSH1 0x1 PUSH1 0x1 PUSH1 0xA0 SHL SUB DUP2 AND PUSH3 0x88 JUMPI PUSH1 0x40 MLOAD PUSH3 0x461BCD PUSH1 0xE5 SHL DUP2 MSTORE PUSH1 0x20 PUSH1 0x4 DUP3 ADD MSTORE PUSH1 0xD PUSH1 0x24 DUP3 ADD MSTORE PUSH13 0x5A45524F5F5452454153555259 PUSH1 0x98 SHL PUSH1 0x44 DUP3 ADD MSTORE PUSH1 0x64 ADD PUSH1 0x40 MLOAD DUP1 SWAP2 SUB SWAP1 REVERT JUMPDEST PUSH0 DUP1 SLOAD PUSH1 0x1 PUSH1 0x1 PUSH1 0xA0 SHL SUB NOT SWAP1 DUP2 AND CALLER OR DUP3 SSTORE PUSH1 0x3 DUP1 SLOAD PUSH1 0x1 PUSH1 0x1 PUSH1 0xA0 SHL SUB DUP6 AND SWAP3 AND DUP3 OR SWAP1 SSTORE PUSH1 0x40 MLOAD SWAP1 SWAP2 PUSH32 0x3C864541EF71378C6229510ED90F376565EE42D9C5E0904A984A9E863E6DB44F SWAP2 LOG2 POP PUSH3 0x10D JUMP JUMPDEST PUSH0 PUSH1 0x20 DUP3 DUP5 SUB SLT ISZERO PUSH3 0xEF JUMPI PUSH0 DUP1 REVERT JUMPDEST DUP2 MLOAD PUSH1 0x1 PUSH1 0x1 PUSH1 0xA0 SHL SUB DUP2 AND DUP2 EQ PUSH3 0x106 JUMPI PUSH0 DUP1 REVERT JUMPDEST SWAP4 SWAP3 POP POP POP JUMP JUMPDEST PUSH2 0x3C66 DUP1 PUSH3 0x11B PUSH0 CODECOPY PUSH0 RETURN INVALID PUSH1 0x80 PUSH1 0x40 MSTORE CALLVALUE DUP1 ISZERO PUSH2 0xF JUMPI PUSH0 DUP1 REVERT JUMPDEST POP PUSH1 0x4 CALLDATASIZE LT PUSH2 0x1C6 JUMPI PUSH0 CALLDATALOAD PUSH1 0xE0 SHR DUP1 PUSH4 0x876CA09F GT PUSH2 0xFE JUMPI DUP1 PUSH4 0xC9C31AF5 GT PUSH2 0x9E JUMPI DUP1 PUSH4 0xF2FDE38B GT PUSH2 0x6E JUMPI DUP1 PUSH4 0xF2FDE38B EQ PUSH2 0x4FB JUMPI DUP1 PUSH4 0xF4F8B266 EQ PUSH2 0x50E JUMPI DUP1 PUSH4 0xFB90FB4A EQ PUSH2 0x521 JUMPI DUP1 PUSH4 0xFE136C4E EQ PUSH2 0x534 JUMPI PUSH0 DUP1 REVERT JUMPDEST DUP1 PUSH4 0xC9C31AF5 EQ PUSH2 0x4AF JUMPI DUP1 PUSH4 0xE55E4211 EQ PUSH2 0x4C2 JUMPI DUP1 PUSH4 0xED653164 EQ PUSH2 0x4D5 JUMPI DUP1 PUSH4 0xF0F44260 EQ PUSH2 0x4E8 JUMPI PUSH0 DUP1 REVERT JUMPDEST DUP1 PUSH4 0x9F6BD2A9 GT PUSH2 0xD9 JUMPI DUP1 PUSH4 0x9F6BD2A9 EQ PUSH2 0x454 JUMPI DUP1 PUSH4 0xAF4D7C6F EQ PUSH2 0x476 JUMPI DUP1 PUSH4 0xC15E23E1 EQ PUSH2 0x489 JUMPI DUP1 PUSH4 0xC3A7A61A EQ PUSH2 0x49C JUMPI PUSH0 DUP1 REVERT JUMPDEST DUP1 PUSH4 0x876CA09F EQ PUSH2 0x426 JUMPI DUP1 PUSH4 0x89CB29DD EQ PUSH2 0x439 JUMPI DUP1 PUSH4 0x8DA5CB5B EQ PUSH2 0x442 JUMPI PUSH0 DUP1 REVERT JUMPDEST DUP1 PUSH4 0x354C5E01 GT PUSH2 0x169 JUMPI DUP1 PUSH4 0x4C3FC8AD GT PUSH2 0x144 JUMPI DUP1 PUSH4 0x4C3FC8AD EQ PUSH2 0x3C2 JUMPI DUP1 PUSH4 0x4D4D4265 EQ PUSH2 0x3D5 JUMPI DUP1 PUSH4 0x502B7469 EQ PUSH2 0x3E8 JUMPI DUP1 PUSH4 0x61D027B3 EQ PUSH2 0x3FB JUMPI PUSH0 DUP1 REVERT JUMPDEST DUP1 PUSH4 0x354C5E01 EQ PUSH2 0x389 JUMPI DUP1 PUSH4 0x3F11710B EQ PUSH2 0x39C JUMPI DUP1 PUSH4 0x4B0BDDD2 EQ PUSH2 0x3AF JUMPI PUSH0 DUP1 REVERT JUMPDEST DUP1 PUSH4 0x24D7806C GT PUSH2 0x1A4 JUMPI DUP1 PUSH4 0x24D7806C EQ PUSH2 0x305 JUMPI DUP1 PUSH4 0x27D00FB0 EQ PUSH2 0x337 JUMPI DUP1 PUSH4 0x2BC0B076 EQ PUSH2 0x34C JUMPI DUP1 PUSH4 0x3219ABE4 EQ PUSH2 0x35F JUMPI PUSH0 DUP1 REVERT JUMPDEST DUP1 PUSH4 0x12F52EE EQ PUSH2 0x1CA JUMPI DUP1 PUSH4 0x11A7A4C0 EQ PUSH2 0x281 JUMPI DUP1 PUSH4 0x1A8BB68D EQ PUSH2 0x2EE JUMPI JUMPDEST PUSH0 DUP1 REVERT JUMPDEST PUSH2 0x25E PUSH2 0x1D8 CALLDATASIZE PUSH1 0x4 PUSH2 0x3538 JUMP JUMPDEST PUSH1 0x9 PUSH1 0x20 DUP2 SWAP1 MSTORE PUSH0 SWAP2 DUP3 MSTORE PUSH1 0x40 SWAP1 SWAP2 KECCAK256 DUP1 SLOAD PUSH1 0x1 DUP3 ADD SLOAD PUSH1 0x2 DUP4 ADD SLOAD PUSH1 0x3 DUP5 ADD SLOAD PUSH1 0x4 DUP6 ADD SLOAD PUSH1 0x5 DUP7 ADD SLOAD PUSH1 0x6 DUP8 ADD SLOAD PUSH1 0x7 DUP9 ADD SLOAD PUSH1 0x8 DUP10 ADD SLOAD SWAP10 DUP10 ADD SLOAD PUSH1 0xA DUP11 ADD SLOAD PUSH1 0xB DUP12 ADD SLOAD PUSH1 0xC SWAP1 SWAP12 ADD SLOAD SWAP10 SWAP12 PUSH1 0x1 PUSH1 0x1 PUSH1 0xA0 SHL SUB SWAP10 DUP11 AND SWAP12 SWAP9 DUP11 AND SWAP11 SWAP8 SWAP1 SWAP10 AND SWAP9 SWAP6 SWAP8 SWAP5 SWAP7 SWAP4 SWAP6 SWAP3 SWAP5 PUSH1 0xFF SWAP4 DUP5 AND SWAP5 SWAP3 SWAP4 SWAP2 SWAP3 SWAP1 SWAP2 DUP2 DUP2 AND SWAP2 PUSH2 0x100 SWAP1 DIV AND DUP15 JUMP JUMPDEST PUSH1 0x40 MLOAD PUSH2 0x278 SWAP15 SWAP14 SWAP13 SWAP12 SWAP11 SWAP10 SWAP9 SWAP8 SWAP7 SWAP6 SWAP5 SWAP4 SWAP3 SWAP2 SWAP1 PUSH2 0x3577 JUMP JUMPDEST PUSH1 0x40 MLOAD DUP1 SWAP2 SUB SWAP1 RETURN JUMPDEST PUSH2 0x2DB PUSH2 0x28F CALLDATASIZE PUSH1 0x4 PUSH2 0x3538 JUMP JUMPDEST PUSH1 0x8 PUSH1 0x20 MSTORE PUSH0 SWAP1 DUP2 MSTORE PUSH1 0x40 SWAP1 KECCAK256 DUP1 SLOAD PUSH1 0x1 DUP3 ADD SLOAD PUSH1 0x2 DUP4 ADD SLOAD PUSH1 0x3 DUP5 ADD SLOAD PUSH1 0x4 DUP6 ADD SLOAD PUSH1 0x5 SWAP1 SWAP6 ADD SLOAD PUSH1 0x1 PUSH1 0x1 PUSH1 0xA0 SHL SUB DUP1 DUP7 AND SWAP7 PUSH1 0xFF PUSH1 0x1 PUSH1 0xA0 SHL SWAP1 SWAP8 DIV DUP8 AND SWAP7 SWAP6 SWAP1 SWAP2 AND SWAP5 AND SWAP1 DUP8 JUMP JUMPDEST PUSH1 0x40 MLOAD PUSH2 0x278 SWAP8 SWAP7 SWAP6 SWAP5 SWAP4 SWAP3 SWAP2 SWAP1 PUSH2 0x3608 JUMP JUMPDEST PUSH2 0x2F7 PUSH1 0x6 SLOAD DUP2 JUMP JUMPDEST PUSH1 0x40 MLOAD SWAP1 DUP2 MSTORE PUSH1 0x20 ADD PUSH2 0x278 JUMP JUMPDEST PUSH2 0x327 PUSH2 0x313 CALLDATASIZE PUSH1 0x4 PUSH2 0x3676 JUMP JUMPDEST PUSH1 0x1 PUSH1 0x20 MSTORE PUSH0 SWAP1 DUP2 MSTORE PUSH1 0x40 SWAP1 KECCAK256 SLOAD PUSH1 0xFF AND DUP2 JUMP JUMPDEST PUSH1 0x40 MLOAD SWAP1 ISZERO ISZERO DUP2 MSTORE PUSH1 0x20 ADD PUSH2 0x278 JUMP JUMPDEST PUSH2 0x34A PUSH2 0x345 CALLDATASIZE PUSH1 0x4 PUSH2 0x3538 JUMP JUMPDEST PUSH2 0x5C0 JUMP JUMPDEST STOP JUMPDEST PUSH2 0x34A PUSH2 0x35A CALLDATASIZE PUSH1 0x4 PUSH2 0x369F JUMP JUMPDEST PUSH2 0x756 JUMP JUMPDEST PUSH2 0x2F7 PUSH2 0x36D CALLDATASIZE PUSH1 0x4 PUSH2 0x36D4 JUMP JUMPDEST PUSH1 0x5 PUSH1 0x20 SWAP1 DUP2 MSTORE PUSH0 SWAP3 DUP4 MSTORE PUSH1 0x40 DUP1 DUP5 KECCAK256 SWAP1 SWAP2 MSTORE SWAP1 DUP3 MSTORE SWAP1 KECCAK256 SLOAD DUP2 JUMP JUMPDEST PUSH2 0x34A PUSH2 0x397 CALLDATASIZE PUSH1 0x4 PUSH2 0x3538 JUMP JUMPDEST PUSH2 0x81C JUMP JUMPDEST PUSH2 0x34A PUSH2 0x3AA CALLDATASIZE PUSH1 0x4 PUSH2 0x3538 JUMP JUMPDEST PUSH2 0xB0C JUMP JUMPDEST PUSH2 0x34A PUSH2 0x3BD CALLDATASIZE PUSH1 0x4 PUSH2 0x369F JUMP JUMPDEST PUSH2 0xCA0 JUMP JUMPDEST PUSH2 0x34A PUSH2 0x3D0 CALLDATASIZE PUSH1 0x4 PUSH2 0x3705 JUMP JUMPDEST PUSH2 0xD43 JUMP JUMPDEST PUSH2 0x2F7 PUSH2 0x3E3 CALLDATASIZE PUSH1 0x4 PUSH2 0x3743 JUMP JUMPDEST PUSH2 0xFAC JUMP JUMPDEST PUSH2 0x34A PUSH2 0x3F6 CALLDATASIZE PUSH1 0x4 PUSH2 0x377E JUMP JUMPDEST PUSH2 0x119F JUMP JUMPDEST PUSH1 0x3 SLOAD PUSH2 0x40E SWAP1 PUSH1 0x1 PUSH1 0x1 PUSH1 0xA0 SHL SUB AND DUP2 JUMP JUMPDEST PUSH1 0x40 MLOAD PUSH1 0x1 PUSH1 0x1 PUSH1 0xA0 SHL SUB SWAP1 SWAP2 AND DUP2 MSTORE PUSH1 0x20 ADD PUSH2 0x278 JUMP JUMPDEST PUSH2 0x34A PUSH2 0x434 CALLDATASIZE PUSH1 0x4 PUSH2 0x3538 JUMP JUMPDEST PUSH2 0x12CE JUMP JUMPDEST PUSH2 0x2F7 PUSH1 0x7 SLOAD DUP2 JUMP JUMPDEST PUSH0 SLOAD PUSH2 0x40E SWAP1 PUSH1 0x1 PUSH1 0x1 PUSH1 0xA0 SHL SUB AND DUP2 JUMP JUMPDEST PUSH2 0x327 PUSH2 0x462 CALLDATASIZE PUSH1 0x4 PUSH2 0x3676 JUMP JUMPDEST PUSH1 0x2 PUSH1 0x20 MSTORE PUSH0 SWAP1 DUP2 MSTORE PUSH1 0x40 SWAP1 KECCAK256 SLOAD PUSH1 0xFF AND DUP2 JUMP JUMPDEST PUSH2 0x2F7 PUSH2 0x484 CALLDATASIZE PUSH1 0x4 PUSH2 0x3538 JUMP JUMPDEST PUSH2 0x146C JUMP JUMPDEST PUSH2 0x34A PUSH2 0x497 CALLDATASIZE PUSH1 0x4 PUSH2 0x3538 JUMP JUMPDEST PUSH2 0x1947 JUMP JUMPDEST PUSH2 0x327 PUSH2 0x4AA CALLDATASIZE PUSH1 0x4 PUSH2 0x3538 JUMP JUMPDEST PUSH2 0x1E0B JUMP JUMPDEST PUSH2 0x34A PUSH2 0x4BD CALLDATASIZE PUSH1 0x4 PUSH2 0x3538 JUMP JUMPDEST PUSH2 0x1F48 JUMP JUMPDEST PUSH2 0x34A PUSH2 0x4D0 CALLDATASIZE PUSH1 0x4 PUSH2 0x37A6 JUMP JUMPDEST PUSH2 0x2292 JUMP JUMPDEST PUSH2 0x34A PUSH2 0x4E3 CALLDATASIZE PUSH1 0x4 PUSH2 0x3538 JUMP JUMPDEST PUSH2 0x2876 JUMP JUMPDEST PUSH2 0x34A PUSH2 0x4F6 CALLDATASIZE PUSH1 0x4 PUSH2 0x3676 JUMP JUMPDEST PUSH2 0x2CCA JUMP JUMPDEST PUSH2 0x34A PUSH2 0x509 CALLDATASIZE PUSH1 0x4 PUSH2 0x3676 JUMP JUMPDEST PUSH2 0x2DA5 JUMP JUMPDEST PUSH2 0x34A PUSH2 0x51C CALLDATASIZE PUSH1 0x4 PUSH2 0x37CC JUMP JUMPDEST PUSH2 0x2E8D JUMP JUMPDEST PUSH2 0x34A PUSH2 0x52F CALLDATASIZE PUSH1 0x4 PUSH2 0x37EC JUMP JUMPDEST PUSH2 0x300E JUMP JUMPDEST PUSH2 0x5AB PUSH2 0x542 CALLDATASIZE PUSH1 0x4 PUSH2 0x3676 JUMP JUMPDEST PUSH1 0x4 PUSH1 0x20 MSTORE PUSH0 SWAP1 DUP2 MSTORE PUSH1 0x40 SWAP1 KECCAK256 DUP1 SLOAD PUSH1 0x1 DUP3 ADD SLOAD PUSH1 0x2 SWAP1 SWAP3 ADD SLOAD PUSH1 0xFF DUP3 AND SWAP3 PUSH2 0xFFFF PUSH2 0x100 DUP5 DIV DUP2 AND SWAP4 PUSH4 0x1000000 DUP2 DIV DUP3 AND SWAP4 PUSH6 0x10000000000 SWAP1 SWAP2 DIV DUP3 AND SWAP3 SWAP2 DUP2 AND SWAP1 PUSH4 0xFFFFFFFF PUSH3 0x10000 DUP3 DIV DUP2 AND SWAP2 PUSH1 0x1 PUSH1 0x30 SHL DUP2 DIV DUP3 AND SWAP2 PUSH1 0x1 PUSH1 0x50 SHL SWAP1 SWAP2 DIV AND DUP10 JUMP JUMPDEST PUSH1 0x40 MLOAD PUSH2 0x278 SWAP10 SWAP9 SWAP8 SWAP7 SWAP6 SWAP5 SWAP4 SWAP3 SWAP2 SWAP1 PUSH2 0x382B JUMP JUMPDEST PUSH0 DUP2 DUP2 MSTORE PUSH1 0x9 PUSH1 0x20 MSTORE PUSH1 0x40 DUP2 KECCAK256 DUP1 SLOAD SWAP1 SWAP2 SUB PUSH2 0x5F7 JUMPI PUSH1 0x40 MLOAD PUSH3 0x461BCD PUSH1 0xE5 SHL DUP2 MSTORE PUSH1 0x4 ADD PUSH2 0x5EE SWAP1 PUSH2 0x387D JUMP JUMPDEST PUSH1 0x40 MLOAD DUP1 SWAP2 SUB SWAP1 REVERT JUMPDEST PUSH1 0x3 PUSH1 0x8 DUP3 ADD SLOAD PUSH1 0xFF AND PUSH1 0x6 DUP2 GT ISZERO PUSH2 0x612 JUMPI PUSH2 0x612 PUSH2 0x354F JUMP JUMPDEST EQ PUSH1 0x40 MLOAD DUP1 PUSH1 0x40 ADD PUSH1 0x40 MSTORE DUP1 PUSH1 0x9 DUP2 MSTORE PUSH1 0x20 ADD PUSH9 0x4241445F5354415445 PUSH1 0xB8 SHL DUP2 MSTORE POP SWAP1 PUSH2 0x653 JUMPI PUSH1 0x40 MLOAD PUSH3 0x461BCD PUSH1 0xE5 SHL DUP2 MSTORE PUSH1 0x4 ADD PUSH2 0x5EE SWAP2 SWAP1 PUSH2 0x38A7 JUMP JUMPDEST POP PUSH1 0x1 DUP2 ADD SLOAD PUSH1 0x1 PUSH1 0x1 PUSH1 0xA0 SHL SUB AND CALLER EQ DUP1 PUSH2 0x67B JUMPI POP PUSH1 0x2 DUP2 ADD SLOAD PUSH1 0x1 PUSH1 0x1 PUSH1 0xA0 SHL SUB AND CALLER EQ JUMPDEST PUSH2 0x6B9 JUMPI PUSH1 0x40 MLOAD PUSH3 0x461BCD PUSH1 0xE5 SHL DUP2 MSTORE PUSH1 0x20 PUSH1 0x4 DUP3 ADD MSTORE PUSH1 0xF PUSH1 0x24 DUP3 ADD MSTORE PUSH15 0x1393D517D41054951250D254105395 PUSH1 0x8A SHL PUSH1 0x44 DUP3 ADD MSTORE PUSH1 0x64 ADD PUSH2 0x5EE JUMP JUMPDEST PUSH1 0xC DUP2 ADD SLOAD PUSH1 0x40 DUP1 MLOAD DUP1 DUP3 ADD SWAP1 SWAP2 MSTORE PUSH1 0xE DUP2 MSTORE PUSH14 0x444953505554455F455849535453 PUSH1 0x90 SHL PUSH1 0x20 DUP3 ADD MSTORE SWAP1 PUSH1 0xFF AND ISZERO PUSH2 0x705 JUMPI PUSH1 0x40 MLOAD PUSH3 0x461BCD PUSH1 0xE5 SHL DUP2 MSTORE PUSH1 0x4 ADD PUSH2 0x5EE SWAP2 SWAP1 PUSH2 0x38A7 JUMP JUMPDEST POP PUSH1 0x8 DUP2 ADD DUP1 SLOAD PUSH1 0xFF NOT SWAP1 DUP2 AND PUSH1 0x4 OR SWAP1 SWAP2 SSTORE PUSH1 0xC DUP3 ADD DUP1 SLOAD SWAP1 SWAP2 AND PUSH1 0x1 OR SWAP1 SSTORE PUSH1 0x40 MLOAD CALLER SWAP1 DUP4 SWAP1 PUSH32 0x44F3C3ED15C708331582BC379D28659A58F183A563ABE41AA4C8889DB469F71C SWAP1 PUSH0 SWAP1 LOG3 POP POP JUMP JUMPDEST PUSH0 SLOAD PUSH1 0x1 PUSH1 0x1 PUSH1 0xA0 SHL SUB AND CALLER EQ DUP1 PUSH2 0x77C JUMPI POP CALLER PUSH0 SWAP1 DUP2 MSTORE PUSH1 0x1 PUSH1 0x20 MSTORE PUSH1 0x40 SWAP1 KECCAK256 SLOAD PUSH1 0xFF AND JUMPDEST PUSH1 0x40 MLOAD DUP1 PUSH1 0x40 ADD PUSH1 0x40 MSTORE DUP1 PUSH1 0x9 DUP2 MSTORE PUSH1 0x20 ADD PUSH9 0x2727AA2FA0A226A4A7 PUSH1 0xB9 SHL DUP2 MSTORE POP SWAP1 PUSH2 0x7BC JUMPI PUSH1 0x40 MLOAD PUSH3 0x461BCD PUSH1 0xE5 SHL DUP2 MSTORE PUSH1 0x4 ADD PUSH2 0x5EE SWAP2 SWAP1 PUSH2 0x38A7 JUMP JUMPDEST POP PUSH1 0x1 PUSH1 0x1 PUSH1 0xA0 SHL SUB DUP3 AND PUSH0 DUP2 DUP2 MSTORE PUSH1 0x2 PUSH1 0x20 SWAP1 DUP2 MSTORE PUSH1 0x40 SWAP2 DUP3 SWAP1 KECCAK256 DUP1 SLOAD PUSH1 0xFF NOT AND DUP6 ISZERO ISZERO SWAP1 DUP2 OR SWAP1 SWAP2 SSTORE SWAP2 MLOAD SWAP2 DUP3 MSTORE PUSH32 0x7E703270DD349AA2AFCA0F59467C19B0C4F7029C7057D0FAD2FC0223E6CAE5E SWAP2 ADD JUMPDEST PUSH1 0x40 MLOAD DUP1 SWAP2 SUB SWAP1 LOG2 POP POP JUMP JUMPDEST PUSH0 DUP2 DUP2 MSTORE PUSH1 0x9 PUSH1 0x20 MSTORE PUSH1 0x40 DUP2 KECCAK256 DUP1 SLOAD SWAP1 SWAP2 SUB PUSH2 0x84A JUMPI PUSH1 0x40 MLOAD PUSH3 0x461BCD PUSH1 0xE5 SHL DUP2 MSTORE PUSH1 0x4 ADD PUSH2 0x5EE SWAP1 PUSH2 0x387D JUMP JUMPDEST PUSH1 0x2 PUSH1 0x8 DUP3 ADD SLOAD PUSH1 0xFF AND PUSH1 0x6 DUP2 GT ISZERO PUSH2 0x865 JUMPI PUSH2 0x865 PUSH2 0x354F JUMP JUMPDEST EQ PUSH1 0x40 MLOAD DUP1 PUSH1 0x40 ADD PUSH1 0x40 MSTORE DUP1 PUSH1 0x9 DUP2 MSTORE PUSH1 0x20 ADD PUSH9 0x4241445F5354415445 PUSH1 0xB8 SHL DUP2 MSTORE POP SWAP1 PUSH2 0x8A6 JUMPI PUSH1 0x40 MLOAD PUSH3 0x461BCD PUSH1 0xE5 SHL DUP2 MSTORE PUSH1 0x4 ADD PUSH2 0x5EE SWAP2 SWAP1 PUSH2 0x38A7 JUMP JUMPDEST POP PUSH1 0x3 DUP2 ADD SLOAD PUSH0 SWAP1 PUSH2 0x8C0 SWAP1 PUSH1 0x1 PUSH1 0x1 PUSH1 0xA0 SHL SUB AND PUSH2 0x3173 JUMP JUMPDEST SWAP1 POP DUP1 PUSH1 0xE0 ADD MLOAD PUSH4 0xFFFFFFFF AND DUP3 PUSH1 0xA ADD SLOAD PUSH2 0x8DC SWAP2 SWAP1 PUSH2 0x3906 JUMP JUMPDEST TIMESTAMP GT PUSH1 0x40 MLOAD DUP1 PUSH1 0x40 ADD PUSH1 0x40 MSTORE DUP1 PUSH1 0x12 DUP2 MSTORE PUSH1 0x20 ADD PUSH18 0x15D2539113D5D7D393D517D1561412549151 PUSH1 0x72 SHL DUP2 MSTORE POP SWAP1 PUSH2 0x927 JUMPI PUSH1 0x40 MLOAD PUSH3 0x461BCD PUSH1 0xE5 SHL DUP2 MSTORE PUSH1 0x4 ADD PUSH2 0x5EE SWAP2 SWAP1 PUSH2 0x38A7 JUMP JUMPDEST POP DUP2 SLOAD PUSH0 SWAP1 DUP2 MSTORE PUSH1 0x8 PUSH1 0x20 SWAP1 DUP2 MSTORE PUSH1 0x40 SWAP2 DUP3 SWAP1 KECCAK256 PUSH1 0x5 DUP2 ADD SLOAD DUP4 MLOAD DUP1 DUP6 ADD SWAP1 SWAP5 MSTORE PUSH1 0xF DUP5 MSTORE PUSH15 0x8AA686A49EAEBE9A92A69A82A8869 PUSH1 0x8B SHL SWAP3 DUP5 ADD SWAP3 SWAP1 SWAP3 MSTORE SWAP2 SWAP1 DUP6 EQ PUSH2 0x987 JUMPI PUSH1 0x40 MLOAD PUSH3 0x461BCD PUSH1 0xE5 SHL DUP2 MSTORE PUSH1 0x4 ADD PUSH2 0x5EE SWAP2 SWAP1 PUSH2 0x38A7 JUMP JUMPDEST POP PUSH1 0x1 PUSH1 0x4 DUP3 ADD SLOAD PUSH1 0xFF AND PUSH1 0x3 DUP2 GT ISZERO PUSH2 0x9A3 JUMPI PUSH2 0x9A3 PUSH2 0x354F JUMP JUMPDEST EQ PUSH1 0x40 MLOAD DUP1 PUSH1 0x40 ADD PUSH1 0x40 MSTORE DUP1 PUSH1 0x9 DUP2 MSTORE PUSH1 0x20 ADD PUSH9 0x4241445F5354415445 PUSH1 0xB8 SHL DUP2 MSTORE POP SWAP1 PUSH2 0x9E4 JUMPI PUSH1 0x40 MLOAD PUSH3 0x461BCD PUSH1 0xE5 SHL DUP2 MSTORE PUSH1 0x4 ADD PUSH2 0x5EE SWAP2 SWAP1 PUSH2 0x38A7 JUMP JUMPDEST POP PUSH1 0x6 DUP4 ADD SLOAD ISZERO PUSH2 0xA1D JUMPI PUSH1 0x3 DUP1 SLOAD PUSH1 0x6 DUP6 ADD SLOAD SWAP2 DUP6 ADD SLOAD PUSH2 0xA16 SWAP3 PUSH1 0x1 PUSH1 0x1 PUSH1 0xA0 SHL SUB SWAP2 DUP3 AND SWAP3 SWAP2 SWAP1 SWAP2 AND SWAP1 PUSH2 0x32AA JUMP JUMPDEST PUSH0 PUSH1 0x6 DUP5 ADD SSTORE JUMPDEST PUSH0 DUP4 PUSH1 0x7 ADD SLOAD DUP5 PUSH1 0x5 ADD SLOAD DUP6 PUSH1 0x4 ADD SLOAD PUSH2 0xA37 SWAP2 SWAP1 PUSH2 0x3906 JUMP JUMPDEST PUSH2 0xA41 SWAP2 SWAP1 PUSH2 0x3906 JUMP JUMPDEST SWAP1 POP DUP1 ISZERO PUSH2 0xA6A JUMPI PUSH1 0x2 DUP5 ADD SLOAD PUSH1 0x3 DUP6 ADD SLOAD PUSH2 0xA6A SWAP2 PUSH1 0x1 PUSH1 0x1 PUSH1 0xA0 SHL SUB SWAP2 DUP3 AND SWAP2 AND DUP4 PUSH2 0x32AA JUMP JUMPDEST PUSH0 PUSH1 0x4 DUP6 DUP2 ADD DUP3 SWAP1 SSTORE PUSH1 0x5 DUP1 DUP8 ADD DUP4 SWAP1 SSTORE PUSH1 0x7 DUP8 ADD DUP4 SWAP1 SSTORE PUSH1 0x8 DUP8 ADD DUP1 SLOAD PUSH1 0x6 PUSH1 0xFF NOT SWAP2 DUP3 AND OR SWAP1 SWAP2 SSTORE SWAP2 DUP6 ADD DUP1 SLOAD SWAP1 SWAP3 AND SWAP1 SWAP2 SSTORE DUP4 ADD SSTORE PUSH1 0x40 DUP1 MLOAD PUSH1 0x20 DUP1 DUP3 MSTORE PUSH1 0x18 SWAP1 DUP3 ADD MSTORE PUSH32 0x42555945525F4E4F5F434F4E4649524D5F464F52464549540000000000000000 DUP2 DUP4 ADD MSTORE SWAP1 MLOAD DUP7 SWAP2 PUSH32 0xDF5AF23A8BFBD700E381C19607D03504D7A5BA1876C669CCCD37FEACE1F5ADAA SWAP2 SWAP1 DUP2 SWAP1 SUB PUSH1 0x60 ADD SWAP1 LOG2 POP POP POP POP POP JUMP JUMPDEST PUSH0 DUP2 DUP2 MSTORE PUSH1 0x8 PUSH1 0x20 MSTORE PUSH1 0x40 SWAP1 KECCAK256 DUP1 SLOAD PUSH1 0x1 PUSH1 0x1 PUSH1 0xA0 SHL SUB AND PUSH2 0xB40 JUMPI PUSH1 0x40 MLOAD PUSH3 0x461BCD PUSH1 0xE5 SHL DUP2 MSTORE PUSH1 0x4 ADD PUSH2 0x5EE SWAP1 PUSH2 0x3919 JUMP JUMPDEST DUP1 SLOAD PUSH1 0x40 DUP1 MLOAD DUP1 DUP3 ADD SWAP1 SWAP2 MSTORE PUSH1 0x9 DUP2 MSTORE PUSH9 0x2727AA2FA6A0A5A2A9 PUSH1 0xB9 SHL PUSH1 0x20 DUP3 ADD MSTORE SWAP1 PUSH1 0x1 PUSH1 0x1 PUSH1 0xA0 SHL SUB AND CALLER EQ PUSH2 0xB8B JUMPI PUSH1 0x40 MLOAD PUSH3 0x461BCD PUSH1 0xE5 SHL DUP2 MSTORE PUSH1 0x4 ADD PUSH2 0x5EE SWAP2 SWAP1 PUSH2 0x38A7 JUMP JUMPDEST POP PUSH0 PUSH1 0x4 DUP3 ADD SLOAD PUSH1 0xFF AND PUSH1 0x3 DUP2 GT ISZERO PUSH2 0xBA6 JUMPI PUSH2 0xBA6 PUSH2 0x354F JUMP JUMPDEST EQ PUSH1 0x40 MLOAD DUP1 PUSH1 0x40 ADD PUSH1 0x40 MSTORE DUP1 PUSH1 0x9 DUP2 MSTORE PUSH1 0x20 ADD PUSH9 0x4241445F5354415445 PUSH1 0xB8 SHL DUP2 MSTORE POP SWAP1 PUSH2 0xBE7 JUMPI PUSH1 0x40 MLOAD PUSH3 0x461BCD PUSH1 0xE5 SHL DUP2 MSTORE PUSH1 0x4 ADD PUSH2 0x5EE SWAP2 SWAP1 PUSH2 0x38A7 JUMP JUMPDEST POP PUSH1 0x5 DUP2 ADD SLOAD PUSH1 0x40 DUP1 MLOAD DUP1 DUP3 ADD SWAP1 SWAP2 MSTORE PUSH1 0x9 DUP2 MSTORE PUSH9 0x4241445F5354415445 PUSH1 0xB8 SHL PUSH1 0x20 DUP3 ADD MSTORE SWAP1 ISZERO PUSH2 0xC2C JUMPI PUSH1 0x40 MLOAD PUSH3 0x461BCD PUSH1 0xE5 SHL DUP2 MSTORE PUSH1 0x4 ADD PUSH2 0x5EE SWAP2 SWAP1 PUSH2 0x38A7 JUMP JUMPDEST POP PUSH1 0x4 DUP2 ADD DUP1 SLOAD PUSH1 0xFF NOT AND PUSH1 0x2 OR SWAP1 SSTORE PUSH1 0x3 DUP2 ADD SLOAD ISZERO PUSH2 0xC72 JUMPI PUSH1 0x3 DUP1 SLOAD SWAP1 DUP3 ADD SLOAD PUSH1 0x1 DUP4 ADD SLOAD PUSH2 0xC6B SWAP3 PUSH1 0x1 PUSH1 0x1 PUSH1 0xA0 SHL SUB SWAP2 DUP3 AND SWAP3 SWAP2 AND SWAP1 PUSH2 0x32AA JUMP JUMPDEST PUSH0 PUSH1 0x3 DUP3 ADD SSTORE JUMPDEST PUSH1 0x40 MLOAD DUP3 SWAP1 PUSH32 0x20E953810446BFEC422C45A49B30C7B446BC121960D6568E36A20016140F86B7 SWAP1 PUSH0 SWAP1 LOG2 POP POP JUMP JUMPDEST PUSH0 SLOAD PUSH1 0x40 DUP1 MLOAD DUP1 DUP3 ADD SWAP1 SWAP2 MSTORE PUSH1 0x9 DUP2 MSTORE PUSH9 0x2727AA2FA7ABA722A9 PUSH1 0xB9 SHL PUSH1 0x20 DUP3 ADD MSTORE SWAP1 PUSH1 0x1 PUSH1 0x1 PUSH1 0xA0 SHL SUB AND CALLER EQ PUSH2 0xCEB JUMPI PUSH1 0x40 MLOAD PUSH3 0x461BCD PUSH1 0xE5 SHL DUP2 MSTORE PUSH1 0x4 ADD PUSH2 0x5EE SWAP2 SWAP1 PUSH2 0x38A7 JUMP JUMPDEST POP PUSH1 0x1 PUSH1 0x1 PUSH1 0xA0 SHL SUB DUP3 AND PUSH0 DUP2 DUP2 MSTORE PUSH1 0x1 PUSH1 0x20 SWAP1 DUP2 MSTORE PUSH1 0x40 SWAP2 DUP3 SWAP1 KECCAK256 DUP1 SLOAD PUSH1 0xFF NOT AND DUP6 ISZERO ISZERO SWAP1 DUP2 OR SWAP1 SWAP2 SSTORE SWAP2 MLOAD SWAP2 DUP3 MSTORE PUSH32 0xE68D2C359A771606C400CF8B87000CF5864010363D6A736E98F5047B7BBE18E9 SWAP2 ADD PUSH2 0x810 JUMP JUMPDEST PUSH0 SLOAD PUSH1 0x1 PUSH1 0x1 PUSH1 0xA0 SHL SUB AND CALLER EQ DUP1 PUSH2 0xD69 JUMPI POP CALLER PUSH0 SWAP1 DUP2 MSTORE PUSH1 0x1 PUSH1 0x20 MSTORE PUSH1 0x40 SWAP1 KECCAK256 SLOAD PUSH1 0xFF AND JUMPDEST PUSH1 0x40 MLOAD DUP1 PUSH1 0x40 ADD PUSH1 0x40 MSTORE DUP1 PUSH1 0x9 DUP2 MSTORE PUSH1 0x20 ADD PUSH9 0x2727AA2FA0A226A4A7 PUSH1 0xB9 SHL DUP2 MSTORE POP SWAP1 PUSH2 0xDA9 JUMPI PUSH1 0x40 MLOAD PUSH3 0x461BCD PUSH1 0xE5 SHL DUP2 MSTORE PUSH1 0x4 ADD PUSH2 0x5EE SWAP2 SWAP1 PUSH2 0x38A7 JUMP JUMPDEST POP PUSH1 0x1 PUSH1 0x1 PUSH1 0xA0 SHL SUB DUP3 AND PUSH2 0xDD0 JUMPI PUSH1 0x40 MLOAD PUSH3 0x461BCD PUSH1 0xE5 SHL DUP2 MSTORE PUSH1 0x4 ADD PUSH2 0x5EE SWAP1 PUSH2 0x393F JUMP JUMPDEST PUSH2 0x2710 PUSH2 0xDE3 PUSH1 0x40 DUP4 ADD PUSH1 0x20 DUP5 ADD PUSH2 0x3972 JUMP JUMPDEST PUSH2 0xFFFF AND GT ISZERO DUP1 ISZERO PUSH2 0xE0A JUMPI POP PUSH2 0x2710 PUSH2 0xE03 PUSH1 0x60 DUP4 ADD PUSH1 0x40 DUP5 ADD PUSH2 0x3972 JUMP JUMPDEST PUSH2 0xFFFF AND GT ISZERO JUMPDEST PUSH1 0x40 MLOAD DUP1 PUSH1 0x40 ADD PUSH1 0x40 MSTORE DUP1 PUSH1 0x7 DUP2 MSTORE PUSH1 0x20 ADD PUSH7 0x4241445F425053 PUSH1 0xC8 SHL DUP2 MSTORE POP SWAP1 PUSH2 0xE48 JUMPI PUSH1 0x40 MLOAD PUSH3 0x461BCD PUSH1 0xE5 SHL DUP2 MSTORE PUSH1 0x4 ADD PUSH2 0x5EE SWAP2 SWAP1 PUSH2 0x38A7 JUMP JUMPDEST POP PUSH2 0x2710 PUSH2 0xE5C PUSH1 0x80 DUP4 ADD PUSH1 0x60 DUP5 ADD PUSH2 0x3972 JUMP JUMPDEST PUSH2 0xFFFF AND GT ISZERO DUP1 ISZERO PUSH2 0xE83 JUMPI POP PUSH2 0x2710 PUSH2 0xE7C PUSH1 0xC0 DUP4 ADD PUSH1 0xA0 DUP5 ADD PUSH2 0x3972 JUMP JUMPDEST PUSH2 0xFFFF AND GT ISZERO JUMPDEST PUSH1 0x40 MLOAD DUP1 PUSH1 0x40 ADD PUSH1 0x40 MSTORE DUP1 PUSH1 0x7 DUP2 MSTORE PUSH1 0x20 ADD PUSH7 0x4241445F425053 PUSH1 0xC8 SHL DUP2 MSTORE POP SWAP1 PUSH2 0xEC1 JUMPI PUSH1 0x40 MLOAD PUSH3 0x461BCD PUSH1 0xE5 SHL DUP2 MSTORE PUSH1 0x4 ADD PUSH2 0x5EE SWAP2 SWAP1 PUSH2 0x38A7 JUMP JUMPDEST POP PUSH1 0x1 PUSH1 0x1 PUSH1 0xA0 SHL SUB DUP3 AND PUSH0 SWAP1 DUP2 MSTORE PUSH1 0x4 PUSH1 0x20 MSTORE PUSH1 0x40 SWAP1 KECCAK256 DUP2 SWAP1 PUSH2 0xEE5 DUP3 DUP3 PUSH2 0x39B6 JUMP JUMPDEST POP POP PUSH1 0x1 PUSH1 0x1 PUSH1 0xA0 SHL SUB DUP3 AND PUSH32 0x70DF9BD9C5E9A1B5A52A86B9DE9D2A79B37DBDBBAAB91477D59F86D2502BBAD1 PUSH2 0xF1F PUSH1 0x20 DUP5 ADD DUP5 PUSH2 0x3B1F JUMP JUMPDEST PUSH2 0xF2F PUSH1 0x40 DUP6 ADD PUSH1 0x20 DUP7 ADD PUSH2 0x3972 JUMP JUMPDEST PUSH2 0xF3F PUSH1 0x60 DUP7 ADD PUSH1 0x40 DUP8 ADD PUSH2 0x3972 JUMP JUMPDEST PUSH2 0xF4F PUSH1 0x80 DUP8 ADD PUSH1 0x60 DUP9 ADD PUSH2 0x3972 JUMP JUMPDEST PUSH1 0x80 DUP8 ADD CALLDATALOAD PUSH2 0xF64 PUSH1 0xC0 DUP10 ADD PUSH1 0xA0 DUP11 ADD PUSH2 0x3972 JUMP JUMPDEST PUSH2 0xF74 PUSH1 0xE0 DUP11 ADD PUSH1 0xC0 DUP12 ADD PUSH2 0x3B3A JUMP JUMPDEST PUSH2 0xF85 PUSH2 0x100 DUP12 ADD PUSH1 0xE0 DUP13 ADD PUSH2 0x3B3A JUMP JUMPDEST PUSH2 0xF97 PUSH2 0x120 DUP13 ADD PUSH2 0x100 DUP14 ADD PUSH2 0x3B3A JUMP JUMPDEST PUSH1 0x40 MLOAD PUSH2 0x810 SWAP10 SWAP9 SWAP8 SWAP7 SWAP6 SWAP5 SWAP4 SWAP3 SWAP2 SWAP1 PUSH2 0x382B JUMP JUMPDEST PUSH0 PUSH1 0x1 PUSH1 0x1 PUSH1 0xA0 SHL SUB DUP4 AND PUSH2 0xFD3 JUMPI PUSH1 0x40 MLOAD PUSH3 0x461BCD PUSH1 0xE5 SHL DUP2 MSTORE PUSH1 0x4 ADD PUSH2 0x5EE SWAP1 PUSH2 0x393F JUMP JUMPDEST PUSH0 DUP3 GT PUSH2 0xFF2 JUMPI PUSH1 0x40 MLOAD PUSH3 0x461BCD PUSH1 0xE5 SHL DUP2 MSTORE PUSH1 0x4 ADD PUSH2 0x5EE SWAP1 PUSH2 0x3B55 JUMP JUMPDEST PUSH2 0xFFB DUP4 PUSH2 0x3173 JUMP JUMPDEST POP PUSH0 PUSH2 0x1007 DUP5 DUP5 PUSH2 0x3363 JUMP JUMPDEST SWAP1 POP DUP1 ISZERO PUSH2 0x1024 JUMPI PUSH2 0x1024 PUSH1 0x1 PUSH1 0x1 PUSH1 0xA0 SHL SUB DUP6 AND CALLER ADDRESS DUP5 PUSH2 0x33B5 JUMP JUMPDEST PUSH1 0x6 DUP1 SLOAD SWAP1 PUSH0 PUSH2 0x1033 DUP4 PUSH2 0x3B7A JUMP JUMPDEST SWAP2 SWAP1 POP SSTORE SWAP2 POP PUSH1 0x40 MLOAD DUP1 PUSH1 0xE0 ADD PUSH1 0x40 MSTORE DUP1 CALLER PUSH1 0x1 PUSH1 0x1 PUSH1 0xA0 SHL SUB AND DUP2 MSTORE PUSH1 0x20 ADD DUP7 ISZERO ISZERO DUP2 MSTORE PUSH1 0x20 ADD DUP6 PUSH1 0x1 PUSH1 0x1 PUSH1 0xA0 SHL SUB AND DUP2 MSTORE PUSH1 0x20 ADD DUP5 DUP2 MSTORE PUSH1 0x20 ADD DUP3 DUP2 MSTORE PUSH1 0x20 ADD PUSH0 PUSH1 0x3 DUP2 GT ISZERO PUSH2 0x1088 JUMPI PUSH2 0x1088 PUSH2 0x354F JUMP JUMPDEST DUP2 MSTORE PUSH0 PUSH1 0x20 SWAP2 DUP3 ADD DUP2 SWAP1 MSTORE DUP5 DUP2 MSTORE PUSH1 0x8 DUP3 MSTORE PUSH1 0x40 SWAP1 DUP2 SWAP1 KECCAK256 DUP4 MLOAD DUP2 SLOAD SWAP4 DUP6 ADD MLOAD ISZERO ISZERO PUSH1 0x1 PUSH1 0xA0 SHL MUL PUSH1 0x1 PUSH1 0x1 PUSH1 0xA8 SHL SUB NOT SWAP1 SWAP5 AND PUSH1 0x1 PUSH1 0x1 PUSH1 0xA0 SHL SUB SWAP2 DUP3 AND OR SWAP4 SWAP1 SWAP4 OR DUP2 SSTORE SWAP1 DUP4 ADD MLOAD PUSH1 0x1 DUP1 DUP4 ADD DUP1 SLOAD SWAP3 SWAP1 SWAP5 AND PUSH1 0x1 PUSH1 0x1 PUSH1 0xA0 SHL SUB NOT SWAP3 SWAP1 SWAP3 AND SWAP2 SWAP1 SWAP2 OR SWAP1 SWAP3 SSTORE PUSH1 0x60 DUP4 ADD MLOAD PUSH1 0x2 DUP3 ADD SSTORE PUSH1 0x80 DUP4 ADD MLOAD PUSH1 0x3 DUP1 DUP4 ADD SWAP2 SWAP1 SWAP2 SSTORE PUSH1 0xA0 DUP5 ADD MLOAD PUSH1 0x4 DUP4 ADD DUP1 SLOAD SWAP4 SWAP5 SWAP2 SWAP4 SWAP1 SWAP3 PUSH1 0xFF NOT SWAP1 SWAP2 AND SWAP2 SWAP1 DUP5 SWAP1 DUP2 GT ISZERO PUSH2 0x1133 JUMPI PUSH2 0x1133 PUSH2 0x354F JUMP JUMPDEST MUL OR SWAP1 SSTORE POP PUSH1 0xC0 SWAP2 SWAP1 SWAP2 ADD MLOAD PUSH1 0x5 SWAP1 SWAP2 ADD SSTORE PUSH1 0x40 DUP1 MLOAD DUP7 ISZERO ISZERO DUP2 MSTORE PUSH1 0x20 DUP2 ADD DUP6 SWAP1 MSTORE SWAP1 DUP2 ADD DUP3 SWAP1 MSTORE PUSH1 0x1 PUSH1 0x1 PUSH1 0xA0 SHL SUB DUP6 AND SWAP1 CALLER SWAP1 DUP5 SWAP1 PUSH32 0x636B1AD28DB834FA17206311CFA78045878F0A5BE34081A2213975144E70B55B SWAP1 PUSH1 0x60 ADD PUSH1 0x40 MLOAD DUP1 SWAP2 SUB SWAP1 LOG4 POP SWAP4 SWAP3 POP POP POP JUMP JUMPDEST PUSH1 0x1 PUSH1 0x1 PUSH1 0xA0 SHL SUB DUP3 AND PUSH2 0x11C5 JUMPI PUSH1 0x40 MLOAD PUSH3 0x461BCD PUSH1 0xE5 SHL DUP2 MSTORE PUSH1 0x4 ADD PUSH2 0x5EE SWAP1 PUSH2 0x393F JUMP JUMPDEST PUSH0 DUP2 GT PUSH2 0x11E4 JUMPI PUSH1 0x40 MLOAD PUSH3 0x461BCD PUSH1 0xE5 SHL DUP2 MSTORE PUSH1 0x4 ADD PUSH2 0x5EE SWAP1 PUSH2 0x3B55 JUMP JUMPDEST CALLER PUSH0 SWAP1 DUP2 MSTORE PUSH1 0x5 PUSH1 0x20 SWAP1 DUP2 MSTORE PUSH1 0x40 DUP1 DUP4 KECCAK256 PUSH1 0x1 PUSH1 0x1 PUSH1 0xA0 SHL SUB DUP7 AND DUP5 MSTORE SWAP1 SWAP2 MSTORE SWAP1 KECCAK256 SLOAD DUP2 DUP2 LT ISZERO PUSH2 0x124D JUMPI PUSH1 0x40 MLOAD PUSH3 0x461BCD PUSH1 0xE5 SHL DUP2 MSTORE PUSH1 0x20 PUSH1 0x4 DUP3 ADD MSTORE PUSH1 0x13 PUSH1 0x24 DUP3 ADD MSTORE PUSH19 0x125394D551919250D251539517D0D491511255 PUSH1 0x6A SHL PUSH1 0x44 DUP3 ADD MSTORE PUSH1 0x64 ADD PUSH2 0x5EE JUMP JUMPDEST PUSH2 0x1257 DUP3 DUP3 PUSH2 0x3B92 JUMP JUMPDEST CALLER PUSH0 DUP2 DUP2 MSTORE PUSH1 0x5 PUSH1 0x20 SWAP1 DUP2 MSTORE PUSH1 0x40 DUP1 DUP4 KECCAK256 PUSH1 0x1 PUSH1 0x1 PUSH1 0xA0 SHL SUB DUP10 AND DUP1 DUP6 MSTORE SWAP3 MSTORE SWAP1 SWAP2 KECCAK256 SWAP3 SWAP1 SWAP3 SSTORE PUSH2 0x1289 SWAP2 SWAP1 DUP5 PUSH2 0x32AA JUMP JUMPDEST PUSH1 0x40 MLOAD DUP3 DUP2 MSTORE PUSH1 0x1 PUSH1 0x1 PUSH1 0xA0 SHL SUB DUP5 AND SWAP1 CALLER SWAP1 PUSH32 0x52FC0F9D902F33823A83590D3549F63F5492A0DF5C6B6DB8DEE20DEB94456B26 SWAP1 PUSH1 0x20 ADD PUSH1 0x40 MLOAD DUP1 SWAP2 SUB SWAP1 LOG3 POP POP POP JUMP JUMPDEST PUSH0 DUP2 DUP2 MSTORE PUSH1 0x9 PUSH1 0x20 MSTORE PUSH1 0x40 DUP2 KECCAK256 DUP1 SLOAD SWAP1 SWAP2 SUB PUSH2 0x12FC JUMPI PUSH1 0x40 MLOAD PUSH3 0x461BCD PUSH1 0xE5 SHL DUP2 MSTORE PUSH1 0x4 ADD PUSH2 0x5EE SWAP1 PUSH2 0x387D JUMP JUMPDEST PUSH1 0x2 PUSH1 0x8 DUP3 ADD SLOAD PUSH1 0xFF AND PUSH1 0x6 DUP2 GT ISZERO PUSH2 0x1317 JUMPI PUSH2 0x1317 PUSH2 0x354F JUMP JUMPDEST EQ PUSH1 0x40 MLOAD DUP1 PUSH1 0x40 ADD PUSH1 0x40 MSTORE DUP1 PUSH1 0x9 DUP2 MSTORE PUSH1 0x20 ADD PUSH9 0x4241445F5354415445 PUSH1 0xB8 SHL DUP2 MSTORE POP SWAP1 PUSH2 0x1358 JUMPI PUSH1 0x40 MLOAD PUSH3 0x461BCD PUSH1 0xE5 SHL DUP2 MSTORE PUSH1 0x4 ADD PUSH2 0x5EE SWAP2 SWAP1 PUSH2 0x38A7 JUMP JUMPDEST POP PUSH1 0x1 DUP2 ADD SLOAD PUSH1 0x40 DUP1 MLOAD DUP1 DUP3 ADD SWAP1 SWAP2 MSTORE PUSH1 0x9 DUP2 MSTORE PUSH9 0x2727AA2FA12AACA2A9 PUSH1 0xB9 SHL PUSH1 0x20 DUP3 ADD MSTORE SWAP1 PUSH1 0x1 PUSH1 0x1 PUSH1 0xA0 SHL SUB AND CALLER EQ PUSH2 0x13A7 JUMPI PUSH1 0x40 MLOAD PUSH3 0x461BCD PUSH1 0xE5 SHL DUP2 MSTORE PUSH1 0x4 ADD PUSH2 0x5EE SWAP2 SWAP1 PUSH2 0x38A7 JUMP JUMPDEST POP PUSH1 0x3 DUP2 ADD SLOAD PUSH0 SWAP1 PUSH2 0x13C1 SWAP1 PUSH1 0x1 PUSH1 0x1 PUSH1 0xA0 SHL SUB AND PUSH2 0x3173 JUMP JUMPDEST SWAP1 POP DUP1 PUSH1 0xE0 ADD MLOAD PUSH4 0xFFFFFFFF AND DUP3 PUSH1 0xA ADD SLOAD PUSH2 0x13DD SWAP2 SWAP1 PUSH2 0x3906 JUMP JUMPDEST TIMESTAMP GT ISZERO PUSH1 0x40 MLOAD DUP1 PUSH1 0x40 ADD PUSH1 0x40 MSTORE DUP1 PUSH1 0xE DUP2 MSTORE PUSH1 0x20 ADD PUSH14 0x15D2539113D5D7D1561412549151 PUSH1 0x92 SHL DUP2 MSTORE POP SWAP1 PUSH2 0x1425 JUMPI PUSH1 0x40 MLOAD PUSH3 0x461BCD PUSH1 0xE5 SHL DUP2 MSTORE PUSH1 0x4 ADD PUSH2 0x5EE SWAP2 SWAP1 PUSH2 0x38A7 JUMP JUMPDEST POP PUSH1 0x8 DUP3 ADD DUP1 SLOAD PUSH1 0xFF NOT AND PUSH1 0x3 OR SWAP1 SSTORE TIMESTAMP PUSH1 0xB DUP4 ADD SSTORE PUSH1 0x40 MLOAD CALLER SWAP1 DUP5 SWAP1 PUSH32 0x2BCE41B08631CF63C2DFD0B519D88A1E3DB7E906BA6F0234F853996915E09028 SWAP1 PUSH0 SWAP1 LOG3 POP POP POP JUMP JUMPDEST PUSH0 DUP2 DUP2 MSTORE PUSH1 0x8 PUSH1 0x20 MSTORE PUSH1 0x40 DUP2 KECCAK256 DUP1 SLOAD PUSH1 0x1 PUSH1 0x1 PUSH1 0xA0 SHL SUB AND PUSH2 0x14A0 JUMPI PUSH1 0x40 MLOAD PUSH3 0x461BCD PUSH1 0xE5 SHL DUP2 MSTORE PUSH1 0x4 ADD PUSH2 0x5EE SWAP1 PUSH2 0x3919 JUMP JUMPDEST PUSH0 PUSH1 0x4 DUP3 ADD SLOAD PUSH1 0xFF AND PUSH1 0x3 DUP2 GT ISZERO PUSH2 0x14BA JUMPI PUSH2 0x14BA PUSH2 0x354F JUMP JUMPDEST EQ PUSH1 0x40 MLOAD DUP1 PUSH1 0x40 ADD PUSH1 0x40 MSTORE DUP1 PUSH1 0x9 DUP2 MSTORE PUSH1 0x20 ADD PUSH9 0x4241445F5354415445 PUSH1 0xB8 SHL DUP2 MSTORE POP SWAP1 PUSH2 0x14FB JUMPI PUSH1 0x40 MLOAD PUSH3 0x461BCD PUSH1 0xE5 SHL DUP2 MSTORE PUSH1 0x4 ADD PUSH2 0x5EE SWAP2 SWAP1 PUSH2 0x38A7 JUMP JUMPDEST POP PUSH1 0x5 DUP2 ADD SLOAD PUSH1 0x40 DUP1 MLOAD DUP1 DUP3 ADD SWAP1 SWAP2 MSTORE PUSH1 0xD DUP2 MSTORE PUSH13 0x20A62922A0A22CAFAA20A5A2A7 PUSH1 0x99 SHL PUSH1 0x20 DUP3 ADD MSTORE SWAP1 ISZERO PUSH2 0x1544 JUMPI PUSH1 0x40 MLOAD PUSH3 0x461BCD PUSH1 0xE5 SHL DUP2 MSTORE PUSH1 0x4 ADD PUSH2 0x5EE SWAP2 SWAP1 PUSH2 0x38A7 JUMP JUMPDEST POP PUSH1 0x40 DUP1 MLOAD PUSH1 0xE0 DUP2 ADD DUP3 MSTORE DUP3 SLOAD PUSH1 0x1 PUSH1 0x1 PUSH1 0xA0 SHL SUB DUP1 DUP3 AND DUP4 MSTORE PUSH1 0xFF PUSH1 0x1 PUSH1 0xA0 SHL SWAP1 SWAP3 DIV DUP3 AND ISZERO ISZERO PUSH1 0x20 DUP5 ADD MSTORE PUSH1 0x1 DUP6 ADD SLOAD AND SWAP3 DUP3 ADD SWAP3 SWAP1 SWAP3 MSTORE PUSH1 0x2 DUP4 ADD SLOAD PUSH1 0x60 DUP3 ADD MSTORE PUSH1 0x3 DUP1 DUP5 ADD SLOAD PUSH1 0x80 DUP4 ADD MSTORE PUSH1 0x4 DUP5 ADD SLOAD PUSH0 SWAP4 PUSH2 0x15DC SWAP4 SWAP3 DUP7 SWAP3 PUSH1 0xA0 DUP6 ADD SWAP3 AND SWAP1 DUP2 GT ISZERO PUSH2 0x15B7 JUMPI PUSH2 0x15B7 PUSH2 0x354F JUMP JUMPDEST PUSH1 0x3 DUP2 GT ISZERO PUSH2 0x15C8 JUMPI PUSH2 0x15C8 PUSH2 0x354F JUMP JUMPDEST DUP2 MSTORE PUSH1 0x20 ADD PUSH1 0x5 DUP3 ADD SLOAD DUP2 MSTORE POP POP CALLER PUSH2 0x3486 JUMP JUMPDEST PUSH1 0x40 DUP1 MLOAD PUSH1 0xE0 DUP2 ADD DUP3 MSTORE DUP5 SLOAD PUSH1 0x1 PUSH1 0x1 PUSH1 0xA0 SHL SUB DUP1 DUP3 AND DUP4 MSTORE PUSH1 0xFF PUSH1 0x1 PUSH1 0xA0 SHL SWAP1 SWAP3 DIV DUP3 AND ISZERO ISZERO PUSH1 0x20 DUP5 ADD MSTORE PUSH1 0x1 DUP8 ADD SLOAD AND SWAP3 DUP3 ADD SWAP3 SWAP1 SWAP3 MSTORE PUSH1 0x2 DUP6 ADD SLOAD PUSH1 0x60 DUP3 ADD MSTORE PUSH1 0x3 DUP1 DUP7 ADD SLOAD PUSH1 0x80 DUP4 ADD MSTORE PUSH1 0x4 DUP7 ADD SLOAD SWAP4 SWAP5 POP PUSH0 SWAP4 PUSH2 0x1677 SWAP4 DUP8 SWAP3 PUSH1 0xA0 DUP6 ADD SWAP3 SWAP1 SWAP2 AND SWAP1 DUP2 GT ISZERO PUSH2 0x1652 JUMPI PUSH2 0x1652 PUSH2 0x354F JUMP JUMPDEST PUSH1 0x3 DUP2 GT ISZERO PUSH2 0x1663 JUMPI PUSH2 0x1663 PUSH2 0x354F JUMP JUMPDEST DUP2 MSTORE PUSH1 0x20 ADD PUSH1 0x5 DUP3 ADD SLOAD DUP2 MSTORE POP POP CALLER PUSH2 0x34A0 JUMP JUMPDEST SWAP1 POP DUP1 PUSH1 0x1 PUSH1 0x1 PUSH1 0xA0 SHL SUB AND DUP3 PUSH1 0x1 PUSH1 0x1 PUSH1 0xA0 SHL SUB AND SUB PUSH2 0x16C7 JUMPI PUSH1 0x40 MLOAD PUSH3 0x461BCD PUSH1 0xE5 SHL DUP2 MSTORE PUSH1 0x20 PUSH1 0x4 DUP3 ADD MSTORE PUSH1 0xA PUSH1 0x24 DUP3 ADD MSTORE PUSH10 0x53454C465F5452414445 PUSH1 0xB0 SHL PUSH1 0x44 DUP3 ADD MSTORE PUSH1 0x64 ADD PUSH2 0x5EE JUMP JUMPDEST PUSH1 0x1 DUP4 ADD SLOAD PUSH1 0x2 DUP5 ADD SLOAD PUSH0 SWAP2 PUSH2 0x16E8 SWAP2 PUSH1 0x1 PUSH1 0x1 PUSH1 0xA0 SHL SUB SWAP1 SWAP2 AND SWAP1 PUSH2 0x34B6 JUMP JUMPDEST SWAP1 POP PUSH0 DUP2 GT PUSH2 0x172D JUMPI PUSH1 0x40 MLOAD PUSH3 0x461BCD PUSH1 0xE5 SHL DUP2 MSTORE PUSH1 0x20 PUSH1 0x4 DUP3 ADD MSTORE PUSH1 0x11 PUSH1 0x24 DUP3 ADD MSTORE PUSH17 0x444953505554455F424F4E445F5A45524F PUSH1 0x78 SHL PUSH1 0x44 DUP3 ADD MSTORE PUSH1 0x64 ADD PUSH2 0x5EE JUMP JUMPDEST PUSH1 0x1 DUP5 ADD SLOAD PUSH2 0x1747 SWAP1 PUSH1 0x1 PUSH1 0x1 PUSH1 0xA0 SHL SUB AND DUP5 ADDRESS DUP5 PUSH2 0x33B5 JUMP JUMPDEST PUSH1 0x7 DUP1 SLOAD SWAP1 PUSH0 PUSH2 0x1756 DUP4 PUSH2 0x3B7A JUMP JUMPDEST SWAP1 SWAP2 SSTORE POP PUSH1 0x40 DUP1 MLOAD PUSH2 0x1C0 DUP2 ADD DUP3 MSTORE DUP9 DUP2 MSTORE PUSH1 0x1 PUSH1 0x1 PUSH1 0xA0 SHL SUB DUP7 DUP2 AND PUSH1 0x20 DUP1 DUP5 ADD SWAP2 DUP3 MSTORE DUP8 DUP4 AND DUP5 DUP7 ADD SWAP1 DUP2 MSTORE PUSH1 0x1 DUP12 DUP2 ADD SLOAD DUP6 AND PUSH1 0x60 DUP8 ADD SWAP1 DUP2 MSTORE PUSH1 0x2 DUP1 DUP15 ADD SLOAD PUSH1 0x80 DUP10 ADD SWAP1 DUP2 MSTORE PUSH0 PUSH1 0xA0 DUP11 ADD DUP2 DUP2 MSTORE PUSH1 0xC0 DUP12 ADD DUP15 DUP2 MSTORE PUSH1 0xE0 DUP13 ADD DUP4 DUP2 MSTORE PUSH2 0x100 DUP14 ADD DUP9 DUP2 MSTORE TIMESTAMP PUSH2 0x120 DUP16 ADD MSTORE PUSH2 0x140 DUP15 ADD DUP6 SWAP1 MSTORE PUSH2 0x160 DUP15 ADD DUP6 SWAP1 MSTORE PUSH2 0x180 DUP15 ADD DUP6 SWAP1 MSTORE PUSH2 0x1A0 DUP15 ADD DUP6 SWAP1 MSTORE DUP16 DUP6 MSTORE PUSH1 0x9 SWAP1 SWAP11 MSTORE SWAP13 SWAP1 SWAP3 KECCAK256 DUP12 MLOAD DUP2 SSTORE SWAP9 MLOAD DUP10 DUP8 ADD DUP1 SLOAD SWAP2 DUP13 AND PUSH1 0x1 PUSH1 0x1 PUSH1 0xA0 SHL SUB NOT SWAP3 DUP4 AND OR SWAP1 SSTORE SWAP7 MLOAD SWAP4 DUP10 ADD DUP1 SLOAD SWAP5 DUP12 AND SWAP5 DUP9 AND SWAP5 SWAP1 SWAP5 OR SWAP1 SWAP4 SSTORE SWAP3 MLOAD PUSH1 0x3 DUP9 ADD DUP1 SLOAD SWAP2 SWAP1 SWAP10 AND SWAP6 AND SWAP5 SWAP1 SWAP5 OR SWAP1 SWAP7 SSTORE SWAP2 MLOAD PUSH1 0x4 DUP6 ADD SSTORE SWAP4 MLOAD PUSH1 0x5 DUP5 ADD SSTORE MLOAD PUSH1 0x6 DUP1 DUP5 ADD SWAP2 SWAP1 SWAP2 SSTORE SWAP5 MLOAD PUSH1 0x7 DUP4 ADD SSTORE MLOAD PUSH1 0x8 DUP3 ADD DUP1 SLOAD SWAP7 SWAP12 POP SWAP4 SWAP6 SWAP2 SWAP5 SWAP1 SWAP4 SWAP3 PUSH1 0xFF NOT SWAP3 SWAP1 SWAP3 AND SWAP2 SWAP1 DUP5 SWAP1 DUP2 GT ISZERO PUSH2 0x1881 JUMPI PUSH2 0x1881 PUSH2 0x354F JUMP JUMPDEST MUL OR SWAP1 SSTORE POP PUSH2 0x120 DUP3 ADD MLOAD PUSH1 0x9 DUP3 ADD SSTORE PUSH2 0x140 DUP3 ADD MLOAD PUSH1 0xA DUP3 ADD SSTORE PUSH2 0x160 DUP3 ADD MLOAD PUSH1 0xB DUP3 ADD SSTORE PUSH2 0x180 DUP3 ADD MLOAD PUSH1 0xC SWAP1 SWAP2 ADD DUP1 SLOAD PUSH2 0x1A0 SWAP1 SWAP4 ADD MLOAD PUSH2 0xFFFF NOT SWAP1 SWAP4 AND SWAP2 ISZERO ISZERO PUSH2 0xFF00 NOT AND SWAP2 SWAP1 SWAP2 OR PUSH2 0x100 SWAP3 ISZERO ISZERO SWAP3 SWAP1 SWAP3 MUL SWAP2 SWAP1 SWAP2 OR SWAP1 SSTORE PUSH1 0x4 DUP5 ADD DUP1 SLOAD PUSH1 0xFF NOT AND PUSH1 0x1 OR SWAP1 SSTORE PUSH1 0x5 DUP5 ADD DUP6 SWAP1 SSTORE PUSH1 0x40 DUP1 MLOAD PUSH1 0x1 PUSH1 0x1 PUSH1 0xA0 SHL SUB DUP5 DUP2 AND DUP3 MSTORE PUSH1 0x20 DUP3 ADD DUP5 SWAP1 MSTORE DUP6 AND SWAP2 DUP9 SWAP2 DUP9 SWAP2 PUSH32 0xB0EE7FC34CFFD8FDDD757FA75752DA0281EA49136350E672A73EDB07CF327D8 SWAP2 ADD PUSH1 0x40 MLOAD DUP1 SWAP2 SUB SWAP1 LOG4 POP POP POP POP SWAP2 SWAP1 POP JUMP JUMPDEST PUSH0 DUP2 DUP2 MSTORE PUSH1 0x9 PUSH1 0x20 MSTORE PUSH1 0x40 DUP2 KECCAK256 DUP1 SLOAD SWAP1 SWAP2 SUB PUSH2 0x1975 JUMPI PUSH1 0x40 MLOAD PUSH3 0x461BCD PUSH1 0xE5 SHL DUP2 MSTORE PUSH1 0x4 ADD PUSH2 0x5EE SWAP1 PUSH2 0x387D JUMP JUMPDEST PUSH1 0x1 PUSH1 0x8 DUP3 ADD SLOAD PUSH1 0xFF AND PUSH1 0x6 DUP2 GT ISZERO PUSH2 0x1990 JUMPI PUSH2 0x1990 PUSH2 0x354F JUMP JUMPDEST EQ PUSH1 0x40 MLOAD DUP1 PUSH1 0x40 ADD PUSH1 0x40 MSTORE DUP1 PUSH1 0x9 DUP2 MSTORE PUSH1 0x20 ADD PUSH9 0x4241445F5354415445 PUSH1 0xB8 SHL DUP2 MSTORE POP SWAP1 PUSH2 0x19D1 JUMPI PUSH1 0x40 MLOAD PUSH3 0x461BCD PUSH1 0xE5 SHL DUP2 MSTORE PUSH1 0x4 ADD PUSH2 0x5EE SWAP2 SWAP1 PUSH2 0x38A7 JUMP JUMPDEST POP PUSH1 0x3 DUP2 ADD SLOAD PUSH0 SWAP1 PUSH2 0x19EB SWAP1 PUSH1 0x1 PUSH1 0x1 PUSH1 0xA0 SHL SUB AND PUSH2 0x3173 JUMP JUMPDEST SWAP1 POP DUP1 PUSH1 0xC0 ADD MLOAD PUSH4 0xFFFFFFFF AND DUP3 PUSH1 0x9 ADD SLOAD PUSH2 0x1A07 SWAP2 SWAP1 PUSH2 0x3906 JUMP JUMPDEST TIMESTAMP GT PUSH1 0x40 MLOAD DUP1 PUSH1 0x40 ADD PUSH1 0x40 MSTORE DUP1 PUSH1 0x12 DUP2 MSTORE PUSH1 0x20 ADD PUSH18 0x15D2539113D5D7D393D517D1561412549151 PUSH1 0x72 SHL DUP2 MSTORE POP SWAP1 PUSH2 0x1A52 JUMPI PUSH1 0x40 MLOAD PUSH3 0x461BCD PUSH1 0xE5 SHL DUP2 MSTORE PUSH1 0x4 ADD PUSH2 0x5EE SWAP2 SWAP1 PUSH2 0x38A7 JUMP JUMPDEST POP DUP2 SLOAD PUSH0 SWAP1 DUP2 MSTORE PUSH1 0x8 PUSH1 0x20 SWAP1 DUP2 MSTORE PUSH1 0x40 SWAP2 DUP3 SWAP1 KECCAK256 PUSH1 0x5 DUP2 ADD SLOAD DUP4 MLOAD DUP1 DUP6 ADD SWAP1 SWAP5 MSTORE PUSH1 0xF DUP5 MSTORE PUSH15 0x8AA686A49EAEBE9A92A69A82A8869 PUSH1 0x8B SHL SWAP3 DUP5 ADD SWAP3 SWAP1 SWAP3 MSTORE SWAP2 SWAP1 DUP6 EQ PUSH2 0x1AB2 JUMPI PUSH1 0x40 MLOAD PUSH3 0x461BCD PUSH1 0xE5 SHL DUP2 MSTORE PUSH1 0x4 ADD PUSH2 0x5EE SWAP2 SWAP1 PUSH2 0x38A7 JUMP JUMPDEST POP PUSH1 0x1 PUSH1 0x4 DUP3 ADD SLOAD PUSH1 0xFF AND PUSH1 0x3 DUP2 GT ISZERO PUSH2 0x1ACE JUMPI PUSH2 0x1ACE PUSH2 0x354F JUMP JUMPDEST EQ PUSH1 0x40 MLOAD DUP1 PUSH1 0x40 ADD PUSH1 0x40 MSTORE DUP1 PUSH1 0x9 DUP2 MSTORE PUSH1 0x20 ADD PUSH9 0x4241445F5354415445 PUSH1 0xB8 SHL DUP2 MSTORE POP SWAP1 PUSH2 0x1B0F JUMPI PUSH1 0x40 MLOAD PUSH3 0x461BCD PUSH1 0xE5 SHL DUP2 MSTORE PUSH1 0x4 ADD PUSH2 0x5EE SWAP2 SWAP1 PUSH2 0x38A7 JUMP JUMPDEST POP PUSH1 0x6 DUP4 ADD SLOAD ISZERO PUSH2 0x1C06 JUMPI PUSH1 0x6 DUP4 ADD SLOAD PUSH1 0x1 DUP5 ADD SLOAD PUSH1 0x1 PUSH1 0x1 PUSH1 0xA0 SHL SUB SWAP1 DUP2 AND PUSH0 SWAP1 DUP2 MSTORE PUSH1 0x5 PUSH1 0x20 SWAP1 DUP2 MSTORE PUSH1 0x40 DUP1 DUP4 KECCAK256 PUSH1 0x3 DUP10 ADD SLOAD SWAP1 SWAP5 AND DUP4 MSTORE SWAP3 SWAP1 MSTORE SWAP1 DUP2 KECCAK256 DUP1 SLOAD SWAP1 SWAP2 SWAP1 PUSH2 0x1B5F SWAP1 DUP5 SWAP1 PUSH2 0x3906 JUMP JUMPDEST SWAP1 SWAP2 SSTORE POP POP PUSH1 0x3 DUP4 ADD SLOAD PUSH1 0x1 DUP5 ADD SLOAD PUSH1 0x6 DUP6 ADD SLOAD PUSH1 0x40 DUP1 MLOAD PUSH32 0x42555945525F444953505554455F524546554E445F53454C4C45525F4E4F5F46 PUSH1 0x20 DUP3 ADD MSTORE PUSH3 0x155391 PUSH1 0xEA SHL SWAP2 DUP2 ADD SWAP2 SWAP1 SWAP2 MSTORE PUSH1 0x43 DUP2 ADD DUP9 SWAP1 MSTORE PUSH1 0x1 PUSH1 0x1 PUSH1 0xA0 SHL SUB SWAP4 DUP5 AND SWAP4 SWAP1 SWAP3 AND SWAP2 PUSH0 DUP1 MLOAD PUSH1 0x20 PUSH2 0x3C11 DUP4 CODECOPY DUP2 MLOAD SWAP2 MSTORE SWAP2 SWAP1 PUSH1 0x63 ADD PUSH1 0x40 DUP1 MLOAD PUSH1 0x1F NOT DUP2 DUP5 SUB ADD DUP2 MSTORE DUP3 DUP3 MSTORE DUP1 MLOAD PUSH1 0x20 SWAP2 DUP3 ADD KECCAK256 SWAP4 DUP4 MSTORE DUP3 ADD SWAP3 SWAP1 SWAP3 MSTORE ADD PUSH1 0x40 MLOAD DUP1 SWAP2 SUB SWAP1 LOG3 PUSH0 PUSH1 0x6 DUP5 ADD SSTORE JUMPDEST PUSH1 0x8 DUP4 ADD DUP1 SLOAD PUSH1 0x6 PUSH1 0xFF NOT SWAP1 SWAP2 AND OR SWAP1 SSTORE PUSH1 0x40 DUP1 MLOAD PUSH1 0xE0 DUP2 ADD DUP3 MSTORE DUP3 SLOAD PUSH1 0x1 PUSH1 0x1 PUSH1 0xA0 SHL SUB DUP1 DUP3 AND DUP4 MSTORE PUSH1 0xFF PUSH1 0x1 PUSH1 0xA0 SHL SWAP1 SWAP3 DIV DUP3 AND ISZERO ISZERO PUSH1 0x20 DUP5 ADD MSTORE PUSH1 0x1 DUP6 ADD SLOAD AND SWAP3 DUP3 ADD SWAP3 SWAP1 SWAP3 MSTORE PUSH1 0x2 DUP4 ADD SLOAD PUSH1 0x60 DUP3 ADD MSTORE PUSH1 0x3 DUP1 DUP5 ADD SLOAD PUSH1 0x80 DUP4 ADD MSTORE PUSH1 0x4 DUP5 ADD SLOAD PUSH2 0x1CAE SWAP4 DUP6 SWAP3 PUSH1 0xA0 DUP6 ADD SWAP3 SWAP1 SWAP2 AND SWAP1 DUP2 GT ISZERO PUSH2 0x1C88 JUMPI PUSH2 0x1C88 PUSH2 0x354F JUMP JUMPDEST PUSH1 0x3 DUP2 GT ISZERO PUSH2 0x1C99 JUMPI PUSH2 0x1C99 PUSH2 0x354F JUMP JUMPDEST DUP2 MSTORE PUSH1 0x20 ADD PUSH1 0x5 DUP3 ADD SLOAD DUP2 MSTORE POP POP PUSH1 0x20 ADD MLOAD SWAP1 JUMP JUMPDEST ISZERO PUSH2 0x1D97 JUMPI PUSH1 0x4 DUP2 ADD DUP1 SLOAD PUSH1 0xFF NOT AND PUSH1 0x2 OR SWAP1 SSTORE PUSH1 0x3 DUP2 ADD SLOAD ISZERO PUSH2 0x1CF8 JUMPI PUSH1 0x3 DUP1 SLOAD SWAP1 DUP3 ADD SLOAD PUSH1 0x1 DUP4 ADD SLOAD PUSH2 0x1CF1 SWAP3 PUSH1 0x1 PUSH1 0x1 PUSH1 0xA0 SHL SUB SWAP2 DUP3 AND SWAP3 SWAP2 AND SWAP1 PUSH2 0x32AA JUMP JUMPDEST PUSH0 PUSH1 0x3 DUP3 ADD SSTORE JUMPDEST PUSH0 PUSH1 0x5 DUP3 ADD DUP2 SWAP1 SSTORE DUP4 SLOAD PUSH1 0x40 MLOAD SWAP1 SWAP2 PUSH32 0x20E953810446BFEC422C45A49B30C7B446BC121960D6568E36A20016140F86B7 SWAP2 LOG2 DUP4 PUSH32 0xDF5AF23A8BFBD700E381C19607D03504D7A5BA1876C669CCCD37FEACE1F5ADAA PUSH1 0x40 MLOAD PUSH2 0x1D8A SWAP1 PUSH1 0x20 DUP1 DUP3 MSTORE PUSH1 0x1C SWAP1 DUP3 ADD MSTORE PUSH32 0x53454C4C45525F4E4F5F46554E445F4D414B45525F50454E414C545900000000 PUSH1 0x40 DUP3 ADD MSTORE PUSH1 0x60 ADD SWAP1 JUMP JUMPDEST PUSH1 0x40 MLOAD DUP1 SWAP2 SUB SWAP1 LOG2 PUSH2 0x1E05 JUMP JUMPDEST PUSH1 0x4 DUP2 ADD DUP1 SLOAD PUSH1 0xFF NOT AND SWAP1 SSTORE PUSH0 PUSH1 0x5 DUP3 ADD SSTORE PUSH1 0x40 DUP1 MLOAD PUSH1 0x20 DUP1 DUP3 MSTORE PUSH1 0x15 SWAP1 DUP3 ADD MSTORE PUSH21 0x29A2A62622A92FA727AFA32AA7222FA922A7A822A7 PUSH1 0x59 SHL DUP2 DUP4 ADD MSTORE SWAP1 MLOAD DUP6 SWAP2 PUSH32 0xDF5AF23A8BFBD700E381C19607D03504D7A5BA1876C669CCCD37FEACE1F5ADAA SWAP2 SWAP1 DUP2 SWAP1 SUB PUSH1 0x60 ADD SWAP1 LOG2 JUMPDEST POP POP POP POP JUMP JUMPDEST PUSH0 DUP2 DUP2 MSTORE PUSH1 0x9 PUSH1 0x20 MSTORE PUSH1 0x40 DUP2 KECCAK256 DUP1 SLOAD DUP3 SUB PUSH2 0x1E28 JUMPI POP PUSH0 SWAP3 SWAP2 POP POP JUMP JUMPDEST PUSH1 0x3 PUSH1 0x8 DUP3 ADD SLOAD PUSH1 0xFF AND PUSH1 0x6 DUP2 GT ISZERO PUSH2 0x1E43 JUMPI PUSH2 0x1E43 PUSH2 0x354F JUMP JUMPDEST EQ PUSH2 0x1E50 JUMPI POP PUSH0 SWAP3 SWAP2 POP POP JUMP JUMPDEST PUSH1 0x3 DUP2 ADD SLOAD PUSH1 0x1 PUSH1 0x1 PUSH1 0xA0 SHL SUB AND PUSH0 SWAP1 DUP2 MSTORE PUSH1 0x4 PUSH1 0x20 SWAP1 DUP2 MSTORE PUSH1 0x40 SWAP2 DUP3 SWAP1 KECCAK256 DUP3 MLOAD PUSH2 0x120 DUP2 ADD DUP5 MSTORE DUP2 SLOAD PUSH1 0xFF DUP2 AND ISZERO ISZERO DUP1 DUP4 MSTORE PUSH2 0xFFFF PUSH2 0x100 DUP1 DUP5 DIV DUP3 AND SWAP7 DUP6 ADD SWAP7 SWAP1 SWAP7 MSTORE PUSH4 0x1000000 DUP4 DIV DUP2 AND SWAP7 DUP5 ADD SWAP7 SWAP1 SWAP7 MSTORE PUSH6 0x10000000000 SWAP1 SWAP2 DIV DUP6 AND PUSH1 0x60 DUP4 ADD MSTORE PUSH1 0x1 DUP4 ADD SLOAD PUSH1 0x80 DUP4 ADD MSTORE PUSH1 0x2 SWAP1 SWAP3 ADD SLOAD SWAP4 DUP5 AND PUSH1 0xA0 DUP3 ADD MSTORE PUSH4 0xFFFFFFFF PUSH3 0x10000 DUP6 DIV DUP2 AND PUSH1 0xC0 DUP4 ADD MSTORE PUSH1 0x1 PUSH1 0x30 SHL DUP6 DIV DUP2 AND PUSH1 0xE0 DUP4 ADD MSTORE PUSH1 0x1 PUSH1 0x50 SHL SWAP1 SWAP5 DIV SWAP1 SWAP4 AND SWAP2 DUP4 ADD SWAP2 SWAP1 SWAP2 MSTORE PUSH2 0x1F0D JUMPI POP PUSH0 SWAP4 SWAP3 POP POP POP JUMP JUMPDEST PUSH1 0xC DUP3 ADD SLOAD PUSH1 0xFF AND ISZERO PUSH2 0x1F23 JUMPI POP PUSH0 SWAP4 SWAP3 POP POP POP JUMP JUMPDEST DUP1 PUSH2 0x100 ADD MLOAD PUSH4 0xFFFFFFFF AND DUP3 PUSH1 0xB ADD SLOAD PUSH2 0x1F3E SWAP2 SWAP1 PUSH2 0x3906 JUMP JUMPDEST TIMESTAMP GT SWAP5 SWAP4 POP POP POP POP JUMP JUMPDEST PUSH0 DUP2 DUP2 MSTORE PUSH1 0x9 PUSH1 0x20 MSTORE PUSH1 0x40 DUP2 KECCAK256 DUP1 SLOAD SWAP1 SWAP2 SUB PUSH2 0x1F76 JUMPI PUSH1 0x40 MLOAD PUSH3 0x461BCD PUSH1 0xE5 SHL DUP2 MSTORE PUSH1 0x4 ADD PUSH2 0x5EE SWAP1 PUSH2 0x387D JUMP JUMPDEST PUSH1 0x1 PUSH1 0x8 DUP3 ADD SLOAD PUSH1 0xFF AND PUSH1 0x6 DUP2 GT ISZERO PUSH2 0x1F91 JUMPI PUSH2 0x1F91 PUSH2 0x354F JUMP JUMPDEST EQ PUSH1 0x40 MLOAD DUP1 PUSH1 0x40 ADD PUSH1 0x40 MSTORE DUP1 PUSH1 0x9 DUP2 MSTORE PUSH1 0x20 ADD PUSH9 0x4241445F5354415445 PUSH1 0xB8 SHL DUP2 MSTORE POP SWAP1 PUSH2 0x1FD2 JUMPI PUSH1 0x40 MLOAD PUSH3 0x461BCD PUSH1 0xE5 SHL DUP2 MSTORE PUSH1 0x4 ADD PUSH2 0x5EE SWAP2 SWAP1 PUSH2 0x38A7 JUMP JUMPDEST POP PUSH1 0x2 DUP2 ADD SLOAD PUSH1 0x40 DUP1 MLOAD DUP1 DUP3 ADD SWAP1 SWAP2 MSTORE PUSH1 0xA DUP2 MSTORE PUSH10 0x2727AA2FA9A2A62622A9 PUSH1 0xB1 SHL PUSH1 0x20 DUP3 ADD MSTORE SWAP1 PUSH1 0x1 PUSH1 0x1 PUSH1 0xA0 SHL SUB AND CALLER EQ PUSH2 0x2022 JUMPI PUSH1 0x40 MLOAD PUSH3 0x461BCD PUSH1 0xE5 SHL DUP2 MSTORE PUSH1 0x4 ADD PUSH2 0x5EE SWAP2 SWAP1 PUSH2 0x38A7 JUMP JUMPDEST POP DUP1 SLOAD PUSH0 SWAP1 DUP2 MSTORE PUSH1 0x8 PUSH1 0x20 SWAP1 DUP2 MSTORE PUSH1 0x40 SWAP2 DUP3 SWAP1 KECCAK256 PUSH1 0x5 DUP2 ADD SLOAD DUP4 MLOAD DUP1 DUP6 ADD SWAP1 SWAP5 MSTORE PUSH1 0xF DUP5 MSTORE PUSH15 0x8AA686A49EAEBE9A92A69A82A8869 PUSH1 0x8B SHL SWAP3 DUP5 ADD SWAP3 SWAP1 SWAP3 MSTORE SWAP2 SWAP1 DUP5 EQ PUSH2 0x2082 JUMPI PUSH1 0x40 MLOAD PUSH3 0x461BCD PUSH1 0xE5 SHL DUP2 MSTORE PUSH1 0x4 ADD PUSH2 0x5EE SWAP2 SWAP1 PUSH2 0x38A7 JUMP JUMPDEST POP PUSH1 0x1 PUSH1 0x4 DUP3 ADD SLOAD PUSH1 0xFF AND PUSH1 0x3 DUP2 GT ISZERO PUSH2 0x209E JUMPI PUSH2 0x209E PUSH2 0x354F JUMP JUMPDEST EQ PUSH1 0x40 MLOAD DUP1 PUSH1 0x40 ADD PUSH1 0x40 MSTORE DUP1 PUSH1 0x9 DUP2 MSTORE PUSH1 0x20 ADD PUSH9 0x4241445F5354415445 PUSH1 0xB8 SHL DUP2 MSTORE POP SWAP1 PUSH2 0x20DF JUMPI PUSH1 0x40 MLOAD PUSH3 0x461BCD PUSH1 0xE5 SHL DUP2 MSTORE PUSH1 0x4 ADD PUSH2 0x5EE SWAP2 SWAP1 PUSH2 0x38A7 JUMP JUMPDEST POP PUSH1 0x3 DUP3 ADD SLOAD PUSH0 SWAP1 PUSH2 0x20F9 SWAP1 PUSH1 0x1 PUSH1 0x1 PUSH1 0xA0 SHL SUB AND PUSH2 0x3173 JUMP JUMPDEST SWAP1 POP DUP1 PUSH1 0xC0 ADD MLOAD PUSH4 0xFFFFFFFF AND DUP4 PUSH1 0x9 ADD SLOAD PUSH2 0x2115 SWAP2 SWAP1 PUSH2 0x3906 JUMP JUMPDEST TIMESTAMP GT ISZERO PUSH1 0x40 MLOAD DUP1 PUSH1 0x40 ADD PUSH1 0x40 MSTORE DUP1 PUSH1 0xE DUP2 MSTORE PUSH1 0x20 ADD PUSH14 0x15D2539113D5D7D1561412549151 PUSH1 0x92 SHL DUP2 MSTORE POP SWAP1 PUSH2 0x215D JUMPI PUSH1 0x40 MLOAD PUSH3 0x461BCD PUSH1 0xE5 SHL DUP2 MSTORE PUSH1 0x4 ADD PUSH2 0x5EE SWAP2 SWAP1 PUSH2 0x38A7 JUMP JUMPDEST POP PUSH1 0x3 DUP4 ADD SLOAD PUSH1 0x4 DUP5 ADD SLOAD PUSH0 SWAP2 PUSH2 0x217F SWAP2 PUSH1 0x1 PUSH1 0x1 PUSH1 0xA0 SHL SUB SWAP1 SWAP2 AND SWAP1 PUSH2 0x34EC JUMP JUMPDEST PUSH1 0x3 DUP6 ADD SLOAD PUSH1 0x4 DUP7 ADD SLOAD SWAP2 SWAP3 POP PUSH0 SWAP2 PUSH2 0x21A1 SWAP2 PUSH1 0x1 PUSH1 0x1 PUSH1 0xA0 SHL SUB AND SWAP1 PUSH2 0x34B6 JUMP JUMPDEST SWAP1 POP PUSH0 DUP2 GT PUSH2 0x21E6 JUMPI PUSH1 0x40 MLOAD PUSH3 0x461BCD PUSH1 0xE5 SHL DUP2 MSTORE PUSH1 0x20 PUSH1 0x4 DUP3 ADD MSTORE PUSH1 0x11 PUSH1 0x24 DUP3 ADD MSTORE PUSH17 0x444953505554455F424F4E445F5A45524F PUSH1 0x78 SHL PUSH1 0x44 DUP3 ADD MSTORE PUSH1 0x64 ADD PUSH2 0x5EE JUMP JUMPDEST PUSH0 DUP2 DUP4 DUP8 PUSH1 0x4 ADD SLOAD PUSH2 0x21F8 SWAP2 SWAP1 PUSH2 0x3906 JUMP JUMPDEST PUSH2 0x2202 SWAP2 SWAP1 PUSH2 0x3906 JUMP JUMPDEST PUSH1 0x3 DUP8 ADD SLOAD SWAP1 SWAP2 POP PUSH2 0x221F SWAP1 PUSH1 0x1 PUSH1 0x1 PUSH1 0xA0 SHL SUB AND CALLER ADDRESS DUP5 PUSH2 0x33B5 JUMP JUMPDEST PUSH1 0x5 DUP7 ADD DUP4 SWAP1 SSTORE PUSH1 0x7 DUP7 ADD DUP3 SWAP1 SSTORE PUSH1 0x8 DUP7 ADD DUP1 SLOAD PUSH1 0xFF NOT AND PUSH1 0x2 OR SWAP1 SSTORE TIMESTAMP PUSH1 0xA DUP8 ADD SSTORE PUSH1 0x4 DUP7 ADD SLOAD PUSH1 0x40 DUP1 MLOAD SWAP2 DUP3 MSTORE PUSH1 0x20 DUP3 ADD DUP6 SWAP1 MSTORE DUP2 ADD DUP4 SWAP1 MSTORE DUP8 SWAP1 PUSH32 0x95B75F24B53ADD0217458D088AA8DB8EEFCE3337DCB4BB8E7571A0604AEB0A64 SWAP1 PUSH1 0x60 ADD PUSH1 0x40 MLOAD DUP1 SWAP2 SUB SWAP1 LOG2 POP POP POP POP POP POP POP JUMP JUMPDEST CALLER PUSH0 SWAP1 DUP2 MSTORE PUSH1 0x2 PUSH1 0x20 SWAP1 DUP2 MSTORE PUSH1 0x40 SWAP2 DUP3 SWAP1 KECCAK256 SLOAD DUP3 MLOAD DUP1 DUP5 ADD SWAP1 SWAP4 MSTORE PUSH1 0xE DUP4 MSTORE PUSH14 0x2727AA2FA0A92124AA2920AA27A9 PUSH1 0x91 SHL SWAP2 DUP4 ADD SWAP2 SWAP1 SWAP2 MSTORE PUSH1 0xFF AND PUSH2 0x22EA JUMPI PUSH1 0x40 MLOAD PUSH3 0x461BCD PUSH1 0xE5 SHL DUP2 MSTORE PUSH1 0x4 ADD PUSH2 0x5EE SWAP2 SWAP1 PUSH2 0x38A7 JUMP JUMPDEST POP PUSH0 DUP3 DUP2 MSTORE PUSH1 0x9 PUSH1 0x20 MSTORE PUSH1 0x40 DUP2 KECCAK256 DUP1 SLOAD SWAP1 SWAP2 SUB PUSH2 0x2319 JUMPI PUSH1 0x40 MLOAD PUSH3 0x461BCD PUSH1 0xE5 SHL DUP2 MSTORE PUSH1 0x4 ADD PUSH2 0x5EE SWAP1 PUSH2 0x387D JUMP JUMPDEST PUSH1 0x4 PUSH1 0x8 DUP3 ADD SLOAD PUSH1 0xFF AND PUSH1 0x6 DUP2 GT ISZERO PUSH2 0x2334 JUMPI PUSH2 0x2334 PUSH2 0x354F JUMP JUMPDEST EQ PUSH1 0x40 MLOAD DUP1 PUSH1 0x40 ADD PUSH1 0x40 MSTORE DUP1 PUSH1 0x9 DUP2 MSTORE PUSH1 0x20 ADD PUSH9 0x4241445F5354415445 PUSH1 0xB8 SHL DUP2 MSTORE POP SWAP1 PUSH2 0x2375 JUMPI PUSH1 0x40 MLOAD PUSH3 0x461BCD PUSH1 0xE5 SHL DUP2 MSTORE PUSH1 0x4 ADD PUSH2 0x5EE SWAP2 SWAP1 PUSH2 0x38A7 JUMP JUMPDEST POP PUSH1 0xC DUP2 ADD SLOAD PUSH1 0xFF AND DUP1 ISZERO PUSH2 0x2394 JUMPI POP PUSH1 0xC DUP2 ADD SLOAD PUSH2 0x100 SWAP1 DIV PUSH1 0xFF AND ISZERO JUMPDEST PUSH2 0x23CF JUMPI PUSH1 0x40 MLOAD PUSH3 0x461BCD PUSH1 0xE5 SHL DUP2 MSTORE PUSH1 0x20 PUSH1 0x4 DUP3 ADD MSTORE PUSH1 0xC PUSH1 0x24 DUP3 ADD MSTORE PUSH12 0x444953505554455F444F4E45 PUSH1 0xA0 SHL PUSH1 0x44 DUP3 ADD MSTORE PUSH1 0x64 ADD PUSH2 0x5EE JUMP JUMPDEST PUSH1 0x5 DUP2 ADD SLOAD ISZERO PUSH2 0x2407 JUMPI PUSH1 0x3 DUP1 SLOAD PUSH1 0x5 DUP4 ADD SLOAD SWAP2 DUP4 ADD SLOAD PUSH2 0x2400 SWAP3 PUSH1 0x1 PUSH1 0x1 PUSH1 0xA0 SHL SUB SWAP2 DUP3 AND SWAP3 SWAP2 SWAP1 SWAP2 AND SWAP1 PUSH2 0x32AA JUMP JUMPDEST PUSH0 PUSH1 0x5 DUP3 ADD SSTORE JUMPDEST PUSH0 DUP3 PUSH1 0x1 DUP2 GT ISZERO PUSH2 0x241A JUMPI PUSH2 0x241A PUSH2 0x354F JUMP JUMPDEST SUB PUSH2 0x244B JUMPI PUSH1 0x1 DUP2 ADD SLOAD PUSH1 0x4 DUP3 ADD SLOAD PUSH1 0x3 DUP4 ADD SLOAD PUSH2 0x2446 SWAP3 PUSH1 0x1 PUSH1 0x1 PUSH1 0xA0 SHL SUB SWAP2 DUP3 AND SWAP3 SWAP2 AND SWAP1 PUSH2 0x32AA JUMP JUMPDEST PUSH2 0x2472 JUMP JUMPDEST PUSH1 0x2 DUP2 ADD SLOAD PUSH1 0x4 DUP3 ADD SLOAD PUSH1 0x3 DUP4 ADD SLOAD PUSH2 0x2472 SWAP3 PUSH1 0x1 PUSH1 0x1 PUSH1 0xA0 SHL SUB SWAP2 DUP3 AND SWAP3 SWAP2 AND SWAP1 PUSH2 0x32AA JUMP JUMPDEST PUSH0 PUSH1 0x4 DUP3 ADD DUP2 SWAP1 SSTORE DUP3 PUSH1 0x1 DUP2 GT ISZERO PUSH2 0x248C JUMPI PUSH2 0x248C PUSH2 0x354F JUMP JUMPDEST SUB PUSH2 0x25A9 JUMPI PUSH1 0x6 DUP2 ADD SLOAD ISZERO PUSH2 0x256C JUMPI PUSH1 0x6 DUP2 ADD SLOAD PUSH1 0x1 DUP3 ADD SLOAD PUSH1 0x1 PUSH1 0x1 PUSH1 0xA0 SHL SUB SWAP1 DUP2 AND PUSH0 SWAP1 DUP2 MSTORE PUSH1 0x5 PUSH1 0x20 SWAP1 DUP2 MSTORE PUSH1 0x40 DUP1 DUP4 KECCAK256 PUSH1 0x3 DUP8 ADD SLOAD SWAP1 SWAP5 AND DUP4 MSTORE SWAP3 SWAP1 MSTORE SWAP1 DUP2 KECCAK256 DUP1 SLOAD SWAP1 SWAP2 SWAP1 PUSH2 0x24E0 SWAP1 DUP5 SWAP1 PUSH2 0x3906 JUMP JUMPDEST SWAP1 SWAP2 SSTORE POP POP PUSH1 0x3 DUP2 ADD SLOAD PUSH1 0x1 DUP3 ADD SLOAD PUSH1 0x6 DUP4 ADD SLOAD PUSH1 0x40 MLOAD PUSH17 0x212AACA2A92FA224A9A82AAA22AFABA4A7 PUSH1 0x79 SHL PUSH1 0x20 DUP3 ADD MSTORE PUSH1 0x31 DUP2 ADD DUP8 SWAP1 MSTORE PUSH1 0x1 PUSH1 0x1 PUSH1 0xA0 SHL SUB SWAP4 DUP5 AND SWAP4 SWAP1 SWAP3 AND SWAP2 PUSH0 DUP1 MLOAD PUSH1 0x20 PUSH2 0x3C11 DUP4 CODECOPY DUP2 MLOAD SWAP2 MSTORE SWAP2 SWAP1 PUSH1 0x51 ADD PUSH1 0x40 DUP1 MLOAD PUSH1 0x1F NOT DUP2 DUP5 SUB ADD DUP2 MSTORE DUP3 DUP3 MSTORE DUP1 MLOAD PUSH1 0x20 SWAP2 DUP3 ADD KECCAK256 SWAP4 DUP4 MSTORE DUP3 ADD SWAP3 SWAP1 SWAP3 MSTORE ADD PUSH1 0x40 MLOAD DUP1 SWAP2 SUB SWAP1 LOG3 PUSH0 PUSH1 0x6 DUP3 ADD SSTORE JUMPDEST PUSH1 0x7 DUP2 ADD SLOAD ISZERO PUSH2 0x25A4 JUMPI PUSH1 0x3 DUP1 SLOAD PUSH1 0x7 DUP4 ADD SLOAD SWAP2 DUP4 ADD SLOAD PUSH2 0x259D SWAP3 PUSH1 0x1 PUSH1 0x1 PUSH1 0xA0 SHL SUB SWAP2 DUP3 AND SWAP3 SWAP2 SWAP1 SWAP2 AND SWAP1 PUSH2 0x32AA JUMP JUMPDEST PUSH0 PUSH1 0x7 DUP3 ADD SSTORE JUMPDEST PUSH2 0x26BD JUMP JUMPDEST PUSH1 0x7 DUP2 ADD SLOAD ISZERO PUSH2 0x2685 JUMPI PUSH1 0x7 DUP2 ADD SLOAD PUSH1 0x2 DUP3 ADD SLOAD PUSH1 0x1 PUSH1 0x1 PUSH1 0xA0 SHL SUB SWAP1 DUP2 AND PUSH0 SWAP1 DUP2 MSTORE PUSH1 0x5 PUSH1 0x20 SWAP1 DUP2 MSTORE PUSH1 0x40 DUP1 DUP4 KECCAK256 PUSH1 0x3 DUP8 ADD SLOAD SWAP1 SWAP5 AND DUP4 MSTORE SWAP3 SWAP1 MSTORE SWAP1 DUP2 KECCAK256 DUP1 SLOAD SWAP1 SWAP2 SWAP1 PUSH2 0x25F8 SWAP1 DUP5 SWAP1 PUSH2 0x3906 JUMP JUMPDEST SWAP1 SWAP2 SSTORE POP POP PUSH1 0x3 DUP2 ADD SLOAD PUSH1 0x2 DUP3 ADD SLOAD PUSH1 0x7 DUP4 ADD SLOAD PUSH1 0x40 MLOAD PUSH18 0x29A2A62622A92FA224A9A82AAA22AFABA4A7 PUSH1 0x71 SHL PUSH1 0x20 DUP3 ADD MSTORE PUSH1 0x32 DUP2 ADD DUP8 SWAP1 MSTORE PUSH1 0x1 PUSH1 0x1 PUSH1 0xA0 SHL SUB SWAP4 DUP5 AND SWAP4 SWAP1 SWAP3 AND SWAP2 PUSH0 DUP1 MLOAD PUSH1 0x20 PUSH2 0x3C11 DUP4 CODECOPY DUP2 MLOAD SWAP2 MSTORE SWAP2 SWAP1 PUSH1 0x52 ADD PUSH1 0x40 DUP1 MLOAD PUSH1 0x1F NOT DUP2 DUP5 SUB ADD DUP2 MSTORE DUP3 DUP3 MSTORE DUP1 MLOAD PUSH1 0x20 SWAP2 DUP3 ADD KECCAK256 SWAP4 DUP4 MSTORE DUP3 ADD SWAP3 SWAP1 SWAP3 MSTORE ADD PUSH1 0x40 MLOAD DUP1 SWAP2 SUB SWAP1 LOG3 PUSH0 PUSH1 0x7 DUP3 ADD SSTORE JUMPDEST PUSH1 0x6 DUP2 ADD SLOAD ISZERO PUSH2 0x26BD JUMPI PUSH1 0x3 DUP1 SLOAD PUSH1 0x6 DUP4 ADD SLOAD SWAP2 DUP4 ADD SLOAD PUSH2 0x26B6 SWAP3 PUSH1 0x1 PUSH1 0x1 PUSH1 0xA0 SHL SUB SWAP2 DUP3 AND SWAP3 SWAP2 SWAP1 SWAP2 AND SWAP1 PUSH2 0x32AA JUMP JUMPDEST PUSH0 PUSH1 0x6 DUP3 ADD SSTORE JUMPDEST DUP1 SLOAD PUSH0 SWAP1 DUP2 MSTORE PUSH1 0x8 PUSH1 0x20 MSTORE PUSH1 0x40 SWAP1 KECCAK256 PUSH1 0x3 DUP2 ADD SLOAD ISZERO PUSH2 0x27A9 JUMPI PUSH1 0x3 DUP2 ADD SLOAD DUP2 SLOAD PUSH1 0x1 PUSH1 0x1 PUSH1 0xA0 SHL SUB SWAP1 DUP2 AND PUSH0 SWAP1 DUP2 MSTORE PUSH1 0x5 PUSH1 0x20 SWAP1 DUP2 MSTORE PUSH1 0x40 DUP1 DUP4 KECCAK256 PUSH1 0x1 DUP8 ADD SLOAD SWAP1 SWAP5 AND DUP4 MSTORE SWAP3 SWAP1 MSTORE SWAP1 DUP2 KECCAK256 DUP1 SLOAD SWAP1 SWAP2 SWAP1 PUSH2 0x2718 SWAP1 DUP5 SWAP1 PUSH2 0x3906 JUMP JUMPDEST SWAP1 SWAP2 SSTORE POP POP PUSH1 0x1 DUP2 ADD SLOAD DUP2 SLOAD PUSH1 0x3 DUP4 ADD SLOAD DUP5 SLOAD PUSH1 0x40 MLOAD PUSH22 0x41445F424F4E445F524546554E445F44495350555445 PUSH1 0x50 SHL PUSH1 0x20 DUP3 ADD MSTORE PUSH1 0x36 DUP2 ADD SWAP2 SWAP1 SWAP2 MSTORE PUSH1 0x1 PUSH1 0x1 PUSH1 0xA0 SHL SUB SWAP4 DUP5 AND SWAP4 SWAP1 SWAP3 AND SWAP2 PUSH0 DUP1 MLOAD PUSH1 0x20 PUSH2 0x3C11 DUP4 CODECOPY DUP2 MLOAD SWAP2 MSTORE SWAP2 SWAP1 PUSH1 0x56 ADD PUSH1 0x40 DUP1 MLOAD PUSH1 0x1F NOT DUP2 DUP5 SUB ADD DUP2 MSTORE DUP3 DUP3 MSTORE DUP1 MLOAD PUSH1 0x20 SWAP2 DUP3 ADD KECCAK256 SWAP4 DUP4 MSTORE DUP3 ADD SWAP3 SWAP1 SWAP3 MSTORE ADD PUSH1 0x40 MLOAD DUP1 SWAP2 SUB SWAP1 LOG3 PUSH0 PUSH1 0x3 DUP3 ADD SSTORE JUMPDEST PUSH1 0xC DUP3 ADD DUP1 SLOAD PUSH2 0xFF00 NOT AND PUSH2 0x100 OR SWAP1 SSTORE PUSH1 0x8 DUP3 ADD DUP1 SLOAD PUSH1 0x5 PUSH1 0xFF NOT SWAP2 DUP3 AND DUP2 OR SWAP1 SWAP3 SSTORE PUSH1 0x4 DUP4 ADD DUP1 SLOAD PUSH1 0x3 SWAP3 AND SWAP2 SWAP1 SWAP2 OR SWAP1 SSTORE PUSH0 SWAP1 DUP3 ADD SSTORE PUSH1 0x40 MLOAD DUP5 SWAP1 PUSH32 0x2FFCFEE146BC0D5FF304C6B65111A0D485AF9456DC64EEE7D66EBDCC90B223EA SWAP1 PUSH2 0x2814 SWAP1 DUP7 SWAP1 PUSH2 0x3BA5 JUMP JUMPDEST PUSH1 0x40 MLOAD DUP1 SWAP2 SUB SWAP1 LOG2 PUSH1 0x40 MLOAD DUP5 SWAP1 PUSH32 0x69833829D5691AE09424AF7D16F73ADF033451149EA9C2FC6FCB4C44108EEF67 SWAP1 PUSH0 SWAP1 LOG2 DUP2 SLOAD PUSH1 0x40 MLOAD PUSH32 0x1B5620E4ACDA71640915DF6184C97B2EF8B032A94BB3886BB01DF0F3248A15C0 SWAP1 PUSH0 SWAP1 LOG2 POP POP POP POP JUMP JUMPDEST PUSH0 DUP2 DUP2 MSTORE PUSH1 0x9 PUSH1 0x20 MSTORE PUSH1 0x40 DUP2 KECCAK256 DUP1 SLOAD SWAP1 SWAP2 SUB PUSH2 0x28A4 JUMPI PUSH1 0x40 MLOAD PUSH3 0x461BCD PUSH1 0xE5 SHL DUP2 MSTORE PUSH1 0x4 ADD PUSH2 0x5EE SWAP1 PUSH2 0x387D JUMP JUMPDEST PUSH1 0x3 PUSH1 0x8 DUP3 ADD SLOAD PUSH1 0xFF AND PUSH1 0x6 DUP2 GT ISZERO PUSH2 0x28BF JUMPI PUSH2 0x28BF PUSH2 0x354F JUMP JUMPDEST EQ PUSH1 0x40 MLOAD DUP1 PUSH1 0x40 ADD PUSH1 0x40 MSTORE DUP1 PUSH1 0x9 DUP2 MSTORE PUSH1 0x20 ADD PUSH9 0x4241445F5354415445 PUSH1 0xB8 SHL DUP2 MSTORE POP SWAP1 PUSH2 0x2900 JUMPI PUSH1 0x40 MLOAD PUSH3 0x461BCD PUSH1 0xE5 SHL DUP2 MSTORE PUSH1 0x4 ADD PUSH2 0x5EE SWAP2 SWAP1 PUSH2 0x38A7 JUMP JUMPDEST POP PUSH1 0x2 DUP2 ADD SLOAD PUSH1 0x40 DUP1 MLOAD DUP1 DUP3 ADD SWAP1 SWAP2 MSTORE PUSH1 0xA DUP2 MSTORE PUSH10 0x2727AA2FA9A2A62622A9 PUSH1 0xB1 SHL PUSH1 0x20 DUP3 ADD MSTORE SWAP1 PUSH1 0x1 PUSH1 0x1 PUSH1 0xA0 SHL SUB AND CALLER EQ PUSH2 0x2950 JUMPI PUSH1 0x40 MLOAD PUSH3 0x461BCD PUSH1 0xE5 SHL DUP2 MSTORE PUSH1 0x4 ADD PUSH2 0x5EE SWAP2 SWAP1 PUSH2 0x38A7 JUMP JUMPDEST POP PUSH1 0x1 DUP2 ADD SLOAD PUSH1 0x4 DUP3 ADD SLOAD PUSH1 0x3 DUP4 ADD SLOAD PUSH2 0x2978 SWAP3 PUSH1 0x1 PUSH1 0x1 PUSH1 0xA0 SHL SUB SWAP2 DUP3 AND SWAP3 SWAP2 AND SWAP1 PUSH2 0x32AA JUMP JUMPDEST PUSH1 0x5 DUP2 ADD SLOAD ISZERO PUSH2 0x29A9 JUMPI PUSH1 0x3 DUP1 SLOAD PUSH1 0x5 DUP4 ADD SLOAD SWAP2 DUP4 ADD SLOAD PUSH2 0x29A9 SWAP3 PUSH1 0x1 PUSH1 0x1 PUSH1 0xA0 SHL SUB SWAP2 DUP3 AND SWAP3 SWAP2 SWAP1 SWAP2 AND SWAP1 PUSH2 0x32AA JUMP JUMPDEST PUSH1 0x6 DUP2 ADD SLOAD ISZERO PUSH2 0x2A87 JUMPI PUSH1 0x6 DUP2 ADD SLOAD PUSH1 0x1 DUP3 ADD SLOAD PUSH1 0x1 PUSH1 0x1 PUSH1 0xA0 SHL SUB SWAP1 DUP2 AND PUSH0 SWAP1 DUP2 MSTORE PUSH1 0x5 PUSH1 0x20 SWAP1 DUP2 MSTORE PUSH1 0x40 DUP1 DUP4 KECCAK256 PUSH1 0x3 DUP8 ADD SLOAD SWAP1 SWAP5 AND DUP4 MSTORE SWAP3 SWAP1 MSTORE SWAP1 DUP2 KECCAK256 DUP1 SLOAD SWAP1 SWAP2 SWAP1 PUSH2 0x29F8 SWAP1 DUP5 SWAP1 PUSH2 0x3906 JUMP JUMPDEST SWAP1 SWAP2 SSTORE POP POP PUSH1 0x3 DUP2 ADD SLOAD PUSH1 0x1 DUP3 ADD SLOAD PUSH1 0x6 DUP4 ADD SLOAD PUSH1 0x40 MLOAD PUSH20 0x109556515497D11254D415551157D49151955391 PUSH1 0x62 SHL PUSH1 0x20 DUP3 ADD MSTORE PUSH1 0x34 DUP2 ADD DUP7 SWAP1 MSTORE PUSH1 0x1 PUSH1 0x1 PUSH1 0xA0 SHL SUB SWAP4 DUP5 AND SWAP4 SWAP1 SWAP3 AND SWAP2 PUSH0 DUP1 MLOAD PUSH1 0x20 PUSH2 0x3C11 DUP4 CODECOPY DUP2 MLOAD SWAP2 MSTORE SWAP2 SWAP1 PUSH1 0x54 ADD PUSH1 0x40 DUP1 MLOAD PUSH1 0x1F NOT DUP2 DUP5 SUB ADD DUP2 MSTORE DUP3 DUP3 MSTORE DUP1 MLOAD PUSH1 0x20 SWAP2 DUP3 ADD KECCAK256 SWAP4 DUP4 MSTORE DUP3 ADD SWAP3 SWAP1 SWAP3 MSTORE ADD PUSH1 0x40 MLOAD DUP1 SWAP2 SUB SWAP1 LOG3 PUSH0 PUSH1 0x6 DUP3 ADD SSTORE JUMPDEST PUSH1 0x7 DUP2 ADD SLOAD ISZERO PUSH2 0x2B66 JUMPI PUSH1 0x7 DUP2 ADD SLOAD PUSH1 0x2 DUP3 ADD SLOAD PUSH1 0x1 PUSH1 0x1 PUSH1 0xA0 SHL SUB SWAP1 DUP2 AND PUSH0 SWAP1 DUP2 MSTORE PUSH1 0x5 PUSH1 0x20 SWAP1 DUP2 MSTORE PUSH1 0x40 DUP1 DUP4 KECCAK256 PUSH1 0x3 DUP8 ADD SLOAD SWAP1 SWAP5 AND DUP4 MSTORE SWAP3 SWAP1 MSTORE SWAP1 DUP2 KECCAK256 DUP1 SLOAD SWAP1 SWAP2 SWAP1 PUSH2 0x2AD6 SWAP1 DUP5 SWAP1 PUSH2 0x3906 JUMP JUMPDEST SWAP1 SWAP2 SSTORE POP POP PUSH1 0x3 DUP2 ADD SLOAD PUSH1 0x2 DUP3 ADD SLOAD PUSH1 0x7 DUP4 ADD SLOAD PUSH1 0x40 MLOAD PUSH21 0x14D15313115497D11254D415551157D49151955391 PUSH1 0x5A SHL PUSH1 0x20 DUP3 ADD MSTORE PUSH1 0x35 DUP2 ADD DUP7 SWAP1 MSTORE PUSH1 0x1 PUSH1 0x1 PUSH1 0xA0 SHL SUB SWAP4 DUP5 AND SWAP4 SWAP1 SWAP3 AND SWAP2 PUSH0 DUP1 MLOAD PUSH1 0x20 PUSH2 0x3C11 DUP4 CODECOPY DUP2 MLOAD SWAP2 MSTORE SWAP2 SWAP1 PUSH1 0x55 ADD PUSH1 0x40 DUP1 MLOAD PUSH1 0x1F NOT DUP2 DUP5 SUB ADD DUP2 MSTORE DUP3 DUP3 MSTORE DUP1 MLOAD PUSH1 0x20 SWAP2 DUP3 ADD KECCAK256 SWAP4 DUP4 MSTORE DUP3 ADD SWAP3 SWAP1 SWAP3 MSTORE ADD PUSH1 0x40 MLOAD DUP1 SWAP2 SUB SWAP1 LOG3 PUSH0 PUSH1 0x7 DUP3 ADD SSTORE JUMPDEST DUP1 SLOAD PUSH0 SWAP1 DUP2 MSTORE PUSH1 0x8 PUSH1 0x20 MSTORE PUSH1 0x40 SWAP1 KECCAK256 PUSH1 0x3 DUP2 ADD SLOAD ISZERO PUSH2 0x2C4A JUMPI PUSH1 0x3 DUP2 ADD SLOAD DUP2 SLOAD PUSH1 0x1 PUSH1 0x1 PUSH1 0xA0 SHL SUB SWAP1 DUP2 AND PUSH0 SWAP1 DUP2 MSTORE PUSH1 0x5 PUSH1 0x20 SWAP1 DUP2 MSTORE PUSH1 0x40 DUP1 DUP4 KECCAK256 PUSH1 0x1 DUP8 ADD SLOAD SWAP1 SWAP5 AND DUP4 MSTORE SWAP3 SWAP1 MSTORE SWAP1 DUP2 KECCAK256 DUP1 SLOAD SWAP1 SWAP2 SWAP1 PUSH2 0x2BC1 SWAP1 DUP5 SWAP1 PUSH2 0x3906 JUMP JUMPDEST SWAP1 SWAP2 SSTORE POP POP PUSH1 0x1 DUP2 ADD SLOAD DUP2 SLOAD PUSH1 0x3 DUP4 ADD SLOAD DUP5 SLOAD PUSH1 0x40 MLOAD PUSH14 0x105117D093D39117D49151955391 PUSH1 0x92 SHL PUSH1 0x20 DUP3 ADD MSTORE PUSH1 0x2E DUP2 ADD SWAP2 SWAP1 SWAP2 MSTORE PUSH1 0x1 PUSH1 0x1 PUSH1 0xA0 SHL SUB SWAP4 DUP5 AND SWAP4 SWAP1 SWAP3 AND SWAP2 PUSH0 DUP1 MLOAD PUSH1 0x20 PUSH2 0x3C11 DUP4 CODECOPY DUP2 MLOAD SWAP2 MSTORE SWAP2 SWAP1 PUSH1 0x4E ADD PUSH1 0x40 DUP1 MLOAD PUSH1 0x1F NOT DUP2 DUP5 SUB ADD DUP2 MSTORE DUP3 DUP3 MSTORE DUP1 MLOAD PUSH1 0x20 SWAP2 DUP3 ADD KECCAK256 SWAP4 DUP4 MSTORE DUP3 ADD SWAP3 SWAP1 SWAP3 MSTORE ADD PUSH1 0x40 MLOAD DUP1 SWAP2 SUB SWAP1 LOG3 PUSH0 PUSH1 0x3 DUP3 ADD SSTORE JUMPDEST PUSH1 0x8 DUP3 ADD DUP1 SLOAD PUSH1 0xFF NOT SWAP1 DUP2 AND PUSH1 0x5 SWAP1 DUP2 OR SWAP1 SWAP3 SSTORE PUSH1 0x4 DUP4 ADD DUP1 SLOAD SWAP1 SWAP2 AND PUSH1 0x3 OR SWAP1 SSTORE PUSH0 SWAP1 DUP3 ADD DUP2 SWAP1 SSTORE PUSH1 0x40 MLOAD DUP5 SWAP2 PUSH32 0x69833829D5691AE09424AF7D16F73ADF033451149EA9C2FC6FCB4C44108EEF67 SWAP2 LOG2 DUP2 SLOAD PUSH1 0x40 MLOAD PUSH32 0x1B5620E4ACDA71640915DF6184C97B2EF8B032A94BB3886BB01DF0F3248A15C0 SWAP1 PUSH0 SWAP1 LOG2 POP POP POP JUMP JUMPDEST PUSH0 SLOAD PUSH1 0x40 DUP1 MLOAD DUP1 DUP3 ADD SWAP1 SWAP2 MSTORE PUSH1 0x9 DUP2 MSTORE PUSH9 0x2727AA2FA7ABA722A9 PUSH1 0xB9 SHL PUSH1 0x20 DUP3 ADD MSTORE SWAP1 PUSH1 0x1 PUSH1 0x1 PUSH1 0xA0 SHL SUB AND CALLER EQ PUSH2 0x2D15 JUMPI PUSH1 0x40 MLOAD PUSH3 0x461BCD PUSH1 0xE5 SHL DUP2 MSTORE PUSH1 0x4 ADD PUSH2 0x5EE SWAP2 SWAP1 PUSH2 0x38A7 JUMP JUMPDEST POP PUSH1 0x1 PUSH1 0x1 PUSH1 0xA0 SHL SUB DUP2 AND PUSH2 0x2D5C JUMPI PUSH1 0x40 MLOAD PUSH3 0x461BCD PUSH1 0xE5 SHL DUP2 MSTORE PUSH1 0x20 PUSH1 0x4 DUP3 ADD MSTORE PUSH1 0xD PUSH1 0x24 DUP3 ADD MSTORE PUSH13 0x5A45524F5F5452454153555259 PUSH1 0x98 SHL PUSH1 0x44 DUP3 ADD MSTORE PUSH1 0x64 ADD PUSH2 0x5EE JUMP JUMPDEST PUSH1 0x3 DUP1 SLOAD PUSH1 0x1 PUSH1 0x1 PUSH1 0xA0 SHL SUB NOT AND PUSH1 0x1 PUSH1 0x1 PUSH1 0xA0 SHL SUB DUP4 AND SWAP1 DUP2 OR SWAP1 SWAP2 SSTORE PUSH1 0x40 MLOAD PUSH32 0x3C864541EF71378C6229510ED90F376565EE42D9C5E0904A984A9E863E6DB44F SWAP1 PUSH0 SWAP1 LOG2 POP JUMP JUMPDEST PUSH0 SLOAD PUSH1 0x40 DUP1 MLOAD DUP1 DUP3 ADD SWAP1 SWAP2 MSTORE PUSH1 0x9 DUP2 MSTORE PUSH9 0x2727AA2FA7ABA722A9 PUSH1 0xB9 SHL PUSH1 0x20 DUP3 ADD MSTORE SWAP1 PUSH1 0x1 PUSH1 0x1 PUSH1 0xA0 SHL SUB AND CALLER EQ PUSH2 0x2DF0 JUMPI PUSH1 0x40 MLOAD PUSH3 0x461BCD PUSH1 0xE5 SHL DUP2 MSTORE PUSH1 0x4 ADD PUSH2 0x5EE SWAP2 SWAP1 PUSH2 0x38A7 JUMP JUMPDEST POP PUSH1 0x1 PUSH1 0x1 PUSH1 0xA0 SHL SUB DUP2 AND PUSH2 0x2E34 JUMPI PUSH1 0x40 MLOAD PUSH3 0x461BCD PUSH1 0xE5 SHL DUP2 MSTORE PUSH1 0x20 PUSH1 0x4 DUP3 ADD MSTORE PUSH1 0xA PUSH1 0x24 DUP3 ADD MSTORE PUSH10 0x2D22A927AFA7ABA722A9 PUSH1 0xB1 SHL PUSH1 0x44 DUP3 ADD MSTORE PUSH1 0x64 ADD PUSH2 0x5EE JUMP JUMPDEST PUSH0 DUP1 SLOAD PUSH1 0x40 MLOAD PUSH1 0x1 PUSH1 0x1 PUSH1 0xA0 SHL SUB DUP1 DUP6 AND SWAP4 SWAP3 AND SWAP2 PUSH32 0x8BE0079C531659141344CD1FD0A4F28419497F9722A3DAAFE3B4186F6B6457E0 SWAP2 LOG3 PUSH0 DUP1 SLOAD PUSH1 0x1 PUSH1 0x1 PUSH1 0xA0 SHL SUB NOT AND PUSH1 0x1 PUSH1 0x1 PUSH1 0xA0 SHL SUB SWAP3 SWAP1 SWAP3 AND SWAP2 SWAP1 SWAP2 OR SWAP1 SSTORE JUMP JUMPDEST PUSH0 DUP3 DUP2 MSTORE PUSH1 0x8 PUSH1 0x20 MSTORE PUSH1 0x40 SWAP1 KECCAK256 DUP1 SLOAD PUSH1 0x1 PUSH1 0x1 PUSH1 0xA0 SHL SUB AND PUSH2 0x2EC1 JUMPI PUSH1 0x40 MLOAD PUSH3 0x461BCD PUSH1 0xE5 SHL DUP2 MSTORE PUSH1 0x4 ADD PUSH2 0x5EE SWAP1 PUSH2 0x3919 JUMP JUMPDEST DUP1 SLOAD PUSH1 0x40 DUP1 MLOAD DUP1 DUP3 ADD SWAP1 SWAP2 MSTORE PUSH1 0x9 DUP2 MSTORE PUSH9 0x2727AA2FA6A0A5A2A9 PUSH1 0xB9 SHL PUSH1 0x20 DUP3 ADD MSTORE SWAP1 PUSH1 0x1 PUSH1 0x1 PUSH1 0xA0 SHL SUB AND CALLER EQ PUSH2 0x2F0C JUMPI PUSH1 0x40 MLOAD PUSH3 0x461BCD PUSH1 0xE5 SHL DUP2 MSTORE PUSH1 0x4 ADD PUSH2 0x5EE SWAP2 SWAP1 PUSH2 0x38A7 JUMP JUMPDEST POP PUSH0 PUSH1 0x4 DUP3 ADD SLOAD PUSH1 0xFF AND PUSH1 0x3 DUP2 GT ISZERO PUSH2 0x2F27 JUMPI PUSH2 0x2F27 PUSH2 0x354F JUMP JUMPDEST EQ PUSH1 0x40 MLOAD DUP1 PUSH1 0x40 ADD PUSH1 0x40 MSTORE DUP1 PUSH1 0x9 DUP2 MSTORE PUSH1 0x20 ADD PUSH9 0x4241445F5354415445 PUSH1 0xB8 SHL DUP2 MSTORE POP SWAP1 PUSH2 0x2F68 JUMPI PUSH1 0x40 MLOAD PUSH3 0x461BCD PUSH1 0xE5 SHL DUP2 MSTORE PUSH1 0x4 ADD PUSH2 0x5EE SWAP2 SWAP1 PUSH2 0x38A7 JUMP JUMPDEST POP PUSH1 0x5 DUP2 ADD SLOAD PUSH1 0x40 DUP1 MLOAD DUP1 DUP3 ADD SWAP1 SWAP2 MSTORE PUSH1 0x9 DUP2 MSTORE PUSH9 0x4241445F5354415445 PUSH1 0xB8 SHL PUSH1 0x20 DUP3 ADD MSTORE SWAP1 ISZERO PUSH2 0x2FAD JUMPI PUSH1 0x40 MLOAD PUSH3 0x461BCD PUSH1 0xE5 SHL DUP2 MSTORE PUSH1 0x4 ADD PUSH2 0x5EE SWAP2 SWAP1 PUSH2 0x38A7 JUMP JUMPDEST POP PUSH0 DUP3 GT PUSH2 0x2FCD JUMPI PUSH1 0x40 MLOAD PUSH3 0x461BCD PUSH1 0xE5 SHL DUP2 MSTORE PUSH1 0x4 ADD PUSH2 0x5EE SWAP1 PUSH2 0x3B55 JUMP JUMPDEST PUSH1 0x2 DUP2 ADD DUP3 SWAP1 SSTORE PUSH1 0x40 MLOAD DUP3 DUP2 MSTORE DUP4 SWAP1 PUSH32 0x703D5AB1F448A472C939C18589EAFA88AC50049582A4BBA8F0103382FB470444 SWAP1 PUSH1 0x20 ADD PUSH1 0x40 MLOAD DUP1 SWAP2 SUB SWAP1 LOG2 POP POP POP JUMP JUMPDEST PUSH0 SLOAD PUSH1 0x1 PUSH1 0x1 PUSH1 0xA0 SHL SUB AND CALLER EQ DUP1 PUSH2 0x3034 JUMPI POP CALLER PUSH0 SWAP1 DUP2 MSTORE PUSH1 0x1 PUSH1 0x20 MSTORE PUSH1 0x40 SWAP1 KECCAK256 SLOAD PUSH1 0xFF AND JUMPDEST PUSH1 0x40 MLOAD DUP1 PUSH1 0x40 ADD PUSH1 0x40 MSTORE DUP1 PUSH1 0x9 DUP2 MSTORE PUSH1 0x20 ADD PUSH9 0x2727AA2FA0A226A4A7 PUSH1 0xB9 SHL DUP2 MSTORE POP SWAP1 PUSH2 0x3074 JUMPI PUSH1 0x40 MLOAD PUSH3 0x461BCD PUSH1 0xE5 SHL DUP2 MSTORE PUSH1 0x4 ADD PUSH2 0x5EE SWAP2 SWAP1 PUSH2 0x38A7 JUMP JUMPDEST POP PUSH1 0x1 PUSH1 0x1 PUSH1 0xA0 SHL SUB DUP5 AND PUSH2 0x30B7 JUMPI PUSH1 0x40 MLOAD PUSH3 0x461BCD PUSH1 0xE5 SHL DUP2 MSTORE PUSH1 0x20 PUSH1 0x4 DUP3 ADD MSTORE PUSH1 0x9 PUSH1 0x24 DUP3 ADD MSTORE PUSH9 0x2D22A927AFAAA9A2A9 PUSH1 0xB9 SHL PUSH1 0x44 DUP3 ADD MSTORE PUSH1 0x64 ADD PUSH2 0x5EE JUMP JUMPDEST PUSH1 0x1 PUSH1 0x1 PUSH1 0xA0 SHL SUB DUP4 AND PUSH2 0x30DD JUMPI PUSH1 0x40 MLOAD PUSH3 0x461BCD PUSH1 0xE5 SHL DUP2 MSTORE PUSH1 0x4 ADD PUSH2 0x5EE SWAP1 PUSH2 0x393F JUMP JUMPDEST PUSH0 DUP3 GT PUSH2 0x30FC JUMPI PUSH1 0x40 MLOAD PUSH3 0x461BCD PUSH1 0xE5 SHL DUP2 MSTORE PUSH1 0x4 ADD PUSH2 0x5EE SWAP1 PUSH2 0x3B55 JUMP JUMPDEST PUSH1 0x1 PUSH1 0x1 PUSH1 0xA0 SHL SUB DUP1 DUP6 AND PUSH0 SWAP1 DUP2 MSTORE PUSH1 0x5 PUSH1 0x20 SWAP1 DUP2 MSTORE PUSH1 0x40 DUP1 DUP4 KECCAK256 SWAP4 DUP8 AND DUP4 MSTORE SWAP3 SWAP1 MSTORE SWAP1 DUP2 KECCAK256 DUP1 SLOAD DUP5 SWAP3 SWAP1 PUSH2 0x3132 SWAP1 DUP5 SWAP1 PUSH2 0x3906 JUMP JUMPDEST SWAP1 SWAP2 SSTORE POP POP PUSH1 0x40 DUP1 MLOAD DUP4 DUP2 MSTORE PUSH1 0x20 DUP2 ADD DUP4 SWAP1 MSTORE PUSH1 0x1 PUSH1 0x1 PUSH1 0xA0 SHL SUB DUP1 DUP7 AND SWAP3 SWAP1 DUP8 AND SWAP2 PUSH0 DUP1 MLOAD PUSH1 0x20 PUSH2 0x3C11 DUP4 CODECOPY DUP2 MLOAD SWAP2 MSTORE SWAP2 ADD PUSH1 0x40 MLOAD DUP1 SWAP2 SUB SWAP1 LOG3 POP POP POP POP JUMP JUMPDEST PUSH1 0x40 DUP1 MLOAD PUSH2 0x120 DUP2 ADD DUP3 MSTORE PUSH0 DUP1 DUP3 MSTORE PUSH1 0x20 DUP3 ADD DUP2 SWAP1 MSTORE SWAP2 DUP2 ADD DUP3 SWAP1 MSTORE PUSH1 0x60 DUP2 ADD DUP3 SWAP1 MSTORE PUSH1 0x80 DUP2 ADD DUP3 SWAP1 MSTORE PUSH1 0xA0 DUP2 ADD DUP3 SWAP1 MSTORE PUSH1 0xC0 DUP2 ADD DUP3 SWAP1 MSTORE PUSH1 0xE0 DUP2 ADD DUP3 SWAP1 MSTORE PUSH2 0x100 DUP2 ADD SWAP2 SWAP1 SWAP2 MSTORE POP PUSH1 0x1 PUSH1 0x1 PUSH1 0xA0 SHL SUB DUP2 AND PUSH0 SWAP1 DUP2 MSTORE PUSH1 0x4 PUSH1 0x20 SWAP1 DUP2 MSTORE PUSH1 0x40 SWAP2 DUP3 SWAP1 KECCAK256 DUP3 MLOAD PUSH2 0x120 DUP2 ADD DUP5 MSTORE DUP2 SLOAD PUSH1 0xFF DUP2 AND ISZERO ISZERO DUP1 DUP4 MSTORE PUSH2 0xFFFF PUSH2 0x100 DUP1 DUP5 DIV DUP3 AND DUP6 DUP9 ADD MSTORE PUSH4 0x1000000 DUP5 DIV DUP3 AND DUP6 DUP10 ADD MSTORE PUSH6 0x10000000000 SWAP1 SWAP4 DIV DUP2 AND PUSH1 0x60 DUP6 ADD MSTORE PUSH1 0x1 DUP6 ADD SLOAD PUSH1 0x80 DUP6 ADD MSTORE PUSH1 0x2 SWAP1 SWAP5 ADD SLOAD SWAP4 DUP5 AND PUSH1 0xA0 DUP5 ADD MSTORE PUSH4 0xFFFFFFFF PUSH3 0x10000 DUP6 DIV DUP2 AND PUSH1 0xC0 DUP6 ADD MSTORE PUSH1 0x1 PUSH1 0x30 SHL DUP6 DIV DUP2 AND PUSH1 0xE0 DUP6 ADD MSTORE PUSH1 0x1 PUSH1 0x50 SHL SWAP1 SWAP5 DIV SWAP1 SWAP4 AND SWAP1 DUP3 ADD MSTORE DUP4 MLOAD DUP1 DUP6 ADD SWAP1 SWAP5 MSTORE PUSH1 0xE DUP5 MSTORE PUSH14 0x1513D2D15397D11254D050931151 PUSH1 0x92 SHL SWAP3 DUP5 ADD SWAP3 SWAP1 SWAP3 MSTORE SWAP1 SWAP2 SWAP1 PUSH2 0x32A4 JUMPI PUSH1 0x40 MLOAD PUSH3 0x461BCD PUSH1 0xE5 SHL DUP2 MSTORE PUSH1 0x4 ADD PUSH2 0x5EE SWAP2 SWAP1 PUSH2 0x38A7 JUMP JUMPDEST POP SWAP2 SWAP1 POP JUMP JUMPDEST PUSH1 0x40 MLOAD PUSH4 0xA9059CBB PUSH1 0xE0 SHL DUP2 MSTORE PUSH1 0x1 PUSH1 0x1 PUSH1 0xA0 SHL SUB DUP4 DUP2 AND PUSH1 0x4 DUP4 ADD MSTORE PUSH1 0x24 DUP3 ADD DUP4 SWAP1 MSTORE PUSH0 SWAP2 SWAP1 DUP6 AND SWAP1 PUSH4 0xA9059CBB SWAP1 PUSH1 0x44 ADD PUSH1 0x20 PUSH1 0x40 MLOAD DUP1 DUP4 SUB DUP2 PUSH0 DUP8 GAS CALL ISZERO DUP1 ISZERO PUSH2 0x32F9 JUMPI RETURNDATASIZE PUSH0 DUP1 RETURNDATACOPY RETURNDATASIZE PUSH0 REVERT JUMPDEST POP POP POP POP PUSH1 0x40 MLOAD RETURNDATASIZE PUSH1 0x1F NOT PUSH1 0x1F DUP3 ADD AND DUP3 ADD DUP1 PUSH1 0x40 MSTORE POP DUP2 ADD SWAP1 PUSH2 0x331D SWAP2 SWAP1 PUSH2 0x3BBF JUMP JUMPDEST SWAP1 POP DUP1 PUSH2 0x1E05 JUMPI PUSH1 0x40 MLOAD PUSH3 0x461BCD PUSH1 0xE5 SHL DUP2 MSTORE PUSH1 0x20 PUSH1 0x4 DUP3 ADD MSTORE PUSH1 0x14 PUSH1 0x24 DUP3 ADD MSTORE PUSH20 0x14D0519157D514905394D1915497D19052531151 PUSH1 0x62 SHL PUSH1 0x44 DUP3 ADD MSTORE PUSH1 0x64 ADD PUSH2 0x5EE JUMP JUMPDEST PUSH0 DUP1 PUSH2 0x336E DUP5 PUSH2 0x3173 JUMP JUMPDEST PUSH1 0xA0 DUP2 ADD MLOAD SWAP1 SWAP2 POP PUSH2 0xFFFF AND ISZERO PUSH2 0x33A8 JUMPI PUSH2 0x2710 DUP2 PUSH1 0xA0 ADD MLOAD PUSH2 0xFFFF AND DUP5 PUSH2 0x3396 SWAP2 SWAP1 PUSH2 0x3BDA JUMP JUMPDEST PUSH2 0x33A0 SWAP2 SWAP1 PUSH2 0x3BF1 JUMP JUMPDEST SWAP2 POP POP PUSH2 0x33AF JUMP JUMPDEST PUSH1 0x80 ADD MLOAD SWAP1 POP JUMPDEST SWAP3 SWAP2 POP POP JUMP JUMPDEST PUSH1 0x40 MLOAD PUSH4 0x23B872DD PUSH1 0xE0 SHL DUP2 MSTORE PUSH1 0x1 PUSH1 0x1 PUSH1 0xA0 SHL SUB DUP5 DUP2 AND PUSH1 0x4 DUP4 ADD MSTORE DUP4 DUP2 AND PUSH1 0x24 DUP4 ADD MSTORE PUSH1 0x44 DUP3 ADD DUP4 SWAP1 MSTORE PUSH0 SWAP2 SWAP1 DUP7 AND SWAP1 PUSH4 0x23B872DD SWAP1 PUSH1 0x64 ADD PUSH1 0x20 PUSH1 0x40 MLOAD DUP1 DUP4 SUB DUP2 PUSH0 DUP8 GAS CALL ISZERO DUP1 ISZERO PUSH2 0x340C JUMPI RETURNDATASIZE PUSH0 DUP1 RETURNDATACOPY RETURNDATASIZE PUSH0 REVERT JUMPDEST POP POP POP POP PUSH1 0x40 MLOAD RETURNDATASIZE PUSH1 0x1F NOT PUSH1 0x1F DUP3 ADD AND DUP3 ADD DUP1 PUSH1 0x40 MSTORE POP DUP2 ADD SWAP1 PUSH2 0x3430 SWAP2 SWAP1 PUSH2 0x3BBF JUMP JUMPDEST SWAP1 POP DUP1 PUSH2 0x347F JUMPI PUSH1 0x40 MLOAD PUSH3 0x461BCD PUSH1 0xE5 SHL DUP2 MSTORE PUSH1 0x20 PUSH1 0x4 DUP3 ADD MSTORE PUSH1 0x19 PUSH1 0x24 DUP3 ADD MSTORE PUSH32 0x534146455F5452414E534645525F46524F4D5F4641494C454400000000000000 PUSH1 0x44 DUP3 ADD MSTORE PUSH1 0x64 ADD PUSH2 0x5EE JUMP JUMPDEST POP POP POP POP POP JUMP JUMPDEST PUSH0 DUP3 PUSH1 0x20 ADD MLOAD PUSH2 0x3497 JUMPI DUP3 MLOAD PUSH2 0x3499 JUMP JUMPDEST DUP2 JUMPDEST SWAP4 SWAP3 POP POP POP JUMP JUMPDEST PUSH0 DUP3 PUSH1 0x20 ADD MLOAD PUSH2 0x34B0 JUMPI DUP2 PUSH2 0x3499 JUMP JUMPDEST POP POP MLOAD SWAP1 JUMP JUMPDEST PUSH0 DUP1 PUSH2 0x34C1 DUP5 PUSH2 0x3173 JUMP JUMPDEST SWAP1 POP PUSH2 0x2710 DUP2 PUSH1 0x60 ADD MLOAD PUSH2 0xFFFF AND DUP5 PUSH2 0x34DA SWAP2 SWAP1 PUSH2 0x3BDA JUMP JUMPDEST PUSH2 0x34E4 SWAP2 SWAP1 PUSH2 0x3BF1 JUMP JUMPDEST SWAP5 SWAP4 POP POP POP POP JUMP JUMPDEST PUSH0 DUP1 PUSH2 0x34F7 DUP5 PUSH2 0x3173 JUMP JUMPDEST SWAP1 POP PUSH0 DUP2 PUSH1 0x40 ADD MLOAD PUSH2 0xFFFF AND DUP3 PUSH1 0x20 ADD MLOAD PUSH2 0xFFFF AND PUSH2 0x3516 SWAP2 SWAP1 PUSH2 0x3906 JUMP JUMPDEST SWAP1 POP PUSH2 0x2710 PUSH2 0x3525 DUP3 DUP7 PUSH2 0x3BDA JUMP JUMPDEST PUSH2 0x352F SWAP2 SWAP1 PUSH2 0x3BF1 JUMP JUMPDEST SWAP6 SWAP5 POP POP POP POP POP JUMP JUMPDEST PUSH0 PUSH1 0x20 DUP3 DUP5 SUB SLT ISZERO PUSH2 0x3548 JUMPI PUSH0 DUP1 REVERT JUMPDEST POP CALLDATALOAD SWAP2 SWAP1 POP JUMP JUMPDEST PUSH4 0x4E487B71 PUSH1 0xE0 SHL PUSH0 MSTORE PUSH1 0x21 PUSH1 0x4 MSTORE PUSH1 0x24 PUSH0 REVERT JUMPDEST PUSH1 0x7 DUP2 LT PUSH2 0x3573 JUMPI PUSH2 0x3573 PUSH2 0x354F JUMP JUMPDEST SWAP1 MSTORE JUMP JUMPDEST DUP15 DUP2 MSTORE PUSH1 0x1 PUSH1 0x1 PUSH1 0xA0 SHL SUB DUP15 DUP2 AND PUSH1 0x20 DUP4 ADD MSTORE DUP14 DUP2 AND PUSH1 0x40 DUP4 ADD MSTORE DUP13 AND PUSH1 0x60 DUP3 ADD MSTORE PUSH1 0x80 DUP2 ADD DUP12 SWAP1 MSTORE PUSH1 0xA0 DUP2 ADD DUP11 SWAP1 MSTORE PUSH1 0xC0 DUP2 ADD DUP10 SWAP1 MSTORE PUSH1 0xE0 DUP2 ADD DUP9 SWAP1 MSTORE PUSH2 0x1C0 DUP2 ADD PUSH2 0x35C8 PUSH2 0x100 DUP4 ADD DUP10 PUSH2 0x3563 JUMP JUMPDEST DUP7 PUSH2 0x120 DUP4 ADD MSTORE DUP6 PUSH2 0x140 DUP4 ADD MSTORE DUP5 PUSH2 0x160 DUP4 ADD MSTORE PUSH2 0x35EC PUSH2 0x180 DUP4 ADD DUP6 ISZERO ISZERO SWAP1 MSTORE JUMP JUMPDEST DUP3 ISZERO ISZERO PUSH2 0x1A0 DUP4 ADD MSTORE SWAP16 SWAP15 POP POP POP POP POP POP POP POP POP POP POP POP POP POP POP JUMP JUMPDEST PUSH1 0x1 PUSH1 0x1 PUSH1 0xA0 SHL SUB DUP9 DUP2 AND DUP3 MSTORE DUP8 ISZERO ISZERO PUSH1 0x20 DUP4 ADD MSTORE DUP7 AND PUSH1 0x40 DUP3 ADD MSTORE PUSH1 0x60 DUP2 ADD DUP6 SWAP1 MSTORE PUSH1 0x80 DUP2 ADD DUP5 SWAP1 MSTORE PUSH1 0xE0 DUP2 ADD PUSH1 0x4 DUP5 LT PUSH2 0x3646 JUMPI PUSH2 0x3646 PUSH2 0x354F JUMP JUMPDEST PUSH1 0xA0 DUP3 ADD SWAP4 SWAP1 SWAP4 MSTORE PUSH1 0xC0 ADD MSTORE SWAP6 SWAP5 POP POP POP POP POP JUMP JUMPDEST DUP1 CALLDATALOAD PUSH1 0x1 PUSH1 0x1 PUSH1 0xA0 SHL SUB DUP2 AND DUP2 EQ PUSH2 0x3671 JUMPI PUSH0 DUP1 REVERT JUMPDEST SWAP2 SWAP1 POP JUMP JUMPDEST PUSH0 PUSH1 0x20 DUP3 DUP5 SUB SLT ISZERO PUSH2 0x3686 JUMPI PUSH0 DUP1 REVERT JUMPDEST PUSH2 0x3499 DUP3 PUSH2 0x365B JUMP JUMPDEST DUP1 ISZERO ISZERO DUP2 EQ PUSH2 0x369C JUMPI PUSH0 DUP1 REVERT JUMPDEST POP JUMP JUMPDEST PUSH0 DUP1 PUSH1 0x40 DUP4 DUP6 SUB SLT ISZERO PUSH2 0x36B0 JUMPI PUSH0 DUP1 REVERT JUMPDEST PUSH2 0x36B9 DUP4 PUSH2 0x365B JUMP JUMPDEST SWAP2 POP PUSH1 0x20 DUP4 ADD CALLDATALOAD PUSH2 0x36C9 DUP2 PUSH2 0x368F JUMP JUMPDEST DUP1 SWAP2 POP POP SWAP3 POP SWAP3 SWAP1 POP JUMP JUMPDEST PUSH0 DUP1 PUSH1 0x40 DUP4 DUP6 SUB SLT ISZERO PUSH2 0x36E5 JUMPI PUSH0 DUP1 REVERT JUMPDEST PUSH2 0x36EE DUP4 PUSH2 0x365B JUMP JUMPDEST SWAP2 POP PUSH2 0x36FC PUSH1 0x20 DUP5 ADD PUSH2 0x365B JUMP JUMPDEST SWAP1 POP SWAP3 POP SWAP3 SWAP1 POP JUMP JUMPDEST PUSH0 DUP1 DUP3 DUP5 SUB PUSH2 0x140 DUP2 SLT ISZERO PUSH2 0x3718 JUMPI PUSH0 DUP1 REVERT JUMPDEST PUSH2 0x3721 DUP5 PUSH2 0x365B JUMP JUMPDEST SWAP3 POP PUSH2 0x120 PUSH1 0x1F NOT DUP3 ADD SLT ISZERO PUSH2 0x3735 JUMPI PUSH0 DUP1 REVERT JUMPDEST POP PUSH1 0x20 DUP4 ADD SWAP1 POP SWAP3 POP SWAP3 SWAP1 POP JUMP JUMPDEST PUSH0 DUP1 PUSH0 PUSH1 0x60 DUP5 DUP7 SUB SLT ISZERO PUSH2 0x3755 JUMPI PUSH0 DUP1 REVERT JUMPDEST DUP4 CALLDATALOAD PUSH2 0x3760 DUP2 PUSH2 0x368F JUMP JUMPDEST SWAP3 POP PUSH2 0x376E PUSH1 0x20 DUP6 ADD PUSH2 0x365B JUMP JUMPDEST SWAP2 POP PUSH1 0x40 DUP5 ADD CALLDATALOAD SWAP1 POP SWAP3 POP SWAP3 POP SWAP3 JUMP JUMPDEST PUSH0 DUP1 PUSH1 0x40 DUP4 DUP6 SUB SLT ISZERO PUSH2 0x378F JUMPI PUSH0 DUP1 REVERT JUMPDEST PUSH2 0x3798 DUP4 PUSH2 0x365B JUMP JUMPDEST SWAP5 PUSH1 0x20 SWAP4 SWAP1 SWAP4 ADD CALLDATALOAD SWAP4 POP POP POP JUMP JUMPDEST PUSH0 DUP1 PUSH1 0x40 DUP4 DUP6 SUB SLT ISZERO PUSH2 0x37B7 JUMPI PUSH0 DUP1 REVERT JUMPDEST DUP3 CALLDATALOAD SWAP2 POP PUSH1 0x20 DUP4 ADD CALLDATALOAD PUSH1 0x2 DUP2 LT PUSH2 0x36C9 JUMPI PUSH0 DUP1 REVERT JUMPDEST PUSH0 DUP1 PUSH1 0x40 DUP4 DUP6 SUB SLT ISZERO PUSH2 0x37DD JUMPI PUSH0 DUP1 REVERT JUMPDEST POP POP DUP1 CALLDATALOAD SWAP3 PUSH1 0x20 SWAP1 SWAP2 ADD CALLDATALOAD SWAP2 POP JUMP JUMPDEST PUSH0 DUP1 PUSH0 DUP1 PUSH1 0x80 DUP6 DUP8 SUB SLT ISZERO PUSH2 0x37FF JUMPI PUSH0 DUP1 REVERT JUMPDEST PUSH2 0x3808 DUP6 PUSH2 0x365B JUMP JUMPDEST SWAP4 POP PUSH2 0x3816 PUSH1 0x20 DUP7 ADD PUSH2 0x365B JUMP JUMPDEST SWAP4 SWAP7 SWAP4 SWAP6 POP POP POP POP PUSH1 0x40 DUP3 ADD CALLDATALOAD SWAP2 PUSH1 0x60 ADD CALLDATALOAD SWAP1 JUMP JUMPDEST SWAP9 ISZERO ISZERO DUP10 MSTORE PUSH2 0xFFFF SWAP8 DUP9 AND PUSH1 0x20 DUP11 ADD MSTORE SWAP6 DUP8 AND PUSH1 0x40 DUP10 ADD MSTORE SWAP4 DUP7 AND PUSH1 0x60 DUP9 ADD MSTORE PUSH1 0x80 DUP8 ADD SWAP3 SWAP1 SWAP3 MSTORE SWAP1 SWAP4 AND PUSH1 0xA0 DUP6 ADD MSTORE PUSH4 0xFFFFFFFF SWAP3 DUP4 AND PUSH1 0xC0 DUP6 ADD MSTORE DUP3 AND PUSH1 0xE0 DUP5 ADD MSTORE AND PUSH2 0x100 DUP3 ADD MSTORE PUSH2 0x120 ADD SWAP1 JUMP JUMPDEST PUSH1 0x20 DUP1 DUP3 MSTORE PUSH1 0x10 SWAP1 DUP3 ADD MSTORE PUSH16 0x1154D0D493D5D7D393D517D193D55391 PUSH1 0x82 SHL PUSH1 0x40 DUP3 ADD MSTORE PUSH1 0x60 ADD SWAP1 JUMP JUMPDEST PUSH0 PUSH1 0x20 DUP1 DUP4 MSTORE DUP4 MLOAD DUP1 DUP3 DUP6 ADD MSTORE PUSH0 JUMPDEST DUP2 DUP2 LT ISZERO PUSH2 0x38D2 JUMPI DUP6 DUP2 ADD DUP4 ADD MLOAD DUP6 DUP3 ADD PUSH1 0x40 ADD MSTORE DUP3 ADD PUSH2 0x38B6 JUMP JUMPDEST POP PUSH0 PUSH1 0x40 DUP3 DUP7 ADD ADD MSTORE PUSH1 0x40 PUSH1 0x1F NOT PUSH1 0x1F DUP4 ADD AND DUP6 ADD ADD SWAP3 POP POP POP SWAP3 SWAP2 POP POP JUMP JUMPDEST PUSH4 0x4E487B71 PUSH1 0xE0 SHL PUSH0 MSTORE PUSH1 0x11 PUSH1 0x4 MSTORE PUSH1 0x24 PUSH0 REVERT JUMPDEST DUP1 DUP3 ADD DUP1 DUP3 GT ISZERO PUSH2 0x33AF JUMPI PUSH2 0x33AF PUSH2 0x38F2 JUMP JUMPDEST PUSH1 0x20 DUP1 DUP3 MSTORE PUSH1 0xC SWAP1 DUP3 ADD MSTORE PUSH12 0x105117D393D517D193D55391 PUSH1 0xA2 SHL PUSH1 0x40 DUP3 ADD MSTORE PUSH1 0x60 ADD SWAP1 JUMP JUMPDEST PUSH1 0x20 DUP1 DUP3 MSTORE PUSH1 0xA SWAP1 DUP3 ADD MSTORE PUSH10 0x2D22A927AFAA27A5A2A7 PUSH1 0xB1 SHL PUSH1 0x40 DUP3 ADD MSTORE PUSH1 0x60 ADD SWAP1 JUMP JUMPDEST PUSH2 0xFFFF DUP2 AND DUP2 EQ PUSH2 0x369C JUMPI PUSH0 DUP1 REVERT JUMPDEST PUSH0 PUSH1 0x20 DUP3 DUP5 SUB SLT ISZERO PUSH2 0x3982 JUMPI PUSH0 DUP1 REVERT JUMPDEST DUP2 CALLDATALOAD PUSH2 0x3499 DUP2 PUSH2 0x3963 JUMP JUMPDEST PUSH0 DUP2 CALLDATALOAD PUSH2 0x33AF DUP2 PUSH2 0x3963 JUMP JUMPDEST PUSH4 0xFFFFFFFF DUP2 AND DUP2 EQ PUSH2 0x369C JUMPI PUSH0 DUP1 REVERT JUMPDEST PUSH0 DUP2 CALLDATALOAD PUSH2 0x33AF DUP2 PUSH2 0x3999 JUMP JUMPDEST DUP2 CALLDATALOAD PUSH2 0x39C1 DUP2 PUSH2 0x368F JUMP JUMPDEST DUP2 SLOAD SWAP1 ISZERO ISZERO PUSH1 0xFF AND PUSH1 0xFF NOT SWAP2 SWAP1 SWAP2 AND OR DUP2 SSTORE PUSH2 0x39FA PUSH2 0x39E2 PUSH1 0x20 DUP5 ADD PUSH2 0x398D JUMP JUMPDEST DUP3 SLOAD PUSH3 0xFFFF00 NOT AND PUSH1 0x8 SWAP2 SWAP1 SWAP2 SHL PUSH3 0xFFFF00 AND OR DUP3 SSTORE JUMP JUMPDEST PUSH2 0x3A25 PUSH2 0x3A09 PUSH1 0x40 DUP5 ADD PUSH2 0x398D JUMP JUMPDEST DUP3 SLOAD PUSH5 0xFFFF000000 NOT AND PUSH1 0x18 SWAP2 SWAP1 SWAP2 SHL PUSH5 0xFFFF000000 AND OR DUP3 SSTORE JUMP JUMPDEST PUSH2 0x3A54 PUSH2 0x3A34 PUSH1 0x60 DUP5 ADD PUSH2 0x398D JUMP JUMPDEST DUP3 SLOAD PUSH7 0xFFFF0000000000 NOT AND PUSH1 0x28 SWAP2 SWAP1 SWAP2 SHL PUSH7 0xFFFF0000000000 AND OR DUP3 SSTORE JUMP JUMPDEST PUSH1 0x80 DUP3 ADD CALLDATALOAD PUSH1 0x1 DUP3 ADD SSTORE PUSH1 0x2 DUP2 ADD PUSH2 0x3A84 PUSH2 0x3A71 PUSH1 0xA0 DUP6 ADD PUSH2 0x398D JUMP JUMPDEST DUP3 SLOAD PUSH2 0xFFFF NOT AND PUSH2 0xFFFF SWAP2 SWAP1 SWAP2 AND OR DUP3 SSTORE JUMP JUMPDEST PUSH2 0x3AB1 PUSH2 0x3A93 PUSH1 0xC0 DUP6 ADD PUSH2 0x39AA JUMP JUMPDEST DUP3 SLOAD PUSH6 0xFFFFFFFF0000 NOT AND PUSH1 0x10 SWAP2 SWAP1 SWAP2 SHL PUSH6 0xFFFFFFFF0000 AND OR DUP3 SSTORE JUMP JUMPDEST PUSH2 0x3AE6 PUSH2 0x3AC0 PUSH1 0xE0 DUP6 ADD PUSH2 0x39AA JUMP JUMPDEST DUP3 SLOAD PUSH10 0xFFFFFFFF000000000000 NOT AND PUSH1 0x30 SWAP2 SWAP1 SWAP2 SHL PUSH10 0xFFFFFFFF000000000000 AND OR DUP3 SSTORE JUMP JUMPDEST PUSH2 0x3B1A PUSH2 0x3AF6 PUSH2 0x100 DUP6 ADD PUSH2 0x39AA JUMP JUMPDEST DUP3 DUP1 SLOAD PUSH4 0xFFFFFFFF PUSH1 0x50 SHL NOT AND PUSH1 0x50 SWAP3 SWAP1 SWAP3 SHL PUSH4 0xFFFFFFFF PUSH1 0x50 SHL AND SWAP2 SWAP1 SWAP2 OR SWAP1 SSTORE JUMP JUMPDEST POP POP POP JUMP JUMPDEST PUSH0 PUSH1 0x20 DUP3 DUP5 SUB SLT ISZERO PUSH2 0x3B2F JUMPI PUSH0 DUP1 REVERT JUMPDEST DUP2 CALLDATALOAD PUSH2 0x3499 DUP2 PUSH2 0x368F JUMP JUMPDEST PUSH0 PUSH1 0x20 DUP3 DUP5 SUB SLT ISZERO PUSH2 0x3B4A JUMPI PUSH0 DUP1 REVERT JUMPDEST DUP2 CALLDATALOAD PUSH2 0x3499 DUP2 PUSH2 0x3999 JUMP JUMPDEST PUSH1 0x20 DUP1 DUP3 MSTORE PUSH1 0xB SWAP1 DUP3 ADD MSTORE PUSH11 0x16915493D7D05353D55395 PUSH1 0xAA SHL PUSH1 0x40 DUP3 ADD MSTORE PUSH1 0x60 ADD SWAP1 JUMP JUMPDEST PUSH0 PUSH1 0x1 DUP3 ADD PUSH2 0x3B8B JUMPI PUSH2 0x3B8B PUSH2 0x38F2 JUMP JUMPDEST POP PUSH1 0x1 ADD SWAP1 JUMP JUMPDEST DUP2 DUP2 SUB DUP2 DUP2 GT ISZERO PUSH2 0x33AF JUMPI PUSH2 0x33AF PUSH2 0x38F2 JUMP JUMPDEST PUSH1 0x20 DUP2 ADD PUSH1 0x2 DUP4 LT PUSH2 0x3BB9 JUMPI PUSH2 0x3BB9 PUSH2 0x354F JUMP JUMPDEST SWAP2 SWAP1 MSTORE SWAP1 JUMP JUMPDEST PUSH0 PUSH1 0x20 DUP3 DUP5 SUB SLT ISZERO PUSH2 0x3BCF JUMPI PUSH0 DUP1 REVERT JUMPDEST DUP2 MLOAD PUSH2 0x3499 DUP2 PUSH2 0x368F JUMP JUMPDEST DUP1 DUP3 MUL DUP2 ISZERO DUP3 DUP3 DIV DUP5 EQ OR PUSH2 0x33AF JUMPI PUSH2 0x33AF PUSH2 0x38F2 JUMP JUMPDEST PUSH0 DUP3 PUSH2 0x3C0B JUMPI PUSH4 0x4E487B71 PUSH1 0xE0 SHL PUSH0 MSTORE PUSH1 0x12 PUSH1 0x4 MSTORE PUSH1 0x24 PUSH0 REVERT JUMPDEST POP DIV SWAP1 JUMP INVALID SLT PUSH20 0xB3BC238763D2765ACCFD266760C5513354F6778B ADDMOD 0xE5 SHR SELFDESTRUCT ADD PUSH31 0x354434FA26469706673582212203EE48C2A18BC054827FF2FD7304281B4D2 STATICCALL CALLVALUE 0xEE ADD EQ SHL 0xEC SWAP4 0x2F RETURNDATASIZE 0xA7 SWAP9 DUP8 0x23 0xB2 PUSH5 0x736F6C6343 STOP ADDMOD EQ STOP CALLER "
				},
				"gasEstimates": {
					"creation": {
						"codeDepositCost": "3092400",
						"executionCost": "infinite",
						"totalCost": "infinite"
					},
					"external": {
						"adminAddCredit(address,address,uint256,bytes32)": "infinite",
						"ads(uint256)": "13357",
						"buyerMayDispute(uint256)": "17979",
						"cancelAd(uint256)": "infinite",
						"confirmPayment(uint256)": "infinite",
						"createAd(bool,address,uint256)": "infinite",
						"creditBalance(address,address)": "infinite",
						"editAd(uint256,uint256)": "infinite",
						"escrows(uint256)": "28397",
						"expireBuyerConfirmation(uint256)": "infinite",
						"expireSellerFunding(uint256)": "infinite",
						"fundEscrow(uint256)": "infinite",
						"isAdmin(address)": "2574",
						"isArbitrator(address)": "2573",
						"nextAdId()": "2385",
						"nextEscrowId()": "2362",
						"openDispute(uint256)": "infinite",
						"owner()": "2425",
						"releaseEscrow(uint256)": "infinite",
						"resolveDispute(uint256,uint8)": "infinite",
						"setAdmin(address,bool)": "infinite",
						"setArbitrator(address,bool)": "infinite",
						"setTokenConfig(address,(bool,uint16,uint16,uint16,uint256,uint16,uint32,uint32,uint32))": "infinite",
						"setTreasury(address)": "infinite",
						"takeAd(uint256)": "infinite",
						"tokenConfig(address)": "7252",
						"transferOwnership(address)": "infinite",
						"treasury()": "2447",
						"withdrawCredit(address,uint256)": "infinite"
					},
					"internal": {
						"_adBond(address,uint256)": "infinite",
						"_buyerOfAd(struct TrustfyEscrowV4_2_Amended.Ad memory,address)": "infinite",
						"_cfg(address)": "infinite",
						"_disputeBond(address,uint256)": "infinite",
						"_feeAmount(address,uint256)": "infinite",
						"_makerIsFundingParty(struct TrustfyEscrowV4_2_Amended.Ad memory)": "infinite",
						"_sellerOfAd(struct TrustfyEscrowV4_2_Amended.Ad memory,address)": "infinite"
					}
				},
				"methodIdentifiers": {
					"adminAddCredit(address,address,uint256,bytes32)": "fb90fb4a",
					"ads(uint256)": "11a7a4c0",
					"buyerMayDispute(uint256)": "c3a7a61a",
					"cancelAd(uint256)": "3f11710b",
					"confirmPayment(uint256)": "876ca09f",
					"createAd(bool,address,uint256)": "4d4d4265",
					"creditBalance(address,address)": "3219abe4",
					"editAd(uint256,uint256)": "f4f8b266",
					"escrows(uint256)": "012f52ee",
					"expireBuyerConfirmation(uint256)": "354c5e01",
					"expireSellerFunding(uint256)": "c15e23e1",
					"fundEscrow(uint256)": "c9c31af5",
					"isAdmin(address)": "24d7806c",
					"isArbitrator(address)": "9f6bd2a9",
					"nextAdId()": "1a8bb68d",
					"nextEscrowId()": "89cb29dd",
					"openDispute(uint256)": "27d00fb0",
					"owner()": "8da5cb5b",
					"releaseEscrow(uint256)": "ed653164",
					"resolveDispute(uint256,uint8)": "e55e4211",
					"setAdmin(address,bool)": "4b0bddd2",
					"setArbitrator(address,bool)": "2bc0b076",
					"setTokenConfig(address,(bool,uint16,uint16,uint16,uint256,uint16,uint32,uint32,uint32))": "4c3fc8ad",
					"setTreasury(address)": "f0f44260",
					"takeAd(uint256)": "af4d7c6f",
					"tokenConfig(address)": "fe136c4e",
					"transferOwnership(address)": "f2fde38b",
					"treasury()": "61d027b3",
					"withdrawCredit(address,uint256)": "502b7469"
				}
			},
			"storageLayout": {
				"storage": [
					{
						"astId": 96,
						"contract": "TRUSTFY v4.3 — Contract.sol:TrustfyEscrowV4_2_Amended",
						"label": "owner",
						"offset": 0,
						"slot": "0",
						"type": "t_address"
					},
					{
						"astId": 100,
						"contract": "TRUSTFY v4.3 — Contract.sol:TrustfyEscrowV4_2_Amended",
						"label": "isAdmin",
						"offset": 0,
						"slot": "1",
						"type": "t_mapping(t_address,t_bool)"
					},
					{
						"astId": 104,
						"contract": "TRUSTFY v4.3 — Contract.sol:TrustfyEscrowV4_2_Amended",
						"label": "isArbitrator",
						"offset": 0,
						"slot": "2",
						"type": "t_mapping(t_address,t_bool)"
					},
					{
						"astId": 106,
						"contract": "TRUSTFY v4.3 — Contract.sol:TrustfyEscrowV4_2_Amended",
						"label": "treasury",
						"offset": 0,
						"slot": "3",
						"type": "t_address"
					},
					{
						"astId": 130,
						"contract": "TRUSTFY v4.3 — Contract.sol:TrustfyEscrowV4_2_Amended",
						"label": "tokenConfig",
						"offset": 0,
						"slot": "4",
						"type": "t_mapping(t_address,t_struct(TokenConfig)125_storage)"
					},
					{
						"astId": 136,
						"contract": "TRUSTFY v4.3 — Contract.sol:TrustfyEscrowV4_2_Amended",
						"label": "creditBalance",
						"offset": 0,
						"slot": "5",
						"type": "t_mapping(t_address,t_mapping(t_address,t_uint256))"
					},
					{
						"astId": 201,
						"contract": "TRUSTFY v4.3 — Contract.sol:TrustfyEscrowV4_2_Amended",
						"label": "nextAdId",
						"offset": 0,
						"slot": "6",
						"type": "t_uint256"
					},
					{
						"astId": 204,
						"contract": "TRUSTFY v4.3 — Contract.sol:TrustfyEscrowV4_2_Amended",
						"label": "nextEscrowId",
						"offset": 0,
						"slot": "7",
						"type": "t_uint256"
					},
					{
						"astId": 209,
						"contract": "TRUSTFY v4.3 — Contract.sol:TrustfyEscrowV4_2_Amended",
						"label": "ads",
						"offset": 0,
						"slot": "8",
						"type": "t_mapping(t_uint256,t_struct(Ad)168_storage)"
					},
					{
						"astId": 214,
						"contract": "TRUSTFY v4.3 — Contract.sol:TrustfyEscrowV4_2_Amended",
						"label": "escrows",
						"offset": 0,
						"slot": "9",
						"type": "t_mapping(t_uint256,t_struct(Escrow)198_storage)"
					}
				],
				"types": {
					"t_address": {
						"encoding": "inplace",
						"label": "address",
						"numberOfBytes": "20"
					},
					"t_bool": {
						"encoding": "inplace",
						"label": "bool",
						"numberOfBytes": "1"
					},
					"t_enum(AdState)141": {
						"encoding": "inplace",
						"label": "enum TrustfyEscrowV4_2_Amended.AdState",
						"numberOfBytes": "1"
					},
					"t_enum(EscrowStatus)149": {
						"encoding": "inplace",
						"label": "enum TrustfyEscrowV4_2_Amended.EscrowStatus",
						"numberOfBytes": "1"
					},
					"t_mapping(t_address,t_bool)": {
						"encoding": "mapping",
						"key": "t_address",
						"label": "mapping(address => bool)",
						"numberOfBytes": "32",
						"value": "t_bool"
					},
					"t_mapping(t_address,t_mapping(t_address,t_uint256))": {
						"encoding": "mapping",
						"key": "t_address",
						"label": "mapping(address => mapping(address => uint256))",
						"numberOfBytes": "32",
						"value": "t_mapping(t_address,t_uint256)"
					},
					"t_mapping(t_address,t_struct(TokenConfig)125_storage)": {
						"encoding": "mapping",
						"key": "t_address",
						"label": "mapping(address => struct TrustfyEscrowV4_2_Amended.TokenConfig)",
						"numberOfBytes": "32",
						"value": "t_struct(TokenConfig)125_storage"
					},
					"t_mapping(t_address,t_uint256)": {
						"encoding": "mapping",
						"key": "t_address",
						"label": "mapping(address => uint256)",
						"numberOfBytes": "32",
						"value": "t_uint256"
					},
					"t_mapping(t_uint256,t_struct(Ad)168_storage)": {
						"encoding": "mapping",
						"key": "t_uint256",
						"label": "mapping(uint256 => struct TrustfyEscrowV4_2_Amended.Ad)",
						"numberOfBytes": "32",
						"value": "t_struct(Ad)168_storage"
					},
					"t_mapping(t_uint256,t_struct(Escrow)198_storage)": {
						"encoding": "mapping",
						"key": "t_uint256",
						"label": "mapping(uint256 => struct TrustfyEscrowV4_2_Amended.Escrow)",
						"numberOfBytes": "32",
						"value": "t_struct(Escrow)198_storage"
					},
					"t_struct(Ad)168_storage": {
						"encoding": "inplace",
						"label": "struct TrustfyEscrowV4_2_Amended.Ad",
						"members": [
							{
								"astId": 154,
								"contract": "TRUSTFY v4.3 — Contract.sol:TrustfyEscrowV4_2_Amended",
								"label": "maker",
								"offset": 0,
								"slot": "0",
								"type": "t_address"
							},
							{
								"astId": 156,
								"contract": "TRUSTFY v4.3 — Contract.sol:TrustfyEscrowV4_2_Amended",
								"label": "isSellAd",
								"offset": 20,
								"slot": "0",
								"type": "t_bool"
							},
							{
								"astId": 158,
								"contract": "TRUSTFY v4.3 — Contract.sol:TrustfyEscrowV4_2_Amended",
								"label": "token",
								"offset": 0,
								"slot": "1",
								"type": "t_address"
							},
							{
								"astId": 160,
								"contract": "TRUSTFY v4.3 — Contract.sol:TrustfyEscrowV4_2_Amended",
								"label": "amount",
								"offset": 0,
								"slot": "2",
								"type": "t_uint256"
							},
							{
								"astId": 162,
								"contract": "TRUSTFY v4.3 — Contract.sol:TrustfyEscrowV4_2_Amended",
								"label": "adBond",
								"offset": 0,
								"slot": "3",
								"type": "t_uint256"
							},
							{
								"astId": 165,
								"contract": "TRUSTFY v4.3 — Contract.sol:TrustfyEscrowV4_2_Amended",
								"label": "state",
								"offset": 0,
								"slot": "4",
								"type": "t_enum(AdState)141"
							},
							{
								"astId": 167,
								"contract": "TRUSTFY v4.3 — Contract.sol:TrustfyEscrowV4_2_Amended",
								"label": "activeEscrowId",
								"offset": 0,
								"slot": "5",
								"type": "t_uint256"
							}
						],
						"numberOfBytes": "192"
					},
					"t_struct(Escrow)198_storage": {
						"encoding": "inplace",
						"label": "struct TrustfyEscrowV4_2_Amended.Escrow",
						"members": [
							{
								"astId": 170,
								"contract": "TRUSTFY v4.3 — Contract.sol:TrustfyEscrowV4_2_Amended",
								"label": "adId",
								"offset": 0,
								"slot": "0",
								"type": "t_uint256"
							},
							{
								"astId": 172,
								"contract": "TRUSTFY v4.3 — Contract.sol:TrustfyEscrowV4_2_Amended",
								"label": "buyer",
								"offset": 0,
								"slot": "1",
								"type": "t_address"
							},
							{
								"astId": 174,
								"contract": "TRUSTFY v4.3 — Contract.sol:TrustfyEscrowV4_2_Amended",
								"label": "seller",
								"offset": 0,
								"slot": "2",
								"type": "t_address"
							},
							{
								"astId": 176,
								"contract": "TRUSTFY v4.3 — Contract.sol:TrustfyEscrowV4_2_Amended",
								"label": "token",
								"offset": 0,
								"slot": "3",
								"type": "t_address"
							},
							{
								"astId": 178,
								"contract": "TRUSTFY v4.3 — Contract.sol:TrustfyEscrowV4_2_Amended",
								"label": "amount",
								"offset": 0,
								"slot": "4",
								"type": "t_uint256"
							},
							{
								"astId": 180,
								"contract": "TRUSTFY v4.3 — Contract.sol:TrustfyEscrowV4_2_Amended",
								"label": "feeAmount",
								"offset": 0,
								"slot": "5",
								"type": "t_uint256"
							},
							{
								"astId": 182,
								"contract": "TRUSTFY v4.3 — Contract.sol:TrustfyEscrowV4_2_Amended",
								"label": "buyerDisputeBond",
								"offset": 0,
								"slot": "6",
								"type": "t_uint256"
							},
							{
								"astId": 184,
								"contract": "TRUSTFY v4.3 — Contract.sol:TrustfyEscrowV4_2_Amended",
								"label": "sellerDisputeBond",
								"offset": 0,
								"slot": "7",
								"type": "t_uint256"
							},
							{
								"astId": 187,
								"contract": "TRUSTFY v4.3 — Contract.sol:TrustfyEscrowV4_2_Amended",
								"label": "status",
								"offset": 0,
								"slot": "8",
								"type": "t_enum(EscrowStatus)149"
							},
							{
								"astId": 189,
								"contract": "TRUSTFY v4.3 — Contract.sol:TrustfyEscrowV4_2_Amended",
								"label": "takenAt",
								"offset": 0,
								"slot": "9",
								"type": "t_uint256"
							},
							{
								"astId": 191,
								"contract": "TRUSTFY v4.3 — Contract.sol:TrustfyEscrowV4_2_Amended",
								"label": "fundedAt",
								"offset": 0,
								"slot": "10",
								"type": "t_uint256"
							},
							{
								"astId": 193,
								"contract": "TRUSTFY v4.3 — Contract.sol:TrustfyEscrowV4_2_Amended",
								"label": "paymentConfirmedAt",
								"offset": 0,
								"slot": "11",
								"type": "t_uint256"
							},
							{
								"astId": 195,
								"contract": "TRUSTFY v4.3 — Contract.sol:TrustfyEscrowV4_2_Amended",
								"label": "disputeOpened",
								"offset": 0,
								"slot": "12",
								"type": "t_bool"
							},
							{
								"astId": 197,
								"contract": "TRUSTFY v4.3 — Contract.sol:TrustfyEscrowV4_2_Amended",
								"label": "disputeResolved",
								"offset": 1,
								"slot": "12",
								"type": "t_bool"
							}
						],
						"numberOfBytes": "416"
					},
					"t_struct(TokenConfig)125_storage": {
						"encoding": "inplace",
						"label": "struct TrustfyEscrowV4_2_Amended.TokenConfig",
						"members": [
							{
								"astId": 108,
								"contract": "TRUSTFY v4.3 — Contract.sol:TrustfyEscrowV4_2_Amended",
								"label": "enabled",
								"offset": 0,
								"slot": "0",
								"type": "t_bool"
							},
							{
								"astId": 110,
								"contract": "TRUSTFY v4.3 — Contract.sol:TrustfyEscrowV4_2_Amended",
								"label": "makerFeeBps",
								"offset": 1,
								"slot": "0",
								"type": "t_uint16"
							},
							{
								"astId": 112,
								"contract": "TRUSTFY v4.3 — Contract.sol:TrustfyEscrowV4_2_Amended",
								"label": "takerFeeBps",
								"offset": 3,
								"slot": "0",
								"type": "t_uint16"
							},
							{
								"astId": 114,
								"contract": "TRUSTFY v4.3 — Contract.sol:TrustfyEscrowV4_2_Amended",
								"label": "disputeBondBps",
								"offset": 5,
								"slot": "0",
								"type": "t_uint16"
							},
							{
								"astId": 116,
								"contract": "TRUSTFY v4.3 — Contract.sol:TrustfyEscrowV4_2_Amended",
								"label": "adBondFixed",
								"offset": 0,
								"slot": "1",
								"type": "t_uint256"
							},
							{
								"astId": 118,
								"contract": "TRUSTFY v4.3 — Contract.sol:TrustfyEscrowV4_2_Amended",
								"label": "adBondBps",
								"offset": 0,
								"slot": "2",
								"type": "t_uint16"
							},
							{
								"astId": 120,
								"contract": "TRUSTFY v4.3 — Contract.sol:TrustfyEscrowV4_2_Amended",
								"label": "sellerFundWindow",
								"offset": 2,
								"slot": "2",
								"type": "t_uint32"
							},
							{
								"astId": 122,
								"contract": "TRUSTFY v4.3 — Contract.sol:TrustfyEscrowV4_2_Amended",
								"label": "buyerConfirmWindow",
								"offset": 6,
								"slot": "2",
								"type": "t_uint32"
							},
							{
								"astId": 124,
								"contract": "TRUSTFY v4.3 — Contract.sol:TrustfyEscrowV4_2_Amended",
								"label": "sellerReleaseWindow",
								"offset": 10,
								"slot": "2",
								"type": "t_uint32"
							}
						],
						"numberOfBytes": "96"
					},
					"t_uint16": {
						"encoding": "inplace",
						"label": "uint16",
						"numberOfBytes": "2"
					},
					"t_uint256": {
						"encoding": "inplace",
						"label": "uint256",
						"numberOfBytes": "32"
					},
					"t_uint32": {
						"encoding": "inplace",
						"label": "uint32",
						"numberOfBytes": "4"
					}
				}
			},
			"userdoc": {
				"kind": "user",
				"methods": {},
				"version": 1
			}
		}
	}
}